{
  "contractName": "CoinChallenges",
  "abi": [
    {
      "constant": true,
      "inputs": [],
      "name": "MinDays",
      "outputs": [
        {
          "name": "",
          "type": "uint8"
        }
      ],
      "payable": false,
      "stateMutability": "view",
      "type": "function"
    },
    {
      "constant": true,
      "inputs": [],
      "name": "MaxDays",
      "outputs": [
        {
          "name": "",
          "type": "uint8"
        }
      ],
      "payable": false,
      "stateMutability": "view",
      "type": "function"
    },
    {
      "constant": false,
      "inputs": [],
      "name": "renounceOwnership",
      "outputs": [],
      "payable": false,
      "stateMutability": "nonpayable",
      "type": "function"
    },
    {
      "constant": true,
      "inputs": [],
      "name": "succeededChallengesStartIndex",
      "outputs": [
        {
          "name": "",
          "type": "uint256"
        }
      ],
      "payable": false,
      "stateMutability": "view",
      "type": "function"
    },
    {
      "constant": true,
      "inputs": [],
      "name": "owner",
      "outputs": [
        {
          "name": "",
          "type": "address"
        }
      ],
      "payable": false,
      "stateMutability": "view",
      "type": "function"
    },
    {
      "constant": true,
      "inputs": [],
      "name": "isOwner",
      "outputs": [
        {
          "name": "",
          "type": "bool"
        }
      ],
      "payable": false,
      "stateMutability": "view",
      "type": "function"
    },
    {
      "constant": true,
      "inputs": [],
      "name": "ownerBalance",
      "outputs": [
        {
          "name": "",
          "type": "uint256"
        }
      ],
      "payable": false,
      "stateMutability": "view",
      "type": "function"
    },
    {
      "constant": false,
      "inputs": [
        {
          "name": "newOwner",
          "type": "address"
        }
      ],
      "name": "transferOwnership",
      "outputs": [],
      "payable": false,
      "stateMutability": "nonpayable",
      "type": "function"
    },
    {
      "inputs": [],
      "payable": false,
      "stateMutability": "nonpayable",
      "type": "constructor"
    },
    {
      "anonymous": false,
      "inputs": [
        {
          "indexed": true,
          "name": "proposer",
          "type": "address"
        },
        {
          "indexed": false,
          "name": "id",
          "type": "string"
        }
      ],
      "name": "NewChallengeGroup",
      "type": "event"
    },
    {
      "anonymous": false,
      "inputs": [
        {
          "indexed": true,
          "name": "proposer",
          "type": "address"
        },
        {
          "indexed": false,
          "name": "groupId",
          "type": "string"
        },
        {
          "indexed": false,
          "name": "targetDays",
          "type": "uint8"
        },
        {
          "indexed": false,
          "name": "totalDays",
          "type": "uint8"
        },
        {
          "indexed": false,
          "name": "startDayTimestamp",
          "type": "uint256"
        },
        {
          "indexed": false,
          "name": "amount",
          "type": "uint256"
        }
      ],
      "name": "NewChallenge",
      "type": "event"
    },
    {
      "anonymous": false,
      "inputs": [
        {
          "indexed": true,
          "name": "who",
          "type": "address"
        },
        {
          "indexed": true,
          "name": "status",
          "type": "uint8"
        },
        {
          "indexed": false,
          "name": "targetDays",
          "type": "uint8"
        },
        {
          "indexed": false,
          "name": "totalDays",
          "type": "uint8"
        },
        {
          "indexed": false,
          "name": "completeDays",
          "type": "uint8"
        },
        {
          "indexed": false,
          "name": "amount",
          "type": "uint256"
        }
      ],
      "name": "FinishChallenge",
      "type": "event"
    },
    {
      "anonymous": false,
      "inputs": [
        {
          "indexed": true,
          "name": "who",
          "type": "address"
        },
        {
          "indexed": true,
          "name": "challenger",
          "type": "address"
        },
        {
          "indexed": false,
          "name": "groupId",
          "type": "string"
        },
        {
          "indexed": false,
          "name": "amount",
          "type": "uint256"
        }
      ],
      "name": "ProfitSharing",
      "type": "event"
    },
    {
      "anonymous": false,
      "inputs": [
        {
          "indexed": true,
          "name": "previousOwner",
          "type": "address"
        },
        {
          "indexed": true,
          "name": "newOwner",
          "type": "address"
        }
      ],
      "name": "OwnershipTransferred",
      "type": "event"
    },
    {
      "constant": false,
      "inputs": [
        {
          "name": "_id",
          "type": "string"
        },
        {
          "name": "_name",
          "type": "string"
        },
        {
          "name": "_url",
          "type": "string"
        },
        {
          "name": "_minDays",
          "type": "uint8"
        },
        {
          "name": "_maxDays",
          "type": "uint8"
        },
        {
          "name": "_maxDelayDays",
          "type": "uint8"
        },
        {
          "name": "_minAmount",
          "type": "uint256"
        },
        {
          "name": "_agent",
          "type": "address"
        }
      ],
      "name": "createChallengeGroup",
      "outputs": [],
      "payable": false,
      "stateMutability": "nonpayable",
      "type": "function"
    },
    {
      "constant": true,
      "inputs": [
        {
          "name": "_id",
          "type": "string"
        }
      ],
      "name": "getChallengeGroup",
      "outputs": [
        {
          "name": "_name",
          "type": "string"
        },
        {
          "name": "_url",
          "type": "string"
        },
        {
          "name": "_minDays",
          "type": "uint8"
        },
        {
          "name": "_maxDays",
          "type": "uint8"
        },
        {
          "name": "_maxDelayDays",
          "type": "uint8"
        },
        {
          "name": "_minAmount",
          "type": "uint256"
        },
        {
          "name": "_balance",
          "type": "uint256"
        },
        {
          "name": "_owner",
          "type": "address"
        },
        {
          "name": "_agent",
          "type": "address"
        }
      ],
      "payable": false,
      "stateMutability": "view",
      "type": "function"
    },
    {
      "constant": false,
      "inputs": [
        {
          "name": "_id",
          "type": "string"
        },
        {
          "name": "_name",
          "type": "string"
        },
        {
          "name": "_url",
          "type": "string"
        }
      ],
      "name": "modifyChallengeGroup",
      "outputs": [],
      "payable": false,
      "stateMutability": "nonpayable",
      "type": "function"
    },
    {
      "constant": false,
      "inputs": [
        {
          "name": "_groupId",
          "type": "string"
        },
        {
          "name": "_targetDays",
          "type": "uint8"
        },
        {
          "name": "_totalDays",
          "type": "uint8"
        },
        {
          "name": "_startTimestamp",
          "type": "uint256"
        }
      ],
      "name": "createChallenge",
      "outputs": [],
      "payable": true,
      "stateMutability": "payable",
      "type": "function"
    },
    {
      "constant": true,
      "inputs": [
        {
          "name": "_groupId",
          "type": "string"
        },
        {
          "name": "_address",
          "type": "address"
        }
      ],
      "name": "getChallenge",
      "outputs": [
        {
          "name": "_targetDays",
          "type": "uint8"
        },
        {
          "name": "_totalDays",
          "type": "uint8"
        },
        {
          "name": "_completeDays",
          "type": "uint8"
        },
        {
          "name": "_startDayTimestamp",
          "type": "uint256"
        },
        {
          "name": "_amount",
          "type": "uint256"
        },
        {
          "name": "_sponsorSize",
          "type": "uint256"
        }
      ],
      "payable": false,
      "stateMutability": "view",
      "type": "function"
    },
    {
      "constant": true,
      "inputs": [
        {
          "name": "_groupId",
          "type": "string"
        },
        {
          "name": "_address",
          "type": "address"
        },
        {
          "name": "_index",
          "type": "uint256"
        }
      ],
      "name": "getSponsor",
      "outputs": [
        {
          "name": "_who",
          "type": "address"
        },
        {
          "name": "_amount",
          "type": "uint256"
        },
        {
          "name": "_comment",
          "type": "string"
        }
      ],
      "payable": false,
      "stateMutability": "view",
      "type": "function"
    },
    {
      "constant": false,
      "inputs": [
        {
          "name": "_groupId",
          "type": "string"
        },
        {
          "name": "_who",
          "type": "address"
        },
        {
          "name": "timestamps",
          "type": "uint256[]"
        }
      ],
      "name": "completeDailyChallenges",
      "outputs": [],
      "payable": false,
      "stateMutability": "nonpayable",
      "type": "function"
    },
    {
      "constant": false,
      "inputs": [
        {
          "name": "_groupId",
          "type": "string"
        },
        {
          "name": "_who",
          "type": "address"
        }
      ],
      "name": "finishChallenge",
      "outputs": [],
      "payable": false,
      "stateMutability": "nonpayable",
      "type": "function"
    },
    {
      "constant": false,
      "inputs": [
        {
          "name": "_groupId",
          "type": "string"
        }
      ],
      "name": "abortChallenge",
      "outputs": [],
      "payable": false,
      "stateMutability": "nonpayable",
      "type": "function"
    },
    {
      "constant": false,
      "inputs": [
        {
          "name": "_groupId",
          "type": "string"
        },
        {
          "name": "_who",
          "type": "address"
        },
        {
          "name": "comment",
          "type": "string"
        }
      ],
      "name": "sponsorChallenge",
      "outputs": [],
      "payable": true,
      "stateMutability": "payable",
      "type": "function"
    },
    {
      "constant": false,
      "inputs": [],
      "name": "ownerWithdraw",
      "outputs": [],
      "payable": false,
      "stateMutability": "nonpayable",
      "type": "function"
    },
    {
      "constant": false,
      "inputs": [
        {
          "name": "_groupId",
          "type": "string"
        }
      ],
      "name": "groupWithdraw",
      "outputs": [],
      "payable": false,
      "stateMutability": "nonpayable",
      "type": "function"
    },
    {
      "constant": false,
      "inputs": [],
      "name": "userWithdraw",
      "outputs": [],
      "payable": false,
      "stateMutability": "nonpayable",
      "type": "function"
    }
  ],
  "bytecode": "0x608060405234801561001057600080fd5b50336000806101000a81548173ffffffffffffffffffffffffffffffffffffffff021916908373ffffffffffffffffffffffffffffffffffffffff1602179055506000809054906101000a900473ffffffffffffffffffffffffffffffffffffffff1673ffffffffffffffffffffffffffffffffffffffff16600073ffffffffffffffffffffffffffffffffffffffff167f8be0079c531659141344cd1fd0a4f28419497f9722a3daafe3b4186f6b6457e060405160405180910390a3614717806100dc6000396000f30060806040526004361061011d576000357c0100000000000000000000000000000000000000000000000000000000900463ffffffff168063010a32741461012257806321dbb19f146101e45780632224b4bc146102b6578063273f676c1461049f5780632fb6ad34146105e55780634311de8f146106165780634bccbf361461062d578063500a6b7a1461065e5780635b740689146106e75780635bca321214610750578063606b96b2146107d0578063715018a6146109165780637ad915c41461092d57806385eae763146109585780638da5cb5b14610a245780638f32d59b14610a7b578063a646f9ad14610aaa578063bedcf00314610ac1578063c317cdf514610aec578063db115bab14610be1578063f2fde38b14610c4a575b600080fd5b6101e2600480360381019080803590602001908201803590602001908080601f0160208091040260200160405190810160405280939291908181526020018383808284378201915050505050509192919290803573ffffffffffffffffffffffffffffffffffffffff169060200190929190803590602001908201803590602001908080601f0160208091040260200160405190810160405280939291908181526020018383808284378201915050505050509192919290505050610c8d565b005b3480156101f057600080fd5b5061026b600480360381019080803590602001908201803590602001908080601f0160208091040260200160405190810160405280939291908181526020018383808284378201915050505050509192919290803573ffffffffffffffffffffffffffffffffffffffff169060200190929190505050610e1b565b604051808760ff1660ff1681526020018660ff1660ff1681526020018560ff1660ff168152602001848152602001838152602001828152602001965050505050505060405180910390f35b3480156102c257600080fd5b5061031d600480360381019080803590602001908201803590602001908080601f0160208091040260200160405190810160405280939291908181526020018383808284378201915050505050509192919290505050611085565b6040518080602001806020018a60ff1660ff1681526020018960ff1660ff1681526020018860ff1660ff1681526020018781526020018681526020018573ffffffffffffffffffffffffffffffffffffffff1673ffffffffffffffffffffffffffffffffffffffff1681526020018473ffffffffffffffffffffffffffffffffffffffff1673ffffffffffffffffffffffffffffffffffffffff16815260200183810383528c818151815260200191508051906020019080838360005b838110156103f55780820151818401526020810190506103da565b50505050905090810190601f1680156104225780820380516001836020036101000a031916815260200191505b5083810382528b818151815260200191508051906020019080838360005b8381101561045b578082015181840152602081019050610440565b50505050905090810190601f1680156104885780820380516001836020036101000a031916815260200191505b509b50505050505050505050505060405180910390f35b3480156104ab57600080fd5b50610530600480360381019080803590602001908201803590602001908080601f0160208091040260200160405190810160405280939291908181526020018383808284378201915050505050509192919290803573ffffffffffffffffffffffffffffffffffffffff169060200190929190803590602001909291905050506110f5565b604051808473ffffffffffffffffffffffffffffffffffffffff1673ffffffffffffffffffffffffffffffffffffffff16815260200183815260200180602001828103825283818151815260200191508051906020019080838360005b838110156105a857808201518184015260208101905061058d565b50505050905090810190601f1680156105d55780820380516001836020036101000a031916815260200191505b5094505050505060405180910390f35b3480156105f157600080fd5b506105fa6112f0565b604051808260ff1660ff16815260200191505060405180910390f35b34801561062257600080fd5b5061062b6112f5565b005b34801561063957600080fd5b5061064261135b565b604051808260ff1660ff16815260200191505060405180910390f35b34801561066a57600080fd5b506106e5600480360381019080803590602001908201803590602001908080601f0160208091040260200160405190810160405280939291908181526020018383808284378201915050505050509192919290803573ffffffffffffffffffffffffffffffffffffffff169060200190929190505050611360565b005b3480156106f357600080fd5b5061074e600480360381019080803590602001908201803590602001908080601f01602080910402602001604051908101604052809392919081815260200183838082843782019150505050505091929192905050506119ec565b005b6107ce600480360381019080803590602001908201803590602001908080601f0160208091040260200160405190810160405280939291908181526020018383808284378201915050505050509192919290803560ff169060200190929190803560ff16906020019092919080359060200190929190505050611b7b565b005b3480156107dc57600080fd5b50610914600480360381019080803590602001908201803590602001908080601f0160208091040260200160405190810160405280939291908181526020018383808284378201915050505050509192919290803590602001908201803590602001908080601f0160208091040260200160405190810160405280939291908181526020018383808284378201915050505050509192919290803590602001908201803590602001908080601f0160208091040260200160405190810160405280939291908181526020018383808284378201915050505050509192919290803560ff169060200190929190803560ff169060200190929190803560ff16906020019092919080359060200190929190803573ffffffffffffffffffffffffffffffffffffffff1690602001909291905050506122ff565b005b34801561092257600080fd5b5061092b61289e565b005b34801561093957600080fd5b50610942612970565b6040518082815260200191505060405180910390f35b34801561096457600080fd5b50610a22600480360381019080803590602001908201803590602001908080601f0160208091040260200160405190810160405280939291908181526020018383808284378201915050505050509192919290803573ffffffffffffffffffffffffffffffffffffffff16906020019092919080359060200190820180359060200190808060200260200160405190810160405280939291908181526020018383602002808284378201915050505050509192919290505050612976565b005b348015610a3057600080fd5b50610a39612e3e565b604051808273ffffffffffffffffffffffffffffffffffffffff1673ffffffffffffffffffffffffffffffffffffffff16815260200191505060405180910390f35b348015610a8757600080fd5b50610a90612e67565b604051808215151515815260200191505060405180910390f35b348015610ab657600080fd5b50610abf612ebe565b005b348015610acd57600080fd5b50610ad6613042565b6040518082815260200191505060405180910390f35b348015610af857600080fd5b50610bdf600480360381019080803590602001908201803590602001908080601f0160208091040260200160405190810160405280939291908181526020018383808284378201915050505050509192919290803590602001908201803590602001908080601f0160208091040260200160405190810160405280939291908181526020018383808284378201915050505050509192919290803590602001908201803590602001908080601f0160208091040260200160405190810160405280939291908181526020018383808284378201915050505050509192919290505050613048565b005b348015610bed57600080fd5b50610c48600480360381019080803590602001908201803590602001908080601f01602080910402602001604051908101604052809392919081815260200183838082843782019150505050505091929192905050506131b6565b005b348015610c5657600080fd5b50610c8b600480360381019080803573ffffffffffffffffffffffffffffffffffffffff1690602001909291905050506133c6565b005b6000610c98846133e5565b60c001513410151515610d39576040517f08c379a000000000000000000000000000000000000000000000000000000000815260040180806020018281038252602f8152602001807f73706f6e736f722076616c7565206d7573742067726561746572207468616e2081526020017f67726f75702e6d696e416d6f756e74000000000000000000000000000000000081525060400191505060405180910390fd5b610d4384846137f4565b90506060604051908101604052803373ffffffffffffffffffffffffffffffffffffffff168152602001348152602001838152508160060160008360050154815260200190815260200160002060008201518160000160006101000a81548173ffffffffffffffffffffffffffffffffffffffff021916908373ffffffffffffffffffffffffffffffffffffffff160217905550602082015181600101556040820151816002019080519060200190610dfd9291906143d1565b50905050806005016000815480929190600101919050555050505050565b600080600080600080610e2c614451565b6005896040518082805190602001908083835b602083101515610e645780518252602082019150602081019050602083039250610e3f565b6001836020036101000a038019825116818451168082178552505050505050905001915050908152602001604051809103902060008973ffffffffffffffffffffffffffffffffffffffff1673ffffffffffffffffffffffffffffffffffffffff16815260200190815260200160002061010060405190810160405290816000820160009054906101000a900473ffffffffffffffffffffffffffffffffffffffff1673ffffffffffffffffffffffffffffffffffffffff1673ffffffffffffffffffffffffffffffffffffffff168152602001600182018054600181600116156101000203166002900480601f016020809104026020016040519081016040528092919081815260200182805460018160011615610100020316600290048015610fd05780601f10610fa557610100808354040283529160200191610fd0565b820191906000526020600020905b815481529060010190602001808311610fb357829003601f168201915b505050505081526020016002820160009054906101000a900460ff1660ff1660ff1681526020016002820160019054906101000a900460ff1660ff1660ff1681526020016002820160029054906101000a900460ff1660ff1660ff168152602001600382015481526020016004820154815260200160058201548152505090508060400151965080606001519550806080015194508060a0015193508060c0015192508060e001519150509295509295509295565b606080600080600080600080600061109b6144b6565b6110a48b6133e5565b9050806020015199508060400151985080606001519750806080015196508060a0015195508060c0015194508060e00151935080610100015192508061012001519150509193959799909294969850565b600080606061110261453f565b6005876040518082805190602001908083835b60208310151561113a5780518252602082019150602081019050602083039250611115565b6001836020036101000a038019825116818451168082178552505050505050905001915050908152602001604051809103902060008773ffffffffffffffffffffffffffffffffffffffff1673ffffffffffffffffffffffffffffffffffffffff1681526020019081526020016000206006016000868152602001908152602001600020606060405190810160405290816000820160009054906101000a900473ffffffffffffffffffffffffffffffffffffffff1673ffffffffffffffffffffffffffffffffffffffff1673ffffffffffffffffffffffffffffffffffffffff16815260200160018201548152602001600282018054600181600116156101000203166002900480601f0160208091040260200160405190810160405280929190818152602001828054600181600116156101000203166002900480156112c35780601f10611298576101008083540402835291602001916112c3565b820191906000526020600020905b8154815290600101906020018083116112a657829003601f168201915b50505050508152505090508060000151816020015182604001518090509350935093505093509350939050565b600c81565b6112fd612e67565b151561130857600080fd5b3373ffffffffffffffffffffffffffffffffffffffff166108fc6001549081150290604051600060405180830381858888f19350505050158015611350573d6000803e3d6000fd5b506000600181905550565b605a81565b60008060008060006113706144b6565b61137a88886137f4565b955061138542613937565b94506113b28660020160019054906101000a900460ff1660ff16876003015461394f90919063ffffffff16565b851015151561144f576040517f08c379a00000000000000000000000000000000000000000000000000000000081526004018080602001828103825260248152602001807f6d7573742067726561746572207468616e206368616c6c656e6765277320456e81526020017f644461790000000000000000000000000000000000000000000000000000000081525060400191505060405180910390fd5b8560020160009054906101000a900460ff1660ff168660020160029054906101000a900460ff1660ff161015156116f3576000935085600401549250600091505b85600501548210156114d6576114c7866006016000848152602001908152602001600020600101548461394f90919063ffffffff16565b92508180600101925050611490565b8673ffffffffffffffffffffffffffffffffffffffff166108fc849081150290604051600060405180830381858888f1935050505015801561151c573d6000803e3d6000fd5b506003886040518082805190602001908083835b6020831015156115555780518252602082019150602081019050602083039250611530565b6001836020036101000a038019825116818451168082178552505050505050905001915050908152602001604051809103902086908060018154018082558091505090600182039060005260206000209060080201600090919290919091506000820160009054906101000a900473ffffffffffffffffffffffffffffffffffffffff168160000160006101000a81548173ffffffffffffffffffffffffffffffffffffffff021916908373ffffffffffffffffffffffffffffffffffffffff16021790555060018201816001019080546001816001161561010002031660029004611642929190614577565b506002820160009054906101000a900460ff168160020160006101000a81548160ff021916908360ff1602179055506002820160019054906101000a900460ff168160020160016101000a81548160ff021916908360ff1602179055506002820160029054906101000a900460ff168160020160026101000a81548160ff021916908360ff1602179055506003820154816003015560048201548160040155600582015481600501555050506117ee565b6116fc886133e5565b90506117428160a0015160ff166117348860020160019054906101000a900460ff1660ff16896003015461394f90919063ffffffff16565b61394f90919063ffffffff16565b85101515156117df576040517f08c379a000000000000000000000000000000000000000000000000000000000815260040180806020018281038252603b8152602001807f6d7573742067726561746572207468616e206368616c6c656e6765277320456e81526020017f64446179202b2067726f75702773206d617844656c617944617973000000000081525060400191505060405180910390fd5b600193506117ed8787613970565b5b8360028111156117fa57fe5b60ff168773ffffffffffffffffffffffffffffffffffffffff167f42ff0bddbbde7331d331e411595e2798992c867bb45228a7bb996529825be66f8860020160009054906101000a900460ff168960020160019054906101000a900460ff168a60020160029054906101000a900460ff168b60040154604051808560ff1660ff1681526020018460ff1660ff1681526020018360ff1660ff16815260200182815260200194505050505060405180910390a36005886040518082805190602001908083835b6020831015156118e457805182526020820191506020810190506020830392506118bf565b6001836020036101000a038019825116818451168082178552505050505050905001915050908152602001604051809103902060008873ffffffffffffffffffffffffffffffffffffffff1673ffffffffffffffffffffffffffffffffffffffff168152602001908152602001600020600080820160006101000a81549073ffffffffffffffffffffffffffffffffffffffff021916905560018201600061198c91906145fe565b6002820160006101000a81549060ff02191690556002820160016101000a81549060ff02191690556002820160026101000a81549060ff021916905560038201600090556004820160009055600582016000905550505050505050505050565b60006002826040518082805190602001908083835b602083101515611a265780518252602082019150602081019050602083039250611a01565b6001836020036101000a038019825116818451168082178552505050505050905001915050908152602001604051809103902090508060060160009054906101000a900473ffffffffffffffffffffffffffffffffffffffff1673ffffffffffffffffffffffffffffffffffffffff163373ffffffffffffffffffffffffffffffffffffffff16141515611b22576040517f08c379a00000000000000000000000000000000000000000000000000000000081526004018080602001828103825260198152602001807f6f6e6c792067726f7570206f776e65722063616e20776f726b0000000000000081525060200191505060405180910390fd5b3373ffffffffffffffffffffffffffffffffffffffff166108fc82600501549081150290604051600060405180830381858888f19350505050158015611b6c573d6000803e3d6000fd5b50600081600501819055505050565b611b836144b6565b611b8c856133e5565b905060006005866040518082805190602001908083835b602083101515611bc85780518252602082019150602081019050602083039250611ba3565b6001836020036101000a038019825116818451168082178552505050505050905001915050908152602001604051809103902060003373ffffffffffffffffffffffffffffffffffffffff1673ffffffffffffffffffffffffffffffffffffffff16815260200190815260200160002060020160019054906101000a900460ff1660ff16141515611ce7576040517f08c379a00000000000000000000000000000000000000000000000000000000081526004018080602001828103825260228152602001807f63616e204e4f5420637265617465206475706c6963617465206368616c6c656e81526020017f676500000000000000000000000000000000000000000000000000000000000081525060400191505060405180910390fd5b806060015160ff168360ff1610151515611d8f576040517f08c379a000000000000000000000000000000000000000000000000000000000815260040180806020018281038252602d8152602001807f6d7573742067726561746572207468616e206f7220657175616c20746f20677281526020017f6f75702773206d696e446179730000000000000000000000000000000000000081525060400191505060405180910390fd5b806080015160ff168360ff1611151515611e37576040517f08c379a000000000000000000000000000000000000000000000000000000000815260040180806020018281038252602a8152602001807f6d757374206c657373207468616e206f7220657175616c20746f2067726f757081526020017f2773206d6178446179730000000000000000000000000000000000000000000081525060400191505060405180910390fd5b806060015160ff168460ff1610151515611edf576040517f08c379a000000000000000000000000000000000000000000000000000000000815260040180806020018281038252602d8152602001807f6d7573742067726561746572207468616e206f7220657175616c20746f20677281526020017f6f75702773206d696e446179730000000000000000000000000000000000000081525060400191505060405180910390fd5b8260ff168460ff1611151515611f83576040517f08c379a00000000000000000000000000000000000000000000000000000000081526004018080602001828103825260248152602001807f6d757374206c657373207468616e206f7220657175616c20746f20746f74616c81526020017f446179730000000000000000000000000000000000000000000000000000000081525060400191505060405180910390fd5b8060c001513410151515612025576040517f08c379a00000000000000000000000000000000000000000000000000000000081526004018080602001828103825260238152602001807f6d7573742067726561746572207468616e2067726f75702773206d696e416d6f81526020017f756e74000000000000000000000000000000000000000000000000000000000081525060400191505060405180910390fd5b610100604051908101604052803373ffffffffffffffffffffffffffffffffffffffff1681526020018681526020018560ff1681526020018460ff168152602001600060ff16815260200161207984613937565b815260200134815260200160008152506005866040518082805190602001908083835b6020831015156120c1578051825260208201915060208101905060208303925061209c565b6001836020036101000a038019825116818451168082178552505050505050905001915050908152602001604051809103902060003373ffffffffffffffffffffffffffffffffffffffff1673ffffffffffffffffffffffffffffffffffffffff16815260200190815260200160002060008201518160000160006101000a81548173ffffffffffffffffffffffffffffffffffffffff021916908373ffffffffffffffffffffffffffffffffffffffff16021790555060208201518160010190805190602001906121949291906143d1565b5060408201518160020160006101000a81548160ff021916908360ff16021790555060608201518160020160016101000a81548160ff021916908360ff16021790555060808201518160020160026101000a81548160ff021916908360ff16021790555060a0820151816003015560c0820151816004015560e082015181600501559050503373ffffffffffffffffffffffffffffffffffffffff167fab1daccc745f2ac18d79889f54ae106fbc25cc1895f986a8dc1ee32f81547270868686863460405180806020018660ff1660ff1681526020018560ff1660ff168152602001848152602001838152602001828103825287818151815260200191508051906020019080838360005b838110156122ba57808201518184015260208101905061229f565b50505050905090810190601f1680156122e75780820380516001836020036101000a031916815260200191505b50965050505050505060405180910390a25050505050565b60006002896040518082805190602001908083835b6020831015156123395780518252602082019150602081019050602083039250612314565b6001836020036101000a038019825116818451168082178552505050505050905001915050908152602001604051809103902060030160009054906101000a900460ff1660ff1614151561241b576040517f08c379a00000000000000000000000000000000000000000000000000000000081526004018080602001828103825260288152602001807f63616e204e4f54206265207468652073616d65206964206f66204368616c6c6581526020017f6e676547726f757000000000000000000000000000000000000000000000000081525060400191505060405180910390fd5b600c60ff168560ff161015151561249a576040517f08c379a00000000000000000000000000000000000000000000000000000000081526004018080602001828103825260208152602001807f6d7573742067726561746572207468616e20676c6f62616c206d696e4461797381525060200191505060405180910390fd5b605a60ff168460ff1611151515612519576040517f08c379a000000000000000000000000000000000000000000000000000000000815260040180806020018281038252601d8152602001807f6d757374206c657373207468616e20676c6f62616c206d61784461797300000081525060200191505060405180910390fd5b605a60ff168360ff1611151515612598576040517f08c379a000000000000000000000000000000000000000000000000000000000815260040180806020018281038252601d8152602001807f6d757374206c657373207468616e20676c6f62616c206d61784461797300000081525060200191505060405180910390fd5b610140604051908101604052808981526020018881526020018781526020018660ff1681526020018560ff1681526020018460ff168152602001838152602001600081526020013373ffffffffffffffffffffffffffffffffffffffff1681526020018273ffffffffffffffffffffffffffffffffffffffff168152506002896040518082805190602001908083835b60208310151561264d5780518252602082019150602081019050602083039250612628565b6001836020036101000a0380198251168184511680821785525050505050509050019150509081526020016040518091039020600082015181600001908051906020019061269c9291906143d1565b5060208201518160010190805190602001906126b99291906143d1565b5060408201518160020190805190602001906126d69291906143d1565b5060608201518160030160006101000a81548160ff021916908360ff16021790555060808201518160030160016101000a81548160ff021916908360ff16021790555060a08201518160030160026101000a81548160ff021916908360ff16021790555060c0820151816004015560e082015181600501556101008201518160060160006101000a81548173ffffffffffffffffffffffffffffffffffffffff021916908373ffffffffffffffffffffffffffffffffffffffff1602179055506101208201518160070160006101000a81548173ffffffffffffffffffffffffffffffffffffffff021916908373ffffffffffffffffffffffffffffffffffffffff1602179055509050503373ffffffffffffffffffffffffffffffffffffffff167f71d49af7e2735dd98a820c3e35a19b83758b3b63a172a20d4bbf357956e52ca4896040518080602001828103825283818151815260200191508051906020019080838360005b8381101561285a57808201518184015260208101905061283f565b50505050905090810190601f1680156128875780820380516001836020036101000a031916815260200191505b509250505060405180910390a25050505050505050565b6128a6612e67565b15156128b157600080fd5b600073ffffffffffffffffffffffffffffffffffffffff166000809054906101000a900473ffffffffffffffffffffffffffffffffffffffff1673ffffffffffffffffffffffffffffffffffffffff167f8be0079c531659141344cd1fd0a4f28419497f9722a3daafe3b4186f6b6457e060405160405180910390a360008060006101000a81548173ffffffffffffffffffffffffffffffffffffffff021916908373ffffffffffffffffffffffffffffffffffffffff160217905550565b60045481565b61297e6144b6565b600080600080600088886129906144b6565b612999836133e5565b90503373ffffffffffffffffffffffffffffffffffffffff168273ffffffffffffffffffffffffffffffffffffffff161480612a05575080610120015173ffffffffffffffffffffffffffffffffffffffff168273ffffffffffffffffffffffffffffffffffffffff16145b1515612a79576040517f08c379a000000000000000000000000000000000000000000000000000000000815260040180806020018281038252601c8152602001807f6f6e6c79207573657220616e64206167656e742063616e20776f726b0000000081525060200191505060405180910390fd5b612a828c6133e5565b9850612a8e8c336137f4565b9750600096505b8951871015612e3057612abe8a88815181101515612aaf57fe5b90602001906020020151613937565b95506001151588600701600088815260200190815260200160002060009054906101000a900460ff1615151415612af457612e23565b87600301548610151515612b96576040517f08c379a000000000000000000000000000000000000000000000000000000000815260040180806020018281038252602f8152602001807f6d7573742067726561746572207468616e206368616c6c656e6765277320737481526020017f61727444617954696d657374616d70000000000000000000000000000000000081525060400191505060405180910390fd5b612bc18860020160019054906101000a900460ff1660ff16896003015461394f90919063ffffffff16565b86101515612c5d576040517f08c379a00000000000000000000000000000000000000000000000000000000081526004018080602001828103825260218152602001807f6d757374206c657373207468616e206368616c6c656e6765277320656e64446181526020017f790000000000000000000000000000000000000000000000000000000000000081525060400191505060405180910390fd5b612c6642613937565b9450848611151515612d06576040517f08c379a00000000000000000000000000000000000000000000000000000000081526004018080602001828103825260218152602001807f6d757374206c657373207468616e206e6f7727732064617954696d657374616d81526020017f700000000000000000000000000000000000000000000000000000000000000081525060400191505060405180910390fd5b612d208960a0015160ff1686613cf690919063ffffffff16565b9350838610151515612dc0576040517f08c379a000000000000000000000000000000000000000000000000000000000815260040180806020018281038252602e8152602001807f6d7573742067726561746572207468616e206e6f77202d206368616c6c656e6781526020017f652e6d617844656c61794461797300000000000000000000000000000000000081525060400191505060405180910390fd5b87600201600281819054906101000a900460ff168092919060010191906101000a81548160ff021916908360ff16021790555050600188600701600088815260200190815260200160002060006101000a81548160ff0219169083151502179055505b8680600101975050612a95565b505050505050505050505050565b60008060009054906101000a900473ffffffffffffffffffffffffffffffffffffffff16905090565b60008060009054906101000a900473ffffffffffffffffffffffffffffffffffffffff1673ffffffffffffffffffffffffffffffffffffffff163373ffffffffffffffffffffffffffffffffffffffff1614905090565b6000600660003373ffffffffffffffffffffffffffffffffffffffff1673ffffffffffffffffffffffffffffffffffffffff16815260200190815260200160002054111515612f75576040517f08c379a00000000000000000000000000000000000000000000000000000000081526004018080602001828103825260138152602001807f6d7573742067726561746572207468616e20300000000000000000000000000081525060200191505060405180910390fd5b3373ffffffffffffffffffffffffffffffffffffffff166108fc600660003373ffffffffffffffffffffffffffffffffffffffff1673ffffffffffffffffffffffffffffffffffffffff168152602001908152602001600020549081150290604051600060405180830381858888f19350505050158015612ffa573d6000803e3d6000fd5b506000600660003373ffffffffffffffffffffffffffffffffffffffff1673ffffffffffffffffffffffffffffffffffffffff16815260200190815260200160002081905550565b60015481565b60006002846040518082805190602001908083835b602083101515613082578051825260208201915060208101905060208303925061305d565b6001836020036101000a038019825116818451168082178552505050505050905001915050908152602001604051809103902090503373ffffffffffffffffffffffffffffffffffffffff168160060160009054906101000a900473ffffffffffffffffffffffffffffffffffffffff1673ffffffffffffffffffffffffffffffffffffffff1614151561317e576040517f08c379a000000000000000000000000000000000000000000000000000000000815260040180806020018281038252601a8152602001807f6d75737420626520746865206f776e6572206f662067726f757000000000000081525060200191505060405180910390fd5b82816001019080519060200190613196929190614646565b50818160020190805190602001906131af929190614646565b5050505050565b60006131c282336137f4565b90506131ce3382613970565b6002808111156131da57fe5b60ff163373ffffffffffffffffffffffffffffffffffffffff167f42ff0bddbbde7331d331e411595e2798992c867bb45228a7bb996529825be66f8360020160009054906101000a900460ff168460020160019054906101000a900460ff168560020160029054906101000a900460ff168660040154604051808560ff1660ff1681526020018460ff1660ff1681526020018360ff1660ff16815260200182815260200194505050505060405180910390a36005826040518082805190602001908083835b6020831015156132c4578051825260208201915060208101905060208303925061329f565b6001836020036101000a038019825116818451168082178552505050505050905001915050908152602001604051809103902060003373ffffffffffffffffffffffffffffffffffffffff1673ffffffffffffffffffffffffffffffffffffffff168152602001908152602001600020600080820160006101000a81549073ffffffffffffffffffffffffffffffffffffffff021916905560018201600061336c91906145fe565b6002820160006101000a81549060ff02191690556002820160016101000a81549060ff02191690556002820160026101000a81549060ff021916905560038201600090556004820160009055600582016000905550505050565b6133ce612e67565b15156133d957600080fd5b6133e281613d17565b50565b6133ed6144b6565b6133f56144b6565b6002836040518082805190602001908083835b60208310151561342d5780518252602082019150602081019050602083039250613408565b6001836020036101000a03801982511681845116808217855250505050505090500191505090815260200160405180910390206101406040519081016040529081600082018054600181600116156101000203166002900480601f0160208091040260200160405190810160405280929190818152602001828054600181600116156101000203166002900480156135065780601f106134db57610100808354040283529160200191613506565b820191906000526020600020905b8154815290600101906020018083116134e957829003601f168201915b50505050508152602001600182018054600181600116156101000203166002900480601f0160208091040260200160405190810160405280929190818152602001828054600181600116156101000203166002900480156135a85780601f1061357d576101008083540402835291602001916135a8565b820191906000526020600020905b81548152906001019060200180831161358b57829003601f168201915b50505050508152602001600282018054600181600116156101000203166002900480601f01602080910402602001604051908101604052809291908181526020018280546001816001161561010002031660029004801561364a5780601f1061361f5761010080835404028352916020019161364a565b820191906000526020600020905b81548152906001019060200180831161362d57829003601f168201915b505050505081526020016003820160009054906101000a900460ff1660ff1660ff1681526020016003820160019054906101000a900460ff1660ff1660ff1681526020016003820160029054906101000a900460ff1660ff1660ff16815260200160048201548152602001600582015481526020016006820160009054906101000a900473ffffffffffffffffffffffffffffffffffffffff1673ffffffffffffffffffffffffffffffffffffffff1673ffffffffffffffffffffffffffffffffffffffff1681526020016007820160009054906101000a900473ffffffffffffffffffffffffffffffffffffffff1673ffffffffffffffffffffffffffffffffffffffff1673ffffffffffffffffffffffffffffffffffffffff168152505090506000816060015160ff161115156137eb576040517f08c379a00000000000000000000000000000000000000000000000000000000081526004018080602001828103825260138152602001807f67726f757020646f65736e27742065786973740000000000000000000000000081525060200191505060405180910390fd5b80915050919050565b6000806005846040518082805190602001908083835b60208310151561382f578051825260208201915060208101905060208303925061380a565b6001836020036101000a038019825116818451168082178552505050505050905001915050908152602001604051809103902060008473ffffffffffffffffffffffffffffffffffffffff1673ffffffffffffffffffffffffffffffffffffffff168152602001908152602001600020905060008160020160019054906101000a900460ff1660ff1611151561392d576040517f08c379a00000000000000000000000000000000000000000000000000000000081526004018080602001828103825260178152602001807f6368616c6c656e676520646f65736e277420657869737400000000000000000081525060200191505060405180910390fd5b8091505092915050565b6000620151808281151561394757fe5b049050919050565b600080828401905083811015151561396657600080fd5b8091505092915050565b60008060008060008061398161453f565b60028860010160405180828054600181600116156101000203166002900480156139e25780601f106139c05761010080835404028352918201916139e2565b820191906000526020600020905b8154815290600101906020018083116139ce575b505091505090815260200160405180910390209650613a0088613e11565b9550613a2d6002613a1f600a8b6004015461436990919063ffffffff16565b61439390919063ffffffff16565b9450613a4685886005015461394f90919063ffffffff16565b8760050181905550613a66600a896004015461436990919063ffffffff16565b93508873ffffffffffffffffffffffffffffffffffffffff166108fc859081150290604051600060405180830381858888f19350505050158015613aae573d6000803e3d6000fd5b50613aea84613adc87613ace8a8d60040154613cf690919063ffffffff16565b613cf690919063ffffffff16565b613cf690919063ffffffff16565b9250613b018360015461394f90919063ffffffff16565b600181905550600091505b8760050154821015613ceb57876006016000838152602001908152602001600020606060405190810160405290816000820160009054906101000a900473ffffffffffffffffffffffffffffffffffffffff1673ffffffffffffffffffffffffffffffffffffffff1673ffffffffffffffffffffffffffffffffffffffff16815260200160018201548152602001600282018054600181600116156101000203166002900480601f016020809104026020016040519081016040528092919081815260200182805460018160011615610100020316600290048015613c325780601f10613c0757610100808354040283529160200191613c32565b820191906000526020600020905b815481529060010190602001808311613c1557829003601f168201915b5050505050815250509050613c97816020015160066000846000015173ffffffffffffffffffffffffffffffffffffffff1673ffffffffffffffffffffffffffffffffffffffff1681526020019081526020016000205461394f90919063ffffffff16565b60066000836000015173ffffffffffffffffffffffffffffffffffffffff1673ffffffffffffffffffffffffffffffffffffffff168152602001908152602001600020819055508180600101925050613b0c565b505050505050505050565b600080838311151515613d0857600080fd5b82840390508091505092915050565b600073ffffffffffffffffffffffffffffffffffffffff168173ffffffffffffffffffffffffffffffffffffffff1614151515613d5357600080fd5b8073ffffffffffffffffffffffffffffffffffffffff166000809054906101000a900473ffffffffffffffffffffffffffffffffffffffff1673ffffffffffffffffffffffffffffffffffffffff167f8be0079c531659141344cd1fd0a4f28419497f9722a3daafe3b4186f6b6457e060405160405180910390a3806000806101000a81548173ffffffffffffffffffffffffffffffffffffffff021916908373ffffffffffffffffffffffffffffffffffffffff16021790555050565b600080600060606000613e22614451565b60009450600093506003876001016040518082805460018160011615610100020316600290048015613e8b5780601f10613e69576101008083540402835291820191613e8b565b820191906000526020600020905b815481529060010190602001808311613e77575b50509150509081526020016040518091039020805480602002602001604051908101604052809291908181526020016000905b8282101561405f578382906000526020600020906008020161010060405190810160405290816000820160009054906101000a900473ffffffffffffffffffffffffffffffffffffffff1673ffffffffffffffffffffffffffffffffffffffff1673ffffffffffffffffffffffffffffffffffffffff168152602001600182018054600181600116156101000203166002900480601f016020809104026020016040519081016040528092919081815260200182805460018160011615610100020316600290048015613fd25780601f10613fa757610100808354040283529160200191613fd2565b820191906000526020600020905b815481529060010190602001808311613fb557829003601f168201915b505050505081526020016002820160009054906101000a900460ff1660ff1660ff1681526020016002820160019054906101000a900460ff1660ff1660ff1681526020016002820160029054906101000a900460ff1660ff1660ff168152602001600382015481526020016004820154815260200160058201548152505081526020019060010190613ebe565b50505050925060045491505b825182101561434a57828281518110151561408257fe5b9060200190602002015190506000841480156140a2575060008160c00151115b156140ab578193505b86600401548160c0015110151561433d576140e760026140d9600a8a6004015461436990919063ffffffff16565b61439390919063ffffffff16565b94506000600388600101604051808280546001816001161561010002031660029004801561414c5780601f1061412a57610100808354040283529182019161414c565b820191906000526020600020905b815481529060010190602001808311614138575b505091505090815260200160405180910390208381548110151561416c57fe5b9060005260206000209060080201600401819055506141d78560066000846000015173ffffffffffffffffffffffffffffffffffffffff1673ffffffffffffffffffffffffffffffffffffffff1681526020019081526020016000205461394f90919063ffffffff16565b60066000836000015173ffffffffffffffffffffffffffffffffffffffff1673ffffffffffffffffffffffffffffffffffffffff168152602001908152602001600020819055508660000160009054906101000a900473ffffffffffffffffffffffffffffffffffffffff1673ffffffffffffffffffffffffffffffffffffffff16816000015173ffffffffffffffffffffffffffffffffffffffff167ffa83c257a6acc7397d5d233d5b152d8d68fe118f3eab8351796aba2e5e114301896001018860405180806020018381526020018281038252848181546001816001161561010002031660029004815260200191508054600181600116156101000203166002900480156143295780601f106142fe57610100808354040283529160200191614329565b820191906000526020600020905b81548152906001019060200180831161430c57829003601f168201915b5050935050505060405180910390a361434a565b818060010192505061406b565b60008414151561435c57836004819055505b8495505050505050919050565b60008060008311151561437b57600080fd5b828481151561438657fe5b0490508091505092915050565b60008060008414156143a857600091506143ca565b82840290508284828115156143b957fe5b041415156143c657600080fd5b8091505b5092915050565b828054600181600116156101000203166002900490600052602060002090601f016020900481019282601f1061441257805160ff1916838001178555614440565b82800160010185558215614440579182015b8281111561443f578251825591602001919060010190614424565b5b50905061444d91906146c6565b5090565b61010060405190810160405280600073ffffffffffffffffffffffffffffffffffffffff16815260200160608152602001600060ff168152602001600060ff168152602001600060ff1681526020016000815260200160008152602001600081525090565b61014060405190810160405280606081526020016060815260200160608152602001600060ff168152602001600060ff168152602001600060ff1681526020016000815260200160008152602001600073ffffffffffffffffffffffffffffffffffffffff168152602001600073ffffffffffffffffffffffffffffffffffffffff1681525090565b606060405190810160405280600073ffffffffffffffffffffffffffffffffffffffff16815260200160008152602001606081525090565b828054600181600116156101000203166002900490600052602060002090601f016020900481019282601f106145b057805485556145ed565b828001600101855582156145ed57600052602060002091601f016020900482015b828111156145ec5782548255916001019190600101906145d1565b5b5090506145fa91906146c6565b5090565b50805460018160011615610100020316600290046000825580601f106146245750614643565b601f01602090049060005260206000209081019061464291906146c6565b5b50565b828054600181600116156101000203166002900490600052602060002090601f016020900481019282601f1061468757805160ff19168380011785556146b5565b828001600101855582156146b5579182015b828111156146b4578251825591602001919060010190614699565b5b5090506146c291906146c6565b5090565b6146e891905b808211156146e45760008160009055506001016146cc565b5090565b905600a165627a7a723058202e23e2bf1d7229450edd2c68255ddeccbd6c9a2d9a902c0e83e1f0071f8da32f0029",
  "source": "pragma solidity ^0.4.24;\n\nimport \"openzeppelin-solidity/contracts/ownership/Ownable.sol\";\nimport \"openzeppelin-solidity/contracts/math/SafeMath.sol\";\n\ncontract CoinChallenges is Ownable {\n    using SafeMath for uint256;\n\n    uint8 public constant MinDays = 12;\n    uint8 public constant MaxDays = 90;\n\n    uint256 private constant DayTimestamp = 86400; // 60 * 60 * 24\n\n    uint256 public ownerBalance;\n    \n    struct ChallengeGroup {\n        string id;\n        string name;\n        string url;\n        uint8 minDays;\n        uint8 maxDays;\n        uint8 maxDelayDays;\n        uint256 minAmount;\n        uint256 balance;\n        address owner;\n        address agent;\n    }\n\n    enum ChallengeStatus { Succeeded, Failed, Aborted }\n\n    struct Challenge {\n        address who;\n        string groupId;\n        uint8 targetDays;\n        uint8 totalDays;\n        uint8 completeDays;\n        uint256 startDayTimestamp; // timestamp / dayTimestamp\n        uint256 amount;\n        uint256 sponsorSize;\n        mapping (uint256 => Sponsor) sponsors;\n        mapping (uint256 => bool) dayTimestampIsCompletes; // timestamp / dayTimestamp\n    }\n\n    struct Sponsor {\n        address who;\n        uint256 amount;\n        string comment;\n    }\n    \n    // id to ChallengeGroup\n    mapping (string => ChallengeGroup) challengeGroups;\n\n    // groupId to succeeded Challenges\n    mapping (string => Challenge[]) succeededChallenges;\n\n    // the start index of succeeded challenges\n    uint256 public succeededChallengesStartIndex;\n\n    // groupId to (address to Challenge in progress)\n    mapping (string => mapping (address => Challenge)) challenges;\n\n    // address to user's balance from sponsor and the profit-sharing of failed challenge\n    mapping (address => uint256) userBalances;\n\n    event NewChallengeGroup(address indexed proposer, string id);\n    event NewChallenge(address indexed proposer, string groupId, uint8 targetDays, uint8 totalDays, uint256 startDayTimestamp, uint256 amount);\n    event FinishChallenge(address indexed who, uint8 indexed status, uint8 targetDays, uint8 totalDays, uint8 completeDays, uint256 amount);\n    event ProfitSharing(address indexed who, address indexed challenger, string groupId, uint256 amount);\n\n    constructor() public {\n    }\n\n    modifier onlyChallengeOwnerAndGroupAgent(string _groupId, address _who) {\n        ChallengeGroup memory group = _getChallengeGroup(_groupId);\n        require(_who == msg.sender || _who == group.agent, \"only user and agent can work\");\n        _;\n    }\n\n    function createChallengeGroup(\n        string _id,\n        string _name,\n        string _url,\n        uint8 _minDays,\n        uint8 _maxDays,\n        uint8 _maxDelayDays,\n        uint256 _minAmount,\n        address _agent\n    ) public {\n        require(challengeGroups[_id].minDays == 0, \"can NOT be the same id of ChallengeGroup\");\n        require(_minDays >= MinDays, \"must greater than global minDays\");\n        require(_maxDays <= MaxDays, \"must less than global maxDays\");\n        require(_maxDelayDays <= MaxDays, \"must less than global maxDays\");\n\n        challengeGroups[_id] = ChallengeGroup(_id, _name, _url, _minDays, _maxDays, _maxDelayDays, _minAmount, 0, msg.sender, _agent);\n        emit NewChallengeGroup(msg.sender, _id);\n    }\n\n    function getChallengeGroup(string _id) public view returns (\n        string _name,\n        string _url,\n        uint8 _minDays,\n        uint8 _maxDays,\n        uint8 _maxDelayDays,\n        uint256 _minAmount,\n        uint256 _balance,\n        address _owner,\n        address _agent\n    ) {\n        ChallengeGroup memory group = _getChallengeGroup(_id);\n\n        _name = group.name;\n        _url = group.url;\n        _minDays = group.minDays;\n        _maxDays = group.maxDays;\n        _maxDelayDays = group.maxDelayDays;\n        _minAmount = group.minAmount;\n        _balance = group.balance;\n        _owner = group.owner;\n        _agent = group.agent;\n    }\n\n    function modifyChallengeGroup(string _id, string _name, string _url) public {\n        ChallengeGroup storage group = challengeGroups[_id];\n        require(group.owner == msg.sender, \"must be the owner of group\");\n\n        group.name = _name;\n        group.url = _url;\n    }\n\n    function createChallenge(\n        string _groupId,\n        uint8 _targetDays,\n        uint8 _totalDays,\n        uint256 _startTimestamp\n    ) public payable {\n        ChallengeGroup memory group = _getChallengeGroup(_groupId);\n\n        require(challenges[_groupId][msg.sender].totalDays == 0, \"can NOT create duplicate challenge\");\n        require(_totalDays >= group.minDays, \"must greater than or equal to group's minDays\");\n        require(_totalDays <= group.maxDays, \"must less than or equal to group's maxDays\");\n        require(_targetDays >= group.minDays, \"must greater than or equal to group's minDays\");\n        require(_targetDays <= _totalDays, \"must less than or equal to totalDays\");\n        require(msg.value >= group.minAmount, \"must greater than group's minAmount\");\n\n        challenges[_groupId][msg.sender] = Challenge(msg.sender, _groupId, _targetDays, _totalDays, 0, _getDayTimestamp(_startTimestamp), msg.value, 0);\n\n        emit NewChallenge(msg.sender, _groupId, _targetDays, _totalDays, _startTimestamp, msg.value);\n    }\n\n    function getChallenge(\n        string _groupId,\n        address _address\n    ) public view returns (\n        uint8 _targetDays,\n        uint8 _totalDays,\n        uint8 _completeDays,\n        uint256 _startDayTimestamp,\n        uint256 _amount,\n        uint256 _sponsorSize\n    ) {\n        Challenge memory challenge = challenges[_groupId][_address];\n\n        _targetDays = challenge.targetDays;\n        _totalDays = challenge.totalDays;\n        _completeDays = challenge.completeDays;\n        _startDayTimestamp = challenge.startDayTimestamp;\n        _amount = challenge.amount;\n        _sponsorSize = challenge.sponsorSize;\n    }\n\n    function getSponsor(\n        string _groupId,\n        address _address,\n        uint256 _index\n    ) public view returns (\n        address _who,\n        uint256 _amount,\n        string _comment\n    ) {\n        Sponsor memory sponsor = challenges[_groupId][_address].sponsors[_index];\n        return (sponsor.who, sponsor.amount, sponsor.comment);\n    }\n\n    /**\n     * @dev complete multiple daily challenges. Only challenger and group agent can run.\n     */\n    function completeDailyChallenges(string _groupId, address _who, uint256[] timestamps)\n        public onlyChallengeOwnerAndGroupAgent(_groupId, _who) {\n        \n        ChallengeGroup memory group = _getChallengeGroup(_groupId);\n        Challenge storage challenge = _getChallenge(_groupId, msg.sender);\n\n        for (uint256 index = 0; index < timestamps.length; index++) {\n            uint256 dayTimestamp = _getDayTimestamp(timestamps[index]);\n            if (challenge.dayTimestampIsCompletes[dayTimestamp] == true) {\n                continue;\n            }\n            require(dayTimestamp >= challenge.startDayTimestamp, \"must greater than challenge's startDayTimestamp\");\n            require(dayTimestamp < challenge.startDayTimestamp.add(challenge.totalDays), \"must less than challenge's endDay\");\n\n            uint256 nowDayTimestamp = _getDayTimestamp(now);\n            require(dayTimestamp <= nowDayTimestamp, \"must less than now's dayTimestamp\");\n\n            uint256 fromDayTimestamp = nowDayTimestamp.sub(group.maxDelayDays);\n            require(dayTimestamp >= fromDayTimestamp, \"must greater than now - challenge.maxDelayDays\");\n\n            challenge.completeDays++;\n            challenge.dayTimestampIsCompletes[dayTimestamp] = true;\n        }\n    }\n\n    /**\n     * @dev finish challenge. Anyone can help finish any challenge.\n     */\n    function finishChallenge(string _groupId, address _who) public {\n        Challenge storage challenge = _getChallenge(_groupId, _who);\n        uint256 nowDayTimestamp = _getDayTimestamp(now);\n        require(nowDayTimestamp >= challenge.startDayTimestamp.add(challenge.totalDays), \"must greater than challenge's EndDay\");\n\n        ChallengeStatus status;\n        if (challenge.completeDays >= challenge.targetDays) {\n            status = ChallengeStatus.Succeeded;\n\n            // set challenger's amount\n            uint256 amount = challenge.amount;\n\n            // add all sponsors' amount to amount\n            for (uint i = 0; i < challenge.sponsorSize; i++) {\n                amount = amount.add(challenge.sponsors[i].amount);\n            }\n\n            _who.transfer(amount);\n\n            succeededChallenges[_groupId].push(challenge);\n        } else {\n            ChallengeGroup memory group = _getChallengeGroup(_groupId);\n            require(nowDayTimestamp >= challenge.startDayTimestamp.add(challenge.totalDays).add(group.maxDelayDays), \"must greater than challenge's EndDay + group's maxDelayDays\");\n\n            status = ChallengeStatus.Failed;\n            _handleFailedChallenge(_who, challenge);\n        }\n\n        emit FinishChallenge(_who, uint8(status), challenge.targetDays, challenge.totalDays, challenge.completeDays, challenge.amount);\n        delete challenges[_groupId][_who];\n    }\n\n    /**\n     * @dev abort challenge. Only yourself can give up the challenge.\n     */\n    function abortChallenge(string _groupId) public {\n        Challenge storage challenge = _getChallenge(_groupId, msg.sender);\n        _handleFailedChallenge(msg.sender, challenge);\n\n        emit FinishChallenge(msg.sender, uint8(ChallengeStatus.Aborted), challenge.targetDays, challenge.totalDays, challenge.completeDays, challenge.amount);\n        delete challenges[_groupId][msg.sender];\n    }\n\n    /**\n     * @dev sponsor specific one challenge.\n     */\n    function sponsorChallenge(string _groupId, address _who, string comment) public payable {\n        require(msg.value >= _getChallengeGroup(_groupId).minAmount, \"sponsor value must greater than group.minAmount\");\n\n        Challenge storage challenge = _getChallenge(_groupId, _who);\n        challenge.sponsors[challenge.sponsorSize] = Sponsor(msg.sender, msg.value, comment);\n        challenge.sponsorSize++;\n    }\n\n    /**\n     * @dev withdraw the balance of owner. Only contract owner can withdraw.\n     */\n    function ownerWithdraw() public onlyOwner {\n        msg.sender.transfer(ownerBalance);\n        ownerBalance = 0;\n    }\n\n    /**\n     * @dev withdraw the balance of challenge group. Only group owner can withdraw.\n     */\n    function groupWithdraw(string _groupId) public {\n        ChallengeGroup storage group = challengeGroups[_groupId];\n        require(msg.sender == group.owner, \"only group owner can work\");\n        msg.sender.transfer(group.balance);\n        group.balance = 0;\n    }\n\n    /**\n     * @dev withdraw the balance of user.\n     */\n    function userWithdraw() public {\n        require(userBalances[msg.sender] > 0, \"must greater than 0\");\n\n        msg.sender.transfer(userBalances[msg.sender]);\n        userBalances[msg.sender] = 0;\n    }\n\n    /**\n     * @dev compute dayTimestamp from timestamp.\n     * @param _timestamp timestamp\n     * @return dayTimestamp\n     */\n    function _getDayTimestamp(uint256 _timestamp) private pure returns (uint256) {\n        return _timestamp / DayTimestamp;\n    }\n\n    /**\n     * @dev get challenge group if exists\n     */\n    function _getChallengeGroup(string _id) private view returns (ChallengeGroup) {\n        ChallengeGroup memory group = challengeGroups[_id];\n        require(group.minDays > 0, \"group doesn't exist\");\n\n        return group;\n    }\n\n    /**\n     * @dev get in-progess challenge if exists\n     */\n    function _getChallenge(string _groupId, address _challengeOwner) private view returns (Challenge storage) {\n        Challenge storage challenge = challenges[_groupId][_challengeOwner];\n        require(challenge.totalDays > 0, \"challenge doesn't exist\");\n\n        return challenge;\n    }\n\n    /**\n     * @dev transfer money to the below:\n     * 20% of challenger's amount to the first winner on succeededChallenges\n     * 20% of challenger's amount to challenge group owner\n     * 10% of challenger's amount back to original challenger\n     * 50% of challenger's add to balance of contract owner\n     * 100% refund to sponsors\n     */\n    function _handleFailedChallenge(address who, Challenge storage challenge) private {\n        ChallengeGroup storage group = challengeGroups[challenge.groupId];\n\n        // transfer to the first winner whose amount is greater than challenger's\n        uint256 toFirstWinnerAmount = _addAmountToFirstWinner(challenge);\n\n        // add amount to the balance of group\n        uint256 toGroupOwnerAmount = challenge.amount.div(10).mul(2);\n        group.balance = group.balance.add(toGroupOwnerAmount);\n\n        // transfer back to challenger\n        uint256 toChallengerAmount = challenge.amount.div(10);\n        who.transfer(toChallengerAmount);\n\n        // add amount to balance of contract owner\n        uint256 toOwnerAmount = challenge.amount.sub(toFirstWinnerAmount).sub(toGroupOwnerAmount).sub(toChallengerAmount);\n        ownerBalance = ownerBalance.add(toOwnerAmount);\n\n        // add amount to sponsors' balances\n        for (uint256 index = 0; index < challenge.sponsorSize; index++) {\n            Sponsor memory sponsor = challenge.sponsors[index];\n            userBalances[sponsor.who] = userBalances[sponsor.who].add(sponsor.amount);\n        }\n    }\n\n    /**\n     * @dev add the profit-sharing amount to the first winner whose amount is greater and equal than challenger's\n     */\n    function _addAmountToFirstWinner(Challenge storage challenge) private returns (uint256) {\n        uint256 toFirstWinnerAmount = 0;\n        uint256 noZeroAmountIndex = 0;\n\n        Challenge[] memory _challenges = succeededChallenges[challenge.groupId];\n        for (uint256 index = succeededChallengesStartIndex; index < _challenges.length; index++) {\n            Challenge memory succeededChallenge = _challenges[index];\n\n            if (noZeroAmountIndex == 0 && succeededChallenge.amount > 0) {\n                noZeroAmountIndex = index;\n            }\n\n            if (succeededChallenge.amount >= challenge.amount) {\n                toFirstWinnerAmount = challenge.amount.div(10).mul(2);\n\n                succeededChallenges[challenge.groupId][index].amount = 0;\n\n                userBalances[succeededChallenge.who] = userBalances[succeededChallenge.who].add(toFirstWinnerAmount);\n                emit ProfitSharing(succeededChallenge.who, challenge.who, challenge.groupId, toFirstWinnerAmount);\n\n                break;\n            }\n        }\n        if (noZeroAmountIndex != 0) {\n            succeededChallengesStartIndex = noZeroAmountIndex;\n        }\n\n        return toFirstWinnerAmount;\n    }\n}\n",
  "sourcePath": "/Users/shiacruz/Desktop/works/CoinChallenges/contracts/CoinChallenges.sol",
  "compiler": {
    "name": "solc",
    "version": "0.4.24+commit.e67f0147.Emscripten.clang"
  },
  "schemaVersion": "2.0.1",
  "updatedAt": "2018-12-22T02:46:28.621Z"
}