{
  "contractName": "CoinChallenges",
  "abi": [
    {
      "constant": true,
      "inputs": [],
      "name": "MinDays",
      "outputs": [
        {
          "name": "",
          "type": "uint8"
        }
      ],
      "payable": false,
      "stateMutability": "view",
      "type": "function",
      "signature": "0x2fb6ad34"
    },
    {
      "constant": true,
      "inputs": [],
      "name": "MaxDays",
      "outputs": [
        {
          "name": "",
          "type": "uint8"
        }
      ],
      "payable": false,
      "stateMutability": "view",
      "type": "function",
      "signature": "0x4bccbf36"
    },
    {
      "constant": false,
      "inputs": [],
      "name": "renounceOwnership",
      "outputs": [],
      "payable": false,
      "stateMutability": "nonpayable",
      "type": "function",
      "signature": "0x715018a6"
    },
    {
      "constant": true,
      "inputs": [],
      "name": "succeededChallengesStartIndex",
      "outputs": [
        {
          "name": "",
          "type": "uint256"
        }
      ],
      "payable": false,
      "stateMutability": "view",
      "type": "function",
      "signature": "0x7ad915c4"
    },
    {
      "constant": true,
      "inputs": [],
      "name": "owner",
      "outputs": [
        {
          "name": "",
          "type": "address"
        }
      ],
      "payable": false,
      "stateMutability": "view",
      "type": "function",
      "signature": "0x8da5cb5b"
    },
    {
      "constant": true,
      "inputs": [],
      "name": "isOwner",
      "outputs": [
        {
          "name": "",
          "type": "bool"
        }
      ],
      "payable": false,
      "stateMutability": "view",
      "type": "function",
      "signature": "0x8f32d59b"
    },
    {
      "constant": true,
      "inputs": [],
      "name": "ownerBalance",
      "outputs": [
        {
          "name": "",
          "type": "uint256"
        }
      ],
      "payable": false,
      "stateMutability": "view",
      "type": "function",
      "signature": "0xbedcf003"
    },
    {
      "constant": false,
      "inputs": [
        {
          "name": "newOwner",
          "type": "address"
        }
      ],
      "name": "transferOwnership",
      "outputs": [],
      "payable": false,
      "stateMutability": "nonpayable",
      "type": "function",
      "signature": "0xf2fde38b"
    },
    {
      "inputs": [],
      "payable": false,
      "stateMutability": "nonpayable",
      "type": "constructor",
      "signature": "constructor"
    },
    {
      "anonymous": false,
      "inputs": [
        {
          "indexed": true,
          "name": "proposer",
          "type": "address"
        },
        {
          "indexed": false,
          "name": "id",
          "type": "string"
        }
      ],
      "name": "NewChallengeGroup",
      "type": "event",
      "signature": "0x71d49af7e2735dd98a820c3e35a19b83758b3b63a172a20d4bbf357956e52ca4"
    },
    {
      "anonymous": false,
      "inputs": [
        {
          "indexed": true,
          "name": "proposer",
          "type": "address"
        },
        {
          "indexed": false,
          "name": "groupId",
          "type": "string"
        },
        {
          "indexed": false,
          "name": "targetDays",
          "type": "uint8"
        },
        {
          "indexed": false,
          "name": "totalDays",
          "type": "uint8"
        },
        {
          "indexed": false,
          "name": "startDayTimestamp",
          "type": "uint256"
        },
        {
          "indexed": false,
          "name": "amount",
          "type": "uint256"
        }
      ],
      "name": "NewChallenge",
      "type": "event",
      "signature": "0xab1daccc745f2ac18d79889f54ae106fbc25cc1895f986a8dc1ee32f81547270"
    },
    {
      "anonymous": false,
      "inputs": [
        {
          "indexed": true,
          "name": "who",
          "type": "address"
        },
        {
          "indexed": true,
          "name": "status",
          "type": "uint8"
        },
        {
          "indexed": false,
          "name": "targetDays",
          "type": "uint8"
        },
        {
          "indexed": false,
          "name": "totalDays",
          "type": "uint8"
        },
        {
          "indexed": false,
          "name": "completeDays",
          "type": "uint8"
        },
        {
          "indexed": false,
          "name": "amount",
          "type": "uint256"
        }
      ],
      "name": "FinishChallenge",
      "type": "event",
      "signature": "0x42ff0bddbbde7331d331e411595e2798992c867bb45228a7bb996529825be66f"
    },
    {
      "anonymous": false,
      "inputs": [
        {
          "indexed": true,
          "name": "who",
          "type": "address"
        },
        {
          "indexed": true,
          "name": "challenger",
          "type": "address"
        },
        {
          "indexed": false,
          "name": "groupId",
          "type": "string"
        },
        {
          "indexed": false,
          "name": "amount",
          "type": "uint256"
        }
      ],
      "name": "ProfitSharing",
      "type": "event",
      "signature": "0xfa83c257a6acc7397d5d233d5b152d8d68fe118f3eab8351796aba2e5e114301"
    },
    {
      "anonymous": false,
      "inputs": [
        {
          "indexed": true,
          "name": "who",
          "type": "address"
        },
        {
          "indexed": true,
          "name": "challenger",
          "type": "address"
        },
        {
          "indexed": false,
          "name": "amount",
          "type": "uint256"
        },
        {
          "indexed": false,
          "name": "comment",
          "type": "string"
        }
      ],
      "name": "SponsorChallenge",
      "type": "event",
      "signature": "0x4a74808d2e829fa6fa972aab10ae5c0624569589a3ca7848b17c85cf0659415d"
    },
    {
      "anonymous": false,
      "inputs": [
        {
          "indexed": true,
          "name": "previousOwner",
          "type": "address"
        },
        {
          "indexed": true,
          "name": "newOwner",
          "type": "address"
        }
      ],
      "name": "OwnershipTransferred",
      "type": "event",
      "signature": "0x8be0079c531659141344cd1fd0a4f28419497f9722a3daafe3b4186f6b6457e0"
    },
    {
      "constant": false,
      "inputs": [
        {
          "name": "_id",
          "type": "string"
        },
        {
          "name": "_name",
          "type": "string"
        },
        {
          "name": "_url",
          "type": "string"
        },
        {
          "name": "_minDays",
          "type": "uint8"
        },
        {
          "name": "_maxDays",
          "type": "uint8"
        },
        {
          "name": "_maxDelayDays",
          "type": "uint8"
        },
        {
          "name": "_minAmount",
          "type": "uint256"
        },
        {
          "name": "_agent",
          "type": "address"
        }
      ],
      "name": "createChallengeGroup",
      "outputs": [],
      "payable": false,
      "stateMutability": "nonpayable",
      "type": "function",
      "signature": "0x606b96b2"
    },
    {
      "constant": true,
      "inputs": [
        {
          "name": "_id",
          "type": "string"
        }
      ],
      "name": "getChallengeGroup",
      "outputs": [
        {
          "name": "_name",
          "type": "string"
        },
        {
          "name": "_url",
          "type": "string"
        },
        {
          "name": "_minDays",
          "type": "uint8"
        },
        {
          "name": "_maxDays",
          "type": "uint8"
        },
        {
          "name": "_maxDelayDays",
          "type": "uint8"
        },
        {
          "name": "_minAmount",
          "type": "uint256"
        },
        {
          "name": "_balance",
          "type": "uint256"
        },
        {
          "name": "_owner",
          "type": "address"
        },
        {
          "name": "_agent",
          "type": "address"
        }
      ],
      "payable": false,
      "stateMutability": "view",
      "type": "function",
      "signature": "0x2224b4bc"
    },
    {
      "constant": false,
      "inputs": [
        {
          "name": "_id",
          "type": "string"
        },
        {
          "name": "_name",
          "type": "string"
        },
        {
          "name": "_url",
          "type": "string"
        }
      ],
      "name": "modifyChallengeGroup",
      "outputs": [],
      "payable": false,
      "stateMutability": "nonpayable",
      "type": "function",
      "signature": "0xc317cdf5"
    },
    {
      "constant": false,
      "inputs": [
        {
          "name": "_groupId",
          "type": "string"
        },
        {
          "name": "_targetDays",
          "type": "uint8"
        },
        {
          "name": "_totalDays",
          "type": "uint8"
        },
        {
          "name": "_startTimestamp",
          "type": "uint256"
        }
      ],
      "name": "createChallenge",
      "outputs": [],
      "payable": true,
      "stateMutability": "payable",
      "type": "function",
      "signature": "0x5bca3212"
    },
    {
      "constant": true,
      "inputs": [
        {
          "name": "_groupId",
          "type": "string"
        },
        {
          "name": "_address",
          "type": "address"
        }
      ],
      "name": "getChallenge",
      "outputs": [
        {
          "name": "_targetDays",
          "type": "uint8"
        },
        {
          "name": "_totalDays",
          "type": "uint8"
        },
        {
          "name": "_completeDays",
          "type": "uint8"
        },
        {
          "name": "_startDayTimestamp",
          "type": "uint256"
        },
        {
          "name": "_amount",
          "type": "uint256"
        },
        {
          "name": "_sponsorSize",
          "type": "uint256"
        },
        {
          "name": "_completeDates",
          "type": "uint256[]"
        }
      ],
      "payable": false,
      "stateMutability": "view",
      "type": "function",
      "signature": "0x21dbb19f"
    },
    {
      "constant": true,
      "inputs": [
        {
          "name": "_groupId",
          "type": "string"
        },
        {
          "name": "_address",
          "type": "address"
        },
        {
          "name": "_index",
          "type": "uint256"
        }
      ],
      "name": "getSponsor",
      "outputs": [
        {
          "name": "_who",
          "type": "address"
        },
        {
          "name": "_amount",
          "type": "uint256"
        },
        {
          "name": "_comment",
          "type": "string"
        }
      ],
      "payable": false,
      "stateMutability": "view",
      "type": "function",
      "signature": "0x273f676c"
    },
    {
      "constant": false,
      "inputs": [
        {
          "name": "_groupId",
          "type": "string"
        },
        {
          "name": "_who",
          "type": "address"
        },
        {
          "name": "timestamps",
          "type": "uint256[]"
        }
      ],
      "name": "completeDailyChallenges",
      "outputs": [],
      "payable": false,
      "stateMutability": "nonpayable",
      "type": "function",
      "signature": "0x85eae763"
    },
    {
      "constant": false,
      "inputs": [
        {
          "name": "_groupId",
          "type": "string"
        },
        {
          "name": "_who",
          "type": "address"
        }
      ],
      "name": "finishChallenge",
      "outputs": [],
      "payable": false,
      "stateMutability": "nonpayable",
      "type": "function",
      "signature": "0x500a6b7a"
    },
    {
      "constant": false,
      "inputs": [
        {
          "name": "_groupId",
          "type": "string"
        }
      ],
      "name": "abortChallenge",
      "outputs": [],
      "payable": false,
      "stateMutability": "nonpayable",
      "type": "function",
      "signature": "0xdb115bab"
    },
    {
      "constant": false,
      "inputs": [
        {
          "name": "_groupId",
          "type": "string"
        },
        {
          "name": "_who",
          "type": "address"
        },
        {
          "name": "comment",
          "type": "string"
        }
      ],
      "name": "sponsorChallenge",
      "outputs": [],
      "payable": true,
      "stateMutability": "payable",
      "type": "function",
      "signature": "0x010a3274"
    },
    {
      "constant": false,
      "inputs": [],
      "name": "ownerWithdraw",
      "outputs": [],
      "payable": false,
      "stateMutability": "nonpayable",
      "type": "function",
      "signature": "0x4311de8f"
    },
    {
      "constant": false,
      "inputs": [
        {
          "name": "_groupId",
          "type": "string"
        }
      ],
      "name": "groupWithdraw",
      "outputs": [],
      "payable": false,
      "stateMutability": "nonpayable",
      "type": "function",
      "signature": "0x5b740689"
    },
    {
      "constant": false,
      "inputs": [],
      "name": "userWithdraw",
      "outputs": [],
      "payable": false,
      "stateMutability": "nonpayable",
      "type": "function",
      "signature": "0xa646f9ad"
    }
  ],
  "bytecode": "0x608060405234801561001057600080fd5b50336000806101000a81548173ffffffffffffffffffffffffffffffffffffffff021916908373ffffffffffffffffffffffffffffffffffffffff1602179055506000809054906101000a900473ffffffffffffffffffffffffffffffffffffffff1673ffffffffffffffffffffffffffffffffffffffff16600073ffffffffffffffffffffffffffffffffffffffff167f8be0079c531659141344cd1fd0a4f28419497f9722a3daafe3b4186f6b6457e060405160405180910390a3614ddc806100dc6000396000f3fe60806040526004361061011d576000357c0100000000000000000000000000000000000000000000000000000000900463ffffffff168063010a32741461012257806321dbb19f146102945780632224b4bc1461040d578063273f676c146106555780632fb6ad34146107fa5780634311de8f1461082b5780634bccbf3614610842578063500a6b7a146108735780635b7406891461095b5780635bca321214610a23578063606b96b214610b02578063715018a614610d4a5780637ad915c414610d6157806385eae76314610d8c5780638da5cb5b14610f085780638f32d59b14610f5f578063a646f9ad14610f8e578063bedcf00314610fa5578063c317cdf514610fd0578063db115bab146111c6578063f2fde38b1461128e575b600080fd5b6102926004803603606081101561013857600080fd5b810190808035906020019064010000000081111561015557600080fd5b82018360208201111561016757600080fd5b8035906020019184600183028401116401000000008311171561018957600080fd5b91908080601f016020809104026020016040519081016040528093929190818152602001838380828437600081840152601f19601f820116905080830192505050505050509192919290803573ffffffffffffffffffffffffffffffffffffffff1690602001909291908035906020019064010000000081111561020c57600080fd5b82018360208201111561021e57600080fd5b8035906020019184600183028401116401000000008311171561024057600080fd5b91908080601f016020809104026020016040519081016040528093929190818152602001838380828437600081840152601f19601f8201169050808301925050505050505091929192905050506112df565b005b3480156102a057600080fd5b5061037a600480360360408110156102b757600080fd5b81019080803590602001906401000000008111156102d457600080fd5b8201836020820111156102e657600080fd5b8035906020019184600183028401116401000000008311171561030857600080fd5b91908080601f016020809104026020016040519081016040528093929190818152602001838380828437600081840152601f19601f820116905080830192505050505050509192919290803573ffffffffffffffffffffffffffffffffffffffff16906020019092919050505061153f565b604051808860ff1660ff1681526020018760ff1660ff1681526020018660ff1660ff16815260200185815260200184815260200183815260200180602001828103825283818151815260200191508051906020019060200280838360005b838110156103f35780820151818401526020810190506103d8565b505050509050019850505050505050505060405180910390f35b34801561041957600080fd5b506104d36004803603602081101561043057600080fd5b810190808035906020019064010000000081111561044d57600080fd5b82018360208201111561045f57600080fd5b8035906020019184600183028401116401000000008311171561048157600080fd5b91908080601f016020809104026020016040519081016040528093929190818152602001838380828437600081840152601f19601f820116905080830192505050505050509192919290505050611744565b6040518080602001806020018a60ff1660ff1681526020018960ff1660ff1681526020018860ff1660ff1681526020018781526020018681526020018573ffffffffffffffffffffffffffffffffffffffff1673ffffffffffffffffffffffffffffffffffffffff1681526020018473ffffffffffffffffffffffffffffffffffffffff1673ffffffffffffffffffffffffffffffffffffffff16815260200183810383528c818151815260200191508051906020019080838360005b838110156105ab578082015181840152602081019050610590565b50505050905090810190601f1680156105d85780820380516001836020036101000a031916815260200191505b5083810382528b818151815260200191508051906020019080838360005b838110156106115780820151818401526020810190506105f6565b50505050905090810190601f16801561063e5780820380516001836020036101000a031916815260200191505b509b50505050505050505050505060405180910390f35b34801561066157600080fd5b506107456004803603606081101561067857600080fd5b810190808035906020019064010000000081111561069557600080fd5b8201836020820111156106a757600080fd5b803590602001918460018302840111640100000000831117156106c957600080fd5b91908080601f016020809104026020016040519081016040528093929190818152602001838380828437600081840152601f19601f820116905080830192505050505050509192919290803573ffffffffffffffffffffffffffffffffffffffff169060200190929190803590602001909291905050506117b4565b604051808473ffffffffffffffffffffffffffffffffffffffff1673ffffffffffffffffffffffffffffffffffffffff16815260200183815260200180602001828103825283818151815260200191508051906020019080838360005b838110156107bd5780820151818401526020810190506107a2565b50505050905090810190601f1680156107ea5780820380516001836020036101000a031916815260200191505b5094505050505060405180910390f35b34801561080657600080fd5b5061080f6119af565b604051808260ff1660ff16815260200191505060405180910390f35b34801561083757600080fd5b506108406119b4565b005b34801561084e57600080fd5b50610857611a1a565b604051808260ff1660ff16815260200191505060405180910390f35b34801561087f57600080fd5b506109596004803603604081101561089657600080fd5b81019080803590602001906401000000008111156108b357600080fd5b8201836020820111156108c557600080fd5b803590602001918460018302840111640100000000831117156108e757600080fd5b91908080601f016020809104026020016040519081016040528093929190818152602001838380828437600081840152601f19601f820116905080830192505050505050509192919290803573ffffffffffffffffffffffffffffffffffffffff169060200190929190505050611a1f565b005b34801561096757600080fd5b50610a216004803603602081101561097e57600080fd5b810190808035906020019064010000000081111561099b57600080fd5b8201836020820111156109ad57600080fd5b803590602001918460018302840111640100000000831117156109cf57600080fd5b91908080601f016020809104026020016040519081016040528093929190818152602001838380828437600081840152601f19601f8201169050808301925050505050505091929192905050506120ac565b005b610b0060048036036080811015610a3957600080fd5b8101908080359060200190640100000000811115610a5657600080fd5b820183602082011115610a6857600080fd5b80359060200191846001830284011164010000000083111715610a8a57600080fd5b91908080601f016020809104026020016040519081016040528093929190818152602001838380828437600081840152601f19601f820116905080830192505050505050509192919290803560ff169060200190929190803560ff1690602001909291908035906020019092919050505061223b565b005b348015610b0e57600080fd5b50610d486004803603610100811015610b2657600080fd5b8101908080359060200190640100000000811115610b4357600080fd5b820183602082011115610b5557600080fd5b80359060200191846001830284011164010000000083111715610b7757600080fd5b91908080601f016020809104026020016040519081016040528093929190818152602001838380828437600081840152601f19601f82011690508083019250505050505050919291929080359060200190640100000000811115610bda57600080fd5b820183602082011115610bec57600080fd5b80359060200191846001830284011164010000000083111715610c0e57600080fd5b91908080601f016020809104026020016040519081016040528093929190818152602001838380828437600081840152601f19601f82011690508083019250505050505050919291929080359060200190640100000000811115610c7157600080fd5b820183602082011115610c8357600080fd5b80359060200191846001830284011164010000000083111715610ca557600080fd5b91908080601f016020809104026020016040519081016040528093929190818152602001838380828437600081840152601f19601f820116905080830192505050505050509192919290803560ff169060200190929190803560ff169060200190929190803560ff16906020019092919080359060200190929190803573ffffffffffffffffffffffffffffffffffffffff1690602001909291905050506129bf565b005b348015610d5657600080fd5b50610d5f612f5e565b005b348015610d6d57600080fd5b50610d76613030565b6040518082815260200191505060405180910390f35b348015610d9857600080fd5b50610f0660048036036060811015610daf57600080fd5b8101908080359060200190640100000000811115610dcc57600080fd5b820183602082011115610dde57600080fd5b80359060200191846001830284011164010000000083111715610e0057600080fd5b91908080601f016020809104026020016040519081016040528093929190818152602001838380828437600081840152601f19601f820116905080830192505050505050509192919290803573ffffffffffffffffffffffffffffffffffffffff16906020019092919080359060200190640100000000811115610e8357600080fd5b820183602082011115610e9557600080fd5b80359060200191846020830284011164010000000083111715610eb757600080fd5b919080806020026020016040519081016040528093929190818152602001838360200280828437600081840152601f19601f820116905080830192505050505050509192919290505050613036565b005b348015610f1457600080fd5b50610f1d613500565b604051808273ffffffffffffffffffffffffffffffffffffffff1673ffffffffffffffffffffffffffffffffffffffff16815260200191505060405180910390f35b348015610f6b57600080fd5b50610f74613529565b604051808215151515815260200191505060405180910390f35b348015610f9a57600080fd5b50610fa3613580565b005b348015610fb157600080fd5b50610fba613704565b6040518082815260200191505060405180910390f35b348015610fdc57600080fd5b506111c460048036036060811015610ff357600080fd5b810190808035906020019064010000000081111561101057600080fd5b82018360208201111561102257600080fd5b8035906020019184600183028401116401000000008311171561104457600080fd5b91908080601f016020809104026020016040519081016040528093929190818152602001838380828437600081840152601f19601f820116905080830192505050505050509192919290803590602001906401000000008111156110a757600080fd5b8201836020820111156110b957600080fd5b803590602001918460018302840111640100000000831117156110db57600080fd5b91908080601f016020809104026020016040519081016040528093929190818152602001838380828437600081840152601f19601f8201169050808301925050505050505091929192908035906020019064010000000081111561113e57600080fd5b82018360208201111561115057600080fd5b8035906020019184600183028401116401000000008311171561117257600080fd5b91908080601f016020809104026020016040519081016040528093929190818152602001838380828437600081840152601f19601f82011690508083019250505050505050919291929050505061370a565b005b3480156111d257600080fd5b5061128c600480360360208110156111e957600080fd5b810190808035906020019064010000000081111561120657600080fd5b82018360208201111561121857600080fd5b8035906020019184600183028401116401000000008311171561123a57600080fd5b91908080601f016020809104026020016040519081016040528093929190818152602001838380828437600081840152601f19601f820116905080830192505050505050509192919290505050613878565b005b34801561129a57600080fd5b506112dd600480360360208110156112b157600080fd5b81019080803573ffffffffffffffffffffffffffffffffffffffff169060200190929190505050613a88565b005b6112e883613aa7565b60c001513410151515611389576040517f08c379a000000000000000000000000000000000000000000000000000000000815260040180806020018281038252602f8152602001807f73706f6e736f722076616c7565206d7573742067726561746572207468616e2081526020017f67726f75702e6d696e416d6f756e74000000000000000000000000000000000081525060400191505060405180910390fd5b60006113958484613eb6565b90506060604051908101604052803373ffffffffffffffffffffffffffffffffffffffff168152602001348152602001838152508160060160008360050154815260200190815260200160002060008201518160000160006101000a81548173ffffffffffffffffffffffffffffffffffffffff021916908373ffffffffffffffffffffffffffffffffffffffff16021790555060208201518160010155604082015181600201908051906020019061144f929190614a96565b5090505080600501600081548092919060010191905055508273ffffffffffffffffffffffffffffffffffffffff163373ffffffffffffffffffffffffffffffffffffffff167f4a74808d2e829fa6fa972aab10ae5c0624569589a3ca7848b17c85cf0659415d34856040518083815260200180602001828103825283818151815260200191508051906020019080838360005b838110156114fe5780820151818401526020810190506114e3565b50505050905090810190601f16801561152b5780820380516001836020036101000a031916815260200191505b50935050505060405180910390a350505050565b6000806000806000806060600060058a6040518082805190602001908083835b602083101515611584578051825260208201915060208101905060208303925061155f565b6001836020036101000a038019825116818451168082178552505050505050905001915050908152602001604051809103902060008a73ffffffffffffffffffffffffffffffffffffffff1673ffffffffffffffffffffffffffffffffffffffff16815260200190815260200160002090508060020160029054906101000a900460ff1660ff166040519080825280602002602001820160405280156116395781602001602082028038833980820191505090505b509150600080905060008090505b8260020160019054906101000a900460ff1660ff168110156116e457600061167c828560030154613ff990919063ffffffff16565b90506001151584600701600083815260200190815260200160002060009054906101000a900460ff16151514156116d65780858460ff168151811015156116bf57fe5b906020019060200201818152505082806001019350505b508080600101915050611647565b508160020160009054906101000a900460ff1698508160020160019054906101000a900460ff1697508160020160029054906101000a900460ff169650816003015495508160040154945081600501549350505092959891949750929550565b606080600080600080600080600061175a614b16565b6117638b613aa7565b9050806020015199508060400151985080606001519750806080015196508060a0015195508060c0015194508060e00151935080610100015192508061012001519150509193959799909294969850565b60008060606117c1614b9f565b6005876040518082805190602001908083835b6020831015156117f957805182526020820191506020810190506020830392506117d4565b6001836020036101000a038019825116818451168082178552505050505050905001915050908152602001604051809103902060008773ffffffffffffffffffffffffffffffffffffffff1673ffffffffffffffffffffffffffffffffffffffff1681526020019081526020016000206006016000868152602001908152602001600020606060405190810160405290816000820160009054906101000a900473ffffffffffffffffffffffffffffffffffffffff1673ffffffffffffffffffffffffffffffffffffffff1673ffffffffffffffffffffffffffffffffffffffff16815260200160018201548152602001600282018054600181600116156101000203166002900480601f0160208091040260200160405190810160405280929190818152602001828054600181600116156101000203166002900480156119825780601f1061195757610100808354040283529160200191611982565b820191906000526020600020905b81548152906001019060200180831161196557829003601f168201915b50505050508152505090508060000151816020015182604001518090509350935093505093509350939050565b600c81565b6119bc613529565b15156119c757600080fd5b3373ffffffffffffffffffffffffffffffffffffffff166108fc6001549081150290604051600060405180830381858888f19350505050158015611a0f573d6000803e3d6000fd5b506000600181905550565b605a81565b6000611a2b8383613eb6565b90506000611a384261401a565b9050611a658260020160019054906101000a900460ff1660ff168360030154613ff990919063ffffffff16565b8110151515611b02576040517f08c379a00000000000000000000000000000000000000000000000000000000081526004018080602001828103825260248152602001807f6d7573742067726561746572207468616e206368616c6c656e6765277320456e81526020017f644461790000000000000000000000000000000000000000000000000000000081525060400191505060405180910390fd5b60008260020160009054906101000a900460ff1660ff168360020160029054906101000a900460ff1660ff16101515611dad576000905060008360040154905060008090505b8460050154811015611b8e57611b7f8560060160008381526020019081526020016000206001015483613ff990919063ffffffff16565b91508080600101915050611b48565b508473ffffffffffffffffffffffffffffffffffffffff166108fc829081150290604051600060405180830381858888f19350505050158015611bd5573d6000803e3d6000fd5b506003866040518082805190602001908083835b602083101515611c0e5780518252602082019150602081019050602083039250611be9565b6001836020036101000a038019825116818451168082178552505050505050905001915050908152602001604051809103902084908060018154018082558091505090600182039060005260206000209060080201600090919290919091506000820160009054906101000a900473ffffffffffffffffffffffffffffffffffffffff168160000160006101000a81548173ffffffffffffffffffffffffffffffffffffffff021916908373ffffffffffffffffffffffffffffffffffffffff16021790555060018201816001019080546001816001161561010002031660029004611cfb929190614bd7565b506002820160009054906101000a900460ff168160020160006101000a81548160ff021916908360ff1602179055506002820160019054906101000a900460ff168160020160016101000a81548160ff021916908360ff1602179055506002820160029054906101000a900460ff168160020160026101000a81548160ff021916908360ff16021790555060038201548160030155600482015481600401556005820154816005015550505050611eb1565b611db5614b16565b611dbe86613aa7565b9050611e048160a0015160ff16611df68660020160019054906101000a900460ff1660ff168760030154613ff990919063ffffffff16565b613ff990919063ffffffff16565b8310151515611ea1576040517f08c379a000000000000000000000000000000000000000000000000000000000815260040180806020018281038252603b8152602001807f6d7573742067726561746572207468616e206368616c6c656e6765277320456e81526020017f64446179202b2067726f75702773206d617844656c617944617973000000000081525060400191505060405180910390fd5b60019150611eaf8585614032565b505b806002811115611ebd57fe5b60ff168473ffffffffffffffffffffffffffffffffffffffff167f42ff0bddbbde7331d331e411595e2798992c867bb45228a7bb996529825be66f8560020160009054906101000a900460ff168660020160019054906101000a900460ff168760020160029054906101000a900460ff168860040154604051808560ff1660ff1681526020018460ff1660ff1681526020018360ff1660ff16815260200182815260200194505050505060405180910390a36005856040518082805190602001908083835b602083101515611fa75780518252602082019150602081019050602083039250611f82565b6001836020036101000a038019825116818451168082178552505050505050905001915050908152602001604051809103902060008573ffffffffffffffffffffffffffffffffffffffff1673ffffffffffffffffffffffffffffffffffffffff168152602001908152602001600020600080820160006101000a81549073ffffffffffffffffffffffffffffffffffffffff021916905560018201600061204f9190614c5e565b6002820160006101000a81549060ff02191690556002820160016101000a81549060ff02191690556002820160026101000a81549060ff021916905560038201600090556004820160009055600582016000905550505050505050565b60006002826040518082805190602001908083835b6020831015156120e657805182526020820191506020810190506020830392506120c1565b6001836020036101000a038019825116818451168082178552505050505050905001915050908152602001604051809103902090508060060160009054906101000a900473ffffffffffffffffffffffffffffffffffffffff1673ffffffffffffffffffffffffffffffffffffffff163373ffffffffffffffffffffffffffffffffffffffff161415156121e2576040517f08c379a00000000000000000000000000000000000000000000000000000000081526004018080602001828103825260198152602001807f6f6e6c792067726f7570206f776e65722063616e20776f726b0000000000000081525060200191505060405180910390fd5b3373ffffffffffffffffffffffffffffffffffffffff166108fc82600501549081150290604051600060405180830381858888f1935050505015801561222c573d6000803e3d6000fd5b50600081600501819055505050565b612243614b16565b61224c85613aa7565b905060006005866040518082805190602001908083835b6020831015156122885780518252602082019150602081019050602083039250612263565b6001836020036101000a038019825116818451168082178552505050505050905001915050908152602001604051809103902060003373ffffffffffffffffffffffffffffffffffffffff1673ffffffffffffffffffffffffffffffffffffffff16815260200190815260200160002060020160019054906101000a900460ff1660ff161415156123a7576040517f08c379a00000000000000000000000000000000000000000000000000000000081526004018080602001828103825260228152602001807f63616e204e4f5420637265617465206475706c6963617465206368616c6c656e81526020017f676500000000000000000000000000000000000000000000000000000000000081525060400191505060405180910390fd5b806060015160ff168360ff161015151561244f576040517f08c379a000000000000000000000000000000000000000000000000000000000815260040180806020018281038252602d8152602001807f6d7573742067726561746572207468616e206f7220657175616c20746f20677281526020017f6f75702773206d696e446179730000000000000000000000000000000000000081525060400191505060405180910390fd5b806080015160ff168360ff16111515156124f7576040517f08c379a000000000000000000000000000000000000000000000000000000000815260040180806020018281038252602a8152602001807f6d757374206c657373207468616e206f7220657175616c20746f2067726f757081526020017f2773206d6178446179730000000000000000000000000000000000000000000081525060400191505060405180910390fd5b806060015160ff168460ff161015151561259f576040517f08c379a000000000000000000000000000000000000000000000000000000000815260040180806020018281038252602d8152602001807f6d7573742067726561746572207468616e206f7220657175616c20746f20677281526020017f6f75702773206d696e446179730000000000000000000000000000000000000081525060400191505060405180910390fd5b8260ff168460ff1611151515612643576040517f08c379a00000000000000000000000000000000000000000000000000000000081526004018080602001828103825260248152602001807f6d757374206c657373207468616e206f7220657175616c20746f20746f74616c81526020017f446179730000000000000000000000000000000000000000000000000000000081525060400191505060405180910390fd5b8060c0015134101515156126e5576040517f08c379a00000000000000000000000000000000000000000000000000000000081526004018080602001828103825260238152602001807f6d7573742067726561746572207468616e2067726f75702773206d696e416d6f81526020017f756e74000000000000000000000000000000000000000000000000000000000081525060400191505060405180910390fd5b610100604051908101604052803373ffffffffffffffffffffffffffffffffffffffff1681526020018681526020018560ff1681526020018460ff168152602001600060ff1681526020016127398461401a565b815260200134815260200160008152506005866040518082805190602001908083835b602083101515612781578051825260208201915060208101905060208303925061275c565b6001836020036101000a038019825116818451168082178552505050505050905001915050908152602001604051809103902060003373ffffffffffffffffffffffffffffffffffffffff1673ffffffffffffffffffffffffffffffffffffffff16815260200190815260200160002060008201518160000160006101000a81548173ffffffffffffffffffffffffffffffffffffffff021916908373ffffffffffffffffffffffffffffffffffffffff1602179055506020820151816001019080519060200190612854929190614a96565b5060408201518160020160006101000a81548160ff021916908360ff16021790555060608201518160020160016101000a81548160ff021916908360ff16021790555060808201518160020160026101000a81548160ff021916908360ff16021790555060a0820151816003015560c0820151816004015560e082015181600501559050503373ffffffffffffffffffffffffffffffffffffffff167fab1daccc745f2ac18d79889f54ae106fbc25cc1895f986a8dc1ee32f81547270868686863460405180806020018660ff1660ff1681526020018560ff1660ff168152602001848152602001838152602001828103825287818151815260200191508051906020019080838360005b8381101561297a57808201518184015260208101905061295f565b50505050905090810190601f1680156129a75780820380516001836020036101000a031916815260200191505b50965050505050505060405180910390a25050505050565b60006002896040518082805190602001908083835b6020831015156129f957805182526020820191506020810190506020830392506129d4565b6001836020036101000a038019825116818451168082178552505050505050905001915050908152602001604051809103902060030160009054906101000a900460ff1660ff16141515612adb576040517f08c379a00000000000000000000000000000000000000000000000000000000081526004018080602001828103825260288152602001807f63616e204e4f54206265207468652073616d65206964206f66204368616c6c6581526020017f6e676547726f757000000000000000000000000000000000000000000000000081525060400191505060405180910390fd5b600c60ff168560ff1610151515612b5a576040517f08c379a00000000000000000000000000000000000000000000000000000000081526004018080602001828103825260208152602001807f6d7573742067726561746572207468616e20676c6f62616c206d696e4461797381525060200191505060405180910390fd5b605a60ff168460ff1611151515612bd9576040517f08c379a000000000000000000000000000000000000000000000000000000000815260040180806020018281038252601d8152602001807f6d757374206c657373207468616e20676c6f62616c206d61784461797300000081525060200191505060405180910390fd5b605a60ff168360ff1611151515612c58576040517f08c379a000000000000000000000000000000000000000000000000000000000815260040180806020018281038252601d8152602001807f6d757374206c657373207468616e20676c6f62616c206d61784461797300000081525060200191505060405180910390fd5b610140604051908101604052808981526020018881526020018781526020018660ff1681526020018560ff1681526020018460ff168152602001838152602001600081526020013373ffffffffffffffffffffffffffffffffffffffff1681526020018273ffffffffffffffffffffffffffffffffffffffff168152506002896040518082805190602001908083835b602083101515612d0d5780518252602082019150602081019050602083039250612ce8565b6001836020036101000a03801982511681845116808217855250505050505090500191505090815260200160405180910390206000820151816000019080519060200190612d5c929190614a96565b506020820151816001019080519060200190612d79929190614a96565b506040820151816002019080519060200190612d96929190614a96565b5060608201518160030160006101000a81548160ff021916908360ff16021790555060808201518160030160016101000a81548160ff021916908360ff16021790555060a08201518160030160026101000a81548160ff021916908360ff16021790555060c0820151816004015560e082015181600501556101008201518160060160006101000a81548173ffffffffffffffffffffffffffffffffffffffff021916908373ffffffffffffffffffffffffffffffffffffffff1602179055506101208201518160070160006101000a81548173ffffffffffffffffffffffffffffffffffffffff021916908373ffffffffffffffffffffffffffffffffffffffff1602179055509050503373ffffffffffffffffffffffffffffffffffffffff167f71d49af7e2735dd98a820c3e35a19b83758b3b63a172a20d4bbf357956e52ca4896040518080602001828103825283818151815260200191508051906020019080838360005b83811015612f1a578082015181840152602081019050612eff565b50505050905090810190601f168015612f475780820380516001836020036101000a031916815260200191505b509250505060405180910390a25050505050505050565b612f66613529565b1515612f7157600080fd5b600073ffffffffffffffffffffffffffffffffffffffff166000809054906101000a900473ffffffffffffffffffffffffffffffffffffffff1673ffffffffffffffffffffffffffffffffffffffff167f8be0079c531659141344cd1fd0a4f28419497f9722a3daafe3b4186f6b6457e060405160405180910390a360008060006101000a81548173ffffffffffffffffffffffffffffffffffffffff021916908373ffffffffffffffffffffffffffffffffffffffff160217905550565b60045481565b8282613040614b16565b61304983613aa7565b90503373ffffffffffffffffffffffffffffffffffffffff168273ffffffffffffffffffffffffffffffffffffffff1614806130b5575080610120015173ffffffffffffffffffffffffffffffffffffffff168273ffffffffffffffffffffffffffffffffffffffff16145b1515613129576040517f08c379a000000000000000000000000000000000000000000000000000000000815260040180806020018281038252601c8152602001807f6f6e6c79207573657220616e64206167656e742063616e20776f726b0000000081525060200191505060405180910390fd5b613131614b16565b61313a87613aa7565b905060006131488833613eb6565b905060008090505b86518110156134f557600061317b888381518110151561316c57fe5b9060200190602002015161401a565b90506001151583600701600083815260200190815260200160002060009054906101000a900460ff16151514156131b257506134e8565b82600301548110151515613254576040517f08c379a000000000000000000000000000000000000000000000000000000000815260040180806020018281038252602f8152602001807f6d7573742067726561746572207468616e206368616c6c656e6765277320737481526020017f61727444617954696d657374616d70000000000000000000000000000000000081525060400191505060405180910390fd5b61327f8360020160019054906101000a900460ff1660ff168460030154613ff990919063ffffffff16565b8110151561331b576040517f08c379a00000000000000000000000000000000000000000000000000000000081526004018080602001828103825260218152602001807f6d757374206c657373207468616e206368616c6c656e6765277320656e64446181526020017f790000000000000000000000000000000000000000000000000000000000000081525060400191505060405180910390fd5b60006133264261401a565b90508082111515156133c6576040517f08c379a00000000000000000000000000000000000000000000000000000000081526004018080602001828103825260218152602001807f6d757374206c657373207468616e206e6f7727732064617954696d657374616d81526020017f700000000000000000000000000000000000000000000000000000000000000081525060400191505060405180910390fd5b60006133e28660a0015160ff16836143ba90919063ffffffff16565b9050808310151515613482576040517f08c379a000000000000000000000000000000000000000000000000000000000815260040180806020018281038252602e8152602001807f6d7573742067726561746572207468616e206e6f77202d206368616c6c656e6781526020017f652e6d617844656c61794461797300000000000000000000000000000000000081525060400191505060405180910390fd5b84600201600281819054906101000a900460ff168092919060010191906101000a81548160ff021916908360ff16021790555050600185600701600085815260200190815260200160002060006101000a81548160ff0219169083151502179055505050505b8080600101915050613150565b505050505050505050565b60008060009054906101000a900473ffffffffffffffffffffffffffffffffffffffff16905090565b60008060009054906101000a900473ffffffffffffffffffffffffffffffffffffffff1673ffffffffffffffffffffffffffffffffffffffff163373ffffffffffffffffffffffffffffffffffffffff1614905090565b6000600660003373ffffffffffffffffffffffffffffffffffffffff1673ffffffffffffffffffffffffffffffffffffffff16815260200190815260200160002054111515613637576040517f08c379a00000000000000000000000000000000000000000000000000000000081526004018080602001828103825260138152602001807f6d7573742067726561746572207468616e20300000000000000000000000000081525060200191505060405180910390fd5b3373ffffffffffffffffffffffffffffffffffffffff166108fc600660003373ffffffffffffffffffffffffffffffffffffffff1673ffffffffffffffffffffffffffffffffffffffff168152602001908152602001600020549081150290604051600060405180830381858888f193505050501580156136bc573d6000803e3d6000fd5b506000600660003373ffffffffffffffffffffffffffffffffffffffff1673ffffffffffffffffffffffffffffffffffffffff16815260200190815260200160002081905550565b60015481565b60006002846040518082805190602001908083835b602083101515613744578051825260208201915060208101905060208303925061371f565b6001836020036101000a038019825116818451168082178552505050505050905001915050908152602001604051809103902090503373ffffffffffffffffffffffffffffffffffffffff168160060160009054906101000a900473ffffffffffffffffffffffffffffffffffffffff1673ffffffffffffffffffffffffffffffffffffffff16141515613840576040517f08c379a000000000000000000000000000000000000000000000000000000000815260040180806020018281038252601a8152602001807f6d75737420626520746865206f776e6572206f662067726f757000000000000081525060200191505060405180910390fd5b82816001019080519060200190613858929190614ca6565b5081816002019080519060200190613871929190614ca6565b5050505050565b60006138848233613eb6565b90506138903382614032565b60028081111561389c57fe5b60ff163373ffffffffffffffffffffffffffffffffffffffff167f42ff0bddbbde7331d331e411595e2798992c867bb45228a7bb996529825be66f8360020160009054906101000a900460ff168460020160019054906101000a900460ff168560020160029054906101000a900460ff168660040154604051808560ff1660ff1681526020018460ff1660ff1681526020018360ff1660ff16815260200182815260200194505050505060405180910390a36005826040518082805190602001908083835b6020831015156139865780518252602082019150602081019050602083039250613961565b6001836020036101000a038019825116818451168082178552505050505050905001915050908152602001604051809103902060003373ffffffffffffffffffffffffffffffffffffffff1673ffffffffffffffffffffffffffffffffffffffff168152602001908152602001600020600080820160006101000a81549073ffffffffffffffffffffffffffffffffffffffff0219169055600182016000613a2e9190614c5e565b6002820160006101000a81549060ff02191690556002820160016101000a81549060ff02191690556002820160026101000a81549060ff021916905560038201600090556004820160009055600582016000905550505050565b613a90613529565b1515613a9b57600080fd5b613aa4816143dc565b50565b613aaf614b16565b613ab7614b16565b6002836040518082805190602001908083835b602083101515613aef5780518252602082019150602081019050602083039250613aca565b6001836020036101000a03801982511681845116808217855250505050505090500191505090815260200160405180910390206101406040519081016040529081600082018054600181600116156101000203166002900480601f016020809104026020016040519081016040528092919081815260200182805460018160011615610100020316600290048015613bc85780601f10613b9d57610100808354040283529160200191613bc8565b820191906000526020600020905b815481529060010190602001808311613bab57829003601f168201915b50505050508152602001600182018054600181600116156101000203166002900480601f016020809104026020016040519081016040528092919081815260200182805460018160011615610100020316600290048015613c6a5780601f10613c3f57610100808354040283529160200191613c6a565b820191906000526020600020905b815481529060010190602001808311613c4d57829003601f168201915b50505050508152602001600282018054600181600116156101000203166002900480601f016020809104026020016040519081016040528092919081815260200182805460018160011615610100020316600290048015613d0c5780601f10613ce157610100808354040283529160200191613d0c565b820191906000526020600020905b815481529060010190602001808311613cef57829003601f168201915b505050505081526020016003820160009054906101000a900460ff1660ff1660ff1681526020016003820160019054906101000a900460ff1660ff1660ff1681526020016003820160029054906101000a900460ff1660ff1660ff16815260200160048201548152602001600582015481526020016006820160009054906101000a900473ffffffffffffffffffffffffffffffffffffffff1673ffffffffffffffffffffffffffffffffffffffff1673ffffffffffffffffffffffffffffffffffffffff1681526020016007820160009054906101000a900473ffffffffffffffffffffffffffffffffffffffff1673ffffffffffffffffffffffffffffffffffffffff1673ffffffffffffffffffffffffffffffffffffffff168152505090506000816060015160ff16111515613ead576040517f08c379a00000000000000000000000000000000000000000000000000000000081526004018080602001828103825260138152602001807f67726f757020646f65736e27742065786973740000000000000000000000000081525060200191505060405180910390fd5b80915050919050565b6000806005846040518082805190602001908083835b602083101515613ef15780518252602082019150602081019050602083039250613ecc565b6001836020036101000a038019825116818451168082178552505050505050905001915050908152602001604051809103902060008473ffffffffffffffffffffffffffffffffffffffff1673ffffffffffffffffffffffffffffffffffffffff168152602001908152602001600020905060008160020160019054906101000a900460ff1660ff16111515613fef576040517f08c379a00000000000000000000000000000000000000000000000000000000081526004018080602001828103825260178152602001807f6368616c6c656e676520646f65736e277420657869737400000000000000000081525060200191505060405180910390fd5b8091505092915050565b600080828401905083811015151561401057600080fd5b8091505092915050565b6000620151808281151561402a57fe5b049050919050565b600060028260010160405180828054600181600116156101000203166002900480156140955780601f10614073576101008083540402835291820191614095565b820191906000526020600020905b815481529060010190602001808311614081575b50509150509081526020016040518091039020905060006140b5836144d6565b905060006140e460026140d6600a8760040154614a2e90919063ffffffff16565b614a5890919063ffffffff16565b90506140fd818460050154613ff990919063ffffffff16565b8360050181905550600061411f600a8660040154614a2e90919063ffffffff16565b90508573ffffffffffffffffffffffffffffffffffffffff166108fc829081150290604051600060405180830381858888f19350505050158015614167573d6000803e3d6000fd5b5060006141a58261419785614189888b600401546143ba90919063ffffffff16565b6143ba90919063ffffffff16565b6143ba90919063ffffffff16565b90506141bc81600154613ff990919063ffffffff16565b60018190555060008090505b86600501548110156143b0576141dc614b9f565b876006016000838152602001908152602001600020606060405190810160405290816000820160009054906101000a900473ffffffffffffffffffffffffffffffffffffffff1673ffffffffffffffffffffffffffffffffffffffff1673ffffffffffffffffffffffffffffffffffffffff16815260200160018201548152602001600282018054600181600116156101000203166002900480601f0160208091040260200160405190810160405280929190818152602001828054600181600116156101000203166002900480156142f65780601f106142cb576101008083540402835291602001916142f6565b820191906000526020600020905b8154815290600101906020018083116142d957829003601f168201915b505050505081525050905061435b816020015160066000846000015173ffffffffffffffffffffffffffffffffffffffff1673ffffffffffffffffffffffffffffffffffffffff16815260200190815260200160002054613ff990919063ffffffff16565b60066000836000015173ffffffffffffffffffffffffffffffffffffffff1673ffffffffffffffffffffffffffffffffffffffff168152602001908152602001600020819055505080806001019150506141c8565b5050505050505050565b60008282111515156143cb57600080fd5b600082840390508091505092915050565b600073ffffffffffffffffffffffffffffffffffffffff168173ffffffffffffffffffffffffffffffffffffffff161415151561441857600080fd5b8073ffffffffffffffffffffffffffffffffffffffff166000809054906101000a900473ffffffffffffffffffffffffffffffffffffffff1673ffffffffffffffffffffffffffffffffffffffff167f8be0079c531659141344cd1fd0a4f28419497f9722a3daafe3b4186f6b6457e060405160405180910390a3806000806101000a81548173ffffffffffffffffffffffffffffffffffffffff021916908373ffffffffffffffffffffffffffffffffffffffff16021790555050565b600080600090506000809050606060038560010160405180828054600181600116156101000203166002900480156145455780601f10614523576101008083540402835291820191614545565b820191906000526020600020905b815481529060010190602001808311614531575b50509150509081526020016040518091039020805480602002602001604051908101604052809291908181526020016000905b82821015614719578382906000526020600020906008020161010060405190810160405290816000820160009054906101000a900473ffffffffffffffffffffffffffffffffffffffff1673ffffffffffffffffffffffffffffffffffffffff1673ffffffffffffffffffffffffffffffffffffffff168152602001600182018054600181600116156101000203166002900480601f01602080910402602001604051908101604052809291908181526020018280546001816001161561010002031660029004801561468c5780601f106146615761010080835404028352916020019161468c565b820191906000526020600020905b81548152906001019060200180831161466f57829003601f168201915b505050505081526020016002820160009054906101000a900460ff1660ff1660ff1681526020016002820160019054906101000a900460ff1660ff1660ff1681526020016002820160029054906101000a900460ff1660ff1660ff168152602001600382015481526020016004820154815260200160058201548152505081526020019060010190614578565b505050509050600060045490505b8151811015614a1057614738614d26565b828281518110151561474657fe5b906020019060200201519050600084148015614766575060008160c00151115b1561476f578193505b86600401548160c00151101515614a02576147ab600261479d600a8a60040154614a2e90919063ffffffff16565b614a5890919063ffffffff16565b9450600060038860010160405180828054600181600116156101000203166002900480156148105780601f106147ee576101008083540402835291820191614810565b820191906000526020600020905b8154815290600101906020018083116147fc575b505091505090815260200160405180910390208381548110151561483057fe5b90600052602060002090600802016004018190555061489b8560066000846000015173ffffffffffffffffffffffffffffffffffffffff1673ffffffffffffffffffffffffffffffffffffffff16815260200190815260200160002054613ff990919063ffffffff16565b60066000836000015173ffffffffffffffffffffffffffffffffffffffff1673ffffffffffffffffffffffffffffffffffffffff168152602001908152602001600020819055508660000160009054906101000a900473ffffffffffffffffffffffffffffffffffffffff1673ffffffffffffffffffffffffffffffffffffffff16816000015173ffffffffffffffffffffffffffffffffffffffff167ffa83c257a6acc7397d5d233d5b152d8d68fe118f3eab8351796aba2e5e114301896001018860405180806020018381526020018281038252848181546001816001161561010002031660029004815260200191508054600181600116156101000203166002900480156149ed5780601f106149c2576101008083540402835291602001916149ed565b820191906000526020600020905b8154815290600101906020018083116149d057829003601f168201915b5050935050505060405180910390a350614a10565b508080600101915050614727565b50600082141515614a2357816004819055505b829350505050919050565b60008082111515614a3e57600080fd5b60008284811515614a4b57fe5b0490508091505092915050565b600080831415614a6b5760009050614a90565b60008284029050828482811515614a7e57fe5b04141515614a8b57600080fd5b809150505b92915050565b828054600181600116156101000203166002900490600052602060002090601f016020900481019282601f10614ad757805160ff1916838001178555614b05565b82800160010185558215614b05579182015b82811115614b04578251825591602001919060010190614ae9565b5b509050614b129190614d8b565b5090565b61014060405190810160405280606081526020016060815260200160608152602001600060ff168152602001600060ff168152602001600060ff1681526020016000815260200160008152602001600073ffffffffffffffffffffffffffffffffffffffff168152602001600073ffffffffffffffffffffffffffffffffffffffff1681525090565b606060405190810160405280600073ffffffffffffffffffffffffffffffffffffffff16815260200160008152602001606081525090565b828054600181600116156101000203166002900490600052602060002090601f016020900481019282601f10614c105780548555614c4d565b82800160010185558215614c4d57600052602060002091601f016020900482015b82811115614c4c578254825591600101919060010190614c31565b5b509050614c5a9190614d8b565b5090565b50805460018160011615610100020316600290046000825580601f10614c845750614ca3565b601f016020900490600052602060002090810190614ca29190614d8b565b5b50565b828054600181600116156101000203166002900490600052602060002090601f016020900481019282601f10614ce757805160ff1916838001178555614d15565b82800160010185558215614d15579182015b82811115614d14578251825591602001919060010190614cf9565b5b509050614d229190614d8b565b5090565b61010060405190810160405280600073ffffffffffffffffffffffffffffffffffffffff16815260200160608152602001600060ff168152602001600060ff168152602001600060ff1681526020016000815260200160008152602001600081525090565b614dad91905b80821115614da9576000816000905550600101614d91565b5090565b9056fea165627a7a723058205fad38da5c9f67e5e5a108d14d416799128dc9e3ede8604126f0974291b7e2720029",
  "source": "pragma solidity ^0.5.0;\n\nimport \"openzeppelin-solidity/contracts/ownership/Ownable.sol\";\nimport \"openzeppelin-solidity/contracts/math/SafeMath.sol\";\n\n\ncontract CoinChallenges is Ownable {\n    using SafeMath for uint256;\n\n    uint8 public constant MinDays = 12;\n    uint8 public constant MaxDays = 90;\n\n    uint256 private constant DayTimestamp = 86400; // 60 * 60 * 24\n\n    uint256 public ownerBalance;\n    \n    struct ChallengeGroup {\n        string id;\n        string name;\n        string url;\n        uint8 minDays;\n        uint8 maxDays;\n        uint8 maxDelayDays;\n        uint256 minAmount;\n        uint256 balance;\n        address owner;\n        address agent;\n    }\n\n    enum ChallengeStatus { Succeeded, Failed, Aborted }\n\n    struct Challenge {\n        address who;\n        string groupId;\n        uint8 targetDays;\n        uint8 totalDays;\n        uint8 completeDays;\n        uint256 startDayTimestamp; // timestamp / dayTimestamp\n        uint256 amount;\n        uint256 sponsorSize;\n        mapping (uint256 => Sponsor) sponsors;\n        mapping (uint256 => bool) dayTimestampIsCompletes; // timestamp / dayTimestamp\n    }\n\n    struct Sponsor {\n        address who;\n        uint256 amount;\n        string comment;\n    }\n    \n    // id to ChallengeGroup\n    mapping (string => ChallengeGroup) challengeGroups;\n\n    // groupId to succeeded Challenges\n    mapping (string => Challenge[]) succeededChallenges;\n\n    // the start index of succeeded challenges\n    uint256 public succeededChallengesStartIndex;\n\n    // groupId to (address to Challenge in progress)\n    mapping (string => mapping (address => Challenge)) challenges;\n\n    // address to user's balance from sponsor and the profit-sharing of failed challenge\n    mapping (address => uint256) userBalances;\n\n    event NewChallengeGroup(address indexed proposer, string id);\n    event NewChallenge(address indexed proposer, string groupId, uint8 targetDays, uint8 totalDays, uint256 startDayTimestamp, uint256 amount);\n    event FinishChallenge(address indexed who, uint8 indexed status, uint8 targetDays, uint8 totalDays, uint8 completeDays, uint256 amount);\n    event ProfitSharing(address indexed who, address indexed challenger, string groupId, uint256 amount);\n    event SponsorChallenge(address indexed who, address indexed challenger, uint256 amount, string comment);\n\n    constructor() public {\n    }\n\n    modifier onlyChallengeOwnerAndGroupAgent(string memory _groupId, address _who) {\n        ChallengeGroup memory group = _getChallengeGroup(_groupId);\n        require(_who == msg.sender || _who == group.agent, \"only user and agent can work\");\n        _;\n    }\n\n    function createChallengeGroup(\n        string memory _id,\n        string memory _name,\n        string memory _url,\n        uint8 _minDays,\n        uint8 _maxDays,\n        uint8 _maxDelayDays,\n        uint256 _minAmount,\n        address _agent\n    ) public {\n        require(challengeGroups[_id].minDays == 0, \"can NOT be the same id of ChallengeGroup\");\n        require(_minDays >= MinDays, \"must greater than global minDays\");\n        require(_maxDays <= MaxDays, \"must less than global maxDays\");\n        require(_maxDelayDays <= MaxDays, \"must less than global maxDays\");\n\n        challengeGroups[_id] = ChallengeGroup(_id, _name, _url, _minDays, _maxDays, _maxDelayDays, _minAmount, 0, msg.sender, _agent);\n        emit NewChallengeGroup(msg.sender, _id);\n    }\n\n    function getChallengeGroup(string memory _id) public view returns (\n        string memory _name,\n        string memory _url,\n        uint8 _minDays,\n        uint8 _maxDays,\n        uint8 _maxDelayDays,\n        uint256 _minAmount,\n        uint256 _balance,\n        address _owner,\n        address _agent\n    ) {\n        ChallengeGroup memory group = _getChallengeGroup(_id);\n\n        _name = group.name;\n        _url = group.url;\n        _minDays = group.minDays;\n        _maxDays = group.maxDays;\n        _maxDelayDays = group.maxDelayDays;\n        _minAmount = group.minAmount;\n        _balance = group.balance;\n        _owner = group.owner;\n        _agent = group.agent;\n    }\n\n    function modifyChallengeGroup(string memory _id, string memory _name, string memory _url) public {\n        ChallengeGroup storage group = challengeGroups[_id];\n        require(group.owner == msg.sender, \"must be the owner of group\");\n\n        group.name = _name;\n        group.url = _url;\n    }\n\n    function createChallenge(\n        string memory _groupId,\n        uint8 _targetDays,\n        uint8 _totalDays,\n        uint256 _startTimestamp\n    ) public payable {\n        ChallengeGroup memory group = _getChallengeGroup(_groupId);\n\n        require(challenges[_groupId][msg.sender].totalDays == 0, \"can NOT create duplicate challenge\");\n        require(_totalDays >= group.minDays, \"must greater than or equal to group's minDays\");\n        require(_totalDays <= group.maxDays, \"must less than or equal to group's maxDays\");\n        require(_targetDays >= group.minDays, \"must greater than or equal to group's minDays\");\n        require(_targetDays <= _totalDays, \"must less than or equal to totalDays\");\n        require(msg.value >= group.minAmount, \"must greater than group's minAmount\");\n\n        challenges[_groupId][msg.sender] = Challenge(msg.sender, _groupId, _targetDays, _totalDays, 0, _getDayTimestamp(_startTimestamp), msg.value, 0);\n\n        emit NewChallenge(msg.sender, _groupId, _targetDays, _totalDays, _startTimestamp, msg.value);\n    }\n\n    function getChallenge(\n        string memory _groupId,\n        address _address\n    ) public view returns (\n        uint8 _targetDays,\n        uint8 _totalDays,\n        uint8 _completeDays,\n        uint256 _startDayTimestamp,\n        uint256 _amount,\n        uint256 _sponsorSize,\n        uint256[] memory _completeDates\n    ) {\n        Challenge storage challenge = challenges[_groupId][_address];\n\n        _completeDates = new uint[](challenge.completeDays);\n        uint8 index = 0;\n        for (uint i = 0; i < challenge.totalDays; i++) {\n          uint256 time = challenge.startDayTimestamp.add(i);\n          if (challenge.dayTimestampIsCompletes[time] == true) {\n            _completeDates[index] = time;\n            index++;\n          }\n        }\n\n        _targetDays = challenge.targetDays;\n        _totalDays = challenge.totalDays;\n        _completeDays = challenge.completeDays;\n        _startDayTimestamp = challenge.startDayTimestamp;\n        _amount = challenge.amount;\n        _sponsorSize = challenge.sponsorSize;\n    }\n\n    function getSponsor(\n        string memory _groupId,\n        address _address,\n        uint256 _index\n    ) public view returns (\n        address _who,\n        uint256 _amount,\n        string memory _comment\n    ) {\n        Sponsor memory sponsor = challenges[_groupId][_address].sponsors[_index];\n        return (sponsor.who, sponsor.amount, sponsor.comment);\n    }\n\n    /**\n     * @dev complete multiple daily challenges. Only challenger and group agent can run.\n     */\n    function completeDailyChallenges(string memory _groupId, address _who, uint256[] memory timestamps)\n        public onlyChallengeOwnerAndGroupAgent(_groupId, _who) {\n        \n        ChallengeGroup memory group = _getChallengeGroup(_groupId);\n        Challenge storage challenge = _getChallenge(_groupId, msg.sender);\n\n        for (uint256 index = 0; index < timestamps.length; index++) {\n            uint256 dayTimestamp = _getDayTimestamp(timestamps[index]);\n            if (challenge.dayTimestampIsCompletes[dayTimestamp] == true) {\n                continue;\n            }\n            require(dayTimestamp >= challenge.startDayTimestamp, \"must greater than challenge's startDayTimestamp\");\n            require(dayTimestamp < challenge.startDayTimestamp.add(challenge.totalDays), \"must less than challenge's endDay\");\n\n            uint256 nowDayTimestamp = _getDayTimestamp(now);\n            require(dayTimestamp <= nowDayTimestamp, \"must less than now's dayTimestamp\");\n\n            uint256 fromDayTimestamp = nowDayTimestamp.sub(group.maxDelayDays);\n            require(dayTimestamp >= fromDayTimestamp, \"must greater than now - challenge.maxDelayDays\");\n\n            challenge.completeDays++;\n            challenge.dayTimestampIsCompletes[dayTimestamp] = true;\n        }\n    }\n\n    /**\n     * @dev finish challenge. Anyone can help finish any challenge.\n     */\n    function finishChallenge(string memory _groupId, address payable _who) public {\n        Challenge storage challenge = _getChallenge(_groupId, _who);\n        uint256 nowDayTimestamp = _getDayTimestamp(now);\n        require(nowDayTimestamp >= challenge.startDayTimestamp.add(challenge.totalDays), \"must greater than challenge's EndDay\");\n\n        ChallengeStatus status;\n        if (challenge.completeDays >= challenge.targetDays) {\n            status = ChallengeStatus.Succeeded;\n\n            // set challenger's amount\n            uint256 amount = challenge.amount;\n\n            // add all sponsors' amount to amount\n            for (uint i = 0; i < challenge.sponsorSize; i++) {\n                amount = amount.add(challenge.sponsors[i].amount);\n            }\n\n            _who.transfer(amount);\n\n            succeededChallenges[_groupId].push(challenge);\n        } else {\n            ChallengeGroup memory group = _getChallengeGroup(_groupId);\n            require(nowDayTimestamp >= challenge.startDayTimestamp.add(challenge.totalDays).add(group.maxDelayDays), \"must greater than challenge's EndDay + group's maxDelayDays\");\n\n            status = ChallengeStatus.Failed;\n            _handleFailedChallenge(_who, challenge);\n        }\n\n        emit FinishChallenge(_who, uint8(status), challenge.targetDays, challenge.totalDays, challenge.completeDays, challenge.amount);\n        delete challenges[_groupId][_who];\n    }\n\n    /**\n     * @dev abort challenge. Only yourself can give up the challenge.\n     */\n    function abortChallenge(string memory _groupId) public {\n        Challenge storage challenge = _getChallenge(_groupId, msg.sender);\n        _handleFailedChallenge(msg.sender, challenge);\n\n        emit FinishChallenge(msg.sender, uint8(ChallengeStatus.Aborted), challenge.targetDays, challenge.totalDays, challenge.completeDays, challenge.amount);\n        delete challenges[_groupId][msg.sender];\n    }\n\n    /**\n     * @dev sponsor specific one challenge.\n     */\n    function sponsorChallenge(string memory _groupId, address _who, string memory comment) public payable {\n        require(msg.value >= _getChallengeGroup(_groupId).minAmount, \"sponsor value must greater than group.minAmount\");\n\n        Challenge storage challenge = _getChallenge(_groupId, _who);\n        challenge.sponsors[challenge.sponsorSize] = Sponsor(msg.sender, msg.value, comment);\n        challenge.sponsorSize++;\n\n        emit SponsorChallenge(msg.sender, _who, msg.value, comment);\n    }\n\n    /**\n     * @dev withdraw the balance of owner. Only contract owner can withdraw.\n     */\n    function ownerWithdraw() public onlyOwner {\n        msg.sender.transfer(ownerBalance);\n        ownerBalance = 0;\n    }\n\n    /**\n     * @dev withdraw the balance of challenge group. Only group owner can withdraw.\n     */\n    function groupWithdraw(string memory _groupId) public {\n        ChallengeGroup storage group = challengeGroups[_groupId];\n        require(msg.sender == group.owner, \"only group owner can work\");\n        msg.sender.transfer(group.balance);\n        group.balance = 0;\n    }\n\n    /**\n     * @dev withdraw the balance of user.\n     */\n    function userWithdraw() public {\n        require(userBalances[msg.sender] > 0, \"must greater than 0\");\n\n        msg.sender.transfer(userBalances[msg.sender]);\n        userBalances[msg.sender] = 0;\n    }\n\n    /**\n     * @dev compute dayTimestamp from timestamp.\n     * @param _timestamp timestamp\n     * @return dayTimestamp\n     */\n    function _getDayTimestamp(uint256 _timestamp) private pure returns (uint256) {\n        return _timestamp / DayTimestamp;\n    }\n\n    /**\n     * @dev get challenge group if exists\n     */\n    function _getChallengeGroup(string memory _id) private view returns (ChallengeGroup memory) {\n        ChallengeGroup memory group = challengeGroups[_id];\n        require(group.minDays > 0, \"group doesn't exist\");\n\n        return group;\n    }\n\n    /**\n     * @dev get in-progess challenge if exists\n     */\n    function _getChallenge(string memory _groupId, address _challengeOwner) private view returns (Challenge storage) {\n        Challenge storage challenge = challenges[_groupId][_challengeOwner];\n        require(challenge.totalDays > 0, \"challenge doesn't exist\");\n\n        return challenge;\n    }\n\n    /**\n     * @dev transfer money to the below:\n     * 20% of challenger's amount to the first winner on succeededChallenges\n     * 20% of challenger's amount to challenge group owner\n     * 10% of challenger's amount back to original challenger\n     * 50% of challenger's add to balance of contract owner\n     * 100% refund to sponsors\n     */\n    function _handleFailedChallenge(address payable who, Challenge storage challenge) private {\n        ChallengeGroup storage group = challengeGroups[challenge.groupId];\n\n        // transfer to the first winner whose amount is greater than challenger's\n        uint256 toFirstWinnerAmount = _addAmountToFirstWinner(challenge);\n\n        // add amount to the balance of group\n        uint256 toGroupOwnerAmount = challenge.amount.div(10).mul(2);\n        group.balance = group.balance.add(toGroupOwnerAmount);\n\n        // transfer back to challenger\n        uint256 toChallengerAmount = challenge.amount.div(10);\n        who.transfer(toChallengerAmount);\n\n        // add amount to balance of contract owner\n        uint256 toOwnerAmount = challenge.amount.sub(toFirstWinnerAmount).sub(toGroupOwnerAmount).sub(toChallengerAmount);\n        ownerBalance = ownerBalance.add(toOwnerAmount);\n\n        // add amount to sponsors' balances\n        for (uint256 index = 0; index < challenge.sponsorSize; index++) {\n            Sponsor memory sponsor = challenge.sponsors[index];\n            userBalances[sponsor.who] = userBalances[sponsor.who].add(sponsor.amount);\n        }\n    }\n\n    /**\n     * @dev add the profit-sharing amount to the first winner whose amount is greater and equal than challenger's\n     */\n    function _addAmountToFirstWinner(Challenge storage challenge) private returns (uint256) {\n        uint256 toFirstWinnerAmount = 0;\n        uint256 noZeroAmountIndex = 0;\n\n        Challenge[] memory _challenges = succeededChallenges[challenge.groupId];\n        for (uint256 index = succeededChallengesStartIndex; index < _challenges.length; index++) {\n            Challenge memory succeededChallenge = _challenges[index];\n\n            if (noZeroAmountIndex == 0 && succeededChallenge.amount > 0) {\n                noZeroAmountIndex = index;\n            }\n\n            if (succeededChallenge.amount >= challenge.amount) {\n                toFirstWinnerAmount = challenge.amount.div(10).mul(2);\n\n                succeededChallenges[challenge.groupId][index].amount = 0;\n\n                userBalances[succeededChallenge.who] = userBalances[succeededChallenge.who].add(toFirstWinnerAmount);\n                emit ProfitSharing(succeededChallenge.who, challenge.who, challenge.groupId, toFirstWinnerAmount);\n\n                break;\n            }\n        }\n        if (noZeroAmountIndex != 0) {\n            succeededChallengesStartIndex = noZeroAmountIndex;\n        }\n\n        return toFirstWinnerAmount;\n    }\n}\n",
  "sourcePath": "/Users/shiacruz/Desktop/projects/dapp/CoinChallengeContract/contracts/CoinChallenges.sol",
  "compiler": {
    "name": "solc",
    "version": "0.5.0+commit.1d4f565a.Emscripten.clang"
  },
  "schemaVersion": "3.0.1",
  "updatedAt": "2019-01-13T10:56:55.676Z",
  "devdoc": {
    "methods": {
      "abortChallenge(string)": {
        "details": "abort challenge. Only yourself can give up the challenge."
      },
      "completeDailyChallenges(string,address,uint256[])": {
        "details": "complete multiple daily challenges. Only challenger and group agent can run."
      },
      "finishChallenge(string,address)": {
        "details": "finish challenge. Anyone can help finish any challenge."
      },
      "groupWithdraw(string)": {
        "details": "withdraw the balance of challenge group. Only group owner can withdraw."
      },
      "isOwner()": {
        "return": "true if `msg.sender` is the owner of the contract."
      },
      "owner()": {
        "return": "the address of the owner."
      },
      "ownerWithdraw()": {
        "details": "withdraw the balance of owner. Only contract owner can withdraw."
      },
      "renounceOwnership()": {
        "details": "Allows the current owner to relinquish control of the contract."
      },
      "sponsorChallenge(string,address,string)": {
        "details": "sponsor specific one challenge."
      },
      "transferOwnership(address)": {
        "details": "Allows the current owner to transfer control of the contract to a newOwner.",
        "params": {
          "newOwner": "The address to transfer ownership to."
        }
      },
      "userWithdraw()": {
        "details": "withdraw the balance of user."
      }
    }
  },
  "userdoc": {
    "methods": {
      "renounceOwnership()": {
        "notice": "Renouncing to ownership will leave the contract without an owner. It will not be possible to call the functions with the `onlyOwner` modifier anymore."
      }
    }
  }
}