{
  "contractName": "CoinChallenges",
  "abi": [
    {
      "constant": true,
      "inputs": [
        {
          "name": "",
          "type": "address"
        }
      ],
      "name": "userBalances",
      "outputs": [
        {
          "name": "",
          "type": "uint256"
        }
      ],
      "payable": false,
      "stateMutability": "view",
      "type": "function"
    },
    {
      "constant": true,
      "inputs": [],
      "name": "MinDays",
      "outputs": [
        {
          "name": "",
          "type": "uint8"
        }
      ],
      "payable": false,
      "stateMutability": "view",
      "type": "function"
    },
    {
      "constant": true,
      "inputs": [],
      "name": "MaxDays",
      "outputs": [
        {
          "name": "",
          "type": "uint8"
        }
      ],
      "payable": false,
      "stateMutability": "view",
      "type": "function"
    },
    {
      "constant": false,
      "inputs": [],
      "name": "renounceOwnership",
      "outputs": [],
      "payable": false,
      "stateMutability": "nonpayable",
      "type": "function"
    },
    {
      "constant": true,
      "inputs": [],
      "name": "owner",
      "outputs": [
        {
          "name": "",
          "type": "address"
        }
      ],
      "payable": false,
      "stateMutability": "view",
      "type": "function"
    },
    {
      "constant": true,
      "inputs": [],
      "name": "isOwner",
      "outputs": [
        {
          "name": "",
          "type": "bool"
        }
      ],
      "payable": false,
      "stateMutability": "view",
      "type": "function"
    },
    {
      "constant": true,
      "inputs": [],
      "name": "ownerBalance",
      "outputs": [
        {
          "name": "",
          "type": "uint256"
        }
      ],
      "payable": false,
      "stateMutability": "view",
      "type": "function"
    },
    {
      "constant": false,
      "inputs": [
        {
          "name": "newOwner",
          "type": "address"
        }
      ],
      "name": "transferOwnership",
      "outputs": [],
      "payable": false,
      "stateMutability": "nonpayable",
      "type": "function"
    },
    {
      "inputs": [],
      "payable": false,
      "stateMutability": "nonpayable",
      "type": "constructor"
    },
    {
      "anonymous": false,
      "inputs": [
        {
          "indexed": true,
          "name": "proposer",
          "type": "address"
        },
        {
          "indexed": false,
          "name": "id",
          "type": "string"
        }
      ],
      "name": "NewChallengeGroup",
      "type": "event"
    },
    {
      "anonymous": false,
      "inputs": [
        {
          "indexed": true,
          "name": "proposer",
          "type": "address"
        },
        {
          "indexed": false,
          "name": "groupId",
          "type": "string"
        },
        {
          "indexed": false,
          "name": "goal",
          "type": "string"
        },
        {
          "indexed": false,
          "name": "targetDays",
          "type": "uint8"
        },
        {
          "indexed": false,
          "name": "totalDays",
          "type": "uint8"
        },
        {
          "indexed": false,
          "name": "startTimestamp",
          "type": "uint256"
        },
        {
          "indexed": false,
          "name": "amount",
          "type": "uint256"
        }
      ],
      "name": "NewChallenge",
      "type": "event"
    },
    {
      "anonymous": false,
      "inputs": [
        {
          "indexed": true,
          "name": "who",
          "type": "address"
        },
        {
          "indexed": false,
          "name": "groupId",
          "type": "string"
        },
        {
          "indexed": false,
          "name": "goal",
          "type": "string"
        },
        {
          "indexed": false,
          "name": "targetDays",
          "type": "uint8"
        },
        {
          "indexed": false,
          "name": "totalDays",
          "type": "uint8"
        },
        {
          "indexed": false,
          "name": "completeDays",
          "type": "uint8"
        },
        {
          "indexed": false,
          "name": "startTimestamp",
          "type": "uint256"
        },
        {
          "indexed": false,
          "name": "amount",
          "type": "uint256"
        },
        {
          "indexed": false,
          "name": "sponsorSize",
          "type": "uint256"
        },
        {
          "indexed": true,
          "name": "status",
          "type": "uint8"
        }
      ],
      "name": "FinishChallenge",
      "type": "event"
    },
    {
      "anonymous": false,
      "inputs": [
        {
          "indexed": true,
          "name": "who",
          "type": "address"
        },
        {
          "indexed": true,
          "name": "challenger",
          "type": "address"
        },
        {
          "indexed": false,
          "name": "amount",
          "type": "uint256"
        },
        {
          "indexed": false,
          "name": "comment",
          "type": "string"
        }
      ],
      "name": "SponsorChallenge",
      "type": "event"
    },
    {
      "anonymous": false,
      "inputs": [
        {
          "indexed": true,
          "name": "who",
          "type": "address"
        },
        {
          "indexed": true,
          "name": "challenger",
          "type": "address"
        },
        {
          "indexed": false,
          "name": "groupId",
          "type": "string"
        },
        {
          "indexed": false,
          "name": "amount",
          "type": "uint256"
        }
      ],
      "name": "SponsorWin",
      "type": "event"
    },
    {
      "anonymous": false,
      "inputs": [
        {
          "indexed": true,
          "name": "previousOwner",
          "type": "address"
        },
        {
          "indexed": true,
          "name": "newOwner",
          "type": "address"
        }
      ],
      "name": "OwnershipTransferred",
      "type": "event"
    },
    {
      "constant": false,
      "inputs": [
        {
          "name": "_id",
          "type": "string"
        },
        {
          "name": "_name",
          "type": "string"
        },
        {
          "name": "_url",
          "type": "string"
        },
        {
          "name": "_minDays",
          "type": "uint8"
        },
        {
          "name": "_maxDays",
          "type": "uint8"
        },
        {
          "name": "_maxDelayDays",
          "type": "uint8"
        },
        {
          "name": "_minAmount",
          "type": "uint256"
        },
        {
          "name": "_agent",
          "type": "address"
        }
      ],
      "name": "createChallengeGroup",
      "outputs": [],
      "payable": false,
      "stateMutability": "nonpayable",
      "type": "function"
    },
    {
      "constant": true,
      "inputs": [
        {
          "name": "_id",
          "type": "string"
        }
      ],
      "name": "getChallengeGroup",
      "outputs": [
        {
          "name": "_name",
          "type": "string"
        },
        {
          "name": "_url",
          "type": "string"
        },
        {
          "name": "_minDays",
          "type": "uint8"
        },
        {
          "name": "_maxDays",
          "type": "uint8"
        },
        {
          "name": "_maxDelayDays",
          "type": "uint8"
        },
        {
          "name": "_minAmount",
          "type": "uint256"
        },
        {
          "name": "_balance",
          "type": "uint256"
        },
        {
          "name": "_owner",
          "type": "address"
        },
        {
          "name": "_agent",
          "type": "address"
        }
      ],
      "payable": false,
      "stateMutability": "view",
      "type": "function"
    },
    {
      "constant": false,
      "inputs": [
        {
          "name": "_id",
          "type": "string"
        },
        {
          "name": "_name",
          "type": "string"
        },
        {
          "name": "_url",
          "type": "string"
        }
      ],
      "name": "modifyChallengeGroup",
      "outputs": [],
      "payable": false,
      "stateMutability": "nonpayable",
      "type": "function"
    },
    {
      "constant": false,
      "inputs": [
        {
          "name": "_groupId",
          "type": "string"
        },
        {
          "name": "_goal",
          "type": "string"
        },
        {
          "name": "_targetDays",
          "type": "uint8"
        },
        {
          "name": "_totalDays",
          "type": "uint8"
        },
        {
          "name": "_startTimestamp",
          "type": "uint256"
        }
      ],
      "name": "createChallenge",
      "outputs": [],
      "payable": true,
      "stateMutability": "payable",
      "type": "function"
    },
    {
      "constant": true,
      "inputs": [
        {
          "name": "_groupId",
          "type": "string"
        },
        {
          "name": "_address",
          "type": "address"
        }
      ],
      "name": "getChallenge",
      "outputs": [
        {
          "name": "_goal",
          "type": "string"
        },
        {
          "name": "_targetDays",
          "type": "uint8"
        },
        {
          "name": "_totalDays",
          "type": "uint8"
        },
        {
          "name": "_completeDays",
          "type": "uint8"
        },
        {
          "name": "_startTimestamp",
          "type": "uint256"
        },
        {
          "name": "_amount",
          "type": "uint256"
        },
        {
          "name": "_sponsorSize",
          "type": "uint256"
        },
        {
          "name": "_completeTimestamps",
          "type": "uint256[]"
        }
      ],
      "payable": false,
      "stateMutability": "view",
      "type": "function"
    },
    {
      "constant": true,
      "inputs": [
        {
          "name": "_groupId",
          "type": "string"
        },
        {
          "name": "_address",
          "type": "address"
        },
        {
          "name": "_index",
          "type": "uint256"
        }
      ],
      "name": "getSponsor",
      "outputs": [
        {
          "name": "_who",
          "type": "address"
        },
        {
          "name": "_amount",
          "type": "uint256"
        },
        {
          "name": "_comment",
          "type": "string"
        }
      ],
      "payable": false,
      "stateMutability": "view",
      "type": "function"
    },
    {
      "constant": false,
      "inputs": [
        {
          "name": "_groupId",
          "type": "string"
        },
        {
          "name": "_who",
          "type": "address"
        },
        {
          "name": "timestamps",
          "type": "uint256[]"
        }
      ],
      "name": "completeDailyChallenges",
      "outputs": [],
      "payable": false,
      "stateMutability": "nonpayable",
      "type": "function"
    },
    {
      "constant": false,
      "inputs": [
        {
          "name": "_groupId",
          "type": "string"
        },
        {
          "name": "_who",
          "type": "address"
        }
      ],
      "name": "finishChallenge",
      "outputs": [],
      "payable": false,
      "stateMutability": "nonpayable",
      "type": "function"
    },
    {
      "constant": false,
      "inputs": [
        {
          "name": "_groupId",
          "type": "string"
        }
      ],
      "name": "abortChallenge",
      "outputs": [],
      "payable": false,
      "stateMutability": "nonpayable",
      "type": "function"
    },
    {
      "constant": false,
      "inputs": [
        {
          "name": "_groupId",
          "type": "string"
        },
        {
          "name": "_who",
          "type": "address"
        },
        {
          "name": "comment",
          "type": "string"
        }
      ],
      "name": "sponsorChallenge",
      "outputs": [],
      "payable": true,
      "stateMutability": "payable",
      "type": "function"
    },
    {
      "constant": false,
      "inputs": [],
      "name": "ownerWithdraw",
      "outputs": [],
      "payable": false,
      "stateMutability": "nonpayable",
      "type": "function"
    },
    {
      "constant": false,
      "inputs": [
        {
          "name": "_groupId",
          "type": "string"
        }
      ],
      "name": "groupWithdraw",
      "outputs": [],
      "payable": false,
      "stateMutability": "nonpayable",
      "type": "function"
    },
    {
      "constant": false,
      "inputs": [],
      "name": "userWithdraw",
      "outputs": [],
      "payable": false,
      "stateMutability": "nonpayable",
      "type": "function"
    }
  ],
  "bytecode": "0x608060405234801561001057600080fd5b50336000806101000a81548173ffffffffffffffffffffffffffffffffffffffff021916908373ffffffffffffffffffffffffffffffffffffffff1602179055506000809054906101000a900473ffffffffffffffffffffffffffffffffffffffff1673ffffffffffffffffffffffffffffffffffffffff16600073ffffffffffffffffffffffffffffffffffffffff167f8be0079c531659141344cd1fd0a4f28419497f9722a3daafe3b4186f6b6457e060405160405180910390a36153f8806100dc6000396000f3fe60806040526004361061011d576000357c0100000000000000000000000000000000000000000000000000000000900463ffffffff168063010a32741461012257806321dbb19f146102945780632224b4bc1461047957806326224c64146106c1578063273f676c146107265780632fb6ad34146108cb5780634311de8f146108fc5780634bccbf3614610913578063500a6b7a146109445780635b74068914610a2c578063606b96b214610af4578063715018a614610d3c57806385b2e4c614610d5357806385eae76314610ec95780638da5cb5b146110455780638f32d59b1461109c578063a646f9ad146110cb578063bedcf003146110e2578063c317cdf51461110d578063db115bab14611303578063f2fde38b146113cb575b600080fd5b6102926004803603606081101561013857600080fd5b810190808035906020019064010000000081111561015557600080fd5b82018360208201111561016757600080fd5b8035906020019184600183028401116401000000008311171561018957600080fd5b91908080601f016020809104026020016040519081016040528093929190818152602001838380828437600081840152601f19601f820116905080830192505050505050509192919290803573ffffffffffffffffffffffffffffffffffffffff1690602001909291908035906020019064010000000081111561020c57600080fd5b82018360208201111561021e57600080fd5b8035906020019184600183028401116401000000008311171561024057600080fd5b91908080601f016020809104026020016040519081016040528093929190818152602001838380828437600081840152601f19601f82011690508083019250505050505050919291929050505061141c565b005b3480156102a057600080fd5b5061037a600480360360408110156102b757600080fd5b81019080803590602001906401000000008111156102d457600080fd5b8201836020820111156102e657600080fd5b8035906020019184600183028401116401000000008311171561030857600080fd5b91908080601f016020809104026020016040519081016040528093929190818152602001838380828437600081840152601f19601f820116905080830192505050505050509192919290803573ffffffffffffffffffffffffffffffffffffffff16906020019092919050505061167c565b60405180806020018960ff1660ff1681526020018860ff1660ff1681526020018760ff1660ff1681526020018681526020018581526020018481526020018060200183810383528b818151815260200191508051906020019080838360005b838110156103f45780820151818401526020810190506103d9565b50505050905090810190601f1680156104215780820380516001836020036101000a031916815260200191505b50838103825284818151815260200191508051906020019060200280838360005b8381101561045d578082015181840152602081019050610442565b505050509050019a505050505050505050505060405180910390f35b34801561048557600080fd5b5061053f6004803603602081101561049c57600080fd5b81019080803590602001906401000000008111156104b957600080fd5b8201836020820111156104cb57600080fd5b803590602001918460018302840111640100000000831117156104ed57600080fd5b91908080601f016020809104026020016040519081016040528093929190818152602001838380828437600081840152601f19601f820116905080830192505050505050509192919290505050611922565b6040518080602001806020018a60ff1660ff1681526020018960ff1660ff1681526020018860ff1660ff1681526020018781526020018681526020018573ffffffffffffffffffffffffffffffffffffffff1673ffffffffffffffffffffffffffffffffffffffff1681526020018473ffffffffffffffffffffffffffffffffffffffff1673ffffffffffffffffffffffffffffffffffffffff16815260200183810383528c818151815260200191508051906020019080838360005b838110156106175780820151818401526020810190506105fc565b50505050905090810190601f1680156106445780820380516001836020036101000a031916815260200191505b5083810382528b818151815260200191508051906020019080838360005b8381101561067d578082015181840152602081019050610662565b50505050905090810190601f1680156106aa5780820380516001836020036101000a031916815260200191505b509b50505050505050505050505060405180910390f35b3480156106cd57600080fd5b50610710600480360360208110156106e457600080fd5b81019080803573ffffffffffffffffffffffffffffffffffffffff169060200190929190505050611992565b6040518082815260200191505060405180910390f35b34801561073257600080fd5b506108166004803603606081101561074957600080fd5b810190808035906020019064010000000081111561076657600080fd5b82018360208201111561077857600080fd5b8035906020019184600183028401116401000000008311171561079a57600080fd5b91908080601f016020809104026020016040519081016040528093929190818152602001838380828437600081840152601f19601f820116905080830192505050505050509192919290803573ffffffffffffffffffffffffffffffffffffffff169060200190929190803590602001909291905050506119aa565b604051808473ffffffffffffffffffffffffffffffffffffffff1673ffffffffffffffffffffffffffffffffffffffff16815260200183815260200180602001828103825283818151815260200191508051906020019080838360005b8381101561088e578082015181840152602081019050610873565b50505050905090810190601f1680156108bb5780820380516001836020036101000a031916815260200191505b5094505050505060405180910390f35b3480156108d757600080fd5b506108e0611cc7565b604051808260ff1660ff16815260200191505060405180910390f35b34801561090857600080fd5b50610911611ccc565b005b34801561091f57600080fd5b50610928611d38565b604051808260ff1660ff16815260200191505060405180910390f35b34801561095057600080fd5b50610a2a6004803603604081101561096757600080fd5b810190808035906020019064010000000081111561098457600080fd5b82018360208201111561099657600080fd5b803590602001918460018302840111640100000000831117156109b857600080fd5b91908080601f016020809104026020016040519081016040528093929190818152602001838380828437600081840152601f19601f820116905080830192505050505050509192919290803573ffffffffffffffffffffffffffffffffffffffff169060200190929190505050611d3d565b005b348015610a3857600080fd5b50610af260048036036020811015610a4f57600080fd5b8101908080359060200190640100000000811115610a6c57600080fd5b820183602082011115610a7e57600080fd5b80359060200191846001830284011164010000000083111715610aa057600080fd5b91908080601f016020809104026020016040519081016040528093929190818152602001838380828437600081840152601f19601f82011690508083019250505050505050919291929050505061244e565b005b348015610b0057600080fd5b50610d3a6004803603610100811015610b1857600080fd5b8101908080359060200190640100000000811115610b3557600080fd5b820183602082011115610b4757600080fd5b80359060200191846001830284011164010000000083111715610b6957600080fd5b91908080601f016020809104026020016040519081016040528093929190818152602001838380828437600081840152601f19601f82011690508083019250505050505050919291929080359060200190640100000000811115610bcc57600080fd5b820183602082011115610bde57600080fd5b80359060200191846001830284011164010000000083111715610c0057600080fd5b91908080601f016020809104026020016040519081016040528093929190818152602001838380828437600081840152601f19601f82011690508083019250505050505050919291929080359060200190640100000000811115610c6357600080fd5b820183602082011115610c7557600080fd5b80359060200191846001830284011164010000000083111715610c9757600080fd5b91908080601f016020809104026020016040519081016040528093929190818152602001838380828437600081840152601f19601f820116905080830192505050505050509192919290803560ff169060200190929190803560ff169060200190929190803560ff16906020019092919080359060200190929190803573ffffffffffffffffffffffffffffffffffffffff16906020019092919050505061265f565b005b348015610d4857600080fd5b50610d51612bfe565b005b610ec7600480360360a0811015610d6957600080fd5b8101908080359060200190640100000000811115610d8657600080fd5b820183602082011115610d9857600080fd5b80359060200191846001830284011164010000000083111715610dba57600080fd5b91908080601f016020809104026020016040519081016040528093929190818152602001838380828437600081840152601f19601f82011690508083019250505050505050919291929080359060200190640100000000811115610e1d57600080fd5b820183602082011115610e2f57600080fd5b80359060200191846001830284011164010000000083111715610e5157600080fd5b91908080601f016020809104026020016040519081016040528093929190818152602001838380828437600081840152601f19601f820116905080830192505050505050509192919290803560ff169060200190929190803560ff16906020019092919080359060200190929190505050612cd0565b005b348015610ed557600080fd5b5061104360048036036060811015610eec57600080fd5b8101908080359060200190640100000000811115610f0957600080fd5b820183602082011115610f1b57600080fd5b80359060200191846001830284011164010000000083111715610f3d57600080fd5b91908080601f016020809104026020016040519081016040528093929190818152602001838380828437600081840152601f19601f820116905080830192505050505050509192919290803573ffffffffffffffffffffffffffffffffffffffff16906020019092919080359060200190640100000000811115610fc057600080fd5b820183602082011115610fd257600080fd5b80359060200191846020830284011164010000000083111715610ff457600080fd5b919080806020026020016040519081016040528093929190818152602001838360200280828437600081840152601f19601f820116905080830192505050505050509192919290505050613757565b005b34801561105157600080fd5b5061105a613b7f565b604051808273ffffffffffffffffffffffffffffffffffffffff1673ffffffffffffffffffffffffffffffffffffffff16815260200191505060405180910390f35b3480156110a857600080fd5b506110b1613ba8565b604051808215151515815260200191505060405180910390f35b3480156110d757600080fd5b506110e0613bff565b005b3480156110ee57600080fd5b506110f7613daf565b6040518082815260200191505060405180910390f35b34801561111957600080fd5b506113016004803603606081101561113057600080fd5b810190808035906020019064010000000081111561114d57600080fd5b82018360208201111561115f57600080fd5b8035906020019184600183028401116401000000008311171561118157600080fd5b91908080601f016020809104026020016040519081016040528093929190818152602001838380828437600081840152601f19601f820116905080830192505050505050509192919290803590602001906401000000008111156111e457600080fd5b8201836020820111156111f657600080fd5b8035906020019184600183028401116401000000008311171561121857600080fd5b91908080601f016020809104026020016040519081016040528093929190818152602001838380828437600081840152601f19601f8201169050808301925050505050505091929192908035906020019064010000000081111561127b57600080fd5b82018360208201111561128d57600080fd5b803590602001918460018302840111640100000000831117156112af57600080fd5b91908080601f016020809104026020016040519081016040528093929190818152602001838380828437600081840152601f19601f820116905080830192505050505050509192919290505050613db5565b005b34801561130f57600080fd5b506113c96004803603602081101561132657600080fd5b810190808035906020019064010000000081111561134357600080fd5b82018360208201111561135557600080fd5b8035906020019184600183028401116401000000008311171561137757600080fd5b91908080601f016020809104026020016040519081016040528093929190818152602001838380828437600081840152601f19601f820116905080830192505050505050509192919290505050613f23565b005b3480156113d757600080fd5b5061141a600480360360208110156113ee57600080fd5b81019080803573ffffffffffffffffffffffffffffffffffffffff169060200190929190505050614384565b005b611425836143a3565b60c0015134101515156114c6576040517f08c379a000000000000000000000000000000000000000000000000000000000815260040180806020018281038252602f8152602001807f73706f6e736f722076616c7565206d7573742067726561746572207468616e2081526020017f67726f75702e6d696e416d6f756e74000000000000000000000000000000000081525060400191505060405180910390fd5b60006114d284846147b2565b90506060604051908101604052803373ffffffffffffffffffffffffffffffffffffffff168152602001348152602001838152508160080160008360060154815260200190815260200160002060008201518160000160006101000a81548173ffffffffffffffffffffffffffffffffffffffff021916908373ffffffffffffffffffffffffffffffffffffffff16021790555060208201518160010155604082015181600201908051906020019061158c92919061519e565b5090505080600601600081548092919060010191905055508273ffffffffffffffffffffffffffffffffffffffff163373ffffffffffffffffffffffffffffffffffffffff167f4a74808d2e829fa6fa972aab10ae5c0624569589a3ca7848b17c85cf0659415d34856040518083815260200180602001828103825283818151815260200191508051906020019080838360005b8381101561163b578082015181840152602081019050611620565b50505050905090810190601f1680156116685780820380516001836020036101000a031916815260200191505b50935050505060405180910390a350505050565b60606000806000806000806060600060038b6040518082805190602001908083835b6020831015156116c3578051825260208201915060208101905060208303925061169e565b6001836020036101000a038019825116818451168082178552505050505050905001915050908152602001604051809103902060008b73ffffffffffffffffffffffffffffffffffffffff1673ffffffffffffffffffffffffffffffffffffffff16815260200190815260200160002090508060030160029054906101000a900460ff1660ff166040519080825280602002602001820160405280156117785781602001602082028038833980820191505090505b509150600080905060008090505b8260030160019054906101000a900460ff1660ff16811015611822576001151583600901600083815260200190815260200160002060009054906101000a900460ff1615151415611815576117ed62015180820284600401546148f590919063ffffffff16565b848360ff168151811015156117fe57fe5b906020019060200201818152505081806001019250505b8080600101915050611786565b50816002018054600181600116156101000203166002900480601f0160208091040260200160405190810160405280929190818152602001828054600181600116156101000203166002900480156118bb5780601f10611890576101008083540402835291602001916118bb565b820191906000526020600020905b81548152906001019060200180831161189e57829003601f168201915b505050505099508160030160009054906101000a900460ff1698508160030160019054906101000a900460ff1697508160030160029054906101000a900460ff16965081600401549550816005015494508160060154935050509295985092959890939650565b606080600080600080600080600061193861521e565b6119418b6143a3565b9050806020015199508060400151985080606001519750806080015196508060a0015195508060c0015194508060e00151935080610100015192508061012001519150509193959799909294969850565b60046020528060005260406000206000915090505481565b60008060606003866040518082805190602001908083835b6020831015156119e757805182526020820191506020810190506020830392506119c2565b6001836020036101000a038019825116818451168082178552505050505050905001915050908152602001604051809103902060008673ffffffffffffffffffffffffffffffffffffffff1673ffffffffffffffffffffffffffffffffffffffff1681526020019081526020016000206006015484101515611ad1576040517f08c379a000000000000000000000000000000000000000000000000000000000815260040180806020018281038252601b8152602001807f6d757374206c657373207468616e2073706f6e736f722073697a65000000000081525060200191505060405180910390fd5b611ad96152a7565b6003876040518082805190602001908083835b602083101515611b115780518252602082019150602081019050602083039250611aec565b6001836020036101000a038019825116818451168082178552505050505050905001915050908152602001604051809103902060008773ffffffffffffffffffffffffffffffffffffffff1673ffffffffffffffffffffffffffffffffffffffff1681526020019081526020016000206008016000868152602001908152602001600020606060405190810160405290816000820160009054906101000a900473ffffffffffffffffffffffffffffffffffffffff1673ffffffffffffffffffffffffffffffffffffffff1673ffffffffffffffffffffffffffffffffffffffff16815260200160018201548152602001600282018054600181600116156101000203166002900480601f016020809104026020016040519081016040528092919081815260200182805460018160011615610100020316600290048015611c9a5780601f10611c6f57610100808354040283529160200191611c9a565b820191906000526020600020905b815481529060010190602001808311611c7d57829003601f168201915b50505050508152505090508060000151816020015182604001518090509350935093505093509350939050565b600c81565b611cd4613ba8565b1515611cdf57600080fd5b6000600154905060006001819055503373ffffffffffffffffffffffffffffffffffffffff166108fc829081150290604051600060405180830381858888f19350505050158015611d34573d6000803e3d6000fd5b5050565b605a81565b6000611d4983836147b2565b9050611d7b620151808260030160019054906101000a900460ff1660ff160282600401546148f590919063ffffffff16565b4210151515611e18576040517f08c379a00000000000000000000000000000000000000000000000000000000081526004018080602001828103825260248152602001807f6d7573742067726561746572207468616e206368616c6c656e6765277320456e81526020017f644461790000000000000000000000000000000000000000000000000000000081525060400191505060405180910390fd5b600380811115611e2457fe5b8160070160009054906101000a900460ff166003811115611e4157fe5b141515611edc576040517f08c379a00000000000000000000000000000000000000000000000000000000081526004018080602001828103825260228152602001807f6368616c6c656e676520737461747573206973204e4f5420496e50726f67726581526020017f737300000000000000000000000000000000000000000000000000000000000081525060400191505060405180910390fd5b8060030160009054906101000a900460ff1660ff168160030160029054906101000a900460ff1660ff16101515611fd65760008160070160006101000a81548160ff02191690836003811115611f2e57fe5b021790555060008160050154905060008090505b8260060154811015611f8857611f7983600801600083815260200190815260200160002060010154836148f590919063ffffffff16565b91508080600101915050611f42565b508273ffffffffffffffffffffffffffffffffffffffff166108fc829081150290604051600060405180830381858888f19350505050158015611fcf573d6000803e3d6000fd5b50506120ee565b611fde61521e565b611fe7846143a3565b905061201f620151808260a001518460030160019054906101000a900460ff160160ff160283600401546148f590919063ffffffff16565b42101515156120bc576040517f08c379a000000000000000000000000000000000000000000000000000000000815260040180806020018281038252603b8152602001807f6d7573742067726561746572207468616e206368616c6c656e6765277320456e81526020017f64446179202b2067726f75702773206d617844656c617944617973000000000081525060400191505060405180910390fd5b60018260070160006101000a81548160ff021916908360038111156120dd57fe5b02179055506120ec8383614916565b505b8060070160009054906101000a900460ff16600381111561210b57fe5b60ff168273ffffffffffffffffffffffffffffffffffffffff167f8dc044a07c06dca135e3403b8abb803e7522dbb705fd5802941f1470d840b8a783600101846002018560030160009054906101000a900460ff168660030160019054906101000a900460ff168760030160029054906101000a900460ff16886004015489600501548a600601546040518080602001806020018960ff1660ff1681526020018860ff1660ff1681526020018760ff1660ff16815260200186815260200185815260200184815260200183810383528b8181546001816001161561010002031660029004815260200191508054600181600116156101000203166002900480156122565780601f1061222b57610100808354040283529160200191612256565b820191906000526020600020905b81548152906001019060200180831161223957829003601f168201915b505083810382528a8181546001816001161561010002031660029004815260200191508054600181600116156101000203166002900480156122d95780601f106122ae576101008083540402835291602001916122d9565b820191906000526020600020905b8154815290600101906020018083116122bc57829003601f168201915b50509a505050505050505050505060405180910390a36003836040518082805190602001908083835b6020831015156123275780518252602082019150602081019050602083039250612302565b6001836020036101000a038019825116818451168082178552505050505050905001915050908152602001604051809103902060008373ffffffffffffffffffffffffffffffffffffffff1673ffffffffffffffffffffffffffffffffffffffff168152602001908152602001600020600080820160006101000a81549073ffffffffffffffffffffffffffffffffffffffff02191690556001820160006123cf91906152df565b6002820160006123df91906152df565b6003820160006101000a81549060ff02191690556003820160016101000a81549060ff02191690556003820160026101000a81549060ff02191690556004820160009055600582016000905560068201600090556007820160006101000a81549060ff02191690555050505050565b60006002826040518082805190602001908083835b6020831015156124885780518252602082019150602081019050602083039250612463565b6001836020036101000a038019825116818451168082178552505050505050905001915050908152602001604051809103902090508060060160009054906101000a900473ffffffffffffffffffffffffffffffffffffffff1673ffffffffffffffffffffffffffffffffffffffff163373ffffffffffffffffffffffffffffffffffffffff16141515612584576040517f08c379a00000000000000000000000000000000000000000000000000000000081526004018080602001828103825260178152602001807f7065726d697373696f6e3a2067726f7570206f776e657200000000000000000081525060200191505060405180910390fd5b60008160050154111515612600576040517f08c379a00000000000000000000000000000000000000000000000000000000081526004018080602001828103825260188152602001807f6e6f7420656e6f7567682067726f75702e62616c616e6365000000000000000081525060200191505060405180910390fd5b600081600501549050600082600501819055503373ffffffffffffffffffffffffffffffffffffffff166108fc829081150290604051600060405180830381858888f19350505050158015612659573d6000803e3d6000fd5b50505050565b60006002896040518082805190602001908083835b6020831015156126995780518252602082019150602081019050602083039250612674565b6001836020036101000a038019825116818451168082178552505050505050905001915050908152602001604051809103902060030160009054906101000a900460ff1660ff1614151561277b576040517f08c379a00000000000000000000000000000000000000000000000000000000081526004018080602001828103825260288152602001807f63616e204e4f54206265207468652073616d65206964206f66204368616c6c6581526020017f6e676547726f757000000000000000000000000000000000000000000000000081525060400191505060405180910390fd5b600c60ff168560ff16101515156127fa576040517f08c379a00000000000000000000000000000000000000000000000000000000081526004018080602001828103825260208152602001807f6d7573742067726561746572207468616e20676c6f62616c206d696e4461797381525060200191505060405180910390fd5b605a60ff168460ff1611151515612879576040517f08c379a000000000000000000000000000000000000000000000000000000000815260040180806020018281038252601d8152602001807f6d757374206c657373207468616e20676c6f62616c206d61784461797300000081525060200191505060405180910390fd5b605a60ff168360ff16111515156128f8576040517f08c379a000000000000000000000000000000000000000000000000000000000815260040180806020018281038252601d8152602001807f6d757374206c657373207468616e20676c6f62616c206d61784461797300000081525060200191505060405180910390fd5b610140604051908101604052808981526020018881526020018781526020018660ff1681526020018560ff1681526020018460ff168152602001838152602001600081526020013373ffffffffffffffffffffffffffffffffffffffff1681526020018273ffffffffffffffffffffffffffffffffffffffff168152506002896040518082805190602001908083835b6020831015156129ad5780518252602082019150602081019050602083039250612988565b6001836020036101000a038019825116818451168082178552505050505050905001915050908152602001604051809103902060008201518160000190805190602001906129fc92919061519e565b506020820151816001019080519060200190612a1992919061519e565b506040820151816002019080519060200190612a3692919061519e565b5060608201518160030160006101000a81548160ff021916908360ff16021790555060808201518160030160016101000a81548160ff021916908360ff16021790555060a08201518160030160026101000a81548160ff021916908360ff16021790555060c0820151816004015560e082015181600501556101008201518160060160006101000a81548173ffffffffffffffffffffffffffffffffffffffff021916908373ffffffffffffffffffffffffffffffffffffffff1602179055506101208201518160070160006101000a81548173ffffffffffffffffffffffffffffffffffffffff021916908373ffffffffffffffffffffffffffffffffffffffff1602179055509050503373ffffffffffffffffffffffffffffffffffffffff167f71d49af7e2735dd98a820c3e35a19b83758b3b63a172a20d4bbf357956e52ca4896040518080602001828103825283818151815260200191508051906020019080838360005b83811015612bba578082015181840152602081019050612b9f565b50505050905090810190601f168015612be75780820380516001836020036101000a031916815260200191505b509250505060405180910390a25050505050505050565b612c06613ba8565b1515612c1157600080fd5b600073ffffffffffffffffffffffffffffffffffffffff166000809054906101000a900473ffffffffffffffffffffffffffffffffffffffff1673ffffffffffffffffffffffffffffffffffffffff167f8be0079c531659141344cd1fd0a4f28419497f9722a3daafe3b4186f6b6457e060405160405180910390a360008060006101000a81548173ffffffffffffffffffffffffffffffffffffffff021916908373ffffffffffffffffffffffffffffffffffffffff160217905550565b62015180420381111515612d4c576040517f08c379a000000000000000000000000000000000000000000000000000000000815260040180806020018281038252601d8152602001807f6d7573742067726561746572207468616e206e6f77202d20312064617900000081525060200191505060405180910390fd5b612d5461521e565b612d5d866143a3565b905060006003876040518082805190602001908083835b602083101515612d995780518252602082019150602081019050602083039250612d74565b6001836020036101000a038019825116818451168082178552505050505050905001915050908152602001604051809103902060003373ffffffffffffffffffffffffffffffffffffffff1673ffffffffffffffffffffffffffffffffffffffff16815260200190815260200160002060030160019054906101000a900460ff1660ff16141515612eb8576040517f08c379a00000000000000000000000000000000000000000000000000000000081526004018080602001828103825260228152602001807f63616e204e4f5420637265617465206475706c6963617465206368616c6c656e81526020017f676500000000000000000000000000000000000000000000000000000000000081525060400191505060405180910390fd5b806060015160ff168360ff1610151515612f60576040517f08c379a000000000000000000000000000000000000000000000000000000000815260040180806020018281038252602d8152602001807f6d7573742067726561746572207468616e206f7220657175616c20746f20677281526020017f6f75702773206d696e446179730000000000000000000000000000000000000081525060400191505060405180910390fd5b806080015160ff168360ff1611151515613008576040517f08c379a000000000000000000000000000000000000000000000000000000000815260040180806020018281038252602a8152602001807f6d757374206c657373207468616e206f7220657175616c20746f2067726f757081526020017f2773206d6178446179730000000000000000000000000000000000000000000081525060400191505060405180910390fd5b806060015160ff168460ff16101515156130b0576040517f08c379a000000000000000000000000000000000000000000000000000000000815260040180806020018281038252602d8152602001807f6d7573742067726561746572207468616e206f7220657175616c20746f20677281526020017f6f75702773206d696e446179730000000000000000000000000000000000000081525060400191505060405180910390fd5b8260ff168460ff1611151515613154576040517f08c379a00000000000000000000000000000000000000000000000000000000081526004018080602001828103825260248152602001807f6d757374206c657373207468616e206f7220657175616c20746f20746f74616c81526020017f446179730000000000000000000000000000000000000000000000000000000081525060400191505060405180910390fd5b8060c0015134101515156131f6576040517f08c379a00000000000000000000000000000000000000000000000000000000081526004018080602001828103825260238152602001807f6d7573742067726561746572207468616e2067726f75702773206d696e416d6f81526020017f756e74000000000000000000000000000000000000000000000000000000000081525060400191505060405180910390fd5b610140604051908101604052803373ffffffffffffffffffffffffffffffffffffffff1681526020018781526020018681526020018560ff1681526020018460ff168152602001600060ff1681526020018381526020013481526020016000815260200160038081111561326657fe5b8152506003876040518082805190602001908083835b6020831015156132a1578051825260208201915060208101905060208303925061327c565b6001836020036101000a038019825116818451168082178552505050505050905001915050908152602001604051809103902060003373ffffffffffffffffffffffffffffffffffffffff1673ffffffffffffffffffffffffffffffffffffffff16815260200190815260200160002060008201518160000160006101000a81548173ffffffffffffffffffffffffffffffffffffffff021916908373ffffffffffffffffffffffffffffffffffffffff160217905550602082015181600101908051906020019061337492919061519e565b50604082015181600201908051906020019061339192919061519e565b5060608201518160030160006101000a81548160ff021916908360ff16021790555060808201518160030160016101000a81548160ff021916908360ff16021790555060a08201518160030160026101000a81548160ff021916908360ff16021790555060c0820151816004015560e0820151816005015561010082015181600601556101208201518160070160006101000a81548160ff0219169083600381111561343957fe5b021790555090505060008090505b8360ff1681101561360257600115156003886040518082805190602001908083835b60208310151561348e5780518252602082019150602081019050602083039250613469565b6001836020036101000a038019825116818451168082178552505050505050905001915050908152602001604051809103902060003373ffffffffffffffffffffffffffffffffffffffff1673ffffffffffffffffffffffffffffffffffffffff168152602001908152602001600020600901600083815260200190815260200160002060009054906101000a900460ff16151514156135f5576003876040518082805190602001908083835b602083101515613560578051825260208201915060208101905060208303925061353b565b6001836020036101000a038019825116818451168082178552505050505050905001915050908152602001604051809103902060003373ffffffffffffffffffffffffffffffffffffffff1673ffffffffffffffffffffffffffffffffffffffff168152602001908152602001600020600901600082815260200190815260200160002060006101000a81549060ff02191690555b8080600101915050613447565b503373ffffffffffffffffffffffffffffffffffffffff167f55ead690df4c3da03c2d70b8edbd522578c89a52d7366daba9f3bb40dab432db8787878787346040518080602001806020018760ff1660ff1681526020018660ff1660ff168152602001858152602001848152602001838103835289818151815260200191508051906020019080838360005b838110156136a957808201518184015260208101905061368e565b50505050905090810190601f1680156136d65780820380516001836020036101000a031916815260200191505b50838103825288818151815260200191508051906020019080838360005b8381101561370f5780820151818401526020810190506136f4565b50505050905090810190601f16801561373c5780820380516001836020036101000a031916815260200191505b509850505050505050505060405180910390a2505050505050565b828261376161521e565b61376a836143a3565b90503373ffffffffffffffffffffffffffffffffffffffff168273ffffffffffffffffffffffffffffffffffffffff1614806137d6575080610120015173ffffffffffffffffffffffffffffffffffffffff168273ffffffffffffffffffffffffffffffffffffffff16145b151561384a576040517f08c379a000000000000000000000000000000000000000000000000000000000815260040180806020018281038252601c8152602001807f6f6e6c79207573657220616e64206167656e742063616e20776f726b0000000081525060200191505060405180910390fd5b61385261521e565b61385b876143a3565b9050600061386988336147b2565b905060008090505b8651811015613b74576000878281518110151561388a57fe5b90602001906020020151905060006138c4620151806138b686600401548561501a90919063ffffffff16565b61503c90919063ffffffff16565b90506001151584600901600083815260200190815260200160002060009054906101000a900460ff16151514156138fc575050613b67565b61392c620151808560030160019054906101000a900460ff1660ff160285600401546148f590919063ffffffff16565b821015156139c8576040517f08c379a00000000000000000000000000000000000000000000000000000000081526004018080602001828103825260218152602001807f6d757374206c657373207468616e206368616c6c656e6765277320656e64446181526020017f790000000000000000000000000000000000000000000000000000000000000081525060400191505060405180910390fd5b428211151515613a40576040517f08c379a00000000000000000000000000000000000000000000000000000000081526004018080602001828103825260208152602001807f6d757374206c657373207468616e2063757272656e742074696d657374616d7081525060200191505060405180910390fd5b6000613a61620151808760a0015160ff16024261501a90919063ffffffff16565b9050808310151515613b01576040517f08c379a000000000000000000000000000000000000000000000000000000000815260040180806020018281038252602e8152602001807f6d7573742067726561746572207468616e206e6f77202d206368616c6c656e6781526020017f652e6d617844656c61794461797300000000000000000000000000000000000081525060400191505060405180910390fd5b84600301600281819054906101000a900460ff168092919060010191906101000a81548160ff021916908360ff16021790555050600185600901600084815260200190815260200160002060006101000a81548160ff0219169083151502179055505050505b8080600101915050613871565b505050505050505050565b60008060009054906101000a900473ffffffffffffffffffffffffffffffffffffffff16905090565b60008060009054906101000a900473ffffffffffffffffffffffffffffffffffffffff1673ffffffffffffffffffffffffffffffffffffffff163373ffffffffffffffffffffffffffffffffffffffff1614905090565b6000600460003373ffffffffffffffffffffffffffffffffffffffff1673ffffffffffffffffffffffffffffffffffffffff16815260200190815260200160002054111515613cdc576040517f08c379a00000000000000000000000000000000000000000000000000000000081526004018080602001828103825260268152602001807f6e6f7420656e6f756768207573657242616c616e63657320666f72206d73672e81526020017f73656e646572000000000000000000000000000000000000000000000000000081525060400191505060405180910390fd5b6000600460003373ffffffffffffffffffffffffffffffffffffffff1673ffffffffffffffffffffffffffffffffffffffff1681526020019081526020016000205490506000600460003373ffffffffffffffffffffffffffffffffffffffff1673ffffffffffffffffffffffffffffffffffffffff168152602001908152602001600020819055503373ffffffffffffffffffffffffffffffffffffffff166108fc829081150290604051600060405180830381858888f19350505050158015613dab573d6000803e3d6000fd5b5050565b60015481565b60006002846040518082805190602001908083835b602083101515613def5780518252602082019150602081019050602083039250613dca565b6001836020036101000a038019825116818451168082178552505050505050905001915050908152602001604051809103902090503373ffffffffffffffffffffffffffffffffffffffff168160060160009054906101000a900473ffffffffffffffffffffffffffffffffffffffff1673ffffffffffffffffffffffffffffffffffffffff16141515613eeb576040517f08c379a00000000000000000000000000000000000000000000000000000000081526004018080602001828103825260178152602001807f7065726d697373696f6e3a2067726f7570206f776e657200000000000000000081525060200191505060405180910390fd5b82816001019080519060200190613f03929190615327565b5081816002019080519060200190613f1c929190615327565b5050505050565b6000613f2f82336147b2565b9050600380811115613f3d57fe5b8160070160009054906101000a900460ff166003811115613f5a57fe5b141515613ff5576040517f08c379a00000000000000000000000000000000000000000000000000000000081526004018080602001828103825260228152602001807f6368616c6c656e676520737461747573206973204e4f5420496e50726f67726581526020017f737300000000000000000000000000000000000000000000000000000000000081525060400191505060405180910390fd5b60028160070160006101000a81548160ff0219169083600381111561401657fe5b02179055506140253382614916565b8060070160009054906101000a900460ff16600381111561404257fe5b60ff163373ffffffffffffffffffffffffffffffffffffffff167f8dc044a07c06dca135e3403b8abb803e7522dbb705fd5802941f1470d840b8a783600101846002018560030160009054906101000a900460ff168660030160019054906101000a900460ff168760030160029054906101000a900460ff16886004015489600501548a600601546040518080602001806020018960ff1660ff1681526020018860ff1660ff1681526020018760ff1660ff16815260200186815260200185815260200184815260200183810383528b81815460018160011615610100020316600290048152602001915080546001816001161561010002031660029004801561418d5780601f106141625761010080835404028352916020019161418d565b820191906000526020600020905b81548152906001019060200180831161417057829003601f168201915b505083810382528a8181546001816001161561010002031660029004815260200191508054600181600116156101000203166002900480156142105780601f106141e557610100808354040283529160200191614210565b820191906000526020600020905b8154815290600101906020018083116141f357829003601f168201915b50509a505050505050505050505060405180910390a36003826040518082805190602001908083835b60208310151561425e5780518252602082019150602081019050602083039250614239565b6001836020036101000a038019825116818451168082178552505050505050905001915050908152602001604051809103902060003373ffffffffffffffffffffffffffffffffffffffff1673ffffffffffffffffffffffffffffffffffffffff168152602001908152602001600020600080820160006101000a81549073ffffffffffffffffffffffffffffffffffffffff021916905560018201600061430691906152df565b60028201600061431691906152df565b6003820160006101000a81549060ff02191690556003820160016101000a81549060ff02191690556003820160026101000a81549060ff02191690556004820160009055600582016000905560068201600090556007820160006101000a81549060ff021916905550505050565b61438c613ba8565b151561439757600080fd5b6143a081615066565b50565b6143ab61521e565b6143b361521e565b6002836040518082805190602001908083835b6020831015156143eb57805182526020820191506020810190506020830392506143c6565b6001836020036101000a03801982511681845116808217855250505050505090500191505090815260200160405180910390206101406040519081016040529081600082018054600181600116156101000203166002900480601f0160208091040260200160405190810160405280929190818152602001828054600181600116156101000203166002900480156144c45780601f10614499576101008083540402835291602001916144c4565b820191906000526020600020905b8154815290600101906020018083116144a757829003601f168201915b50505050508152602001600182018054600181600116156101000203166002900480601f0160208091040260200160405190810160405280929190818152602001828054600181600116156101000203166002900480156145665780601f1061453b57610100808354040283529160200191614566565b820191906000526020600020905b81548152906001019060200180831161454957829003601f168201915b50505050508152602001600282018054600181600116156101000203166002900480601f0160208091040260200160405190810160405280929190818152602001828054600181600116156101000203166002900480156146085780601f106145dd57610100808354040283529160200191614608565b820191906000526020600020905b8154815290600101906020018083116145eb57829003601f168201915b505050505081526020016003820160009054906101000a900460ff1660ff1660ff1681526020016003820160019054906101000a900460ff1660ff1660ff1681526020016003820160029054906101000a900460ff1660ff1660ff16815260200160048201548152602001600582015481526020016006820160009054906101000a900473ffffffffffffffffffffffffffffffffffffffff1673ffffffffffffffffffffffffffffffffffffffff1673ffffffffffffffffffffffffffffffffffffffff1681526020016007820160009054906101000a900473ffffffffffffffffffffffffffffffffffffffff1673ffffffffffffffffffffffffffffffffffffffff1673ffffffffffffffffffffffffffffffffffffffff168152505090506000816060015160ff161115156147a9576040517f08c379a00000000000000000000000000000000000000000000000000000000081526004018080602001828103825260138152602001807f67726f757020646f65736e27742065786973740000000000000000000000000081525060200191505060405180910390fd5b80915050919050565b6000806003846040518082805190602001908083835b6020831015156147ed57805182526020820191506020810190506020830392506147c8565b6001836020036101000a038019825116818451168082178552505050505050905001915050908152602001604051809103902060008473ffffffffffffffffffffffffffffffffffffffff1673ffffffffffffffffffffffffffffffffffffffff168152602001908152602001600020905060008160030160019054906101000a900460ff1660ff161115156148eb576040517f08c379a00000000000000000000000000000000000000000000000000000000081526004018080602001828103825260178152602001807f6368616c6c656e676520646f65736e277420657869737400000000000000000081525060200191505060405180910390fd5b8091505092915050565b600080828401905083811015151561490c57600080fd5b8091505092915050565b600060028260010160405180828054600181600116156101000203166002900480156149795780601f10614957576101008083540402835291820191614979565b820191906000526020600020905b815481529060010190602001808311614965575b50509150509081526020016040518091039020905060006149a8600a846005015461503c90919063ffffffff16565b9050600080905060008090505b8460060154811015614bb6576149c96152a7565b856008016000838152602001908152602001600020606060405190810160405290816000820160009054906101000a900473ffffffffffffffffffffffffffffffffffffffff1673ffffffffffffffffffffffffffffffffffffffff1673ffffffffffffffffffffffffffffffffffffffff16815260200160018201548152602001600282018054600181600116156101000203166002900480601f016020809104026020016040519081016040528092919081815260200182805460018160011615610100020316600290048015614ae35780601f10614ab857610100808354040283529160200191614ae3565b820191906000526020600020905b815481529060010190602001808311614ac657829003601f168201915b5050505050815250509050614b48816020015160046000846000015173ffffffffffffffffffffffffffffffffffffffff1673ffffffffffffffffffffffffffffffffffffffff168152602001908152602001600020546148f590919063ffffffff16565b60046000836000015173ffffffffffffffffffffffffffffffffffffffff1673ffffffffffffffffffffffffffffffffffffffff16815260200190815260200160002081905550614ba68160200151846148f590919063ffffffff16565b92505080806001019150506149b5565b506000614be46004614bd6600a886005015461503c90919063ffffffff16565b61516090919063ffffffff16565b9050600080905060008090505b8660060154811015614f3257614c056152a7565b876008016000838152602001908152602001600020606060405190810160405290816000820160009054906101000a900473ffffffffffffffffffffffffffffffffffffffff1673ffffffffffffffffffffffffffffffffffffffff1673ffffffffffffffffffffffffffffffffffffffff16815260200160018201548152602001600282018054600181600116156101000203166002900480601f016020809104026020016040519081016040528092919081815260200182805460018160011615610100020316600290048015614d1f5780601f10614cf457610100808354040283529160200191614d1f565b820191906000526020600020905b815481529060010190602001808311614d0257829003601f168201915b50505050508152505090506000614d5586614d4784602001518861516090919063ffffffff16565b61503c90919063ffffffff16565b9050614dad8160046000856000015173ffffffffffffffffffffffffffffffffffffffff1673ffffffffffffffffffffffffffffffffffffffff168152602001908152602001600020546148f590919063ffffffff16565b60046000846000015173ffffffffffffffffffffffffffffffffffffffff1673ffffffffffffffffffffffffffffffffffffffff16815260200190815260200160002081905550614e0781856148f590919063ffffffff16565b93508860000160009054906101000a900473ffffffffffffffffffffffffffffffffffffffff1673ffffffffffffffffffffffffffffffffffffffff16826000015173ffffffffffffffffffffffffffffffffffffffff167fd4a990728c02b80a6ecbbb6878da2c315460f38ce2a4b09d088b92bbfaa199718b600101846040518080602001838152602001828103825284818154600181600116156101000203166002900481526020019150805460018160011615610100020316600290048015614f145780601f10614ee957610100808354040283529160200191614f14565b820191906000526020600020905b815481529060010190602001808311614ef757829003601f168201915b5050935050505060405180910390a350508080600101915050614bf1565b506000614f4d6004886005015461503c90919063ffffffff16565b9050614f668187600501546148f590919063ffffffff16565b86600501819055506000614fab82614f9d85614f8f8a8d6005015461501a90919063ffffffff16565b61501a90919063ffffffff16565b61501a90919063ffffffff16565b9050614fc2816001546148f590919063ffffffff16565b6001819055508873ffffffffffffffffffffffffffffffffffffffff166108fc879081150290604051600060405180830381858888f1935050505015801561500e573d6000803e3d6000fd5b50505050505050505050565b600082821115151561502b57600080fd5b600082840390508091505092915050565b6000808211151561504c57600080fd5b6000828481151561505957fe5b0490508091505092915050565b600073ffffffffffffffffffffffffffffffffffffffff168173ffffffffffffffffffffffffffffffffffffffff16141515156150a257600080fd5b8073ffffffffffffffffffffffffffffffffffffffff166000809054906101000a900473ffffffffffffffffffffffffffffffffffffffff1673ffffffffffffffffffffffffffffffffffffffff167f8be0079c531659141344cd1fd0a4f28419497f9722a3daafe3b4186f6b6457e060405160405180910390a3806000806101000a81548173ffffffffffffffffffffffffffffffffffffffff021916908373ffffffffffffffffffffffffffffffffffffffff16021790555050565b6000808314156151735760009050615198565b6000828402905082848281151561518657fe5b0414151561519357600080fd5b809150505b92915050565b828054600181600116156101000203166002900490600052602060002090601f016020900481019282601f106151df57805160ff191683800117855561520d565b8280016001018555821561520d579182015b8281111561520c5782518255916020019190600101906151f1565b5b50905061521a91906153a7565b5090565b61014060405190810160405280606081526020016060815260200160608152602001600060ff168152602001600060ff168152602001600060ff1681526020016000815260200160008152602001600073ffffffffffffffffffffffffffffffffffffffff168152602001600073ffffffffffffffffffffffffffffffffffffffff1681525090565b606060405190810160405280600073ffffffffffffffffffffffffffffffffffffffff16815260200160008152602001606081525090565b50805460018160011615610100020316600290046000825580601f106153055750615324565b601f01602090049060005260206000209081019061532391906153a7565b5b50565b828054600181600116156101000203166002900490600052602060002090601f016020900481019282601f1061536857805160ff1916838001178555615396565b82800160010185558215615396579182015b8281111561539557825182559160200191906001019061537a565b5b5090506153a391906153a7565b5090565b6153c991905b808211156153c55760008160009055506001016153ad565b5090565b9056fea165627a7a72305820b2888c19e535e225d124d8ae44b90ac6bf98813aa020b8f122556402cd1d540f0029",
  "source": "pragma solidity ^0.5.0;\n\nimport \"openzeppelin-solidity/contracts/ownership/Ownable.sol\";\nimport \"openzeppelin-solidity/contracts/math/SafeMath.sol\";\n\ncontract CoinChallenges is Ownable {\n    using SafeMath for uint256;\n\n    uint8 public constant MinDays = 12;\n    uint8 public constant MaxDays = 90;\n\n    uint256 private constant DayTimestamp = 86400; // 60 * 60 * 24\n\n    uint256 public ownerBalance;\n    \n    struct ChallengeGroup {\n        string id;\n        string name;\n        string url;\n        uint8 minDays;\n        uint8 maxDays;\n        uint8 maxDelayDays;\n        uint256 minAmount;\n        uint256 balance;\n        address owner;\n        address agent;\n    }\n\n    enum ChallengeStatus { Succeeded, Failed, Aborted, InProgress }\n\n    struct Challenge {\n        address who;\n        string groupId;\n        string goal;\n        uint8 targetDays;\n        uint8 totalDays;\n        uint8 completeDays;\n        uint256 startTimestamp;\n        uint256 amount;\n        uint256 sponsorSize;\n        ChallengeStatus status;\n        mapping (uint256 => Sponsor) sponsors;\n        mapping (uint256 => bool) dayIsCompletes; // index is from 0 to (totalDays - 1)\n    }\n\n    struct Sponsor {\n        address who;\n        uint256 amount;\n        string comment;\n    }\n    \n    // id to ChallengeGroup\n    mapping (string => ChallengeGroup) challengeGroups;\n\n    // groupId to (address to Challenge in progress)\n    mapping (string => mapping (address => Challenge)) challenges;\n\n    // address to user's balance from sponsor and the profit-sharing of failed challenge\n    mapping (address => uint256) public userBalances;\n\n    event NewChallengeGroup(address indexed proposer, string id);\n    event NewChallenge(\n        address indexed proposer,\n        string groupId,\n        string goal,\n        uint8 targetDays,\n        uint8 totalDays,\n        uint256 startTimestamp,\n        uint256 amount);\n    event FinishChallenge(\n        address indexed who,\n        string groupId,\n        string goal,\n        uint8 targetDays,\n        uint8 totalDays,\n        uint8 completeDays,\n        uint256 startTimestamp,\n        uint256 amount,\n        uint256 sponsorSize,\n        uint8 indexed status);\n    event SponsorChallenge(address indexed who, address indexed challenger, uint256 amount, string comment);\n    event SponsorWin(address indexed who, address indexed challenger, string groupId, uint256 amount);\n\n    constructor() public {\n    }\n\n    modifier onlyChallengeOwnerAndGroupAgent(string memory _groupId, address _who) {\n        ChallengeGroup memory group = _getChallengeGroup(_groupId);\n        require(_who == msg.sender || _who == group.agent, \"only user and agent can work\");\n        _;\n    }\n\n    function createChallengeGroup(\n        string memory _id,\n        string memory _name,\n        string memory _url,\n        uint8 _minDays,\n        uint8 _maxDays,\n        uint8 _maxDelayDays,\n        uint256 _minAmount,\n        address _agent\n    ) public {\n        require(challengeGroups[_id].minDays == 0, \"can NOT be the same id of ChallengeGroup\");\n        require(_minDays >= MinDays, \"must greater than global minDays\");\n        require(_maxDays <= MaxDays, \"must less than global maxDays\");\n        require(_maxDelayDays <= MaxDays, \"must less than global maxDays\");\n\n        challengeGroups[_id] = ChallengeGroup(_id, _name, _url, _minDays, _maxDays, _maxDelayDays, _minAmount, 0, msg.sender, _agent);\n        emit NewChallengeGroup(msg.sender, _id);\n    }\n\n    function getChallengeGroup(string memory _id) public view returns (\n        string memory _name,\n        string memory _url,\n        uint8 _minDays,\n        uint8 _maxDays,\n        uint8 _maxDelayDays,\n        uint256 _minAmount,\n        uint256 _balance,\n        address _owner,\n        address _agent\n    ) {\n        ChallengeGroup memory group = _getChallengeGroup(_id);\n\n        _name = group.name;\n        _url = group.url;\n        _minDays = group.minDays;\n        _maxDays = group.maxDays;\n        _maxDelayDays = group.maxDelayDays;\n        _minAmount = group.minAmount;\n        _balance = group.balance;\n        _owner = group.owner;\n        _agent = group.agent;\n    }\n\n    function modifyChallengeGroup(string memory _id, string memory _name, string memory _url) public {\n        ChallengeGroup storage group = challengeGroups[_id];\n        require(group.owner == msg.sender, \"permission: group owner\");\n\n        group.name = _name;\n        group.url = _url;\n    }\n\n    function createChallenge(\n        string memory _groupId,\n        string memory _goal,\n        uint8 _targetDays,\n        uint8 _totalDays,\n        uint256 _startTimestamp\n    ) public payable {\n        require(_startTimestamp > now - 1 days, \"must greater than now - 1 day\");\n        ChallengeGroup memory group = _getChallengeGroup(_groupId);\n\n        require(challenges[_groupId][msg.sender].totalDays == 0, \"can NOT create duplicate challenge\");\n        require(_totalDays >= group.minDays, \"must greater than or equal to group's minDays\");\n        require(_totalDays <= group.maxDays, \"must less than or equal to group's maxDays\");\n        require(_targetDays >= group.minDays, \"must greater than or equal to group's minDays\");\n        require(_targetDays <= _totalDays, \"must less than or equal to totalDays\");\n        require(msg.value >= group.minAmount, \"must greater than group's minAmount\");\n        \n        challenges[_groupId][msg.sender] = Challenge(msg.sender, _groupId, _goal, _targetDays, _totalDays, 0, _startTimestamp, msg.value, 0, ChallengeStatus.InProgress);\n        for (uint dayIndex = 0; dayIndex < _totalDays; dayIndex++) {\n          if (challenges[_groupId][msg.sender].dayIsCompletes[dayIndex] == true) {\n            delete challenges[_groupId][msg.sender].dayIsCompletes[dayIndex];\n          }\n        }\n        emit NewChallenge(msg.sender, _groupId, _goal, _targetDays, _totalDays, _startTimestamp, msg.value);\n    }\n\n    function getChallenge(\n        string memory _groupId,\n        address _address\n    ) public view returns (\n        string memory _goal,\n        uint8 _targetDays,\n        uint8 _totalDays,\n        uint8 _completeDays,\n        uint256 _startTimestamp,\n        uint256 _amount,\n        uint256 _sponsorSize,\n        uint256[] memory _completeTimestamps\n    ) {\n        Challenge storage challenge = challenges[_groupId][_address];\n\n        _completeTimestamps = new uint256[](challenge.completeDays);\n        uint8 index = 0;\n        for (uint dayIndex = 0; dayIndex < challenge.totalDays; dayIndex++) {\n          if (challenge.dayIsCompletes[dayIndex] == true) {\n            _completeTimestamps[index] = challenge.startTimestamp.add(dayIndex * DayTimestamp);\n            index++;\n          }\n        }\n\n        _goal = challenge.goal;\n        _targetDays = challenge.targetDays;\n        _totalDays = challenge.totalDays;\n        _completeDays = challenge.completeDays;\n        _startTimestamp = challenge.startTimestamp;\n        _amount = challenge.amount;\n        _sponsorSize = challenge.sponsorSize;\n    }\n\n    function getSponsor(\n        string memory _groupId,\n        address _address,\n        uint256 _index\n    ) public view returns (\n        address _who,\n        uint256 _amount,\n        string memory _comment\n    ) {\n        require(_index < challenges[_groupId][_address].sponsorSize, \"must less than sponsor size\");\n        Sponsor memory sponsor = challenges[_groupId][_address].sponsors[_index];\n        return (sponsor.who, sponsor.amount, sponsor.comment);\n    }\n\n    /**\n     * @dev complete multiple daily challenges. Only challenger and group agent can run.\n     */\n    function completeDailyChallenges(string memory _groupId, address _who, uint256[] memory timestamps)\n        public onlyChallengeOwnerAndGroupAgent(_groupId, _who) {\n        \n        ChallengeGroup memory group = _getChallengeGroup(_groupId);\n        Challenge storage challenge = _getChallenge(_groupId, msg.sender);\n\n        for (uint256 index = 0; index < timestamps.length; index++) {\n            uint256 timestamp = timestamps[index];\n            uint256 dayIndex = timestamp.sub(challenge.startTimestamp).div(DayTimestamp);\n            if (challenge.dayIsCompletes[dayIndex] == true) {\n                continue;\n            }\n            require(timestamp < challenge.startTimestamp.add(challenge.totalDays * DayTimestamp), \"must less than challenge's endDay\");\n            require(timestamp <= now, \"must less than current timestamp\");\n\n            uint256 fromTimestamp = now.sub(group.maxDelayDays * DayTimestamp);\n            require(timestamp >= fromTimestamp, \"must greater than now - challenge.maxDelayDays\");\n\n            challenge.completeDays++;\n            challenge.dayIsCompletes[dayIndex] = true;\n        }\n    }\n\n    /**\n     * @dev finish challenge. Anyone can help finish any challenge.\n     */\n    function finishChallenge(string memory _groupId, address payable _who) public {\n        Challenge storage challenge = _getChallenge(_groupId, _who);\n        require(now >= challenge.startTimestamp.add(challenge.totalDays * DayTimestamp), \"must greater than challenge's EndDay\");\n        require(challenge.status == ChallengeStatus.InProgress, \"challenge status is NOT InProgress\");\n\n        if (challenge.completeDays >= challenge.targetDays) {\n            challenge.status = ChallengeStatus.Succeeded;\n\n            // set challenger's amount\n            uint256 amount = challenge.amount;\n\n            // add all sponsors' amount to amount\n            for (uint i = 0; i < challenge.sponsorSize; i++) {\n                amount = amount.add(challenge.sponsors[i].amount);\n            }\n\n            _who.transfer(amount);\n        } else {\n            ChallengeGroup memory group = _getChallengeGroup(_groupId);\n            require(now >= challenge.startTimestamp.add((challenge.totalDays + group.maxDelayDays) * DayTimestamp), \"must greater than challenge's EndDay + group's maxDelayDays\");\n\n            challenge.status = ChallengeStatus.Failed;\n            _handleFailedChallenge(_who, challenge);\n        }\n\n        emit FinishChallenge(\n            _who,\n            challenge.groupId,\n            challenge.goal,\n            challenge.targetDays,\n            challenge.totalDays,\n            challenge.completeDays,\n            challenge.startTimestamp,\n            challenge.amount,\n            challenge.sponsorSize,\n            uint8(challenge.status));\n        delete challenges[_groupId][_who];\n    }\n\n    /**\n     * @dev abort challenge. Only yourself can give up the challenge.\n     */\n    function abortChallenge(string memory _groupId) public {\n        Challenge storage challenge = _getChallenge(_groupId, msg.sender);\n        require(challenge.status == ChallengeStatus.InProgress, \"challenge status is NOT InProgress\");\n        challenge.status = ChallengeStatus.Aborted;\n        _handleFailedChallenge(msg.sender, challenge);\n\n        emit FinishChallenge(\n            msg.sender,\n            challenge.groupId,\n            challenge.goal,\n            challenge.targetDays,\n            challenge.totalDays,\n            challenge.completeDays,\n            challenge.startTimestamp,\n            challenge.amount,\n            challenge.sponsorSize,\n            uint8(challenge.status));\n        delete challenges[_groupId][msg.sender];\n    }\n\n    /**\n     * @dev sponsor specific one challenge.\n     */\n    function sponsorChallenge(string memory _groupId, address _who, string memory comment) public payable {\n        require(msg.value >= _getChallengeGroup(_groupId).minAmount, \"sponsor value must greater than group.minAmount\");\n\n        Challenge storage challenge = _getChallenge(_groupId, _who);\n        challenge.sponsors[challenge.sponsorSize] = Sponsor(msg.sender, msg.value, comment);\n        challenge.sponsorSize++;\n\n        emit SponsorChallenge(msg.sender, _who, msg.value, comment);\n    }\n\n    /**\n     * @dev withdraw the balance of owner. Only contract owner can withdraw.\n     */\n    function ownerWithdraw() public onlyOwner {\n        uint256 amount = ownerBalance;\n        ownerBalance = 0;\n        msg.sender.transfer(amount);\n    }\n\n    /**\n     * @dev withdraw the balance of challenge group. Only group owner can withdraw.\n     */\n    function groupWithdraw(string memory _groupId) public {\n        ChallengeGroup storage group = challengeGroups[_groupId];\n        require(msg.sender == group.owner, \"permission: group owner\");\n        require(group.balance > 0, \"not enough group.balance\");\n        uint256 amount = group.balance;\n        group.balance = 0;\n        msg.sender.transfer(amount);\n    }\n\n    /**\n     * @dev withdraw the balance of user.\n     */\n    function userWithdraw() public {\n        require(userBalances[msg.sender] > 0, \"not enough userBalances for msg.sender\");\n        uint256 amount = userBalances[msg.sender];\n        userBalances[msg.sender] = 0;\n        msg.sender.transfer(amount);\n    }\n\n    /**\n     * @dev get challenge group if exists\n     */\n    function _getChallengeGroup(string memory _id) private view returns (ChallengeGroup memory) {\n        ChallengeGroup memory group = challengeGroups[_id];\n        require(group.minDays > 0, \"group doesn't exist\");\n\n        return group;\n    }\n\n    /**\n     * @dev get in-progess challenge if exists\n     */\n    function _getChallenge(string memory _groupId, address _challengeOwner) private view returns (Challenge storage) {\n        Challenge storage challenge = challenges[_groupId][_challengeOwner];\n        require(challenge.totalDays > 0, \"challenge doesn't exist\");\n\n        return challenge;\n    }\n\n    /**\n     * @dev transfer money to the below:\n     * 10% of challenger's amount back to original challenger\n     * 40% of challenger's amount to sponsors (and 100% refund to sponsors)\n     * 25% of challenger's amount to contract owner\n     * 25% of challenger's amount to challenge group owner\n     */\n    function _handleFailedChallenge(address payable who, Challenge storage challenge) private {\n        ChallengeGroup storage group = challengeGroups[challenge.groupId];\n\n        // transfer 10% back to challenger\n        uint256 toChallengerAmount = challenge.amount.div(10);\n        // execute transfer in the end of this function\n\n        // add the refund to the balances of sponsors\n        uint256 allSponsorsAmount = 0;\n        for (uint256 index = 0; index < challenge.sponsorSize; index++) {\n            Sponsor memory sponsor = challenge.sponsors[index];\n            userBalances[sponsor.who] = userBalances[sponsor.who].add(sponsor.amount);\n            allSponsorsAmount = allSponsorsAmount.add(sponsor.amount);\n        }\n\n        // transfer 40% to sponsors\n        uint256 toSponsorsAmount = challenge.amount.div(10).mul(4);\n        uint256 realToSponsorsAmount = 0;\n        for (uint256 index = 0; index < challenge.sponsorSize; index++) {\n            Sponsor memory sponsor = challenge.sponsors[index];\n            uint256 amount = toSponsorsAmount.mul(sponsor.amount).div(allSponsorsAmount);\n            userBalances[sponsor.who] = userBalances[sponsor.who].add(amount);\n            realToSponsorsAmount = realToSponsorsAmount.add(amount);\n            emit SponsorWin(sponsor.who, challenge.who, challenge.groupId, amount);\n        }\n\n        // add amount to the balance of group owner\n        uint256 toGroupOwnerAmount = challenge.amount.div(4);\n        group.balance = group.balance.add(toGroupOwnerAmount);\n\n        uint256 toOwnerAmount = challenge.amount.sub(toChallengerAmount).sub(realToSponsorsAmount).sub(toGroupOwnerAmount);\n        // add amount to the balance of contract owner\n        ownerBalance = ownerBalance.add(toOwnerAmount);\n\n        who.transfer(toChallengerAmount);\n    }\n}\n",
  "sourcePath": "/Users/shiacruz/Desktop/projects/dapp/CoinChallengeContract/contracts/CoinChallenges.sol",
  "compiler": {
    "name": "solc",
    "version": "0.5.0+commit.1d4f565a.Emscripten.clang"
  },
  "schemaVersion": "3.0.1",
  "updatedAt": "2019-02-19T12:50:27.792Z",
  "devdoc": {
    "methods": {
      "abortChallenge(string)": {
        "details": "abort challenge. Only yourself can give up the challenge."
      },
      "completeDailyChallenges(string,address,uint256[])": {
        "details": "complete multiple daily challenges. Only challenger and group agent can run."
      },
      "finishChallenge(string,address)": {
        "details": "finish challenge. Anyone can help finish any challenge."
      },
      "groupWithdraw(string)": {
        "details": "withdraw the balance of challenge group. Only group owner can withdraw."
      },
      "isOwner()": {
        "return": "true if `msg.sender` is the owner of the contract."
      },
      "owner()": {
        "return": "the address of the owner."
      },
      "ownerWithdraw()": {
        "details": "withdraw the balance of owner. Only contract owner can withdraw."
      },
      "renounceOwnership()": {
        "details": "Allows the current owner to relinquish control of the contract."
      },
      "sponsorChallenge(string,address,string)": {
        "details": "sponsor specific one challenge."
      },
      "transferOwnership(address)": {
        "details": "Allows the current owner to transfer control of the contract to a newOwner.",
        "params": {
          "newOwner": "The address to transfer ownership to."
        }
      },
      "userWithdraw()": {
        "details": "withdraw the balance of user."
      }
    }
  },
  "userdoc": {
    "methods": {
      "renounceOwnership()": {
        "notice": "Renouncing to ownership will leave the contract without an owner. It will not be possible to call the functions with the `onlyOwner` modifier anymore."
      }
    }
  }
}