{
  "contractName": "CoinChallenges",
  "abi": [
    {
      "constant": true,
      "inputs": [
        {
          "name": "",
          "type": "address"
        }
      ],
      "name": "userBalances",
      "outputs": [
        {
          "name": "",
          "type": "uint256"
        }
      ],
      "payable": false,
      "stateMutability": "view",
      "type": "function"
    },
    {
      "constant": true,
      "inputs": [],
      "name": "MinDays",
      "outputs": [
        {
          "name": "",
          "type": "uint8"
        }
      ],
      "payable": false,
      "stateMutability": "view",
      "type": "function"
    },
    {
      "constant": true,
      "inputs": [],
      "name": "MaxDays",
      "outputs": [
        {
          "name": "",
          "type": "uint8"
        }
      ],
      "payable": false,
      "stateMutability": "view",
      "type": "function"
    },
    {
      "constant": true,
      "inputs": [
        {
          "name": "",
          "type": "address"
        }
      ],
      "name": "names",
      "outputs": [
        {
          "name": "",
          "type": "string"
        }
      ],
      "payable": false,
      "stateMutability": "view",
      "type": "function"
    },
    {
      "constant": false,
      "inputs": [],
      "name": "renounceOwnership",
      "outputs": [],
      "payable": false,
      "stateMutability": "nonpayable",
      "type": "function"
    },
    {
      "constant": true,
      "inputs": [],
      "name": "owner",
      "outputs": [
        {
          "name": "",
          "type": "address"
        }
      ],
      "payable": false,
      "stateMutability": "view",
      "type": "function"
    },
    {
      "constant": true,
      "inputs": [],
      "name": "isOwner",
      "outputs": [
        {
          "name": "",
          "type": "bool"
        }
      ],
      "payable": false,
      "stateMutability": "view",
      "type": "function"
    },
    {
      "constant": true,
      "inputs": [],
      "name": "ownerBalance",
      "outputs": [
        {
          "name": "",
          "type": "uint256"
        }
      ],
      "payable": false,
      "stateMutability": "view",
      "type": "function"
    },
    {
      "constant": false,
      "inputs": [
        {
          "name": "newOwner",
          "type": "address"
        }
      ],
      "name": "transferOwnership",
      "outputs": [],
      "payable": false,
      "stateMutability": "nonpayable",
      "type": "function"
    },
    {
      "inputs": [],
      "payable": false,
      "stateMutability": "nonpayable",
      "type": "constructor"
    },
    {
      "anonymous": false,
      "inputs": [
        {
          "indexed": true,
          "name": "owner",
          "type": "address"
        },
        {
          "indexed": false,
          "name": "id",
          "type": "uint256"
        }
      ],
      "name": "NewChallengeGroup",
      "type": "event"
    },
    {
      "anonymous": false,
      "inputs": [
        {
          "indexed": true,
          "name": "groupId",
          "type": "uint256"
        },
        {
          "indexed": true,
          "name": "challenger",
          "type": "address"
        },
        {
          "indexed": true,
          "name": "round",
          "type": "uint256"
        },
        {
          "indexed": false,
          "name": "goal",
          "type": "string"
        },
        {
          "indexed": false,
          "name": "targetDays",
          "type": "uint8"
        },
        {
          "indexed": false,
          "name": "totalDays",
          "type": "uint8"
        },
        {
          "indexed": false,
          "name": "startTimestamp",
          "type": "uint256"
        },
        {
          "indexed": false,
          "name": "amount",
          "type": "uint256"
        }
      ],
      "name": "NewChallenge",
      "type": "event"
    },
    {
      "anonymous": false,
      "inputs": [
        {
          "indexed": true,
          "name": "groupId",
          "type": "uint256"
        },
        {
          "indexed": true,
          "name": "challenger",
          "type": "address"
        },
        {
          "indexed": true,
          "name": "round",
          "type": "uint256"
        },
        {
          "indexed": false,
          "name": "goal",
          "type": "string"
        },
        {
          "indexed": false,
          "name": "targetDays",
          "type": "uint8"
        },
        {
          "indexed": false,
          "name": "totalDays",
          "type": "uint8"
        },
        {
          "indexed": false,
          "name": "completeDays",
          "type": "uint8"
        },
        {
          "indexed": false,
          "name": "startTimestamp",
          "type": "uint256"
        },
        {
          "indexed": false,
          "name": "amount",
          "type": "uint256"
        },
        {
          "indexed": false,
          "name": "sponsorSize",
          "type": "uint256"
        },
        {
          "indexed": false,
          "name": "totalSponsorAmount",
          "type": "uint256"
        },
        {
          "indexed": false,
          "name": "status",
          "type": "uint8"
        }
      ],
      "name": "FinishChallenge",
      "type": "event"
    },
    {
      "anonymous": false,
      "inputs": [
        {
          "indexed": false,
          "name": "sponsor",
          "type": "address"
        },
        {
          "indexed": true,
          "name": "groupId",
          "type": "uint256"
        },
        {
          "indexed": true,
          "name": "challenger",
          "type": "address"
        },
        {
          "indexed": true,
          "name": "round",
          "type": "uint256"
        },
        {
          "indexed": false,
          "name": "amount",
          "type": "uint256"
        },
        {
          "indexed": false,
          "name": "comment",
          "type": "string"
        }
      ],
      "name": "SponsorChallenge",
      "type": "event"
    },
    {
      "anonymous": false,
      "inputs": [
        {
          "indexed": true,
          "name": "who",
          "type": "address"
        },
        {
          "indexed": true,
          "name": "groupId",
          "type": "uint256"
        },
        {
          "indexed": true,
          "name": "challenger",
          "type": "address"
        },
        {
          "indexed": false,
          "name": "round",
          "type": "uint256"
        },
        {
          "indexed": false,
          "name": "amount",
          "type": "uint256"
        }
      ],
      "name": "SponsorWin",
      "type": "event"
    },
    {
      "anonymous": false,
      "inputs": [
        {
          "indexed": true,
          "name": "previousOwner",
          "type": "address"
        },
        {
          "indexed": true,
          "name": "newOwner",
          "type": "address"
        }
      ],
      "name": "OwnershipTransferred",
      "type": "event"
    },
    {
      "constant": false,
      "inputs": [
        {
          "name": "_name",
          "type": "string"
        }
      ],
      "name": "updateName",
      "outputs": [],
      "payable": false,
      "stateMutability": "nonpayable",
      "type": "function"
    },
    {
      "constant": false,
      "inputs": [
        {
          "name": "_id",
          "type": "uint256"
        },
        {
          "name": "_name",
          "type": "string"
        },
        {
          "name": "_url",
          "type": "string"
        },
        {
          "name": "_minDays",
          "type": "uint8"
        },
        {
          "name": "_maxDays",
          "type": "uint8"
        },
        {
          "name": "_maxDelayDays",
          "type": "uint8"
        },
        {
          "name": "_minAmount",
          "type": "uint256"
        },
        {
          "name": "_agent",
          "type": "address"
        }
      ],
      "name": "createChallengeGroup",
      "outputs": [],
      "payable": false,
      "stateMutability": "nonpayable",
      "type": "function"
    },
    {
      "constant": true,
      "inputs": [
        {
          "name": "_id",
          "type": "uint256"
        }
      ],
      "name": "getChallengeGroup",
      "outputs": [
        {
          "name": "_name",
          "type": "string"
        },
        {
          "name": "_url",
          "type": "string"
        },
        {
          "name": "_minDays",
          "type": "uint8"
        },
        {
          "name": "_maxDays",
          "type": "uint8"
        },
        {
          "name": "_maxDelayDays",
          "type": "uint8"
        },
        {
          "name": "_minAmount",
          "type": "uint256"
        },
        {
          "name": "_balance",
          "type": "uint256"
        },
        {
          "name": "_owner",
          "type": "address"
        },
        {
          "name": "_agent",
          "type": "address"
        }
      ],
      "payable": false,
      "stateMutability": "view",
      "type": "function"
    },
    {
      "constant": false,
      "inputs": [
        {
          "name": "_id",
          "type": "uint256"
        },
        {
          "name": "_name",
          "type": "string"
        },
        {
          "name": "_url",
          "type": "string"
        },
        {
          "name": "_minAmount",
          "type": "uint256"
        }
      ],
      "name": "modifyChallengeGroup",
      "outputs": [],
      "payable": false,
      "stateMutability": "nonpayable",
      "type": "function"
    },
    {
      "constant": false,
      "inputs": [
        {
          "name": "_groupId",
          "type": "uint256"
        },
        {
          "name": "_goal",
          "type": "string"
        },
        {
          "name": "_targetDays",
          "type": "uint8"
        },
        {
          "name": "_totalDays",
          "type": "uint8"
        },
        {
          "name": "_startTimestamp",
          "type": "uint256"
        }
      ],
      "name": "createChallenge",
      "outputs": [],
      "payable": true,
      "stateMutability": "payable",
      "type": "function"
    },
    {
      "constant": true,
      "inputs": [
        {
          "name": "_groupId",
          "type": "uint256"
        },
        {
          "name": "_address",
          "type": "address"
        }
      ],
      "name": "getCurrentChallenge",
      "outputs": [
        {
          "name": "_currentRound",
          "type": "uint256"
        },
        {
          "name": "_goal",
          "type": "string"
        },
        {
          "name": "_targetDays",
          "type": "uint8"
        },
        {
          "name": "_totalDays",
          "type": "uint8"
        },
        {
          "name": "_completeDays",
          "type": "uint8"
        },
        {
          "name": "_startTimestamp",
          "type": "uint256"
        },
        {
          "name": "_amount",
          "type": "uint256"
        },
        {
          "name": "_sponsorSize",
          "type": "uint256"
        },
        {
          "name": "_totalSponsorAmount",
          "type": "uint256"
        },
        {
          "name": "_completeTimestamps",
          "type": "uint256[]"
        }
      ],
      "payable": false,
      "stateMutability": "view",
      "type": "function"
    },
    {
      "constant": true,
      "inputs": [
        {
          "name": "_groupId",
          "type": "uint256"
        },
        {
          "name": "_address",
          "type": "address"
        },
        {
          "name": "_round",
          "type": "uint256"
        }
      ],
      "name": "getChallenge",
      "outputs": [
        {
          "name": "_currentRound",
          "type": "uint256"
        },
        {
          "name": "_goal",
          "type": "string"
        },
        {
          "name": "_targetDays",
          "type": "uint8"
        },
        {
          "name": "_totalDays",
          "type": "uint8"
        },
        {
          "name": "_completeDays",
          "type": "uint8"
        },
        {
          "name": "_startTimestamp",
          "type": "uint256"
        },
        {
          "name": "_amount",
          "type": "uint256"
        },
        {
          "name": "_sponsorSize",
          "type": "uint256"
        },
        {
          "name": "_totalSponsorAmount",
          "type": "uint256"
        },
        {
          "name": "_completeTimestamps",
          "type": "uint256[]"
        }
      ],
      "payable": false,
      "stateMutability": "view",
      "type": "function"
    },
    {
      "constant": true,
      "inputs": [
        {
          "name": "_groupId",
          "type": "uint256"
        },
        {
          "name": "_address",
          "type": "address"
        },
        {
          "name": "_round",
          "type": "uint256"
        },
        {
          "name": "_index",
          "type": "uint256"
        }
      ],
      "name": "getSponsor",
      "outputs": [
        {
          "name": "_who",
          "type": "address"
        },
        {
          "name": "_amount",
          "type": "uint256"
        },
        {
          "name": "_comment",
          "type": "string"
        }
      ],
      "payable": false,
      "stateMutability": "view",
      "type": "function"
    },
    {
      "constant": false,
      "inputs": [
        {
          "name": "_groupId",
          "type": "uint256"
        },
        {
          "name": "_who",
          "type": "address"
        },
        {
          "name": "timestamps",
          "type": "uint256[]"
        }
      ],
      "name": "completeDailyChallenges",
      "outputs": [],
      "payable": false,
      "stateMutability": "nonpayable",
      "type": "function"
    },
    {
      "constant": false,
      "inputs": [
        {
          "name": "_groupId",
          "type": "uint256"
        },
        {
          "name": "_whos",
          "type": "address[]"
        },
        {
          "name": "timestamps",
          "type": "uint256[]"
        }
      ],
      "name": "agentCompleteDailyChallenges",
      "outputs": [],
      "payable": false,
      "stateMutability": "nonpayable",
      "type": "function"
    },
    {
      "constant": false,
      "inputs": [
        {
          "name": "_groupId",
          "type": "uint256"
        },
        {
          "name": "_who",
          "type": "address"
        }
      ],
      "name": "finishChallenge",
      "outputs": [],
      "payable": false,
      "stateMutability": "nonpayable",
      "type": "function"
    },
    {
      "constant": false,
      "inputs": [
        {
          "name": "_groupId",
          "type": "uint256"
        }
      ],
      "name": "abortChallenge",
      "outputs": [],
      "payable": false,
      "stateMutability": "nonpayable",
      "type": "function"
    },
    {
      "constant": true,
      "inputs": [
        {
          "name": "_groupId",
          "type": "uint256"
        },
        {
          "name": "_who",
          "type": "address"
        }
      ],
      "name": "canSponsor",
      "outputs": [
        {
          "name": "_can",
          "type": "bool"
        }
      ],
      "payable": false,
      "stateMutability": "view",
      "type": "function"
    },
    {
      "constant": false,
      "inputs": [
        {
          "name": "_groupId",
          "type": "uint256"
        },
        {
          "name": "_who",
          "type": "address"
        },
        {
          "name": "_comment",
          "type": "string"
        }
      ],
      "name": "sponsorChallenge",
      "outputs": [],
      "payable": true,
      "stateMutability": "payable",
      "type": "function"
    },
    {
      "constant": false,
      "inputs": [],
      "name": "ownerWithdraw",
      "outputs": [],
      "payable": false,
      "stateMutability": "nonpayable",
      "type": "function"
    },
    {
      "constant": false,
      "inputs": [
        {
          "name": "_groupId",
          "type": "uint256"
        }
      ],
      "name": "groupWithdraw",
      "outputs": [],
      "payable": false,
      "stateMutability": "nonpayable",
      "type": "function"
    },
    {
      "constant": false,
      "inputs": [],
      "name": "userWithdraw",
      "outputs": [],
      "payable": false,
      "stateMutability": "nonpayable",
      "type": "function"
    }
  ],
  "bytecode": "0x608060405234801561001057600080fd5b50336000806101000a81548173ffffffffffffffffffffffffffffffffffffffff021916908373ffffffffffffffffffffffffffffffffffffffff1602179055506000809054906101000a900473ffffffffffffffffffffffffffffffffffffffff1673ffffffffffffffffffffffffffffffffffffffff16600073ffffffffffffffffffffffffffffffffffffffff167f8be0079c531659141344cd1fd0a4f28419497f9722a3daafe3b4186f6b6457e060405160405180910390a36152b2806100dc6000396000f3fe60806040526004361061019e576000357c01000000000000000000000000000000000000000000000000000000009004806384da92a7116100ee578063bcaf25ca116100a7578063cf45078111610081578063cf45078114611103578063ed95a4151461115e578063f2fde38b146112c4578063fa97031f146113155761019e565b8063bcaf25ca14610e02578063bedcf00314610f75578063c3250a1a14610fa05761019e565b806384da92a7146109725780638da5cb5b14610a3a5780638f32d59b14610a91578063a54b85b014610ac0578063a646f9ad14610c30578063a8ca60d414610c475761019e565b80632fb6ad341161015b5780634bccbf36116101355780634bccbf36146108255780634d17c43b146108565780635cf3d34614610891578063715018a61461095b5761019e565b80632fb6ad34146106ee5780634311de8f1461071f578063496677e6146107365761019e565b80630bd8a981146101a35780630fc7fe641461028857806311809b3a146103aa5780631defe218146103e557806326224c64146105a05780632a71ca1914610605575b600080fd5b610286600480360360608110156101b957600080fd5b8101908080359060200190929190803573ffffffffffffffffffffffffffffffffffffffff1690602001909291908035906020019064010000000081111561020057600080fd5b82018360208201111561021257600080fd5b8035906020019184600183028401116401000000008311171561023457600080fd5b91908080601f016020809104026020016040519081016040528093929190818152602001838380828437600081840152601f19601f820116905080830192505050505050509192919290505050611388565b005b34801561029457600080fd5b506102f5600480360360808110156102ab57600080fd5b8101908080359060200190929190803573ffffffffffffffffffffffffffffffffffffffff1690602001909291908035906020019092919080359060200190929190505050611876565b604051808473ffffffffffffffffffffffffffffffffffffffff1673ffffffffffffffffffffffffffffffffffffffff16815260200183815260200180602001828103825283818151815260200191508051906020019080838360005b8381101561036d578082015181840152602081019050610352565b50505050905090810190601f16801561039a5780820380516001836020036101000a031916815260200191505b5094505050505060405180910390f35b3480156103b657600080fd5b506103e3600480360360208110156103cd57600080fd5b8101908080359060200190929190505050611b06565b005b3480156103f157600080fd5b5061059e600480360361010081101561040957600080fd5b81019080803590602001909291908035906020019064010000000081111561043057600080fd5b82018360208201111561044257600080fd5b8035906020019184600183028401116401000000008311171561046457600080fd5b91908080601f016020809104026020016040519081016040528093929190818152602001838380828437600081840152601f19601f820116905080830192505050505050509192919290803590602001906401000000008111156104c757600080fd5b8201836020820111156104d957600080fd5b803590602001918460018302840111640100000000831117156104fb57600080fd5b91908080601f016020809104026020016040519081016040528093929190818152602001838380828437600081840152601f19601f820116905080830192505050505050509192919290803560ff169060200190929190803560ff169060200190929190803560ff16906020019092919080359060200190929190803573ffffffffffffffffffffffffffffffffffffffff169060200190929190505050611cbf565b005b3480156105ac57600080fd5b506105ef600480360360208110156105c357600080fd5b81019080803573ffffffffffffffffffffffffffffffffffffffff169060200190929190505050612131565b6040518082815260200191505060405180910390f35b6106ec600480360360a081101561061b57600080fd5b81019080803590602001909291908035906020019064010000000081111561064257600080fd5b82018360208201111561065457600080fd5b8035906020019184600183028401116401000000008311171561067657600080fd5b91908080601f016020809104026020016040519081016040528093929190818152602001838380828437600081840152601f19601f820116905080830192505050505050509192919290803560ff169060200190929190803560ff16906020019092919080359060200190929190505050612149565b005b3480156106fa57600080fd5b5061070361281e565b604051808260ff1660ff16815260200191505060405180910390f35b34801561072b57600080fd5b50610734612823565b005b34801561074257600080fd5b506108236004803603606081101561075957600080fd5b8101908080359060200190929190803573ffffffffffffffffffffffffffffffffffffffff169060200190929190803590602001906401000000008111156107a057600080fd5b8201836020820111156107b257600080fd5b803590602001918460208302840111640100000000831117156107d457600080fd5b919080806020026020016040519081016040528093929190818152602001838360200280828437600081840152601f19601f82011690508083019250505050505050919291929050505061288f565b005b34801561083157600080fd5b5061083a612c35565b604051808260ff1660ff16815260200191505060405180910390f35b34801561086257600080fd5b5061088f6004803603602081101561087957600080fd5b8101908080359060200190929190505050612c3a565b005b34801561089d57600080fd5b506108e0600480360360208110156108b457600080fd5b81019080803573ffffffffffffffffffffffffffffffffffffffff169060200190929190505050612dda565b6040518080602001828103825283818151815260200191508051906020019080838360005b83811015610920578082015181840152602081019050610905565b50505050905090810190601f16801561094d5780820380516001836020036101000a031916815260200191505b509250505060405180910390f35b34801561096757600080fd5b50610970612e8a565b005b34801561097e57600080fd5b50610a386004803603602081101561099557600080fd5b81019080803590602001906401000000008111156109b257600080fd5b8201836020820111156109c457600080fd5b803590602001918460018302840111640100000000831117156109e657600080fd5b91908080601f016020809104026020016040519081016040528093929190818152602001838380828437600081840152601f19601f820116905080830192505050505050509192919290505050612f5c565b005b348015610a4657600080fd5b50610a4f612fb3565b604051808273ffffffffffffffffffffffffffffffffffffffff1673ffffffffffffffffffffffffffffffffffffffff16815260200191505060405180910390f35b348015610a9d57600080fd5b50610aa6612fdc565b604051808215151515815260200191505060405180910390f35b348015610acc57600080fd5b50610b2360048036036060811015610ae357600080fd5b8101908080359060200190929190803573ffffffffffffffffffffffffffffffffffffffff16906020019092919080359060200190929190505050613033565b604051808b8152602001806020018a60ff1660ff1681526020018960ff1660ff1681526020018860ff1660ff1681526020018781526020018681526020018581526020018481526020018060200183810383528c818151815260200191508051906020019080838360005b83811015610ba9578082015181840152602081019050610b8e565b50505050905090810190601f168015610bd65780820380516001836020036101000a031916815260200191505b50838103825284818151815260200191508051906020019060200280838360005b83811015610c12578082015181840152602081019050610bf7565b505050509050019c5050505050505050505050505060405180910390f35b348015610c3c57600080fd5b50610c456132a3565b005b348015610c5357600080fd5b50610c8060048036036020811015610c6a57600080fd5b8101908080359060200190929190505050613410565b6040518080602001806020018a60ff1660ff1681526020018960ff1660ff1681526020018860ff1660ff1681526020018781526020018681526020018573ffffffffffffffffffffffffffffffffffffffff1673ffffffffffffffffffffffffffffffffffffffff1681526020018473ffffffffffffffffffffffffffffffffffffffff1673ffffffffffffffffffffffffffffffffffffffff16815260200183810383528c818151815260200191508051906020019080838360005b83811015610d58578082015181840152602081019050610d3d565b50505050905090810190601f168015610d855780820380516001836020036101000a031916815260200191505b5083810382528b818151815260200191508051906020019080838360005b83811015610dbe578082015181840152602081019050610da3565b50505050905090810190601f168015610deb5780820380516001836020036101000a031916815260200191505b509b50505050505050505050505060405180910390f35b348015610e0e57600080fd5b50610f7360048036036080811015610e2557600080fd5b810190808035906020019092919080359060200190640100000000811115610e4c57600080fd5b820183602082011115610e5e57600080fd5b80359060200191846001830284011164010000000083111715610e8057600080fd5b91908080601f016020809104026020016040519081016040528093929190818152602001838380828437600081840152601f19601f82011690508083019250505050505050919291929080359060200190640100000000811115610ee357600080fd5b820183602082011115610ef557600080fd5b80359060200191846001830284011164010000000083111715610f1757600080fd5b91908080601f016020809104026020016040519081016040528093929190818152602001838380828437600081840152601f19601f82011690508083019250505050505050919291929080359060200190929190505050613480565b005b348015610f8157600080fd5b50610f8a6135a0565b6040518082815260200191505060405180910390f35b348015610fac57600080fd5b5061110160048036036060811015610fc357600080fd5b810190808035906020019092919080359060200190640100000000811115610fea57600080fd5b820183602082011115610ffc57600080fd5b8035906020019184602083028401116401000000008311171561101e57600080fd5b919080806020026020016040519081016040528093929190818152602001838360200280828437600081840152601f19601f8201169050808301925050505050505091929192908035906020019064010000000081111561107e57600080fd5b82018360208201111561109057600080fd5b803590602001918460208302840111640100000000831117156110b257600080fd5b919080806020026020016040519081016040528093929190818152602001838360200280828437600081840152601f19601f8201169050808301925050505050505091929192905050506135a6565b005b34801561110f57600080fd5b5061115c6004803603604081101561112657600080fd5b8101908080359060200190929190803573ffffffffffffffffffffffffffffffffffffffff169060200190929190505050613972565b005b34801561116a57600080fd5b506111b76004803603604081101561118157600080fd5b8101908080359060200190929190803573ffffffffffffffffffffffffffffffffffffffff169060200190929190505050613e7a565b604051808b8152602001806020018a60ff1660ff1681526020018960ff1660ff1681526020018860ff1660ff1681526020018781526020018681526020018581526020018481526020018060200183810383528c818151815260200191508051906020019080838360005b8381101561123d578082015181840152602081019050611222565b50505050905090810190601f16801561126a5780820380516001836020036101000a031916815260200191505b50838103825284818151815260200191508051906020019060200280838360005b838110156112a657808201518184015260208101905061128b565b505050509050019c5050505050505050505050505060405180910390f35b3480156112d057600080fd5b50611313600480360360208110156112e757600080fd5b81019080803573ffffffffffffffffffffffffffffffffffffffff169060200190929190505050613f0f565b005b34801561132157600080fd5b5061136e6004803603604081101561133857600080fd5b8101908080359060200190929190803573ffffffffffffffffffffffffffffffffffffffff169060200190929190505050613f2e565b604051808215151515815260200191505060405180910390f35b6113918361414a565b60c0015134101515156113ef576040517f08c379a000000000000000000000000000000000000000000000000000000000815260040180806020018281038252602781526020018061515b6027913960400191505060405180910390fd5b6113f98383613f2e565b151561146d576040517f08c379a00000000000000000000000000000000000000000000000000000000081526004018080602001828103825260138152602001807f63616e204e4f542073706f6e736f72206e6f770000000000000000000000000081525060200191505060405180910390fd5b60008061147a8585614469565b91509150600080905060008090506002836006015411156114ff5760003490506000600290505b6000811215156114fc57846008016000828152602001908152602001600020600101548211156114ee57600193508092508460080160008481526020019081526020016000206001015491505b8080600190039150506114a1565b50505b811561168c57826008016000828152602001908152602001600020836008016000856006015481526020019081526020016000206000820160009054906101000a900473ffffffffffffffffffffffffffffffffffffffff168160000160006101000a81548173ffffffffffffffffffffffffffffffffffffffff021916908373ffffffffffffffffffffffffffffffffffffffff16021790555060018201548160010155600282018160020190805460018160011615610100020316600290046115cb929190614d5a565b509050506060604051908101604052803373ffffffffffffffffffffffffffffffffffffffff1681526020013481526020018681525083600801600083815260200190815260200160002060008201518160000160006101000a81548173ffffffffffffffffffffffffffffffffffffffff021916908373ffffffffffffffffffffffffffffffffffffffff160217905550602082015181600101556040820151816002019080519060200190611683929190614de1565b50905050611749565b6060604051908101604052803373ffffffffffffffffffffffffffffffffffffffff168152602001348152602001868152508360080160008560060154815260200190815260200160002060008201518160000160006101000a81548173ffffffffffffffffffffffffffffffffffffffff021916908373ffffffffffffffffffffffffffffffffffffffff160217905550602082015181600101556040820151816002019080519060200190611744929190614de1565b509050505b82600601600081548092919060010191905055506117743484600701546145c190919063ffffffff16565b8360070181905550838673ffffffffffffffffffffffffffffffffffffffff16887f5d47be91ffc1ba7b7e791ba472edb7cc810d2f7da4255384de67fab2c2f1044233348a604051808473ffffffffffffffffffffffffffffffffffffffff1673ffffffffffffffffffffffffffffffffffffffff16815260200183815260200180602001828103825283818151815260200191508051906020019080838360005b83811015611831578082015181840152602081019050611816565b50505050905090810190601f16801561185e5780820380516001836020036101000a031916815260200191505b5094505050505060405180910390a450505050505050565b60008060606004600088815260200190815260200160002060008773ffffffffffffffffffffffffffffffffffffffff1673ffffffffffffffffffffffffffffffffffffffff16815260200190815260200160002060008681526020019081526020016000206006015484101515611956576040517f08c379a000000000000000000000000000000000000000000000000000000000815260040180806020018281038252601b8152602001807f6d757374206c657373207468616e2073706f6e736f722073697a65000000000081525060200191505060405180910390fd5b61195e614e61565b6004600089815260200190815260200160002060008873ffffffffffffffffffffffffffffffffffffffff1673ffffffffffffffffffffffffffffffffffffffff16815260200190815260200160002060008781526020019081526020016000206008016000868152602001908152602001600020606060405190810160405290816000820160009054906101000a900473ffffffffffffffffffffffffffffffffffffffff1673ffffffffffffffffffffffffffffffffffffffff1673ffffffffffffffffffffffffffffffffffffffff16815260200160018201548152602001600282018054600181600116156101000203166002900480601f016020809104026020016040519081016040528092919081815260200182805460018160011615610100020316600290048015611ad85780601f10611aad57610100808354040283529160200191611ad8565b820191906000526020600020905b815481529060010190602001808311611abb57829003601f168201915b5050505050815250509050806000015181602001518260400151809050935093509350509450945094915050565b60006003600083815260200190815260200160002090508060060160009054906101000a900473ffffffffffffffffffffffffffffffffffffffff1673ffffffffffffffffffffffffffffffffffffffff163373ffffffffffffffffffffffffffffffffffffffff16141515611be4576040517f08c379a00000000000000000000000000000000000000000000000000000000081526004018080602001828103825260178152602001807f7065726d697373696f6e3a2067726f7570206f776e657200000000000000000081525060200191505060405180910390fd5b60008160050154111515611c60576040517f08c379a00000000000000000000000000000000000000000000000000000000081526004018080602001828103825260188152602001807f6e6f7420656e6f7567682067726f75702e62616c616e6365000000000000000081525060200191505060405180910390fd5b600081600501549050600082600501819055503373ffffffffffffffffffffffffffffffffffffffff166108fc829081150290604051600060405180830381858888f19350505050158015611cb9573d6000803e3d6000fd5b50505050565b600088111515611d37576040517f08c379a00000000000000000000000000000000000000000000000000000000081526004018080602001828103825260138152602001807f6d7573742067726561746572207468616e20300000000000000000000000000081525060200191505060405180910390fd5b6000600360008a815260200190815260200160002060030160009054906101000a900460ff1660ff16141515611dd5576040517f08c379a000000000000000000000000000000000000000000000000000000000815260040180806020018281038252600c8152602001807f6475706c6963617465206964000000000000000000000000000000000000000081525060200191505060405180910390fd5b600c60ff168560ff1610151515611e37576040517f08c379a000000000000000000000000000000000000000000000000000000000815260040180806020018281038252602c815260200180615082602c913960400191505060405180910390fd5b605a60ff168460ff1611151515611e99576040517f08c379a00000000000000000000000000000000000000000000000000000000081526004018080602001828103825260298152602001806151db6029913960400191505060405180910390fd5b605a60ff168360ff1611151515611efb576040517f08c379a00000000000000000000000000000000000000000000000000000000081526004018080602001828103825260298152602001806151db6029913960400191505060405180910390fd5b610140604051908101604052808981526020018881526020018781526020018660ff1681526020018560ff1681526020018460ff168152602001838152602001600081526020013373ffffffffffffffffffffffffffffffffffffffff1681526020018273ffffffffffffffffffffffffffffffffffffffff16815250600360008a8152602001908152602001600020600082015181600001556020820151816001019080519060200190611fb1929190614de1565b506040820151816002019080519060200190611fce929190614de1565b5060608201518160030160006101000a81548160ff021916908360ff16021790555060808201518160030160016101000a81548160ff021916908360ff16021790555060a08201518160030160026101000a81548160ff021916908360ff16021790555060c0820151816004015560e082015181600501556101008201518160060160006101000a81548173ffffffffffffffffffffffffffffffffffffffff021916908373ffffffffffffffffffffffffffffffffffffffff1602179055506101208201518160070160006101000a81548173ffffffffffffffffffffffffffffffffffffffff021916908373ffffffffffffffffffffffffffffffffffffffff1602179055509050503373ffffffffffffffffffffffffffffffffffffffff167faf348f8a343779cbcb7e7a69714c25de476696ba50f4ace6337fe4684f114a9d896040518082815260200191505060405180910390a25050505050505050565b60066020528060005260406000206000915090505481565b620151804203811115156121c5576040517f08c379a000000000000000000000000000000000000000000000000000000000815260040180806020018281038252601d8152602001807f6d7573742067726561746572207468616e206e6f77202d20312064617900000081525060200191505060405180910390fd5b6121cd614e99565b6121d68661414a565b9050806060015160ff168360ff161015151561223d576040517f08c379a000000000000000000000000000000000000000000000000000000000815260040180806020018281038252602d815260200180615182602d913960400191505060405180910390fd5b806080015160ff168360ff16111515156122a2576040517f08c379a000000000000000000000000000000000000000000000000000000000815260040180806020018281038252602a81526020018061510b602a913960400191505060405180910390fd5b806060015160ff168460ff1610151515612307576040517f08c379a000000000000000000000000000000000000000000000000000000000815260040180806020018281038252602d815260200180615182602d913960400191505060405180910390fd5b8260ff168460ff1611151515612368576040517f08c379a000000000000000000000000000000000000000000000000000000000815260040180806020018281038252602481526020018061503b6024913960400191505060405180910390fd5b8060c0015134101515156123c7576040517f08c379a000000000000000000000000000000000000000000000000000000000815260040180806020018281038252602381526020018061505f6023913960400191505060405180910390fd5b60006005600088815260200190815260200160002060003373ffffffffffffffffffffffffffffffffffffffff1673ffffffffffffffffffffffffffffffffffffffff16815260200190815260200160002054905060006004600089815260200190815260200160002060003373ffffffffffffffffffffffffffffffffffffffff1673ffffffffffffffffffffffffffffffffffffffff168152602001908152602001600020600083815260200190815260200160002060030160019054906101000a900460ff1660ff16141515612508576040517f08c379a00000000000000000000000000000000000000000000000000000000081526004018080602001828103825260138152602001807f6475706c6963617465206368616c6c656e67650000000000000000000000000081525060200191505060405180910390fd5b600081141561256c576001905060016005600089815260200190815260200160002060003373ffffffffffffffffffffffffffffffffffffffff1673ffffffffffffffffffffffffffffffffffffffff168152602001908152602001600020819055505b610140604051908101604052803373ffffffffffffffffffffffffffffffffffffffff1681526020018881526020018781526020018660ff1681526020018560ff168152602001600060ff1681526020018481526020013481526020016000815260200160008152506004600089815260200190815260200160002060003373ffffffffffffffffffffffffffffffffffffffff1673ffffffffffffffffffffffffffffffffffffffff168152602001908152602001600020600083815260200190815260200160002060008201518160000160006101000a81548173ffffffffffffffffffffffffffffffffffffffff021916908373ffffffffffffffffffffffffffffffffffffffff1602179055506020820151816001015560408201518160020190805190602001906126a3929190614de1565b5060608201518160030160006101000a81548160ff021916908360ff16021790555060808201518160030160016101000a81548160ff021916908360ff16021790555060a08201518160030160026101000a81548160ff021916908360ff16021790555060c0820151816004015560e0820151816005015561010082015181600601556101208201518160070155905050803373ffffffffffffffffffffffffffffffffffffffff16887f132d2953d482922ed5b72adb422fe0e832c3516ca7221f64d00091fab08adb54898989893460405180806020018660ff1660ff1681526020018560ff1660ff168152602001848152602001838152602001828103825287818151815260200191508051906020019080838360005b838110156127d75780820151818401526020810190506127bc565b50505050905090810190601f1680156128045780820380516001836020036101000a031916815260200191505b50965050505050505060405180910390a450505050505050565b600c81565b61282b612fdc565b151561283657600080fd5b6000600154905060006001819055503373ffffffffffffffffffffffffffffffffffffffff166108fc829081150290604051600060405180830381858888f1935050505015801561288b573d6000803e3d6000fd5b5050565b8282612899614e99565b6128a28361414a565b905080610120015173ffffffffffffffffffffffffffffffffffffffff163373ffffffffffffffffffffffffffffffffffffffff16148061290e57508173ffffffffffffffffffffffffffffffffffffffff163373ffffffffffffffffffffffffffffffffffffffff16145b1515612982576040517f08c379a00000000000000000000000000000000000000000000000000000000081526004018080602001828103825260168152602001807f7065726d697373696f6e3a20757365722f6167656e740000000000000000000081525060200191505060405180910390fd5b61298a614e99565b6129938761414a565b905060006129a18888614469565b91505060008090505b8651811015612c2a57600087828151811015156129c357fe5b9060200190602002015190506000620151806129ec8560040154846145e290919063ffffffff16565b8115156129f557fe5b0490506001151584600901600083815260200190815260200160002060009054906101000a900460ff1615151415612a2e575050612c1d565b612a63620151808560030160019054906101000a900460ff1660ff160262ffffff1685600401546145c190919063ffffffff16565b82101515612ad9576040517f08c379a00000000000000000000000000000000000000000000000000000000081526004018080602001828103825260158152602001807f6d757374206c657373207468616e20656e64446179000000000000000000000081525060200191505060405180910390fd5b428211151515612b34576040517f08c379a000000000000000000000000000000000000000000000000000000000815260040180806020018281038252602c8152602001806151af602c913960400191505060405180910390fd5b6000612b5a620151808760a0015160ff160262ffffff16426145e290919063ffffffff16565b9050808310151515612bb7576040517f08c379a00000000000000000000000000000000000000000000000000000000081526004018080602001828103825260308152602001806150db6030913960400191505060405180910390fd5b84600301600281819054906101000a900460ff168092919060010191906101000a81548160ff021916908360ff16021790555050600185600901600084815260200190815260200160002060006101000a81548160ff0219169083151502179055505050505b80806001019150506129aa565b505050505050505050565b605a81565b600080612c478333614469565b91509150612c56338383614604565b813373ffffffffffffffffffffffffffffffffffffffff1682600101547f4b03648a775d73d51b1bb53ce88b26c79140c86fb7ef09e257e4745a560002a6846002018560030160009054906101000a900460ff168660030160019054906101000a900460ff168760030160029054906101000a900460ff16886004015489600501548a600601548b60070154600280811115612cee57fe5b60405180806020018a60ff1660ff1681526020018960ff1660ff1681526020018860ff1660ff1681526020018781526020018681526020018581526020018481526020018360ff1660ff16815260200182810382528b818154600181600116156101000203166002900481526020019150805460018160011615610100020316600290048015612dbf5780601f10612d9457610100808354040283529160200191612dbf565b820191906000526020600020905b815481529060010190602001808311612da257829003601f168201915b50509a505050505050505050505060405180910390a4505050565b60026020528060005260406000206000915090508054600181600116156101000203166002900480601f016020809104026020016040519081016040528092919081815260200182805460018160011615610100020316600290048015612e825780601f10612e5757610100808354040283529160200191612e82565b820191906000526020600020905b815481529060010190602001808311612e6557829003601f168201915b505050505081565b612e92612fdc565b1515612e9d57600080fd5b600073ffffffffffffffffffffffffffffffffffffffff166000809054906101000a900473ffffffffffffffffffffffffffffffffffffffff1673ffffffffffffffffffffffffffffffffffffffff167f8be0079c531659141344cd1fd0a4f28419497f9722a3daafe3b4186f6b6457e060405160405180910390a360008060006101000a81548173ffffffffffffffffffffffffffffffffffffffff021916908373ffffffffffffffffffffffffffffffffffffffff160217905550565b80600260003373ffffffffffffffffffffffffffffffffffffffff1673ffffffffffffffffffffffffffffffffffffffff1681526020019081526020016000209080519060200190612faf929190614f22565b5050565b60008060009054906101000a900473ffffffffffffffffffffffffffffffffffffffff16905090565b60008060009054906101000a900473ffffffffffffffffffffffffffffffffffffffff1673ffffffffffffffffffffffffffffffffffffffff163373ffffffffffffffffffffffffffffffffffffffff1614905090565b60006060600080600080600080600060606000600460008f815260200190815260200160002060008e73ffffffffffffffffffffffffffffffffffffffff1673ffffffffffffffffffffffffffffffffffffffff16815260200190815260200160002060008d815260200190815260200160002090508060030160029054906101000a900460ff1660ff166040519080825280602002602001820160405280156130ec5781602001602082028038833980820191505090505b509150600080905060008090505b8260030160019054906101000a900460ff1660ff16811015613196576001151583600901600083815260200190815260200160002060009054906101000a900460ff16151514156131895761316162015180820284600401546145c190919063ffffffff16565b848360ff1681518110151561317257fe5b906020019060200201818152505081806001019250505b80806001019150506130fa565b508c9b50816002018054600181600116156101000203166002900480601f0160208091040260200160405190810160405280929190818152602001828054600181600116156101000203166002900480156132325780601f1061320757610100808354040283529160200191613232565b820191906000526020600020905b81548152906001019060200180831161321557829003601f168201915b50505050509a508160030160009054906101000a900460ff1699508160030160019054906101000a900460ff1698508160030160029054906101000a900460ff16975081600401549650816005015495508160060154945081600701549350505093979b5093979b91959950939750565b6000600660003373ffffffffffffffffffffffffffffffffffffffff1673ffffffffffffffffffffffffffffffffffffffff1681526020019081526020016000205411151561333d576040517f08c379a00000000000000000000000000000000000000000000000000000000081526004018080602001828103825260268152602001806151356026913960400191505060405180910390fd5b6000600660003373ffffffffffffffffffffffffffffffffffffffff1673ffffffffffffffffffffffffffffffffffffffff1681526020019081526020016000205490506000600660003373ffffffffffffffffffffffffffffffffffffffff1673ffffffffffffffffffffffffffffffffffffffff168152602001908152602001600020819055503373ffffffffffffffffffffffffffffffffffffffff166108fc829081150290604051600060405180830381858888f1935050505015801561340c573d6000803e3d6000fd5b5050565b6060806000806000806000806000613426614e99565b61342f8b61414a565b9050806020015199508060400151985080606001519750806080015196508060a0015195508060c0015194508060e00151935080610100015192508061012001519150509193959799909294969850565b60006003600086815260200190815260200160002090503373ffffffffffffffffffffffffffffffffffffffff168160060160009054906101000a900473ffffffffffffffffffffffffffffffffffffffff1673ffffffffffffffffffffffffffffffffffffffff1614151561355e576040517f08c379a00000000000000000000000000000000000000000000000000000000081526004018080602001828103825260178152602001807f7065726d697373696f6e3a2067726f7570206f776e657200000000000000000081525060200191505060405180910390fd5b83816001019080519060200190613576929190614f22565b508281600201908051906020019061358f929190614f22565b508181600401819055505050505050565b60015481565b80518251141515613602576040517f08c379a000000000000000000000000000000000000000000000000000000000815260040180806020018281038252602d8152602001806150ae602d913960400191505060405180910390fd5b61360a614e99565b6136138461414a565b905080610120015173ffffffffffffffffffffffffffffffffffffffff163373ffffffffffffffffffffffffffffffffffffffff161415156136bd576040517f08c379a00000000000000000000000000000000000000000000000000000000081526004018080602001828103825260118152602001807f7065726d697373696f6e3a206167656e7400000000000000000000000000000081525060200191505060405180910390fd5b60008090505b835181101561396b5760006136ef8686848151811015156136e057fe5b90602001906020020151614469565b9150506000848381518110151561370257fe5b90602001906020020151905060006201518061372b8460040154846145e290919063ffffffff16565b81151561373457fe5b0490506001151583600901600083815260200190815260200160002060009054906101000a900460ff161515141561376e5750505061395e565b6137a3620151808460030160019054906101000a900460ff1660ff160262ffffff1684600401546145c190919063ffffffff16565b82101515613819576040517f08c379a00000000000000000000000000000000000000000000000000000000081526004018080602001828103825260158152602001807f6d757374206c657373207468616e20656e64446179000000000000000000000081525060200191505060405180910390fd5b428211151515613874576040517f08c379a000000000000000000000000000000000000000000000000000000000815260040180806020018281038252602c8152602001806151af602c913960400191505060405180910390fd5b600061389a620151808760a0015160ff160262ffffff16426145e290919063ffffffff16565b90508083101515156138f7576040517f08c379a00000000000000000000000000000000000000000000000000000000081526004018080602001828103825260308152602001806150db6030913960400191505060405180910390fd5b83600301600281819054906101000a900460ff168092919060010191906101000a81548160ff021916908360ff16021790555050600184600901600084815260200190815260200160002060006101000a81548160ff021916908315150217905550505050505b80806001019150506136c3565b5050505050565b60008061397f8484614469565b9150915060008160030160009054906101000a900460ff1660ff168260030160029054906101000a900460ff1660ff16101515613b87578373ffffffffffffffffffffffffffffffffffffffff163373ffffffffffffffffffffffffffffffffffffffff16141515613a3c576040517f08c379a00000000000000000000000000000000000000000000000000000000081526004018080602001828103825260268152602001806152616026913960400191505060405180910390fd5b6000600a8360070154811515613a4e57fe5b0490506000811115613ab157600060036000856001015481526020019081526020016000209050613a8c8282600501546145c190919063ffffffff16565b8160050181905550613aa9826001546145c190919063ffffffff16565b600181905550505b6000613ad36002830285600701540385600501546145c190919063ffffffff16565b90506005600088815260200190815260200160002060008773ffffffffffffffffffffffffffffffffffffffff1673ffffffffffffffffffffffffffffffffffffffff168152602001908152602001600020600081548092919060010191905055508573ffffffffffffffffffffffffffffffffffffffff166108fc829081150290604051600060405180830381858888f19350505050158015613b7b573d6000803e3d6000fd5b50600092505050613cf4565b6000613bbe620151808460030160019054906101000a900460ff1660ff160262ffffff1684600401546145c190919063ffffffff16565b9050804210151515613c1b576040517f08c379a000000000000000000000000000000000000000000000000000000000815260040180806020018281038252602a815260200180615237602a913960400191505060405180910390fd5b8473ffffffffffffffffffffffffffffffffffffffff163373ffffffffffffffffffffffffffffffffffffffff16141515613ce357613c58614e99565b613c618761414a565b9050613c87620151808260a0015160ff160262ffffff16836145c190919063ffffffff16565b4210151515613ce1576040517f08c379a00000000000000000000000000000000000000000000000000000000081526004018080602001828103825260338152602001806152046033913960400191505060405180910390fd5b505b613cee858585614604565b60019150505b828473ffffffffffffffffffffffffffffffffffffffff1683600101547f4b03648a775d73d51b1bb53ce88b26c79140c86fb7ef09e257e4745a560002a6856002018660030160009054906101000a900460ff168760030160019054906101000a900460ff168860030160029054906101000a900460ff1689600401548a600501548b600601548c600701548c6002811115613d8c57fe5b60405180806020018a60ff1660ff1681526020018960ff1660ff1681526020018860ff1660ff1681526020018781526020018681526020018581526020018481526020018360ff1660ff16815260200182810382528b818154600181600116156101000203166002900481526020019150805460018160011615610100020316600290048015613e5d5780601f10613e3257610100808354040283529160200191613e5d565b820191906000526020600020905b815481529060010190602001808311613e4057829003601f168201915b50509a505050505050505050505060405180910390a45050505050565b60006060600080600080600080600060606000600560008e815260200190815260200160002060008d73ffffffffffffffffffffffffffffffffffffffff1673ffffffffffffffffffffffffffffffffffffffff168152602001908152602001600020549050613eeb8d8d83613033565b9a509a509a509a509a509a509a509a509a509a50509295989b9194979a5092959850565b613f17612fdc565b1515613f2257600080fd5b613f2b81614c60565b50565b6000613f38614fa2565b613f428484614469565b61014060405190810160405290816000820160009054906101000a900473ffffffffffffffffffffffffffffffffffffffff1673ffffffffffffffffffffffffffffffffffffffff1673ffffffffffffffffffffffffffffffffffffffff16815260200160018201548152602001600282018054600181600116156101000203166002900480601f0160208091040260200160405190810160405280929190818152602001828054600181600116156101000203166002900480156140485780601f1061401d57610100808354040283529160200191614048565b820191906000526020600020905b81548152906001019060200180831161402b57829003601f168201915b505050505081526020016003820160009054906101000a900460ff1660ff1660ff1681526020016003820160019054906101000a900460ff1660ff1660ff1681526020016003820160029054906101000a900460ff1660ff1660ff1681526020016004820154815260200160058201548152602001600682015481526020016007820154815250509150506000620151806140f08360c00151426145e290919063ffffffff16565b8115156140f957fe5b0490508160a0015160ff168110151561413d5760008260a0015160ff1682039050826060015183608001510360ff1681111561413b5760009350505050614144565b505b6001925050505b92915050565b614152614e99565b61415a614e99565b60036000848152602001908152602001600020610140604051908101604052908160008201548152602001600182018054600181600116156101000203166002900480601f01602080910402602001604051908101604052809291908181526020018280546001816001161561010002031660029004801561421d5780601f106141f25761010080835404028352916020019161421d565b820191906000526020600020905b81548152906001019060200180831161420057829003601f168201915b50505050508152602001600282018054600181600116156101000203166002900480601f0160208091040260200160405190810160405280929190818152602001828054600181600116156101000203166002900480156142bf5780601f10614294576101008083540402835291602001916142bf565b820191906000526020600020905b8154815290600101906020018083116142a257829003601f168201915b505050505081526020016003820160009054906101000a900460ff1660ff1660ff1681526020016003820160019054906101000a900460ff1660ff1660ff1681526020016003820160029054906101000a900460ff1660ff1660ff16815260200160048201548152602001600582015481526020016006820160009054906101000a900473ffffffffffffffffffffffffffffffffffffffff1673ffffffffffffffffffffffffffffffffffffffff1673ffffffffffffffffffffffffffffffffffffffff1681526020016007820160009054906101000a900473ffffffffffffffffffffffffffffffffffffffff1673ffffffffffffffffffffffffffffffffffffffff1673ffffffffffffffffffffffffffffffffffffffff168152505090506000816060015160ff16111515614460576040517f08c379a00000000000000000000000000000000000000000000000000000000081526004018080602001828103825260088152602001807f6e6f2067726f757000000000000000000000000000000000000000000000000081525060200191505060405180910390fd5b80915050919050565b60008060006005600086815260200190815260200160002060008573ffffffffffffffffffffffffffffffffffffffff1673ffffffffffffffffffffffffffffffffffffffff16815260200190815260200160002054905060006004600087815260200190815260200160002060008673ffffffffffffffffffffffffffffffffffffffff1673ffffffffffffffffffffffffffffffffffffffff1681526020019081526020016000206000838152602001908152602001600020905060008160030160019054906101000a900460ff1660ff161115156145b2576040517f08c379a000000000000000000000000000000000000000000000000000000000815260040180806020018281038252600c8152602001807f6e6f206368616c6c656e6765000000000000000000000000000000000000000081525060200191505060405180910390fd5b81819350935050509250929050565b60008082840190508381101515156145d857600080fd5b8091505092915050565b60008282111515156145f357600080fd5b600082840390508091505092915050565b6000600360008360010154815260200190815260200160002090506000600283600601541161463757826006015461463a565b60035b905060008360070154905060008090505b828110156148485761465b614e61565b856008016000838152602001908152602001600020606060405190810160405290816000820160009054906101000a900473ffffffffffffffffffffffffffffffffffffffff1673ffffffffffffffffffffffffffffffffffffffff1673ffffffffffffffffffffffffffffffffffffffff16815260200160018201548152602001600282018054600181600116156101000203166002900480601f0160208091040260200160405190810160405280929190818152602001828054600181600116156101000203166002900480156147755780601f1061474a57610100808354040283529160200191614775565b820191906000526020600020905b81548152906001019060200180831161475857829003601f168201915b50505050508152505090506147da816020015160066000846000015173ffffffffffffffffffffffffffffffffffffffff1673ffffffffffffffffffffffffffffffffffffffff168152602001908152602001600020546145c190919063ffffffff16565b60066000836000015173ffffffffffffffffffffffffffffffffffffffff1673ffffffffffffffffffffffffffffffffffffffff168152602001908152602001600020819055506148388160200151846145e290919063ffffffff16565b925050808060010191505061464b565b5060006148628286600501546145c190919063ffffffff16565b90506000600a8281151561487257fe5b049050600060048381151561488357fe5b04905061489d8187600501546145c190919063ffffffff16565b866005018190555060006148cc826148be85876145e290919063ffffffff16565b6145e290919063ffffffff16565b90506000861115614b8e5760008660026005878115156148e857fe5b04028115156148f357fe5b04905060008090505b87811015614b8b5761490c614e61565b8a6008016000838152602001908152602001600020606060405190810160405290816000820160009054906101000a900473ffffffffffffffffffffffffffffffffffffffff1673ffffffffffffffffffffffffffffffffffffffff1673ffffffffffffffffffffffffffffffffffffffff16815260200160018201548152602001600282018054600181600116156101000203166002900480601f016020809104026020016040519081016040528092919081815260200182805460018160011615610100020316600290048015614a265780601f106149fb57610100808354040283529160200191614a26565b820191906000526020600020905b815481529060010190602001808311614a0957829003601f168201915b5050505050815250509050614a878360066000846000015173ffffffffffffffffffffffffffffffffffffffff1673ffffffffffffffffffffffffffffffffffffffff168152602001908152602001600020546145c190919063ffffffff16565b60066000836000015173ffffffffffffffffffffffffffffffffffffffff1673ffffffffffffffffffffffffffffffffffffffff16815260200190815260200160002081905550614ae183856145e290919063ffffffff16565b93508a60000160009054906101000a900473ffffffffffffffffffffffffffffffffffffffff1673ffffffffffffffffffffffffffffffffffffffff168b60010154826000015173ffffffffffffffffffffffffffffffffffffffff167f3000c6fe8afebbaf84f7eac7f4c5617aa9c0a990ac2b8108b68aa094f2c921648f87604051808381526020018281526020019250505060405180910390a45080806001019150506148fc565b50505b614ba3816001546145c190919063ffffffff16565b600181905550600560008960010154815260200190815260200160002060008b73ffffffffffffffffffffffffffffffffffffffff1673ffffffffffffffffffffffffffffffffffffffff168152602001908152602001600020600081548092919060010191905055503373ffffffffffffffffffffffffffffffffffffffff166108fc849081150290604051600060405180830381858888f19350505050158015614c53573d6000803e3d6000fd5b5050505050505050505050565b600073ffffffffffffffffffffffffffffffffffffffff168173ffffffffffffffffffffffffffffffffffffffff1614151515614c9c57600080fd5b8073ffffffffffffffffffffffffffffffffffffffff166000809054906101000a900473ffffffffffffffffffffffffffffffffffffffff1673ffffffffffffffffffffffffffffffffffffffff167f8be0079c531659141344cd1fd0a4f28419497f9722a3daafe3b4186f6b6457e060405160405180910390a3806000806101000a81548173ffffffffffffffffffffffffffffffffffffffff021916908373ffffffffffffffffffffffffffffffffffffffff16021790555050565b828054600181600116156101000203166002900490600052602060002090601f016020900481019282601f10614d935780548555614dd0565b82800160010185558215614dd057600052602060002091601f016020900482015b82811115614dcf578254825591600101919060010190614db4565b5b509050614ddd9190615015565b5090565b828054600181600116156101000203166002900490600052602060002090601f016020900481019282601f10614e2257805160ff1916838001178555614e50565b82800160010185558215614e50579182015b82811115614e4f578251825591602001919060010190614e34565b5b509050614e5d9190615015565b5090565b606060405190810160405280600073ffffffffffffffffffffffffffffffffffffffff16815260200160008152602001606081525090565b61014060405190810160405280600081526020016060815260200160608152602001600060ff168152602001600060ff168152602001600060ff1681526020016000815260200160008152602001600073ffffffffffffffffffffffffffffffffffffffff168152602001600073ffffffffffffffffffffffffffffffffffffffff1681525090565b828054600181600116156101000203166002900490600052602060002090601f016020900481019282601f10614f6357805160ff1916838001178555614f91565b82800160010185558215614f91579182015b82811115614f90578251825591602001919060010190614f75565b5b509050614f9e9190615015565b5090565b61014060405190810160405280600073ffffffffffffffffffffffffffffffffffffffff1681526020016000815260200160608152602001600060ff168152602001600060ff168152602001600060ff168152602001600081526020016000815260200160008152602001600081525090565b61503791905b8082111561503357600081600090555060010161501b565b5090565b9056fe6d757374206c657373207468616e206f7220657175616c20746f20746f74616c446179736d7573742067726561746572207468616e2067726f75702773206d696e416d6f756e746d7573742067726561746572207468616e206f7220657175616c20746f20676c6f62616c206d696e446179736d757374206265207468652073616d652073697a65206f66205f77686f7320616e642074696d657374616d70736d7573742067726561746572207468616e206f7220657175616c20746f206e6f77202d206d617844656c6179446179736d757374206c657373207468616e206f7220657175616c20746f2067726f75702773206d6178446179736e6f7420656e6f756768207573657242616c616e63657320666f72206d73672e73656e6465726d7573742067726561746572207468616e206f7220657175616c20746f206d696e416d6f756e746d7573742067726561746572207468616e206f7220657175616c20746f2067726f75702773206d696e446179736d757374206c657373207468616e206f7220657175616c20746f2063757272656e742074696d657374616d706d757374206c657373207468616e206f7220657175616c20746f20676c6f62616c206d6178446179736d7573742067726561746572207468616e206f7220657175616c20746f20656e64446179202b206d617844656c6179446179736d7573742067726561746572207468616e206f7220657175616c20746f20656e6454696d657374616d707065726d697373696f6e3a206d757374206265206368616c6c656e6765722068696d73656c66a165627a7a72305820229216ffe3e8cdbe362eb9459274f7ef1a6f901c0532f53584e2d1839441d8890029",
  "source": "pragma solidity ^0.5.4;\n\nimport \"openzeppelin-solidity/contracts/ownership/Ownable.sol\";\nimport \"openzeppelin-solidity/contracts/math/SafeMath.sol\";\n\n/// @author The CoinChallenges Team\n/// @title CoinChallenges Main Contract\ncontract CoinChallenges is Ownable {\n    using SafeMath for uint256;\n\n    uint8 public constant MinDays = 12;\n    uint8 public constant MaxDays = 90;\n\n    enum ChallengeStatus { Succeeded, Failed, Aborted }\n    \n    struct ChallengeGroup {\n        uint256 id;\n        string name;\n        string url;\n        uint8 minDays;\n        uint8 maxDays;\n        uint8 maxDelayDays;\n        uint256 minAmount;\n        uint256 balance;\n        address owner;\n        address agent;\n    }\n\n    struct Challenge {\n        address who;\n        uint256 groupId;\n        string goal;\n        uint8 targetDays;\n        uint8 totalDays;\n        uint8 completeDays;\n        uint256 startTimestamp;\n        uint256 amount;\n        uint256 sponsorSize;\n        uint256 totalSponsorAmount;\n        mapping (uint256 => Sponsor) sponsors;\n        mapping (uint256 => bool) dayIsCompletes; // index is from 0 to (totalDays - 1)\n    }\n\n    struct Sponsor {\n        address who;\n        uint256 amount;\n        string comment;\n    }\n\n    /// the balance of contract owner\n    uint256 public ownerBalance;\n\n    /// address to name\n    mapping (address => string) public names;\n    \n    /// id to ChallengeGroup\n    mapping (uint256 => ChallengeGroup) challengeGroups;\n\n    /// groupId to address to round to challenge\n    mapping (uint256 => mapping (address => mapping (uint256 => Challenge))) challenges;\n\n    /// groupId to address to current round\n    mapping (uint256 => mapping (address => uint256)) currentRounds;\n\n    /// address to user's balance\n    mapping (address => uint256) public userBalances;\n\n    event NewChallengeGroup(address indexed owner, uint256 id);\n    \n    event NewChallenge(\n        uint256 indexed groupId,\n        address indexed challenger,\n        uint256 indexed round,\n        string goal,\n        uint8 targetDays,\n        uint8 totalDays,\n        uint256 startTimestamp,\n        uint256 amount);\n    \n    event FinishChallenge(\n        uint256 indexed groupId,\n        address indexed challenger,\n        uint256 indexed round,\n        string goal,\n        uint8 targetDays,\n        uint8 totalDays,\n        uint8 completeDays,\n        uint256 startTimestamp,\n        uint256 amount,\n        uint256 sponsorSize,\n        uint256 totalSponsorAmount,\n        uint8 status);\n    \n    event SponsorChallenge(\n        address sponsor,\n        uint256 indexed groupId,\n        address indexed challenger,\n        uint256 indexed round,\n        uint256 amount,\n        string comment);\n\n    event SponsorWin(\n        address indexed who,\n        uint256 indexed groupId,\n        address indexed challenger,\n        uint256 round,\n        uint256 amount);\n\n    constructor() public {\n    }\n\n    /// only challenger and agent\n    /// @dev challenger or group.agent\n    /// @param _groupId group.id\n    /// @param _who challenge.who\n    modifier onlyChallengeOwnerAndGroupAgent(uint256 _groupId, address _who) {\n        ChallengeGroup memory group = _getChallengeGroup(_groupId);\n        require(msg.sender == group.agent || msg.sender == _who, \"permission: user/agent\");\n        _;\n    }\n\n    /// update address name\n    /// @param _name the name of address\n    function updateName(string memory _name) public {\n        names[msg.sender] = _name;\n    }\n\n    /// create challenge group\n    /// @param _id any unsigned integer but must greater than 0 and no one use it before\n    /// @param _name group name\n    /// @param _url group image url\n    /// @param _minDays min days for challenge. Must greater than or equal to global minDays\n    /// @param _maxDays max days for challenge. Must less than or equal to global maxDays\n    /// @param _maxDelayDays max delay days for challenge to complete daily goal\n    /// @param _minAmount min amount for challenge and sponsor\n    /// @param _agent agent address to help sending complete days\n    function createChallengeGroup(\n        uint256 _id,\n        string memory _name,\n        string memory _url,\n        uint8 _minDays,\n        uint8 _maxDays,\n        uint8 _maxDelayDays,\n        uint256 _minAmount,\n        address _agent\n    ) public {\n        require(_id > 0, \"must greater than 0\");\n        require(challengeGroups[_id].minDays == 0, \"duplicate id\");\n        require(_minDays >= MinDays, \"must greater than or equal to global minDays\");\n        require(_maxDays <= MaxDays, \"must less than or equal to global maxDays\");\n        require(_maxDelayDays <= MaxDays, \"must less than or equal to global maxDays\");\n\n        challengeGroups[_id] = ChallengeGroup(_id, _name, _url, _minDays, _maxDays, _maxDelayDays, _minAmount, 0, msg.sender, _agent);\n        emit NewChallengeGroup(msg.sender, _id);\n    }\n\n    /// get challenge group\n    /// @param _id group id\n    /// @return challenge group properties\n    function getChallengeGroup(uint256 _id) public view returns (\n        string memory _name,\n        string memory _url,\n        uint8 _minDays,\n        uint8 _maxDays,\n        uint8 _maxDelayDays,\n        uint256 _minAmount,\n        uint256 _balance,\n        address _owner,\n        address _agent\n    ) {\n        ChallengeGroup memory group = _getChallengeGroup(_id);\n\n        _name = group.name;\n        _url = group.url;\n        _minDays = group.minDays;\n        _maxDays = group.maxDays;\n        _maxDelayDays = group.maxDelayDays;\n        _minAmount = group.minAmount;\n        _balance = group.balance;\n        _owner = group.owner;\n        _agent = group.agent;\n    }\n\n    /// modify challenge group\n    /// @dev you can only modify name, url and minAmount\n    function modifyChallengeGroup(uint256 _id, string memory _name, string memory _url, uint256 _minAmount) public {\n        ChallengeGroup storage group = challengeGroups[_id];\n        require(group.owner == msg.sender, \"permission: group owner\");\n\n        group.name = _name;\n        group.url = _url;\n        group.minAmount = _minAmount;\n    }\n\n    /// create challenge\n    /// @param _groupId group id\n    /// @param _goal challenge goal for frontend app to determine whether to complete the goal\n    /// @param _targetDays target days to determine if the challenge is successful\n    /// @param _totalDays challenge total days\n    /// @param _startTimestamp start timestamp (seconds)\n    function createChallenge(\n        uint256 _groupId,\n        string memory _goal,\n        uint8 _targetDays,\n        uint8 _totalDays,\n        uint256 _startTimestamp\n    ) public payable {\n        require(_startTimestamp > now - 1 days, \"must greater than now - 1 day\");\n\n        ChallengeGroup memory group = _getChallengeGroup(_groupId);\n        require(_totalDays >= group.minDays, \"must greater than or equal to group's minDays\");\n        require(_totalDays <= group.maxDays, \"must less than or equal to group's maxDays\");\n        require(_targetDays >= group.minDays, \"must greater than or equal to group's minDays\");\n        require(_targetDays <= _totalDays, \"must less than or equal to totalDays\");\n        require(msg.value >= group.minAmount, \"must greater than group's minAmount\");\n\n        uint256 currentRound = currentRounds[_groupId][msg.sender];\n        require(challenges[_groupId][msg.sender][currentRound].totalDays == 0, \"duplicate challenge\");\n\n        if (currentRound == 0) {\n            currentRound = 1;\n            currentRounds[_groupId][msg.sender] = 1;\n        }\n\n        challenges[_groupId][msg.sender][currentRound] = Challenge(msg.sender, _groupId, _goal, _targetDays, _totalDays, 0, _startTimestamp, msg.value, 0, 0);\n        emit NewChallenge(_groupId, msg.sender, currentRound, _goal, _targetDays, _totalDays, _startTimestamp, msg.value);\n    }\n\n    /// get current challenge\n    /// @dev get the newest round of challenge\n    /// @param _groupId group id\n    /// @param _address challenger address\n    /// @return challenge properties\n    function getCurrentChallenge(\n        uint256 _groupId,\n        address _address\n    ) public view returns (\n        uint256 _currentRound,\n        string memory _goal,\n        uint8 _targetDays,\n        uint8 _totalDays,\n        uint8 _completeDays,\n        uint256 _startTimestamp,\n        uint256 _amount,\n        uint256 _sponsorSize,\n        uint256 _totalSponsorAmount,\n        uint256[] memory _completeTimestamps\n    ) {\n        uint256 currentRound = currentRounds[_groupId][_address];\n        return getChallenge(_groupId, _address, currentRound);\n    }\n\n    /// get challenge\n    /// @param _groupId group id\n    /// @param _address challenger address\n    /// @param _round round number\n    /// @return challenge properties\n    function getChallenge(\n        uint256 _groupId,\n        address _address,\n        uint256 _round\n    ) public view returns (\n        uint256 _currentRound,\n        string memory _goal,\n        uint8 _targetDays,\n        uint8 _totalDays,\n        uint8 _completeDays,\n        uint256 _startTimestamp,\n        uint256 _amount,\n        uint256 _sponsorSize,\n        uint256 _totalSponsorAmount,\n        uint256[] memory _completeTimestamps\n    ) {\n        Challenge storage challenge = challenges[_groupId][_address][_round];\n\n        // setup _completeTimestamps values\n        _completeTimestamps = new uint256[](challenge.completeDays);\n        uint8 index = 0;\n        for (uint dayIndex = 0; dayIndex < challenge.totalDays; dayIndex++) {\n            if (challenge.dayIsCompletes[dayIndex] == true) {\n                _completeTimestamps[index] = challenge.startTimestamp.add(dayIndex * 1 days);\n                index++;\n            }\n        }\n\n        _currentRound = _round;\n        _goal = challenge.goal;\n        _targetDays = challenge.targetDays;\n        _totalDays = challenge.totalDays;\n        _completeDays = challenge.completeDays;\n        _startTimestamp = challenge.startTimestamp;\n        _amount = challenge.amount;\n        _sponsorSize = challenge.sponsorSize;\n        _totalSponsorAmount = challenge.totalSponsorAmount;\n    }\n\n    /// get sponsor\n    /// @param _groupId group id\n    /// @param _address challenger address\n    /// @param _round round number\n    /// @param _index sponsor index\n    /// @return sponsor properties\n    function getSponsor(\n        uint256 _groupId,\n        address _address,\n        uint256 _round,\n        uint256 _index\n    ) public view returns (\n        address _who,\n        uint256 _amount,\n        string memory _comment\n    ) {\n        require(_index < challenges[_groupId][_address][_round].sponsorSize, \"must less than sponsor size\");\n        Sponsor memory sponsor = challenges[_groupId][_address][_round].sponsors[_index];\n        return (sponsor.who, sponsor.amount, sponsor.comment);\n    }\n\n    /// Complete daily challenge\n    /// @dev complete multiple daily challenges. Only challenger and group agent can run.\n    /// @param _groupId group id\n    /// @param _who challenger address\n    /// @param timestamps timestamp array to record challenge.dayIsCompletes\n    function completeDailyChallenges(uint256 _groupId, address _who, uint256[] memory timestamps)\n        public onlyChallengeOwnerAndGroupAgent(_groupId, _who) {\n        \n        ChallengeGroup memory group = _getChallengeGroup(_groupId);\n        (, Challenge storage challenge) = _getCurrentChallenge(_groupId, _who);\n\n        for (uint256 index = 0; index < timestamps.length; index++) {\n            uint256 timestamp = timestamps[index];\n            uint256 dayIndex = timestamp.sub(challenge.startTimestamp) / 1 days;\n            if (challenge.dayIsCompletes[dayIndex] == true) {\n                continue;\n            }\n            require(timestamp < challenge.startTimestamp.add(challenge.totalDays * 1 days), \"must less than endDay\");\n            require(timestamp <= now, \"must less than or equal to current timestamp\");\n\n            uint256 fromTimestamp = now.sub(group.maxDelayDays * 1 days);\n            require(timestamp >= fromTimestamp, \"must greater than or equal to now - maxDelayDays\");\n\n            challenge.completeDays++;\n            challenge.dayIsCompletes[dayIndex] = true;\n        }\n    }\n\n    /// Complete daily challenge from different challengers\n    /// @dev complete multiple daily challenges. Only group agent can run.\n    /// @param _groupId group id\n    /// @param _whos challenger address array\n    /// @param timestamps timestamp array to record challenge.dayIsCompletes\n    function agentCompleteDailyChallenges(uint256 _groupId, address[] memory _whos, uint256[] memory timestamps) public {\n        require(_whos.length == timestamps.length, \"must be the same size of _whos and timestamps\");\n        ChallengeGroup memory group = _getChallengeGroup(_groupId);\n        require(msg.sender == group.agent, \"permission: agent\");\n\n        for (uint256 index = 0; index < _whos.length; index++) {\n            (, Challenge storage challenge) = _getCurrentChallenge(_groupId, _whos[index]);\n            \n            uint256 timestamp = timestamps[index];\n            uint256 dayIndex = timestamp.sub(challenge.startTimestamp) / 1 days;\n            if (challenge.dayIsCompletes[dayIndex] == true) {\n                continue;\n            }\n            require(timestamp < challenge.startTimestamp.add(challenge.totalDays * 1 days), \"must less than endDay\");\n            require(timestamp <= now, \"must less than or equal to current timestamp\");\n\n            uint256 fromTimestamp = now.sub(group.maxDelayDays * 1 days);\n            require(timestamp >= fromTimestamp, \"must greater than or equal to now - maxDelayDays\");\n\n            challenge.completeDays++;\n            challenge.dayIsCompletes[dayIndex] = true;\n        }\n    }\n\n    /// Finish challenge\n    /// @dev only challenger can finish succeed challenge. Anyone can finish failed challenge for bonus.\n    /// @param _groupId group id\n    /// @param _who challenger address\n    function finishChallenge(uint256 _groupId, address payable _who) public {\n        (uint256 currentRound, Challenge storage challenge) = _getCurrentChallenge(_groupId, _who);\n\n        ChallengeStatus status;\n        if (challenge.completeDays >= challenge.targetDays) {\n            require(msg.sender == _who, \"permission: must be challenger himself\");\n\n            // share 10% * 2\n            uint256 sharingAmount = challenge.totalSponsorAmount / 10;\n            if (sharingAmount > 0) {\n                // to group\n                ChallengeGroup storage group = challengeGroups[challenge.groupId];\n                group.balance = group.balance.add(sharingAmount);\n                \n                // to owner\n                ownerBalance = ownerBalance.add(sharingAmount);\n            }\n            \n            // challenger's reward\n            uint256 amount = challenge.amount.add(challenge.totalSponsorAmount - sharingAmount * 2);\n\n            // go to next round\n            currentRounds[_groupId][_who]++;\n\n            _who.transfer(amount);\n            status = ChallengeStatus.Succeeded;\n        } else {\n            // check endTimestamp\n            uint256 endTimestamp = challenge.startTimestamp.add(challenge.totalDays * 1 days);\n            require(now >= endTimestamp, \"must greater than or equal to endTimestamp\");\n\n            if (msg.sender != _who) {\n                ChallengeGroup memory group = _getChallengeGroup(_groupId);\n                require(now >= endTimestamp.add(group.maxDelayDays * 1 days), \"must greater than or equal to endDay + maxDelayDays\");\n            }\n\n            _handleFailedChallenge(_who, currentRound, challenge);\n            status = ChallengeStatus.Failed;\n        }\n\n        emit FinishChallenge(\n            challenge.groupId,\n            _who,\n            currentRound,\n            challenge.goal,\n            challenge.targetDays,\n            challenge.totalDays,\n            challenge.completeDays,\n            challenge.startTimestamp,\n            challenge.amount,\n            challenge.sponsorSize,\n            challenge.totalSponsorAmount,\n            uint8(status));\n    }\n\n    /// Abort challenge\n    /// @dev only challenger can give up his/her challenge\n    /// @param _groupId group id\n    function abortChallenge(uint256 _groupId) public {\n        (uint256 currentRound, Challenge storage challenge) = _getCurrentChallenge(_groupId, msg.sender);\n        _handleFailedChallenge(msg.sender, currentRound, challenge);\n\n        emit FinishChallenge(\n            challenge.groupId,\n            msg.sender,            \n            currentRound,\n            challenge.goal,\n            challenge.targetDays,\n            challenge.totalDays,\n            challenge.completeDays,\n            challenge.startTimestamp,\n            challenge.amount,\n            challenge.sponsorSize,\n            challenge.totalSponsorAmount,\n            uint8(ChallengeStatus.Aborted));\n    }\n\n    /// Determine if it's be able to sponsor challenge or not\n    /// @dev\n    /// @param _groupId group id\n    /// @param _who challenger address\n    /// @return can sponsor or not\n    function canSponsor(uint256 _groupId, address _who) public view returns (bool _can) {\n        (, Challenge memory challenge) = _getCurrentChallenge(_groupId, _who);\n        uint256 day = now.sub(challenge.startTimestamp) / 1 days;\n        if (day >= challenge.completeDays) {\n            uint256 failedDays = day - challenge.completeDays;\n            if (failedDays > challenge.totalDays - challenge.targetDays) {\n                return false;\n            }\n        }\n\n        return true;\n    }\n\n    /// Sponsor challenge\n    /// @dev sponsor specific one challenge\n    /// @param _groupId group id\n    /// @param _who challenger address\n    /// @param _comment message to encourage challenger\n    function sponsorChallenge(uint256 _groupId, address _who, string memory _comment) public payable {\n        require(msg.value >= _getChallengeGroup(_groupId).minAmount, \"must greater than or equal to minAmount\");\n        require(canSponsor(_groupId, _who), \"can NOT sponsor now\");\n\n        (uint256 currentRound, Challenge storage challenge) = _getCurrentChallenge(_groupId, _who);\n\n        bool replace = false;\n        uint256 storeIndex = 0;\n        if (challenge.sponsorSize > 2) {\n            uint256 minAmount = msg.value;\n            for (int256 index = 2; index >= 0; index--) {\n                if (minAmount > challenge.sponsors[uint256(index)].amount) {\n                    replace = true;\n                    storeIndex = uint256(index);\n                    minAmount = challenge.sponsors[storeIndex].amount;\n                }\n            }\n        }\n\n        if (replace) {\n            challenge.sponsors[challenge.sponsorSize] = challenge.sponsors[storeIndex];\n            challenge.sponsors[storeIndex] = Sponsor(msg.sender, msg.value, _comment);\n        } else {\n            challenge.sponsors[challenge.sponsorSize] = Sponsor(msg.sender, msg.value, _comment);\n        }\n        \n        challenge.sponsorSize++;\n        challenge.totalSponsorAmount = challenge.totalSponsorAmount.add(msg.value);\n\n        emit SponsorChallenge(msg.sender, _groupId, _who, currentRound, msg.value, _comment);\n    }\n\n    /// Contract owner withdraw\n    /// @dev withdraw the balance of owner. Only contract owner can withdraw.\n    function ownerWithdraw() public onlyOwner {\n        uint256 amount = ownerBalance;\n        ownerBalance = 0;\n        msg.sender.transfer(amount);\n    }\n\n    /// Group owner withdraw\n    /// @dev withdraw the balance of challenge group. Only group owner can withdraw.\n    function groupWithdraw(uint256 _groupId) public {\n        ChallengeGroup storage group = challengeGroups[_groupId];\n        require(msg.sender == group.owner, \"permission: group owner\");\n        require(group.balance > 0, \"not enough group.balance\");\n        uint256 amount = group.balance;\n        group.balance = 0;\n        msg.sender.transfer(amount);\n    }\n\n    /// User withdraw\n    /// @dev withdraw the balance of user.\n    function userWithdraw() public {\n        require(userBalances[msg.sender] > 0, \"not enough userBalances for msg.sender\");\n        uint256 amount = userBalances[msg.sender];\n        userBalances[msg.sender] = 0;\n        msg.sender.transfer(amount);\n    }\n\n    /// Get challenge group\n    /// @dev get challenge group if exists\n    /// @param _id group id\n    /// @return ChallengeGroup\n    function _getChallengeGroup(uint256 _id) private view returns (ChallengeGroup memory) {\n        ChallengeGroup memory group = challengeGroups[_id];\n        require(group.minDays > 0, \"no group\");\n\n        return group;\n    }\n\n    /// Get current challenge\n    /// @dev get in-progess challenge if exists\n    /// @param _groupId group id\n    /// @param _challengeOwner challenger address\n    /// @return current round number and Challenge\n    function _getCurrentChallenge(uint256 _groupId, address _challengeOwner) private view returns (\n        uint256 _currentRound,\n        Challenge storage _challenge\n    ) {\n        uint256 currentRound = currentRounds[_groupId][_challengeOwner];\n        Challenge storage challenge = challenges[_groupId][_challengeOwner][currentRound];\n        require(challenge.totalDays > 0, \"no challenge\");\n\n        return (currentRound, challenge);\n    }\n\n    /// Handle failed challenge\n    /// @dev share challenger's amount & 4~N sponsors' amount to:\n    /// 10% to caller, will transfer back directly if caller is challenger\n    /// 25% to group owner\n    /// 40% to the top 3 sponsors (and 100% refund for their sponsors)\n    /// 25% to contract owner\n    /// @param who challenger address\n    /// @param currentRound current round number\n    /// @param challenge current Challenge\n    function _handleFailedChallenge(address payable who, uint256 currentRound, Challenge storage challenge) private {\n        ChallengeGroup storage group = challengeGroups[challenge.groupId];\n\n        uint256 topSponsorsSize = challenge.sponsorSize > 2 ? 3 : challenge.sponsorSize;\n        \n        uint256 totalSponsorAmount = challenge.totalSponsorAmount;\n        // add the refund\n        for (uint256 index = 0; index < topSponsorsSize; index++) {\n            Sponsor memory sponsor = challenge.sponsors[index];\n            userBalances[sponsor.who] = userBalances[sponsor.who].add(sponsor.amount);\n            totalSponsorAmount = totalSponsorAmount.sub(sponsor.amount);\n        }\n\n        // share challengers' balance + 4 ~ N sponsors' amount\n        uint256 sharingAmount = challenge.amount.add(totalSponsorAmount);\n\n        // 10% of to caller\n        uint256 toCallerAmount = sharingAmount / 10;\n        // execute transfer in the end of this function\n\n        // 25% to the balance of group owner\n        uint256 toGroupOwnerAmount = sharingAmount / 4;\n        group.balance = group.balance.add(toGroupOwnerAmount);\n\n        // variable to record current sharing balance\n        uint256 toOwnerAmount = sharingAmount.sub(toCallerAmount).sub(toGroupOwnerAmount);\n\n        // 40% to top sponsors\n        if (topSponsorsSize > 0) {\n            uint256 toEachSponsorAmount = sharingAmount / 5 * 2 / topSponsorsSize;\n\n            for (uint256 index = 0; index < topSponsorsSize; index++) {\n                Sponsor memory sponsor = challenge.sponsors[index];\n                userBalances[sponsor.who] = userBalances[sponsor.who].add(toEachSponsorAmount);\n                toOwnerAmount = toOwnerAmount.sub(toEachSponsorAmount);\n                emit SponsorWin(sponsor.who, challenge.groupId, challenge.who, currentRound, toEachSponsorAmount);\n            }\n        }\n\n        // 25% to contract owner\n        ownerBalance = ownerBalance.add(toOwnerAmount);\n\n        // go to next round\n        currentRounds[challenge.groupId][who]++;\n\n        msg.sender.transfer(toCallerAmount);\n    }\n}\n",
  "sourcePath": "/Users/shiacruz/Desktop/projects/dapp/CoinChallengeContract/contracts/CoinChallenges.sol",
  "compiler": {
    "name": "solc",
    "version": "0.5.4+commit.9549d8ff.Emscripten.clang"
  },
  "schemaVersion": "3.0.2",
  "updatedAt": "2019-04-19T10:10:23.891Z",
  "devdoc": {
    "author": "The CoinChallenges Team",
    "methods": {
      "abortChallenge(uint256)": {
        "details": "only challenger can give up his/her challenge",
        "params": {
          "_groupId": "group id"
        }
      },
      "agentCompleteDailyChallenges(uint256,address[],uint256[])": {
        "details": "complete multiple daily challenges. Only group agent can run.",
        "params": {
          "_groupId": "group id",
          "_whos": "challenger address array",
          "timestamps": "timestamp array to record challenge.dayIsCompletes"
        }
      },
      "canSponsor(uint256,address)": {
        "details": "@param _groupId group id",
        "params": {
          "_who": "challenger address"
        },
        "return": "can sponsor or not"
      },
      "completeDailyChallenges(uint256,address,uint256[])": {
        "details": "complete multiple daily challenges. Only challenger and group agent can run.",
        "params": {
          "_groupId": "group id",
          "_who": "challenger address",
          "timestamps": "timestamp array to record challenge.dayIsCompletes"
        }
      },
      "createChallenge(uint256,string,uint8,uint8,uint256)": {
        "params": {
          "_goal": "challenge goal for frontend app to determine whether to complete the goal",
          "_groupId": "group id",
          "_startTimestamp": "start timestamp (seconds)",
          "_targetDays": "target days to determine if the challenge is successful",
          "_totalDays": "challenge total days"
        }
      },
      "createChallengeGroup(uint256,string,string,uint8,uint8,uint8,uint256,address)": {
        "params": {
          "_agent": "agent address to help sending complete days",
          "_id": "any unsigned integer but must greater than 0 and no one use it before",
          "_maxDays": "max days for challenge. Must less than or equal to global maxDays",
          "_maxDelayDays": "max delay days for challenge to complete daily goal",
          "_minAmount": "min amount for challenge and sponsor",
          "_minDays": "min days for challenge. Must greater than or equal to global minDays",
          "_name": "group name",
          "_url": "group image url"
        }
      },
      "finishChallenge(uint256,address)": {
        "details": "only challenger can finish succeed challenge. Anyone can finish failed challenge for bonus.",
        "params": {
          "_groupId": "group id",
          "_who": "challenger address"
        }
      },
      "getChallenge(uint256,address,uint256)": {
        "params": {
          "_address": "challenger address",
          "_groupId": "group id",
          "_round": "round number"
        },
        "return": "challenge properties"
      },
      "getChallengeGroup(uint256)": {
        "params": {
          "_id": "group id"
        },
        "return": "challenge group properties"
      },
      "getCurrentChallenge(uint256,address)": {
        "details": "get the newest round of challenge",
        "params": {
          "_address": "challenger address",
          "_groupId": "group id"
        },
        "return": "challenge properties"
      },
      "getSponsor(uint256,address,uint256,uint256)": {
        "params": {
          "_address": "challenger address",
          "_groupId": "group id",
          "_index": "sponsor index",
          "_round": "round number"
        },
        "return": "sponsor properties"
      },
      "groupWithdraw(uint256)": {
        "details": "withdraw the balance of challenge group. Only group owner can withdraw."
      },
      "isOwner()": {
        "return": "true if `msg.sender` is the owner of the contract."
      },
      "modifyChallengeGroup(uint256,string,string,uint256)": {
        "details": "you can only modify name, url and minAmount"
      },
      "owner()": {
        "return": "the address of the owner."
      },
      "ownerWithdraw()": {
        "details": "withdraw the balance of owner. Only contract owner can withdraw."
      },
      "renounceOwnership()": {
        "details": "Allows the current owner to relinquish control of the contract."
      },
      "sponsorChallenge(uint256,address,string)": {
        "details": "sponsor specific one challenge",
        "params": {
          "_comment": "message to encourage challenger",
          "_groupId": "group id",
          "_who": "challenger address"
        }
      },
      "transferOwnership(address)": {
        "details": "Allows the current owner to transfer control of the contract to a newOwner.",
        "params": {
          "newOwner": "The address to transfer ownership to."
        }
      },
      "updateName(string)": {
        "params": {
          "_name": "the name of address"
        }
      },
      "userWithdraw()": {
        "details": "withdraw the balance of user."
      }
    },
    "title": "CoinChallenges Main Contract"
  },
  "userdoc": {
    "methods": {
      "abortChallenge(uint256)": {
        "notice": "Abort challenge"
      },
      "agentCompleteDailyChallenges(uint256,address[],uint256[])": {
        "notice": "Complete daily challenge from different challengers"
      },
      "canSponsor(uint256,address)": {
        "notice": "Determine if it's be able to sponsor challenge or not"
      },
      "completeDailyChallenges(uint256,address,uint256[])": {
        "notice": "Complete daily challenge"
      },
      "createChallenge(uint256,string,uint8,uint8,uint256)": {
        "notice": "create challenge"
      },
      "createChallengeGroup(uint256,string,string,uint8,uint8,uint8,uint256,address)": {
        "notice": "create challenge group"
      },
      "finishChallenge(uint256,address)": {
        "notice": "Finish challenge"
      },
      "getChallenge(uint256,address,uint256)": {
        "notice": "get challenge"
      },
      "getChallengeGroup(uint256)": {
        "notice": "get challenge group"
      },
      "getCurrentChallenge(uint256,address)": {
        "notice": "get current challenge"
      },
      "getSponsor(uint256,address,uint256,uint256)": {
        "notice": "get sponsor"
      },
      "groupWithdraw(uint256)": {
        "notice": "Group owner withdraw"
      },
      "modifyChallengeGroup(uint256,string,string,uint256)": {
        "notice": "modify challenge group"
      },
      "ownerWithdraw()": {
        "notice": "Contract owner withdraw"
      },
      "renounceOwnership()": {
        "notice": "Renouncing to ownership will leave the contract without an owner. It will not be possible to call the functions with the `onlyOwner` modifier anymore."
      },
      "sponsorChallenge(uint256,address,string)": {
        "notice": "Sponsor challenge"
      },
      "updateName(string)": {
        "notice": "update address name"
      },
      "userWithdraw()": {
        "notice": "User withdraw"
      }
    }
  }
}