{
  "contractName": "CoinChallenges",
  "abi": [
    {
      "constant": true,
      "inputs": [
        {
          "name": "",
          "type": "address"
        }
      ],
      "name": "userBalances",
      "outputs": [
        {
          "name": "",
          "type": "uint256"
        }
      ],
      "payable": false,
      "stateMutability": "view",
      "type": "function"
    },
    {
      "constant": true,
      "inputs": [],
      "name": "MinDays",
      "outputs": [
        {
          "name": "",
          "type": "uint8"
        }
      ],
      "payable": false,
      "stateMutability": "view",
      "type": "function"
    },
    {
      "constant": true,
      "inputs": [],
      "name": "MaxDays",
      "outputs": [
        {
          "name": "",
          "type": "uint8"
        }
      ],
      "payable": false,
      "stateMutability": "view",
      "type": "function"
    },
    {
      "constant": false,
      "inputs": [],
      "name": "renounceOwnership",
      "outputs": [],
      "payable": false,
      "stateMutability": "nonpayable",
      "type": "function"
    },
    {
      "constant": true,
      "inputs": [],
      "name": "owner",
      "outputs": [
        {
          "name": "",
          "type": "address"
        }
      ],
      "payable": false,
      "stateMutability": "view",
      "type": "function"
    },
    {
      "constant": true,
      "inputs": [],
      "name": "isOwner",
      "outputs": [
        {
          "name": "",
          "type": "bool"
        }
      ],
      "payable": false,
      "stateMutability": "view",
      "type": "function"
    },
    {
      "constant": true,
      "inputs": [],
      "name": "ownerBalance",
      "outputs": [
        {
          "name": "",
          "type": "uint256"
        }
      ],
      "payable": false,
      "stateMutability": "view",
      "type": "function"
    },
    {
      "constant": false,
      "inputs": [
        {
          "name": "newOwner",
          "type": "address"
        }
      ],
      "name": "transferOwnership",
      "outputs": [],
      "payable": false,
      "stateMutability": "nonpayable",
      "type": "function"
    },
    {
      "inputs": [],
      "payable": false,
      "stateMutability": "nonpayable",
      "type": "constructor"
    },
    {
      "anonymous": false,
      "inputs": [
        {
          "indexed": true,
          "name": "proposer",
          "type": "address"
        },
        {
          "indexed": false,
          "name": "id",
          "type": "string"
        }
      ],
      "name": "NewChallengeGroup",
      "type": "event"
    },
    {
      "anonymous": false,
      "inputs": [
        {
          "indexed": true,
          "name": "proposer",
          "type": "address"
        },
        {
          "indexed": false,
          "name": "groupId",
          "type": "string"
        },
        {
          "indexed": false,
          "name": "goal",
          "type": "string"
        },
        {
          "indexed": false,
          "name": "targetDays",
          "type": "uint8"
        },
        {
          "indexed": false,
          "name": "totalDays",
          "type": "uint8"
        },
        {
          "indexed": false,
          "name": "startTimestamp",
          "type": "uint256"
        },
        {
          "indexed": false,
          "name": "amount",
          "type": "uint256"
        }
      ],
      "name": "NewChallenge",
      "type": "event"
    },
    {
      "anonymous": false,
      "inputs": [
        {
          "indexed": true,
          "name": "who",
          "type": "address"
        },
        {
          "indexed": false,
          "name": "groupId",
          "type": "string"
        },
        {
          "indexed": false,
          "name": "goal",
          "type": "string"
        },
        {
          "indexed": false,
          "name": "targetDays",
          "type": "uint8"
        },
        {
          "indexed": false,
          "name": "totalDays",
          "type": "uint8"
        },
        {
          "indexed": false,
          "name": "completeDays",
          "type": "uint8"
        },
        {
          "indexed": false,
          "name": "startTimestamp",
          "type": "uint256"
        },
        {
          "indexed": false,
          "name": "amount",
          "type": "uint256"
        },
        {
          "indexed": false,
          "name": "sponsorSize",
          "type": "uint256"
        },
        {
          "indexed": true,
          "name": "status",
          "type": "uint8"
        }
      ],
      "name": "FinishChallenge",
      "type": "event"
    },
    {
      "anonymous": false,
      "inputs": [
        {
          "indexed": true,
          "name": "who",
          "type": "address"
        },
        {
          "indexed": true,
          "name": "challenger",
          "type": "address"
        },
        {
          "indexed": false,
          "name": "amount",
          "type": "uint256"
        },
        {
          "indexed": false,
          "name": "comment",
          "type": "string"
        }
      ],
      "name": "SponsorChallenge",
      "type": "event"
    },
    {
      "anonymous": false,
      "inputs": [
        {
          "indexed": true,
          "name": "who",
          "type": "address"
        },
        {
          "indexed": true,
          "name": "challenger",
          "type": "address"
        },
        {
          "indexed": false,
          "name": "groupId",
          "type": "string"
        },
        {
          "indexed": false,
          "name": "amount",
          "type": "uint256"
        }
      ],
      "name": "SponsorWin",
      "type": "event"
    },
    {
      "anonymous": false,
      "inputs": [
        {
          "indexed": true,
          "name": "previousOwner",
          "type": "address"
        },
        {
          "indexed": true,
          "name": "newOwner",
          "type": "address"
        }
      ],
      "name": "OwnershipTransferred",
      "type": "event"
    },
    {
      "constant": false,
      "inputs": [
        {
          "name": "_id",
          "type": "string"
        },
        {
          "name": "_name",
          "type": "string"
        },
        {
          "name": "_url",
          "type": "string"
        },
        {
          "name": "_minDays",
          "type": "uint8"
        },
        {
          "name": "_maxDays",
          "type": "uint8"
        },
        {
          "name": "_maxDelayDays",
          "type": "uint8"
        },
        {
          "name": "_minAmount",
          "type": "uint256"
        },
        {
          "name": "_agent",
          "type": "address"
        }
      ],
      "name": "createChallengeGroup",
      "outputs": [],
      "payable": false,
      "stateMutability": "nonpayable",
      "type": "function"
    },
    {
      "constant": true,
      "inputs": [
        {
          "name": "_id",
          "type": "string"
        }
      ],
      "name": "getChallengeGroup",
      "outputs": [
        {
          "name": "_name",
          "type": "string"
        },
        {
          "name": "_url",
          "type": "string"
        },
        {
          "name": "_minDays",
          "type": "uint8"
        },
        {
          "name": "_maxDays",
          "type": "uint8"
        },
        {
          "name": "_maxDelayDays",
          "type": "uint8"
        },
        {
          "name": "_minAmount",
          "type": "uint256"
        },
        {
          "name": "_balance",
          "type": "uint256"
        },
        {
          "name": "_owner",
          "type": "address"
        },
        {
          "name": "_agent",
          "type": "address"
        }
      ],
      "payable": false,
      "stateMutability": "view",
      "type": "function"
    },
    {
      "constant": false,
      "inputs": [
        {
          "name": "_id",
          "type": "string"
        },
        {
          "name": "_name",
          "type": "string"
        },
        {
          "name": "_url",
          "type": "string"
        }
      ],
      "name": "modifyChallengeGroup",
      "outputs": [],
      "payable": false,
      "stateMutability": "nonpayable",
      "type": "function"
    },
    {
      "constant": false,
      "inputs": [
        {
          "name": "_groupId",
          "type": "string"
        },
        {
          "name": "_goal",
          "type": "string"
        },
        {
          "name": "_targetDays",
          "type": "uint8"
        },
        {
          "name": "_totalDays",
          "type": "uint8"
        },
        {
          "name": "_startTimestamp",
          "type": "uint256"
        }
      ],
      "name": "createChallenge",
      "outputs": [],
      "payable": true,
      "stateMutability": "payable",
      "type": "function"
    },
    {
      "constant": true,
      "inputs": [
        {
          "name": "_groupId",
          "type": "string"
        },
        {
          "name": "_address",
          "type": "address"
        }
      ],
      "name": "getChallenge",
      "outputs": [
        {
          "name": "_goal",
          "type": "string"
        },
        {
          "name": "_targetDays",
          "type": "uint8"
        },
        {
          "name": "_totalDays",
          "type": "uint8"
        },
        {
          "name": "_completeDays",
          "type": "uint8"
        },
        {
          "name": "_startTimestamp",
          "type": "uint256"
        },
        {
          "name": "_amount",
          "type": "uint256"
        },
        {
          "name": "_sponsorSize",
          "type": "uint256"
        },
        {
          "name": "_completeTimestamps",
          "type": "uint256[]"
        }
      ],
      "payable": false,
      "stateMutability": "view",
      "type": "function"
    },
    {
      "constant": true,
      "inputs": [
        {
          "name": "_groupId",
          "type": "string"
        },
        {
          "name": "_address",
          "type": "address"
        },
        {
          "name": "_index",
          "type": "uint256"
        }
      ],
      "name": "getSponsor",
      "outputs": [
        {
          "name": "_who",
          "type": "address"
        },
        {
          "name": "_amount",
          "type": "uint256"
        },
        {
          "name": "_comment",
          "type": "string"
        }
      ],
      "payable": false,
      "stateMutability": "view",
      "type": "function"
    },
    {
      "constant": false,
      "inputs": [
        {
          "name": "_groupId",
          "type": "string"
        },
        {
          "name": "_who",
          "type": "address"
        },
        {
          "name": "timestamps",
          "type": "uint256[]"
        }
      ],
      "name": "completeDailyChallenges",
      "outputs": [],
      "payable": false,
      "stateMutability": "nonpayable",
      "type": "function"
    },
    {
      "constant": false,
      "inputs": [
        {
          "name": "_groupId",
          "type": "string"
        },
        {
          "name": "_who",
          "type": "address"
        }
      ],
      "name": "finishChallenge",
      "outputs": [],
      "payable": false,
      "stateMutability": "nonpayable",
      "type": "function"
    },
    {
      "constant": false,
      "inputs": [
        {
          "name": "_groupId",
          "type": "string"
        }
      ],
      "name": "abortChallenge",
      "outputs": [],
      "payable": false,
      "stateMutability": "nonpayable",
      "type": "function"
    },
    {
      "constant": true,
      "inputs": [
        {
          "name": "_groupId",
          "type": "string"
        },
        {
          "name": "_who",
          "type": "address"
        }
      ],
      "name": "canSponsor",
      "outputs": [
        {
          "name": "_can",
          "type": "bool"
        }
      ],
      "payable": false,
      "stateMutability": "view",
      "type": "function"
    },
    {
      "constant": false,
      "inputs": [
        {
          "name": "_groupId",
          "type": "string"
        },
        {
          "name": "_who",
          "type": "address"
        },
        {
          "name": "comment",
          "type": "string"
        }
      ],
      "name": "sponsorChallenge",
      "outputs": [],
      "payable": true,
      "stateMutability": "payable",
      "type": "function"
    },
    {
      "constant": false,
      "inputs": [],
      "name": "ownerWithdraw",
      "outputs": [],
      "payable": false,
      "stateMutability": "nonpayable",
      "type": "function"
    },
    {
      "constant": false,
      "inputs": [
        {
          "name": "_groupId",
          "type": "string"
        }
      ],
      "name": "groupWithdraw",
      "outputs": [],
      "payable": false,
      "stateMutability": "nonpayable",
      "type": "function"
    },
    {
      "constant": false,
      "inputs": [],
      "name": "userWithdraw",
      "outputs": [],
      "payable": false,
      "stateMutability": "nonpayable",
      "type": "function"
    }
  ],
  "bytecode": "0x608060405234801561001057600080fd5b50336000806101000a81548173ffffffffffffffffffffffffffffffffffffffff021916908373ffffffffffffffffffffffffffffffffffffffff1602179055506000809054906101000a900473ffffffffffffffffffffffffffffffffffffffff1673ffffffffffffffffffffffffffffffffffffffff16600073ffffffffffffffffffffffffffffffffffffffff167f8be0079c531659141344cd1fd0a4f28419497f9722a3daafe3b4186f6b6457e060405160405180910390a36158ce80620000dd6000396000f3fe608060405260043610610128576000357c0100000000000000000000000000000000000000000000000000000000900463ffffffff168063010a32741461012d57806321dbb19f1461029f5780632224b4bc1461048457806326224c64146106cc578063273f676c146107315780632fb6ad34146108d65780633c3ac0dd146109075780634311de8f14610a075780634bccbf3614610a1e578063500a6b7a14610a4f5780635b74068914610b37578063606b96b214610bff578063715018a614610e4757806385b2e4c614610e5e57806385eae76314610fd45780638da5cb5b146111505780638f32d59b146111a7578063a646f9ad146111d6578063bedcf003146111ed578063c317cdf514611218578063db115bab1461140e578063f2fde38b146114d6575b600080fd5b61029d6004803603606081101561014357600080fd5b810190808035906020019064010000000081111561016057600080fd5b82018360208201111561017257600080fd5b8035906020019184600183028401116401000000008311171561019457600080fd5b91908080601f016020809104026020016040519081016040528093929190818152602001838380828437600081840152601f19601f820116905080830192505050505050509192919290803573ffffffffffffffffffffffffffffffffffffffff1690602001909291908035906020019064010000000081111561021757600080fd5b82018360208201111561022957600080fd5b8035906020019184600183028401116401000000008311171561024b57600080fd5b91908080601f016020809104026020016040519081016040528093929190818152602001838380828437600081840152601f19601f820116905080830192505050505050509192919290505050611527565b005b3480156102ab57600080fd5b50610385600480360360408110156102c257600080fd5b81019080803590602001906401000000008111156102df57600080fd5b8201836020820111156102f157600080fd5b8035906020019184600183028401116401000000008311171561031357600080fd5b91908080601f016020809104026020016040519081016040528093929190818152602001838380828437600081840152601f19601f820116905080830192505050505050509192919290803573ffffffffffffffffffffffffffffffffffffffff169060200190929190505050611805565b60405180806020018960ff1660ff1681526020018860ff1660ff1681526020018760ff1660ff1681526020018681526020018581526020018481526020018060200183810383528b818151815260200191508051906020019080838360005b838110156103ff5780820151818401526020810190506103e4565b50505050905090810190601f16801561042c5780820380516001836020036101000a031916815260200191505b50838103825284818151815260200191508051906020019060200280838360005b8381101561046857808201518184015260208101905061044d565b505050509050019a505050505050505050505060405180910390f35b34801561049057600080fd5b5061054a600480360360208110156104a757600080fd5b81019080803590602001906401000000008111156104c457600080fd5b8201836020820111156104d657600080fd5b803590602001918460018302840111640100000000831117156104f857600080fd5b91908080601f016020809104026020016040519081016040528093929190818152602001838380828437600081840152601f19601f820116905080830192505050505050509192919290505050611aab565b6040518080602001806020018a60ff1660ff1681526020018960ff1660ff1681526020018860ff1660ff1681526020018781526020018681526020018573ffffffffffffffffffffffffffffffffffffffff1673ffffffffffffffffffffffffffffffffffffffff1681526020018473ffffffffffffffffffffffffffffffffffffffff1673ffffffffffffffffffffffffffffffffffffffff16815260200183810383528c818151815260200191508051906020019080838360005b83811015610622578082015181840152602081019050610607565b50505050905090810190601f16801561064f5780820380516001836020036101000a031916815260200191505b5083810382528b818151815260200191508051906020019080838360005b8381101561068857808201518184015260208101905061066d565b50505050905090810190601f1680156106b55780820380516001836020036101000a031916815260200191505b509b50505050505050505050505060405180910390f35b3480156106d857600080fd5b5061071b600480360360208110156106ef57600080fd5b81019080803573ffffffffffffffffffffffffffffffffffffffff169060200190929190505050611b1b565b6040518082815260200191505060405180910390f35b34801561073d57600080fd5b506108216004803603606081101561075457600080fd5b810190808035906020019064010000000081111561077157600080fd5b82018360208201111561078357600080fd5b803590602001918460018302840111640100000000831117156107a557600080fd5b91908080601f016020809104026020016040519081016040528093929190818152602001838380828437600081840152601f19601f820116905080830192505050505050509192919290803573ffffffffffffffffffffffffffffffffffffffff16906020019092919080359060200190929190505050611b33565b604051808473ffffffffffffffffffffffffffffffffffffffff1673ffffffffffffffffffffffffffffffffffffffff16815260200183815260200180602001828103825283818151815260200191508051906020019080838360005b8381101561089957808201518184015260208101905061087e565b50505050905090810190601f1680156108c65780820380516001836020036101000a031916815260200191505b5094505050505060405180910390f35b3480156108e257600080fd5b506108eb611e50565b604051808260ff1660ff16815260200191505060405180910390f35b34801561091357600080fd5b506109ed6004803603604081101561092a57600080fd5b810190808035906020019064010000000081111561094757600080fd5b82018360208201111561095957600080fd5b8035906020019184600183028401116401000000008311171561097b57600080fd5b91908080601f016020809104026020016040519081016040528093929190818152602001838380828437600081840152601f19601f820116905080830192505050505050509192919290803573ffffffffffffffffffffffffffffffffffffffff169060200190929190505050611e55565b604051808215151515815260200191505060405180910390f35b348015610a1357600080fd5b50610a1c612124565b005b348015610a2a57600080fd5b50610a33612190565b604051808260ff1660ff16815260200191505060405180910390f35b348015610a5b57600080fd5b50610b3560048036036040811015610a7257600080fd5b8101908080359060200190640100000000811115610a8f57600080fd5b820183602082011115610aa157600080fd5b80359060200191846001830284011164010000000083111715610ac357600080fd5b91908080601f016020809104026020016040519081016040528093929190818152602001838380828437600081840152601f19601f820116905080830192505050505050509192919290803573ffffffffffffffffffffffffffffffffffffffff169060200190929190505050612195565b005b348015610b4357600080fd5b50610bfd60048036036020811015610b5a57600080fd5b8101908080359060200190640100000000811115610b7757600080fd5b820183602082011115610b8957600080fd5b80359060200191846001830284011164010000000083111715610bab57600080fd5b91908080601f016020809104026020016040519081016040528093929190818152602001838380828437600081840152601f19601f8201169050808301925050505050505091929192905050506128a6565b005b348015610c0b57600080fd5b50610e456004803603610100811015610c2357600080fd5b8101908080359060200190640100000000811115610c4057600080fd5b820183602082011115610c5257600080fd5b80359060200191846001830284011164010000000083111715610c7457600080fd5b91908080601f016020809104026020016040519081016040528093929190818152602001838380828437600081840152601f19601f82011690508083019250505050505050919291929080359060200190640100000000811115610cd757600080fd5b820183602082011115610ce957600080fd5b80359060200191846001830284011164010000000083111715610d0b57600080fd5b91908080601f016020809104026020016040519081016040528093929190818152602001838380828437600081840152601f19601f82011690508083019250505050505050919291929080359060200190640100000000811115610d6e57600080fd5b820183602082011115610d8057600080fd5b80359060200191846001830284011164010000000083111715610da257600080fd5b91908080601f016020809104026020016040519081016040528093929190818152602001838380828437600081840152601f19601f820116905080830192505050505050509192919290803560ff169060200190929190803560ff169060200190929190803560ff16906020019092919080359060200190929190803573ffffffffffffffffffffffffffffffffffffffff169060200190929190505050612ab7565b005b348015610e5357600080fd5b50610e5c613056565b005b610fd2600480360360a0811015610e7457600080fd5b8101908080359060200190640100000000811115610e9157600080fd5b820183602082011115610ea357600080fd5b80359060200191846001830284011164010000000083111715610ec557600080fd5b91908080601f016020809104026020016040519081016040528093929190818152602001838380828437600081840152601f19601f82011690508083019250505050505050919291929080359060200190640100000000811115610f2857600080fd5b820183602082011115610f3a57600080fd5b80359060200191846001830284011164010000000083111715610f5c57600080fd5b91908080601f016020809104026020016040519081016040528093929190818152602001838380828437600081840152601f19601f820116905080830192505050505050509192919290803560ff169060200190929190803560ff16906020019092919080359060200190929190505050613128565b005b348015610fe057600080fd5b5061114e60048036036060811015610ff757600080fd5b810190808035906020019064010000000081111561101457600080fd5b82018360208201111561102657600080fd5b8035906020019184600183028401116401000000008311171561104857600080fd5b91908080601f016020809104026020016040519081016040528093929190818152602001838380828437600081840152601f19601f820116905080830192505050505050509192919290803573ffffffffffffffffffffffffffffffffffffffff169060200190929190803590602001906401000000008111156110cb57600080fd5b8201836020820111156110dd57600080fd5b803590602001918460208302840111640100000000831117156110ff57600080fd5b919080806020026020016040519081016040528093929190818152602001838360200280828437600081840152601f19601f820116905080830192505050505050509192919290505050613baf565b005b34801561115c57600080fd5b50611165613fd7565b604051808273ffffffffffffffffffffffffffffffffffffffff1673ffffffffffffffffffffffffffffffffffffffff16815260200191505060405180910390f35b3480156111b357600080fd5b506111bc614000565b604051808215151515815260200191505060405180910390f35b3480156111e257600080fd5b506111eb614057565b005b3480156111f957600080fd5b50611202614207565b6040518082815260200191505060405180910390f35b34801561122457600080fd5b5061140c6004803603606081101561123b57600080fd5b810190808035906020019064010000000081111561125857600080fd5b82018360208201111561126a57600080fd5b8035906020019184600183028401116401000000008311171561128c57600080fd5b91908080601f016020809104026020016040519081016040528093929190818152602001838380828437600081840152601f19601f820116905080830192505050505050509192919290803590602001906401000000008111156112ef57600080fd5b82018360208201111561130157600080fd5b8035906020019184600183028401116401000000008311171561132357600080fd5b91908080601f016020809104026020016040519081016040528093929190818152602001838380828437600081840152601f19601f8201169050808301925050505050505091929192908035906020019064010000000081111561138657600080fd5b82018360208201111561139857600080fd5b803590602001918460018302840111640100000000831117156113ba57600080fd5b91908080601f016020809104026020016040519081016040528093929190818152602001838380828437600081840152601f19601f82011690508083019250505050505050919291929050505061420d565b005b34801561141a57600080fd5b506114d46004803603602081101561143157600080fd5b810190808035906020019064010000000081111561144e57600080fd5b82018360208201111561146057600080fd5b8035906020019184600183028401116401000000008311171561148257600080fd5b91908080601f016020809104026020016040519081016040528093929190818152602001838380828437600081840152601f19601f82011690508083019250505050505050919291929050505061437b565b005b3480156114e257600080fd5b50611525600480360360208110156114f957600080fd5b81019080803573ffffffffffffffffffffffffffffffffffffffff1690602001909291905050506147dc565b005b611530836147fb565b60c0015134101515156115d1576040517f08c379a000000000000000000000000000000000000000000000000000000000815260040180806020018281038252602f8152602001807f73706f6e736f722076616c7565206d7573742067726561746572207468616e2081526020017f67726f75702e6d696e416d6f756e74000000000000000000000000000000000081525060400191505060405180910390fd5b6115db8383611e55565b151561164f576040517f08c379a000000000000000000000000000000000000000000000000000000000815260040180806020018281038252600f8152602001807f63616e204e4f542073706f6e736f72000000000000000000000000000000000081525060200191505060405180910390fd5b600061165b8484614c0a565b90506060604051908101604052803373ffffffffffffffffffffffffffffffffffffffff168152602001348152602001838152508160080160008360060154815260200190815260200160002060008201518160000160006101000a81548173ffffffffffffffffffffffffffffffffffffffff021916908373ffffffffffffffffffffffffffffffffffffffff1602179055506020820151816001015560408201518160020190805190602001906117159291906155f6565b5090505080600601600081548092919060010191905055508273ffffffffffffffffffffffffffffffffffffffff163373ffffffffffffffffffffffffffffffffffffffff167f4a74808d2e829fa6fa972aab10ae5c0624569589a3ca7848b17c85cf0659415d34856040518083815260200180602001828103825283818151815260200191508051906020019080838360005b838110156117c45780820151818401526020810190506117a9565b50505050905090810190601f1680156117f15780820380516001836020036101000a031916815260200191505b50935050505060405180910390a350505050565b60606000806000806000806060600060038b6040518082805190602001908083835b60208310151561184c5780518252602082019150602081019050602083039250611827565b6001836020036101000a038019825116818451168082178552505050505050905001915050908152602001604051809103902060008b73ffffffffffffffffffffffffffffffffffffffff1673ffffffffffffffffffffffffffffffffffffffff16815260200190815260200160002090508060030160029054906101000a900460ff1660ff166040519080825280602002602001820160405280156119015781602001602082028038833980820191505090505b509150600080905060008090505b8260030160019054906101000a900460ff1660ff168110156119ab576001151583600901600083815260200190815260200160002060009054906101000a900460ff161515141561199e576119766201518082028460040154614d4d90919063ffffffff16565b848360ff1681518110151561198757fe5b906020019060200201818152505081806001019250505b808060010191505061190f565b50816002018054600181600116156101000203166002900480601f016020809104026020016040519081016040528092919081815260200182805460018160011615610100020316600290048015611a445780601f10611a1957610100808354040283529160200191611a44565b820191906000526020600020905b815481529060010190602001808311611a2757829003601f168201915b505050505099508160030160009054906101000a900460ff1698508160030160019054906101000a900460ff1697508160030160029054906101000a900460ff16965081600401549550816005015494508160060154935050509295985092959890939650565b6060806000806000806000806000611ac1615676565b611aca8b6147fb565b9050806020015199508060400151985080606001519750806080015196508060a0015195508060c0015194508060e00151935080610100015192508061012001519150509193959799909294969850565b60046020528060005260406000206000915090505481565b60008060606003866040518082805190602001908083835b602083101515611b705780518252602082019150602081019050602083039250611b4b565b6001836020036101000a038019825116818451168082178552505050505050905001915050908152602001604051809103902060008673ffffffffffffffffffffffffffffffffffffffff1673ffffffffffffffffffffffffffffffffffffffff1681526020019081526020016000206006015484101515611c5a576040517f08c379a000000000000000000000000000000000000000000000000000000000815260040180806020018281038252601b8152602001807f6d757374206c657373207468616e2073706f6e736f722073697a65000000000081525060200191505060405180910390fd5b611c626156ff565b6003876040518082805190602001908083835b602083101515611c9a5780518252602082019150602081019050602083039250611c75565b6001836020036101000a038019825116818451168082178552505050505050905001915050908152602001604051809103902060008773ffffffffffffffffffffffffffffffffffffffff1673ffffffffffffffffffffffffffffffffffffffff1681526020019081526020016000206008016000868152602001908152602001600020606060405190810160405290816000820160009054906101000a900473ffffffffffffffffffffffffffffffffffffffff1673ffffffffffffffffffffffffffffffffffffffff1673ffffffffffffffffffffffffffffffffffffffff16815260200160018201548152602001600282018054600181600116156101000203166002900480601f016020809104026020016040519081016040528092919081815260200182805460018160011615610100020316600290048015611e235780601f10611df857610100808354040283529160200191611e23565b820191906000526020600020905b815481529060010190602001808311611e0657829003601f168201915b50505050508152505090508060000151816020015182604001518090509350935093505093509350939050565b600c81565b6000611e5f615737565b611e698484614c0a565b61014060405190810160405290816000820160009054906101000a900473ffffffffffffffffffffffffffffffffffffffff1673ffffffffffffffffffffffffffffffffffffffff1673ffffffffffffffffffffffffffffffffffffffff168152602001600182018054600181600116156101000203166002900480601f016020809104026020016040519081016040528092919081815260200182805460018160011615610100020316600290048015611f655780601f10611f3a57610100808354040283529160200191611f65565b820191906000526020600020905b815481529060010190602001808311611f4857829003601f168201915b50505050508152602001600282018054600181600116156101000203166002900480601f0160208091040260200160405190810160405280929190818152602001828054600181600116156101000203166002900480156120075780601f10611fdc57610100808354040283529160200191612007565b820191906000526020600020905b815481529060010190602001808311611fea57829003601f168201915b505050505081526020016003820160009054906101000a900460ff1660ff1660ff1681526020016003820160019054906101000a900460ff1660ff1660ff1681526020016003820160029054906101000a900460ff1660ff1660ff1681526020016004820154815260200160058201548152602001600682015481526020016007820160009054906101000a900460ff1660038111156120a357fe5b60038111156120ae57fe5b81525050905060006120e2620151806120d48460c0015142614d6e90919063ffffffff16565b614d9090919063ffffffff16565b600101905060008260a0015160ff1682039050826060015183608001510360ff16811115612116576000935050505061211e565b600193505050505b92915050565b61212c614000565b151561213757600080fd5b6000600154905060006001819055503373ffffffffffffffffffffffffffffffffffffffff166108fc829081150290604051600060405180830381858888f1935050505015801561218c573d6000803e3d6000fd5b5050565b605a81565b60006121a18383614c0a565b90506121d3620151808260030160019054906101000a900460ff1660ff16028260040154614d4d90919063ffffffff16565b4210151515612270576040517f08c379a00000000000000000000000000000000000000000000000000000000081526004018080602001828103825260248152602001807f6d7573742067726561746572207468616e206368616c6c656e6765277320456e81526020017f644461790000000000000000000000000000000000000000000000000000000081525060400191505060405180910390fd5b60038081111561227c57fe5b8160070160009054906101000a900460ff16600381111561229957fe5b141515612334576040517f08c379a00000000000000000000000000000000000000000000000000000000081526004018080602001828103825260228152602001807f6368616c6c656e676520737461747573206973204e4f5420496e50726f67726581526020017f737300000000000000000000000000000000000000000000000000000000000081525060400191505060405180910390fd5b8060030160009054906101000a900460ff1660ff168160030160029054906101000a900460ff1660ff1610151561242e5760008160070160006101000a81548160ff0219169083600381111561238657fe5b021790555060008160050154905060008090505b82600601548110156123e0576123d18360080160008381526020019081526020016000206001015483614d4d90919063ffffffff16565b9150808060010191505061239a565b508273ffffffffffffffffffffffffffffffffffffffff166108fc829081150290604051600060405180830381858888f19350505050158015612427573d6000803e3d6000fd5b5050612546565b612436615676565b61243f846147fb565b9050612477620151808260a001518460030160019054906101000a900460ff160160ff16028360040154614d4d90919063ffffffff16565b4210151515612514576040517f08c379a000000000000000000000000000000000000000000000000000000000815260040180806020018281038252603b8152602001807f6d7573742067726561746572207468616e206368616c6c656e6765277320456e81526020017f64446179202b2067726f75702773206d617844656c617944617973000000000081525060400191505060405180910390fd5b60018260070160006101000a81548160ff0219169083600381111561253557fe5b02179055506125448383614dba565b505b8060070160009054906101000a900460ff16600381111561256357fe5b60ff168273ffffffffffffffffffffffffffffffffffffffff167f8dc044a07c06dca135e3403b8abb803e7522dbb705fd5802941f1470d840b8a783600101846002018560030160009054906101000a900460ff168660030160019054906101000a900460ff168760030160029054906101000a900460ff16886004015489600501548a600601546040518080602001806020018960ff1660ff1681526020018860ff1660ff1681526020018760ff1660ff16815260200186815260200185815260200184815260200183810383528b8181546001816001161561010002031660029004815260200191508054600181600116156101000203166002900480156126ae5780601f10612683576101008083540402835291602001916126ae565b820191906000526020600020905b81548152906001019060200180831161269157829003601f168201915b505083810382528a8181546001816001161561010002031660029004815260200191508054600181600116156101000203166002900480156127315780601f1061270657610100808354040283529160200191612731565b820191906000526020600020905b81548152906001019060200180831161271457829003601f168201915b50509a505050505050505050505060405180910390a36003836040518082805190602001908083835b60208310151561277f578051825260208201915060208101905060208303925061275a565b6001836020036101000a038019825116818451168082178552505050505050905001915050908152602001604051809103902060008373ffffffffffffffffffffffffffffffffffffffff1673ffffffffffffffffffffffffffffffffffffffff168152602001908152602001600020600080820160006101000a81549073ffffffffffffffffffffffffffffffffffffffff021916905560018201600061282791906157b5565b60028201600061283791906157b5565b6003820160006101000a81549060ff02191690556003820160016101000a81549060ff02191690556003820160026101000a81549060ff02191690556004820160009055600582016000905560068201600090556007820160006101000a81549060ff02191690555050505050565b60006002826040518082805190602001908083835b6020831015156128e057805182526020820191506020810190506020830392506128bb565b6001836020036101000a038019825116818451168082178552505050505050905001915050908152602001604051809103902090508060060160009054906101000a900473ffffffffffffffffffffffffffffffffffffffff1673ffffffffffffffffffffffffffffffffffffffff163373ffffffffffffffffffffffffffffffffffffffff161415156129dc576040517f08c379a00000000000000000000000000000000000000000000000000000000081526004018080602001828103825260178152602001807f7065726d697373696f6e3a2067726f7570206f776e657200000000000000000081525060200191505060405180910390fd5b60008160050154111515612a58576040517f08c379a00000000000000000000000000000000000000000000000000000000081526004018080602001828103825260188152602001807f6e6f7420656e6f7567682067726f75702e62616c616e6365000000000000000081525060200191505060405180910390fd5b600081600501549050600082600501819055503373ffffffffffffffffffffffffffffffffffffffff166108fc829081150290604051600060405180830381858888f19350505050158015612ab1573d6000803e3d6000fd5b50505050565b60006002896040518082805190602001908083835b602083101515612af15780518252602082019150602081019050602083039250612acc565b6001836020036101000a038019825116818451168082178552505050505050905001915050908152602001604051809103902060030160009054906101000a900460ff1660ff16141515612bd3576040517f08c379a00000000000000000000000000000000000000000000000000000000081526004018080602001828103825260288152602001807f63616e204e4f54206265207468652073616d65206964206f66204368616c6c6581526020017f6e676547726f757000000000000000000000000000000000000000000000000081525060400191505060405180910390fd5b600c60ff168560ff1610151515612c52576040517f08c379a00000000000000000000000000000000000000000000000000000000081526004018080602001828103825260208152602001807f6d7573742067726561746572207468616e20676c6f62616c206d696e4461797381525060200191505060405180910390fd5b605a60ff168460ff1611151515612cd1576040517f08c379a000000000000000000000000000000000000000000000000000000000815260040180806020018281038252601d8152602001807f6d757374206c657373207468616e20676c6f62616c206d61784461797300000081525060200191505060405180910390fd5b605a60ff168360ff1611151515612d50576040517f08c379a000000000000000000000000000000000000000000000000000000000815260040180806020018281038252601d8152602001807f6d757374206c657373207468616e20676c6f62616c206d61784461797300000081525060200191505060405180910390fd5b610140604051908101604052808981526020018881526020018781526020018660ff1681526020018560ff1681526020018460ff168152602001838152602001600081526020013373ffffffffffffffffffffffffffffffffffffffff1681526020018273ffffffffffffffffffffffffffffffffffffffff168152506002896040518082805190602001908083835b602083101515612e055780518252602082019150602081019050602083039250612de0565b6001836020036101000a03801982511681845116808217855250505050505090500191505090815260200160405180910390206000820151816000019080519060200190612e549291906155f6565b506020820151816001019080519060200190612e719291906155f6565b506040820151816002019080519060200190612e8e9291906155f6565b5060608201518160030160006101000a81548160ff021916908360ff16021790555060808201518160030160016101000a81548160ff021916908360ff16021790555060a08201518160030160026101000a81548160ff021916908360ff16021790555060c0820151816004015560e082015181600501556101008201518160060160006101000a81548173ffffffffffffffffffffffffffffffffffffffff021916908373ffffffffffffffffffffffffffffffffffffffff1602179055506101208201518160070160006101000a81548173ffffffffffffffffffffffffffffffffffffffff021916908373ffffffffffffffffffffffffffffffffffffffff1602179055509050503373ffffffffffffffffffffffffffffffffffffffff167f71d49af7e2735dd98a820c3e35a19b83758b3b63a172a20d4bbf357956e52ca4896040518080602001828103825283818151815260200191508051906020019080838360005b83811015613012578082015181840152602081019050612ff7565b50505050905090810190601f16801561303f5780820380516001836020036101000a031916815260200191505b509250505060405180910390a25050505050505050565b61305e614000565b151561306957600080fd5b600073ffffffffffffffffffffffffffffffffffffffff166000809054906101000a900473ffffffffffffffffffffffffffffffffffffffff1673ffffffffffffffffffffffffffffffffffffffff167f8be0079c531659141344cd1fd0a4f28419497f9722a3daafe3b4186f6b6457e060405160405180910390a360008060006101000a81548173ffffffffffffffffffffffffffffffffffffffff021916908373ffffffffffffffffffffffffffffffffffffffff160217905550565b620151804203811115156131a4576040517f08c379a000000000000000000000000000000000000000000000000000000000815260040180806020018281038252601d8152602001807f6d7573742067726561746572207468616e206e6f77202d20312064617900000081525060200191505060405180910390fd5b6131ac615676565b6131b5866147fb565b905060006003876040518082805190602001908083835b6020831015156131f157805182526020820191506020810190506020830392506131cc565b6001836020036101000a038019825116818451168082178552505050505050905001915050908152602001604051809103902060003373ffffffffffffffffffffffffffffffffffffffff1673ffffffffffffffffffffffffffffffffffffffff16815260200190815260200160002060030160019054906101000a900460ff1660ff16141515613310576040517f08c379a00000000000000000000000000000000000000000000000000000000081526004018080602001828103825260228152602001807f63616e204e4f5420637265617465206475706c6963617465206368616c6c656e81526020017f676500000000000000000000000000000000000000000000000000000000000081525060400191505060405180910390fd5b806060015160ff168360ff16101515156133b8576040517f08c379a000000000000000000000000000000000000000000000000000000000815260040180806020018281038252602d8152602001807f6d7573742067726561746572207468616e206f7220657175616c20746f20677281526020017f6f75702773206d696e446179730000000000000000000000000000000000000081525060400191505060405180910390fd5b806080015160ff168360ff1611151515613460576040517f08c379a000000000000000000000000000000000000000000000000000000000815260040180806020018281038252602a8152602001807f6d757374206c657373207468616e206f7220657175616c20746f2067726f757081526020017f2773206d6178446179730000000000000000000000000000000000000000000081525060400191505060405180910390fd5b806060015160ff168460ff1610151515613508576040517f08c379a000000000000000000000000000000000000000000000000000000000815260040180806020018281038252602d8152602001807f6d7573742067726561746572207468616e206f7220657175616c20746f20677281526020017f6f75702773206d696e446179730000000000000000000000000000000000000081525060400191505060405180910390fd5b8260ff168460ff16111515156135ac576040517f08c379a00000000000000000000000000000000000000000000000000000000081526004018080602001828103825260248152602001807f6d757374206c657373207468616e206f7220657175616c20746f20746f74616c81526020017f446179730000000000000000000000000000000000000000000000000000000081525060400191505060405180910390fd5b8060c00151341015151561364e576040517f08c379a00000000000000000000000000000000000000000000000000000000081526004018080602001828103825260238152602001807f6d7573742067726561746572207468616e2067726f75702773206d696e416d6f81526020017f756e74000000000000000000000000000000000000000000000000000000000081525060400191505060405180910390fd5b610140604051908101604052803373ffffffffffffffffffffffffffffffffffffffff1681526020018781526020018681526020018560ff1681526020018460ff168152602001600060ff168152602001838152602001348152602001600081526020016003808111156136be57fe5b8152506003876040518082805190602001908083835b6020831015156136f957805182526020820191506020810190506020830392506136d4565b6001836020036101000a038019825116818451168082178552505050505050905001915050908152602001604051809103902060003373ffffffffffffffffffffffffffffffffffffffff1673ffffffffffffffffffffffffffffffffffffffff16815260200190815260200160002060008201518160000160006101000a81548173ffffffffffffffffffffffffffffffffffffffff021916908373ffffffffffffffffffffffffffffffffffffffff16021790555060208201518160010190805190602001906137cc9291906155f6565b5060408201518160020190805190602001906137e99291906155f6565b5060608201518160030160006101000a81548160ff021916908360ff16021790555060808201518160030160016101000a81548160ff021916908360ff16021790555060a08201518160030160026101000a81548160ff021916908360ff16021790555060c0820151816004015560e0820151816005015561010082015181600601556101208201518160070160006101000a81548160ff0219169083600381111561389157fe5b021790555090505060008090505b8360ff16811015613a5a57600115156003886040518082805190602001908083835b6020831015156138e657805182526020820191506020810190506020830392506138c1565b6001836020036101000a038019825116818451168082178552505050505050905001915050908152602001604051809103902060003373ffffffffffffffffffffffffffffffffffffffff1673ffffffffffffffffffffffffffffffffffffffff168152602001908152602001600020600901600083815260200190815260200160002060009054906101000a900460ff1615151415613a4d576003876040518082805190602001908083835b6020831015156139b85780518252602082019150602081019050602083039250613993565b6001836020036101000a038019825116818451168082178552505050505050905001915050908152602001604051809103902060003373ffffffffffffffffffffffffffffffffffffffff1673ffffffffffffffffffffffffffffffffffffffff168152602001908152602001600020600901600082815260200190815260200160002060006101000a81549060ff02191690555b808060010191505061389f565b503373ffffffffffffffffffffffffffffffffffffffff167f55ead690df4c3da03c2d70b8edbd522578c89a52d7366daba9f3bb40dab432db8787878787346040518080602001806020018760ff1660ff1681526020018660ff1660ff168152602001858152602001848152602001838103835289818151815260200191508051906020019080838360005b83811015613b01578082015181840152602081019050613ae6565b50505050905090810190601f168015613b2e5780820380516001836020036101000a031916815260200191505b50838103825288818151815260200191508051906020019080838360005b83811015613b67578082015181840152602081019050613b4c565b50505050905090810190601f168015613b945780820380516001836020036101000a031916815260200191505b509850505050505050505060405180910390a2505050505050565b8282613bb9615676565b613bc2836147fb565b90503373ffffffffffffffffffffffffffffffffffffffff168273ffffffffffffffffffffffffffffffffffffffff161480613c2e575080610120015173ffffffffffffffffffffffffffffffffffffffff168273ffffffffffffffffffffffffffffffffffffffff16145b1515613ca2576040517f08c379a000000000000000000000000000000000000000000000000000000000815260040180806020018281038252601c8152602001807f6f6e6c79207573657220616e64206167656e742063616e20776f726b0000000081525060200191505060405180910390fd5b613caa615676565b613cb3876147fb565b90506000613cc18833614c0a565b905060008090505b8651811015613fcc5760008782815181101515613ce257fe5b9060200190602002015190506000613d1c62015180613d0e866004015485614d6e90919063ffffffff16565b614d9090919063ffffffff16565b90506001151584600901600083815260200190815260200160002060009054906101000a900460ff1615151415613d54575050613fbf565b613d84620151808560030160019054906101000a900460ff1660ff16028560040154614d4d90919063ffffffff16565b82101515613e20576040517f08c379a00000000000000000000000000000000000000000000000000000000081526004018080602001828103825260218152602001807f6d757374206c657373207468616e206368616c6c656e6765277320656e64446181526020017f790000000000000000000000000000000000000000000000000000000000000081525060400191505060405180910390fd5b428211151515613e98576040517f08c379a00000000000000000000000000000000000000000000000000000000081526004018080602001828103825260208152602001807f6d757374206c657373207468616e2063757272656e742074696d657374616d7081525060200191505060405180910390fd5b6000613eb9620151808760a0015160ff160242614d6e90919063ffffffff16565b9050808310151515613f59576040517f08c379a000000000000000000000000000000000000000000000000000000000815260040180806020018281038252602e8152602001807f6d7573742067726561746572207468616e206e6f77202d206368616c6c656e6781526020017f652e6d617844656c61794461797300000000000000000000000000000000000081525060400191505060405180910390fd5b84600301600281819054906101000a900460ff168092919060010191906101000a81548160ff021916908360ff16021790555050600185600901600084815260200190815260200160002060006101000a81548160ff0219169083151502179055505050505b8080600101915050613cc9565b505050505050505050565b60008060009054906101000a900473ffffffffffffffffffffffffffffffffffffffff16905090565b60008060009054906101000a900473ffffffffffffffffffffffffffffffffffffffff1673ffffffffffffffffffffffffffffffffffffffff163373ffffffffffffffffffffffffffffffffffffffff1614905090565b6000600460003373ffffffffffffffffffffffffffffffffffffffff1673ffffffffffffffffffffffffffffffffffffffff16815260200190815260200160002054111515614134576040517f08c379a00000000000000000000000000000000000000000000000000000000081526004018080602001828103825260268152602001807f6e6f7420656e6f756768207573657242616c616e63657320666f72206d73672e81526020017f73656e646572000000000000000000000000000000000000000000000000000081525060400191505060405180910390fd5b6000600460003373ffffffffffffffffffffffffffffffffffffffff1673ffffffffffffffffffffffffffffffffffffffff1681526020019081526020016000205490506000600460003373ffffffffffffffffffffffffffffffffffffffff1673ffffffffffffffffffffffffffffffffffffffff168152602001908152602001600020819055503373ffffffffffffffffffffffffffffffffffffffff166108fc829081150290604051600060405180830381858888f19350505050158015614203573d6000803e3d6000fd5b5050565b60015481565b60006002846040518082805190602001908083835b6020831015156142475780518252602082019150602081019050602083039250614222565b6001836020036101000a038019825116818451168082178552505050505050905001915050908152602001604051809103902090503373ffffffffffffffffffffffffffffffffffffffff168160060160009054906101000a900473ffffffffffffffffffffffffffffffffffffffff1673ffffffffffffffffffffffffffffffffffffffff16141515614343576040517f08c379a00000000000000000000000000000000000000000000000000000000081526004018080602001828103825260178152602001807f7065726d697373696f6e3a2067726f7570206f776e657200000000000000000081525060200191505060405180910390fd5b8281600101908051906020019061435b9291906157fd565b50818160020190805190602001906143749291906157fd565b5050505050565b60006143878233614c0a565b905060038081111561439557fe5b8160070160009054906101000a900460ff1660038111156143b257fe5b14151561444d576040517f08c379a00000000000000000000000000000000000000000000000000000000081526004018080602001828103825260228152602001807f6368616c6c656e676520737461747573206973204e4f5420496e50726f67726581526020017f737300000000000000000000000000000000000000000000000000000000000081525060400191505060405180910390fd5b60028160070160006101000a81548160ff0219169083600381111561446e57fe5b021790555061447d3382614dba565b8060070160009054906101000a900460ff16600381111561449a57fe5b60ff163373ffffffffffffffffffffffffffffffffffffffff167f8dc044a07c06dca135e3403b8abb803e7522dbb705fd5802941f1470d840b8a783600101846002018560030160009054906101000a900460ff168660030160019054906101000a900460ff168760030160029054906101000a900460ff16886004015489600501548a600601546040518080602001806020018960ff1660ff1681526020018860ff1660ff1681526020018760ff1660ff16815260200186815260200185815260200184815260200183810383528b8181546001816001161561010002031660029004815260200191508054600181600116156101000203166002900480156145e55780601f106145ba576101008083540402835291602001916145e5565b820191906000526020600020905b8154815290600101906020018083116145c857829003601f168201915b505083810382528a8181546001816001161561010002031660029004815260200191508054600181600116156101000203166002900480156146685780601f1061463d57610100808354040283529160200191614668565b820191906000526020600020905b81548152906001019060200180831161464b57829003601f168201915b50509a505050505050505050505060405180910390a36003826040518082805190602001908083835b6020831015156146b65780518252602082019150602081019050602083039250614691565b6001836020036101000a038019825116818451168082178552505050505050905001915050908152602001604051809103902060003373ffffffffffffffffffffffffffffffffffffffff1673ffffffffffffffffffffffffffffffffffffffff168152602001908152602001600020600080820160006101000a81549073ffffffffffffffffffffffffffffffffffffffff021916905560018201600061475e91906157b5565b60028201600061476e91906157b5565b6003820160006101000a81549060ff02191690556003820160016101000a81549060ff02191690556003820160026101000a81549060ff02191690556004820160009055600582016000905560068201600090556007820160006101000a81549060ff021916905550505050565b6147e4614000565b15156147ef57600080fd5b6147f8816154be565b50565b614803615676565b61480b615676565b6002836040518082805190602001908083835b602083101515614843578051825260208201915060208101905060208303925061481e565b6001836020036101000a03801982511681845116808217855250505050505090500191505090815260200160405180910390206101406040519081016040529081600082018054600181600116156101000203166002900480601f01602080910402602001604051908101604052809291908181526020018280546001816001161561010002031660029004801561491c5780601f106148f15761010080835404028352916020019161491c565b820191906000526020600020905b8154815290600101906020018083116148ff57829003601f168201915b50505050508152602001600182018054600181600116156101000203166002900480601f0160208091040260200160405190810160405280929190818152602001828054600181600116156101000203166002900480156149be5780601f10614993576101008083540402835291602001916149be565b820191906000526020600020905b8154815290600101906020018083116149a157829003601f168201915b50505050508152602001600282018054600181600116156101000203166002900480601f016020809104026020016040519081016040528092919081815260200182805460018160011615610100020316600290048015614a605780601f10614a3557610100808354040283529160200191614a60565b820191906000526020600020905b815481529060010190602001808311614a4357829003601f168201915b505050505081526020016003820160009054906101000a900460ff1660ff1660ff1681526020016003820160019054906101000a900460ff1660ff1660ff1681526020016003820160029054906101000a900460ff1660ff1660ff16815260200160048201548152602001600582015481526020016006820160009054906101000a900473ffffffffffffffffffffffffffffffffffffffff1673ffffffffffffffffffffffffffffffffffffffff1673ffffffffffffffffffffffffffffffffffffffff1681526020016007820160009054906101000a900473ffffffffffffffffffffffffffffffffffffffff1673ffffffffffffffffffffffffffffffffffffffff1673ffffffffffffffffffffffffffffffffffffffff168152505090506000816060015160ff16111515614c01576040517f08c379a00000000000000000000000000000000000000000000000000000000081526004018080602001828103825260138152602001807f67726f757020646f65736e27742065786973740000000000000000000000000081525060200191505060405180910390fd5b80915050919050565b6000806003846040518082805190602001908083835b602083101515614c455780518252602082019150602081019050602083039250614c20565b6001836020036101000a038019825116818451168082178552505050505050905001915050908152602001604051809103902060008473ffffffffffffffffffffffffffffffffffffffff1673ffffffffffffffffffffffffffffffffffffffff168152602001908152602001600020905060008160030160019054906101000a900460ff1660ff16111515614d43576040517f08c379a00000000000000000000000000000000000000000000000000000000081526004018080602001828103825260178152602001807f6368616c6c656e676520646f65736e277420657869737400000000000000000081525060200191505060405180910390fd5b8091505092915050565b6000808284019050838110151515614d6457600080fd5b8091505092915050565b6000828211151515614d7f57600080fd5b600082840390508091505092915050565b60008082111515614da057600080fd5b60008284811515614dad57fe5b0490508091505092915050565b60006002826001016040518082805460018160011615610100020316600290048015614e1d5780601f10614dfb576101008083540402835291820191614e1d565b820191906000526020600020905b815481529060010190602001808311614e09575b5050915050908152602001604051809103902090506000614e4c600a8460050154614d9090919063ffffffff16565b9050600080905060008090505b846006015481101561505a57614e6d6156ff565b856008016000838152602001908152602001600020606060405190810160405290816000820160009054906101000a900473ffffffffffffffffffffffffffffffffffffffff1673ffffffffffffffffffffffffffffffffffffffff1673ffffffffffffffffffffffffffffffffffffffff16815260200160018201548152602001600282018054600181600116156101000203166002900480601f016020809104026020016040519081016040528092919081815260200182805460018160011615610100020316600290048015614f875780601f10614f5c57610100808354040283529160200191614f87565b820191906000526020600020905b815481529060010190602001808311614f6a57829003601f168201915b5050505050815250509050614fec816020015160046000846000015173ffffffffffffffffffffffffffffffffffffffff1673ffffffffffffffffffffffffffffffffffffffff16815260200190815260200160002054614d4d90919063ffffffff16565b60046000836000015173ffffffffffffffffffffffffffffffffffffffff1673ffffffffffffffffffffffffffffffffffffffff1681526020019081526020016000208190555061504a816020015184614d4d90919063ffffffff16565b9250508080600101915050614e59565b506000615088600461507a600a8860050154614d9090919063ffffffff16565b6155b890919063ffffffff16565b9050600080905060008090505b86600601548110156153d6576150a96156ff565b876008016000838152602001908152602001600020606060405190810160405290816000820160009054906101000a900473ffffffffffffffffffffffffffffffffffffffff1673ffffffffffffffffffffffffffffffffffffffff1673ffffffffffffffffffffffffffffffffffffffff16815260200160018201548152602001600282018054600181600116156101000203166002900480601f0160208091040260200160405190810160405280929190818152602001828054600181600116156101000203166002900480156151c35780601f10615198576101008083540402835291602001916151c3565b820191906000526020600020905b8154815290600101906020018083116151a657829003601f168201915b505050505081525050905060006151f9866151eb8460200151886155b890919063ffffffff16565b614d9090919063ffffffff16565b90506152518160046000856000015173ffffffffffffffffffffffffffffffffffffffff1673ffffffffffffffffffffffffffffffffffffffff16815260200190815260200160002054614d4d90919063ffffffff16565b60046000846000015173ffffffffffffffffffffffffffffffffffffffff1673ffffffffffffffffffffffffffffffffffffffff168152602001908152602001600020819055506152ab8185614d4d90919063ffffffff16565b93508860000160009054906101000a900473ffffffffffffffffffffffffffffffffffffffff1673ffffffffffffffffffffffffffffffffffffffff16826000015173ffffffffffffffffffffffffffffffffffffffff167fd4a990728c02b80a6ecbbb6878da2c315460f38ce2a4b09d088b92bbfaa199718b6001018460405180806020018381526020018281038252848181546001816001161561010002031660029004815260200191508054600181600116156101000203166002900480156153b85780601f1061538d576101008083540402835291602001916153b8565b820191906000526020600020905b81548152906001019060200180831161539b57829003601f168201915b5050935050505060405180910390a350508080600101915050615095565b5060006153f160048860050154614d9090919063ffffffff16565b905061540a818760050154614d4d90919063ffffffff16565b8660050181905550600061544f82615441856154338a8d60050154614d6e90919063ffffffff16565b614d6e90919063ffffffff16565b614d6e90919063ffffffff16565b905061546681600154614d4d90919063ffffffff16565b6001819055508873ffffffffffffffffffffffffffffffffffffffff166108fc879081150290604051600060405180830381858888f193505050501580156154b2573d6000803e3d6000fd5b50505050505050505050565b600073ffffffffffffffffffffffffffffffffffffffff168173ffffffffffffffffffffffffffffffffffffffff16141515156154fa57600080fd5b8073ffffffffffffffffffffffffffffffffffffffff166000809054906101000a900473ffffffffffffffffffffffffffffffffffffffff1673ffffffffffffffffffffffffffffffffffffffff167f8be0079c531659141344cd1fd0a4f28419497f9722a3daafe3b4186f6b6457e060405160405180910390a3806000806101000a81548173ffffffffffffffffffffffffffffffffffffffff021916908373ffffffffffffffffffffffffffffffffffffffff16021790555050565b6000808314156155cb57600090506155f0565b600082840290508284828115156155de57fe5b041415156155eb57600080fd5b809150505b92915050565b828054600181600116156101000203166002900490600052602060002090601f016020900481019282601f1061563757805160ff1916838001178555615665565b82800160010185558215615665579182015b82811115615664578251825591602001919060010190615649565b5b509050615672919061587d565b5090565b61014060405190810160405280606081526020016060815260200160608152602001600060ff168152602001600060ff168152602001600060ff1681526020016000815260200160008152602001600073ffffffffffffffffffffffffffffffffffffffff168152602001600073ffffffffffffffffffffffffffffffffffffffff1681525090565b606060405190810160405280600073ffffffffffffffffffffffffffffffffffffffff16815260200160008152602001606081525090565b61014060405190810160405280600073ffffffffffffffffffffffffffffffffffffffff1681526020016060815260200160608152602001600060ff168152602001600060ff168152602001600060ff168152602001600081526020016000815260200160008152602001600060038111156157af57fe5b81525090565b50805460018160011615610100020316600290046000825580601f106157db57506157fa565b601f0160209004906000526020600020908101906157f9919061587d565b5b50565b828054600181600116156101000203166002900490600052602060002090601f016020900481019282601f1061583e57805160ff191683800117855561586c565b8280016001018555821561586c579182015b8281111561586b578251825591602001919060010190615850565b5b509050615879919061587d565b5090565b61589f91905b8082111561589b576000816000905550600101615883565b5090565b9056fea165627a7a72305820861e12eb3810a1e9ae807519ae69ada97690de87c58de7f633573ce44f6e13d30029",
  "source": "pragma solidity ^0.5.0;\n\nimport \"openzeppelin-solidity/contracts/ownership/Ownable.sol\";\nimport \"openzeppelin-solidity/contracts/math/SafeMath.sol\";\n\ncontract CoinChallenges is Ownable {\n    using SafeMath for uint256;\n\n    uint8 public constant MinDays = 12;\n    uint8 public constant MaxDays = 90;\n\n    uint256 private constant DayTimestamp = 86400; // 60 * 60 * 24\n\n    uint256 public ownerBalance;\n    \n    struct ChallengeGroup {\n        string id;\n        string name;\n        string url;\n        uint8 minDays;\n        uint8 maxDays;\n        uint8 maxDelayDays;\n        uint256 minAmount;\n        uint256 balance;\n        address owner;\n        address agent;\n    }\n\n    enum ChallengeStatus { Succeeded, Failed, Aborted, InProgress }\n\n    struct Challenge {\n        address who;\n        string groupId;\n        string goal;\n        uint8 targetDays;\n        uint8 totalDays;\n        uint8 completeDays;\n        uint256 startTimestamp;\n        uint256 amount;\n        uint256 sponsorSize;\n        ChallengeStatus status;\n        mapping (uint256 => Sponsor) sponsors;\n        mapping (uint256 => bool) dayIsCompletes; // index is from 0 to (totalDays - 1)\n    }\n\n    struct Sponsor {\n        address who;\n        uint256 amount;\n        string comment;\n    }\n    \n    // id to ChallengeGroup\n    mapping (string => ChallengeGroup) challengeGroups;\n\n    // groupId to (address to Challenge in progress)\n    mapping (string => mapping (address => Challenge)) challenges;\n\n    // address to user's balance from sponsor and the profit-sharing of failed challenge\n    mapping (address => uint256) public userBalances;\n\n    event NewChallengeGroup(address indexed proposer, string id);\n    event NewChallenge(\n        address indexed proposer,\n        string groupId,\n        string goal,\n        uint8 targetDays,\n        uint8 totalDays,\n        uint256 startTimestamp,\n        uint256 amount);\n    event FinishChallenge(\n        address indexed who,\n        string groupId,\n        string goal,\n        uint8 targetDays,\n        uint8 totalDays,\n        uint8 completeDays,\n        uint256 startTimestamp,\n        uint256 amount,\n        uint256 sponsorSize,\n        uint8 indexed status);\n    event SponsorChallenge(address indexed who, address indexed challenger, uint256 amount, string comment);\n    event SponsorWin(address indexed who, address indexed challenger, string groupId, uint256 amount);\n\n    constructor() public {\n    }\n\n    modifier onlyChallengeOwnerAndGroupAgent(string memory _groupId, address _who) {\n        ChallengeGroup memory group = _getChallengeGroup(_groupId);\n        require(_who == msg.sender || _who == group.agent, \"only user and agent can work\");\n        _;\n    }\n\n    function createChallengeGroup(\n        string memory _id,\n        string memory _name,\n        string memory _url,\n        uint8 _minDays,\n        uint8 _maxDays,\n        uint8 _maxDelayDays,\n        uint256 _minAmount,\n        address _agent\n    ) public {\n        require(challengeGroups[_id].minDays == 0, \"can NOT be the same id of ChallengeGroup\");\n        require(_minDays >= MinDays, \"must greater than global minDays\");\n        require(_maxDays <= MaxDays, \"must less than global maxDays\");\n        require(_maxDelayDays <= MaxDays, \"must less than global maxDays\");\n\n        challengeGroups[_id] = ChallengeGroup(_id, _name, _url, _minDays, _maxDays, _maxDelayDays, _minAmount, 0, msg.sender, _agent);\n        emit NewChallengeGroup(msg.sender, _id);\n    }\n\n    function getChallengeGroup(string memory _id) public view returns (\n        string memory _name,\n        string memory _url,\n        uint8 _minDays,\n        uint8 _maxDays,\n        uint8 _maxDelayDays,\n        uint256 _minAmount,\n        uint256 _balance,\n        address _owner,\n        address _agent\n    ) {\n        ChallengeGroup memory group = _getChallengeGroup(_id);\n\n        _name = group.name;\n        _url = group.url;\n        _minDays = group.minDays;\n        _maxDays = group.maxDays;\n        _maxDelayDays = group.maxDelayDays;\n        _minAmount = group.minAmount;\n        _balance = group.balance;\n        _owner = group.owner;\n        _agent = group.agent;\n    }\n\n    function modifyChallengeGroup(string memory _id, string memory _name, string memory _url) public {\n        ChallengeGroup storage group = challengeGroups[_id];\n        require(group.owner == msg.sender, \"permission: group owner\");\n\n        group.name = _name;\n        group.url = _url;\n    }\n\n    function createChallenge(\n        string memory _groupId,\n        string memory _goal,\n        uint8 _targetDays,\n        uint8 _totalDays,\n        uint256 _startTimestamp\n    ) public payable {\n        require(_startTimestamp > now - 1 days, \"must greater than now - 1 day\");\n        ChallengeGroup memory group = _getChallengeGroup(_groupId);\n\n        require(challenges[_groupId][msg.sender].totalDays == 0, \"can NOT create duplicate challenge\");\n        require(_totalDays >= group.minDays, \"must greater than or equal to group's minDays\");\n        require(_totalDays <= group.maxDays, \"must less than or equal to group's maxDays\");\n        require(_targetDays >= group.minDays, \"must greater than or equal to group's minDays\");\n        require(_targetDays <= _totalDays, \"must less than or equal to totalDays\");\n        require(msg.value >= group.minAmount, \"must greater than group's minAmount\");\n        \n        challenges[_groupId][msg.sender] = Challenge(msg.sender, _groupId, _goal, _targetDays, _totalDays, 0, _startTimestamp, msg.value, 0, ChallengeStatus.InProgress);\n        for (uint dayIndex = 0; dayIndex < _totalDays; dayIndex++) {\n          if (challenges[_groupId][msg.sender].dayIsCompletes[dayIndex] == true) {\n            delete challenges[_groupId][msg.sender].dayIsCompletes[dayIndex];\n          }\n        }\n        emit NewChallenge(msg.sender, _groupId, _goal, _targetDays, _totalDays, _startTimestamp, msg.value);\n    }\n\n    function getChallenge(\n        string memory _groupId,\n        address _address\n    ) public view returns (\n        string memory _goal,\n        uint8 _targetDays,\n        uint8 _totalDays,\n        uint8 _completeDays,\n        uint256 _startTimestamp,\n        uint256 _amount,\n        uint256 _sponsorSize,\n        uint256[] memory _completeTimestamps\n    ) {\n        Challenge storage challenge = challenges[_groupId][_address];\n\n        _completeTimestamps = new uint256[](challenge.completeDays);\n        uint8 index = 0;\n        for (uint dayIndex = 0; dayIndex < challenge.totalDays; dayIndex++) {\n          if (challenge.dayIsCompletes[dayIndex] == true) {\n            _completeTimestamps[index] = challenge.startTimestamp.add(dayIndex * DayTimestamp);\n            index++;\n          }\n        }\n\n        _goal = challenge.goal;\n        _targetDays = challenge.targetDays;\n        _totalDays = challenge.totalDays;\n        _completeDays = challenge.completeDays;\n        _startTimestamp = challenge.startTimestamp;\n        _amount = challenge.amount;\n        _sponsorSize = challenge.sponsorSize;\n    }\n\n    function getSponsor(\n        string memory _groupId,\n        address _address,\n        uint256 _index\n    ) public view returns (\n        address _who,\n        uint256 _amount,\n        string memory _comment\n    ) {\n        require(_index < challenges[_groupId][_address].sponsorSize, \"must less than sponsor size\");\n        Sponsor memory sponsor = challenges[_groupId][_address].sponsors[_index];\n        return (sponsor.who, sponsor.amount, sponsor.comment);\n    }\n\n    /**\n     * @dev complete multiple daily challenges. Only challenger and group agent can run.\n     */\n    function completeDailyChallenges(string memory _groupId, address _who, uint256[] memory timestamps)\n        public onlyChallengeOwnerAndGroupAgent(_groupId, _who) {\n        \n        ChallengeGroup memory group = _getChallengeGroup(_groupId);\n        Challenge storage challenge = _getChallenge(_groupId, msg.sender);\n\n        for (uint256 index = 0; index < timestamps.length; index++) {\n            uint256 timestamp = timestamps[index];\n            uint256 dayIndex = timestamp.sub(challenge.startTimestamp).div(DayTimestamp);\n            if (challenge.dayIsCompletes[dayIndex] == true) {\n                continue;\n            }\n            require(timestamp < challenge.startTimestamp.add(challenge.totalDays * DayTimestamp), \"must less than challenge's endDay\");\n            require(timestamp <= now, \"must less than current timestamp\");\n\n            uint256 fromTimestamp = now.sub(group.maxDelayDays * DayTimestamp);\n            require(timestamp >= fromTimestamp, \"must greater than now - challenge.maxDelayDays\");\n\n            challenge.completeDays++;\n            challenge.dayIsCompletes[dayIndex] = true;\n        }\n    }\n\n    /**\n     * @dev finish challenge. Anyone can help finish any challenge.\n     */\n    function finishChallenge(string memory _groupId, address payable _who) public {\n        Challenge storage challenge = _getChallenge(_groupId, _who);\n        require(now >= challenge.startTimestamp.add(challenge.totalDays * DayTimestamp), \"must greater than challenge's EndDay\");\n        require(challenge.status == ChallengeStatus.InProgress, \"challenge status is NOT InProgress\");\n\n        if (challenge.completeDays >= challenge.targetDays) {\n            challenge.status = ChallengeStatus.Succeeded;\n\n            // set challenger's amount\n            uint256 amount = challenge.amount;\n\n            // add all sponsors' amount to amount\n            for (uint i = 0; i < challenge.sponsorSize; i++) {\n                amount = amount.add(challenge.sponsors[i].amount);\n            }\n\n            _who.transfer(amount);\n        } else {\n            ChallengeGroup memory group = _getChallengeGroup(_groupId);\n            require(now >= challenge.startTimestamp.add((challenge.totalDays + group.maxDelayDays) * DayTimestamp), \"must greater than challenge's EndDay + group's maxDelayDays\");\n\n            challenge.status = ChallengeStatus.Failed;\n            _handleFailedChallenge(_who, challenge);\n        }\n\n        emit FinishChallenge(\n            _who,\n            challenge.groupId,\n            challenge.goal,\n            challenge.targetDays,\n            challenge.totalDays,\n            challenge.completeDays,\n            challenge.startTimestamp,\n            challenge.amount,\n            challenge.sponsorSize,\n            uint8(challenge.status));\n        delete challenges[_groupId][_who];\n    }\n\n    /**\n     * @dev abort challenge. Only yourself can give up the challenge.\n     */\n    function abortChallenge(string memory _groupId) public {\n        Challenge storage challenge = _getChallenge(_groupId, msg.sender);\n        require(challenge.status == ChallengeStatus.InProgress, \"challenge status is NOT InProgress\");\n        challenge.status = ChallengeStatus.Aborted;\n        _handleFailedChallenge(msg.sender, challenge);\n\n        emit FinishChallenge(\n            msg.sender,\n            challenge.groupId,\n            challenge.goal,\n            challenge.targetDays,\n            challenge.totalDays,\n            challenge.completeDays,\n            challenge.startTimestamp,\n            challenge.amount,\n            challenge.sponsorSize,\n            uint8(challenge.status));\n        delete challenges[_groupId][msg.sender];\n    }\n\n    function canSponsor(string memory _groupId, address _who) public view returns (bool _can) {\n        Challenge memory challenge = _getChallenge(_groupId, _who);\n        uint256 day = 1 + now.sub(challenge.startTimestamp).div(DayTimestamp);\n        uint256 failedDays = day - challenge.completeDays;\n        if (failedDays > challenge.totalDays - challenge.targetDays) {\n            return false;\n        }\n\n        return true;\n    }\n\n    /**\n     * @dev sponsor specific one challenge.\n     */\n    function sponsorChallenge(string memory _groupId, address _who, string memory comment) public payable {\n        require(msg.value >= _getChallengeGroup(_groupId).minAmount, \"sponsor value must greater than group.minAmount\");\n        require(canSponsor(_groupId, _who), \"can NOT sponsor\");\n\n        Challenge storage challenge = _getChallenge(_groupId, _who);\n        challenge.sponsors[challenge.sponsorSize] = Sponsor(msg.sender, msg.value, comment);\n        challenge.sponsorSize++;\n\n        emit SponsorChallenge(msg.sender, _who, msg.value, comment);\n    }\n\n    /**\n     * @dev withdraw the balance of owner. Only contract owner can withdraw.\n     */\n    function ownerWithdraw() public onlyOwner {\n        uint256 amount = ownerBalance;\n        ownerBalance = 0;\n        msg.sender.transfer(amount);\n    }\n\n    /**\n     * @dev withdraw the balance of challenge group. Only group owner can withdraw.\n     */\n    function groupWithdraw(string memory _groupId) public {\n        ChallengeGroup storage group = challengeGroups[_groupId];\n        require(msg.sender == group.owner, \"permission: group owner\");\n        require(group.balance > 0, \"not enough group.balance\");\n        uint256 amount = group.balance;\n        group.balance = 0;\n        msg.sender.transfer(amount);\n    }\n\n    /**\n     * @dev withdraw the balance of user.\n     */\n    function userWithdraw() public {\n        require(userBalances[msg.sender] > 0, \"not enough userBalances for msg.sender\");\n        uint256 amount = userBalances[msg.sender];\n        userBalances[msg.sender] = 0;\n        msg.sender.transfer(amount);\n    }\n\n    /**\n     * @dev get challenge group if exists\n     */\n    function _getChallengeGroup(string memory _id) private view returns (ChallengeGroup memory) {\n        ChallengeGroup memory group = challengeGroups[_id];\n        require(group.minDays > 0, \"group doesn't exist\");\n\n        return group;\n    }\n\n    /**\n     * @dev get in-progess challenge if exists\n     */\n    function _getChallenge(string memory _groupId, address _challengeOwner) private view returns (Challenge storage) {\n        Challenge storage challenge = challenges[_groupId][_challengeOwner];\n        require(challenge.totalDays > 0, \"challenge doesn't exist\");\n\n        return challenge;\n    }\n\n    /**\n     * @dev transfer money to the below:\n     * 10% of challenger's amount back to original challenger\n     * 40% of challenger's amount to sponsors (and 100% refund to sponsors)\n     * 25% of challenger's amount to contract owner\n     * 25% of challenger's amount to challenge group owner\n     */\n    function _handleFailedChallenge(address payable who, Challenge storage challenge) private {\n        ChallengeGroup storage group = challengeGroups[challenge.groupId];\n\n        // transfer 10% back to challenger\n        uint256 toChallengerAmount = challenge.amount.div(10);\n        // execute transfer in the end of this function\n\n        // add the refund to the balances of sponsors\n        uint256 allSponsorsAmount = 0;\n        for (uint256 index = 0; index < challenge.sponsorSize; index++) {\n            Sponsor memory sponsor = challenge.sponsors[index];\n            userBalances[sponsor.who] = userBalances[sponsor.who].add(sponsor.amount);\n            allSponsorsAmount = allSponsorsAmount.add(sponsor.amount);\n        }\n\n        // transfer 40% to sponsors\n        uint256 toSponsorsAmount = challenge.amount.div(10).mul(4);\n        uint256 realToSponsorsAmount = 0;\n        for (uint256 index = 0; index < challenge.sponsorSize; index++) {\n            Sponsor memory sponsor = challenge.sponsors[index];\n            uint256 amount = toSponsorsAmount.mul(sponsor.amount).div(allSponsorsAmount);\n            userBalances[sponsor.who] = userBalances[sponsor.who].add(amount);\n            realToSponsorsAmount = realToSponsorsAmount.add(amount);\n            emit SponsorWin(sponsor.who, challenge.who, challenge.groupId, amount);\n        }\n\n        // add amount to the balance of group owner\n        uint256 toGroupOwnerAmount = challenge.amount.div(4);\n        group.balance = group.balance.add(toGroupOwnerAmount);\n\n        uint256 toOwnerAmount = challenge.amount.sub(toChallengerAmount).sub(realToSponsorsAmount).sub(toGroupOwnerAmount);\n        // add amount to the balance of contract owner\n        ownerBalance = ownerBalance.add(toOwnerAmount);\n\n        who.transfer(toChallengerAmount);\n    }\n}\n",
  "sourcePath": "/Users/shiacruz/Desktop/projects/dapp/CoinChallengeContract/contracts/CoinChallenges.sol",
  "compiler": {
    "name": "solc",
    "version": "0.5.0+commit.1d4f565a.Emscripten.clang"
  },
  "schemaVersion": "3.0.1",
  "updatedAt": "2019-02-20T13:04:47.414Z",
  "devdoc": {
    "methods": {
      "abortChallenge(string)": {
        "details": "abort challenge. Only yourself can give up the challenge."
      },
      "completeDailyChallenges(string,address,uint256[])": {
        "details": "complete multiple daily challenges. Only challenger and group agent can run."
      },
      "finishChallenge(string,address)": {
        "details": "finish challenge. Anyone can help finish any challenge."
      },
      "groupWithdraw(string)": {
        "details": "withdraw the balance of challenge group. Only group owner can withdraw."
      },
      "isOwner()": {
        "return": "true if `msg.sender` is the owner of the contract."
      },
      "owner()": {
        "return": "the address of the owner."
      },
      "ownerWithdraw()": {
        "details": "withdraw the balance of owner. Only contract owner can withdraw."
      },
      "renounceOwnership()": {
        "details": "Allows the current owner to relinquish control of the contract."
      },
      "sponsorChallenge(string,address,string)": {
        "details": "sponsor specific one challenge."
      },
      "transferOwnership(address)": {
        "details": "Allows the current owner to transfer control of the contract to a newOwner.",
        "params": {
          "newOwner": "The address to transfer ownership to."
        }
      },
      "userWithdraw()": {
        "details": "withdraw the balance of user."
      }
    }
  },
  "userdoc": {
    "methods": {
      "renounceOwnership()": {
        "notice": "Renouncing to ownership will leave the contract without an owner. It will not be possible to call the functions with the `onlyOwner` modifier anymore."
      }
    }
  }
}