{
  "contractName": "CoinChallenges",
  "abi": [
    {
      "constant": true,
      "inputs": [],
      "name": "MinDays",
      "outputs": [
        {
          "name": "",
          "type": "uint8"
        }
      ],
      "payable": false,
      "stateMutability": "view",
      "type": "function"
    },
    {
      "constant": true,
      "inputs": [],
      "name": "MaxDays",
      "outputs": [
        {
          "name": "",
          "type": "uint8"
        }
      ],
      "payable": false,
      "stateMutability": "view",
      "type": "function"
    },
    {
      "constant": false,
      "inputs": [],
      "name": "renounceOwnership",
      "outputs": [],
      "payable": false,
      "stateMutability": "nonpayable",
      "type": "function"
    },
    {
      "constant": true,
      "inputs": [],
      "name": "succeededChallengesStartIndex",
      "outputs": [
        {
          "name": "",
          "type": "uint256"
        }
      ],
      "payable": false,
      "stateMutability": "view",
      "type": "function"
    },
    {
      "constant": true,
      "inputs": [],
      "name": "owner",
      "outputs": [
        {
          "name": "",
          "type": "address"
        }
      ],
      "payable": false,
      "stateMutability": "view",
      "type": "function"
    },
    {
      "constant": true,
      "inputs": [],
      "name": "isOwner",
      "outputs": [
        {
          "name": "",
          "type": "bool"
        }
      ],
      "payable": false,
      "stateMutability": "view",
      "type": "function"
    },
    {
      "constant": true,
      "inputs": [],
      "name": "ownerBalance",
      "outputs": [
        {
          "name": "",
          "type": "uint256"
        }
      ],
      "payable": false,
      "stateMutability": "view",
      "type": "function"
    },
    {
      "constant": false,
      "inputs": [
        {
          "name": "newOwner",
          "type": "address"
        }
      ],
      "name": "transferOwnership",
      "outputs": [],
      "payable": false,
      "stateMutability": "nonpayable",
      "type": "function"
    },
    {
      "inputs": [],
      "payable": false,
      "stateMutability": "nonpayable",
      "type": "constructor"
    },
    {
      "anonymous": false,
      "inputs": [
        {
          "indexed": true,
          "name": "proposer",
          "type": "address"
        },
        {
          "indexed": false,
          "name": "id",
          "type": "string"
        }
      ],
      "name": "NewChallengeGroup",
      "type": "event"
    },
    {
      "anonymous": false,
      "inputs": [
        {
          "indexed": true,
          "name": "proposer",
          "type": "address"
        },
        {
          "indexed": false,
          "name": "groupId",
          "type": "string"
        },
        {
          "indexed": false,
          "name": "targetDays",
          "type": "uint8"
        },
        {
          "indexed": false,
          "name": "totalDays",
          "type": "uint8"
        },
        {
          "indexed": false,
          "name": "startDayTimestamp",
          "type": "uint256"
        },
        {
          "indexed": false,
          "name": "amount",
          "type": "uint256"
        }
      ],
      "name": "NewChallenge",
      "type": "event"
    },
    {
      "anonymous": false,
      "inputs": [
        {
          "indexed": true,
          "name": "who",
          "type": "address"
        },
        {
          "indexed": true,
          "name": "status",
          "type": "uint8"
        },
        {
          "indexed": false,
          "name": "targetDays",
          "type": "uint8"
        },
        {
          "indexed": false,
          "name": "totalDays",
          "type": "uint8"
        },
        {
          "indexed": false,
          "name": "completeDays",
          "type": "uint8"
        },
        {
          "indexed": false,
          "name": "amount",
          "type": "uint256"
        }
      ],
      "name": "FinishChallenge",
      "type": "event"
    },
    {
      "anonymous": false,
      "inputs": [
        {
          "indexed": true,
          "name": "who",
          "type": "address"
        },
        {
          "indexed": true,
          "name": "challenger",
          "type": "address"
        },
        {
          "indexed": false,
          "name": "groupId",
          "type": "string"
        },
        {
          "indexed": false,
          "name": "amount",
          "type": "uint256"
        }
      ],
      "name": "ProfitSharing",
      "type": "event"
    },
    {
      "anonymous": false,
      "inputs": [
        {
          "indexed": true,
          "name": "previousOwner",
          "type": "address"
        },
        {
          "indexed": true,
          "name": "newOwner",
          "type": "address"
        }
      ],
      "name": "OwnershipTransferred",
      "type": "event"
    },
    {
      "constant": false,
      "inputs": [
        {
          "name": "_id",
          "type": "string"
        },
        {
          "name": "_minDays",
          "type": "uint8"
        },
        {
          "name": "_maxDays",
          "type": "uint8"
        },
        {
          "name": "_maxDelayDays",
          "type": "uint8"
        },
        {
          "name": "_minAmount",
          "type": "uint256"
        },
        {
          "name": "_agent",
          "type": "address"
        }
      ],
      "name": "createChallengeGroup",
      "outputs": [],
      "payable": false,
      "stateMutability": "nonpayable",
      "type": "function"
    },
    {
      "constant": true,
      "inputs": [
        {
          "name": "_id",
          "type": "string"
        }
      ],
      "name": "getChallengeGroup",
      "outputs": [
        {
          "name": "_minDays",
          "type": "uint8"
        },
        {
          "name": "_maxDays",
          "type": "uint8"
        },
        {
          "name": "_maxDelayDays",
          "type": "uint8"
        },
        {
          "name": "_minAmount",
          "type": "uint256"
        },
        {
          "name": "_balance",
          "type": "uint256"
        },
        {
          "name": "_owner",
          "type": "address"
        },
        {
          "name": "_agent",
          "type": "address"
        }
      ],
      "payable": false,
      "stateMutability": "view",
      "type": "function"
    },
    {
      "constant": false,
      "inputs": [
        {
          "name": "_groupId",
          "type": "string"
        },
        {
          "name": "_targetDays",
          "type": "uint8"
        },
        {
          "name": "_totalDays",
          "type": "uint8"
        },
        {
          "name": "_startTimestamp",
          "type": "uint256"
        }
      ],
      "name": "createChallenge",
      "outputs": [],
      "payable": true,
      "stateMutability": "payable",
      "type": "function"
    },
    {
      "constant": true,
      "inputs": [
        {
          "name": "_groupId",
          "type": "string"
        },
        {
          "name": "_address",
          "type": "address"
        }
      ],
      "name": "getChallenge",
      "outputs": [
        {
          "name": "_targetDays",
          "type": "uint8"
        },
        {
          "name": "_totalDays",
          "type": "uint8"
        },
        {
          "name": "_completeDays",
          "type": "uint8"
        },
        {
          "name": "_startDayTimestamp",
          "type": "uint256"
        },
        {
          "name": "_amount",
          "type": "uint256"
        },
        {
          "name": "_sponsorSize",
          "type": "uint256"
        }
      ],
      "payable": false,
      "stateMutability": "view",
      "type": "function"
    },
    {
      "constant": true,
      "inputs": [
        {
          "name": "_groupId",
          "type": "string"
        },
        {
          "name": "_address",
          "type": "address"
        },
        {
          "name": "_index",
          "type": "uint256"
        }
      ],
      "name": "getSponsor",
      "outputs": [
        {
          "name": "_who",
          "type": "address"
        },
        {
          "name": "_amount",
          "type": "uint256"
        },
        {
          "name": "_comment",
          "type": "string"
        }
      ],
      "payable": false,
      "stateMutability": "view",
      "type": "function"
    },
    {
      "constant": false,
      "inputs": [
        {
          "name": "_groupId",
          "type": "string"
        },
        {
          "name": "_who",
          "type": "address"
        },
        {
          "name": "timestamps",
          "type": "uint256[]"
        }
      ],
      "name": "completeDailyChallenges",
      "outputs": [],
      "payable": false,
      "stateMutability": "nonpayable",
      "type": "function"
    },
    {
      "constant": false,
      "inputs": [
        {
          "name": "_groupId",
          "type": "string"
        },
        {
          "name": "_who",
          "type": "address"
        }
      ],
      "name": "finishChallenge",
      "outputs": [],
      "payable": false,
      "stateMutability": "nonpayable",
      "type": "function"
    },
    {
      "constant": false,
      "inputs": [
        {
          "name": "_groupId",
          "type": "string"
        }
      ],
      "name": "abortChallenge",
      "outputs": [],
      "payable": false,
      "stateMutability": "nonpayable",
      "type": "function"
    },
    {
      "constant": false,
      "inputs": [
        {
          "name": "_groupId",
          "type": "string"
        },
        {
          "name": "_who",
          "type": "address"
        },
        {
          "name": "comment",
          "type": "string"
        }
      ],
      "name": "sponsorChallenge",
      "outputs": [],
      "payable": true,
      "stateMutability": "payable",
      "type": "function"
    },
    {
      "constant": false,
      "inputs": [],
      "name": "ownerWithdraw",
      "outputs": [],
      "payable": false,
      "stateMutability": "nonpayable",
      "type": "function"
    },
    {
      "constant": false,
      "inputs": [
        {
          "name": "_groupId",
          "type": "string"
        }
      ],
      "name": "groupWithdraw",
      "outputs": [],
      "payable": false,
      "stateMutability": "nonpayable",
      "type": "function"
    },
    {
      "constant": false,
      "inputs": [],
      "name": "userWithdraw",
      "outputs": [],
      "payable": false,
      "stateMutability": "nonpayable",
      "type": "function"
    }
  ],
  "bytecode": "0x608060405234801561001057600080fd5b50336000806101000a81548173ffffffffffffffffffffffffffffffffffffffff021916908373ffffffffffffffffffffffffffffffffffffffff1602179055506000809054906101000a900473ffffffffffffffffffffffffffffffffffffffff1673ffffffffffffffffffffffffffffffffffffffff16600073ffffffffffffffffffffffffffffffffffffffff167f8be0079c531659141344cd1fd0a4f28419497f9722a3daafe3b4186f6b6457e060405160405180910390a361414c806100dc6000396000f300608060405260043610610112576000357c0100000000000000000000000000000000000000000000000000000000900463ffffffff168063010a32741461011757806321dbb19f146101d95780632224b4bc146102ab578063273f676c146103bc5780632fb6ad34146105025780634311de8f146105335780634bccbf361461054a578063500a6b7a1461057b5780635b740689146106045780635bca32121461066d578063715018a6146106ed5780637ad915c41461070457806385eae7631461072f5780638da5cb5b146107fb5780638e02acd1146108525780638f32d59b1461090c578063a646f9ad1461093b578063bedcf00314610952578063db115bab1461097d578063f2fde38b146109e6575b600080fd5b6101d7600480360381019080803590602001908201803590602001908080601f0160208091040260200160405190810160405280939291908181526020018383808284378201915050505050509192919290803573ffffffffffffffffffffffffffffffffffffffff169060200190929190803590602001908201803590602001908080601f0160208091040260200160405190810160405280939291908181526020018383808284378201915050505050509192919290505050610a29565b005b3480156101e557600080fd5b50610260600480360381019080803590602001908201803590602001908080601f0160208091040260200160405190810160405280939291908181526020018383808284378201915050505050509192919290803573ffffffffffffffffffffffffffffffffffffffff169060200190929190505050610bb7565b604051808760ff1660ff1681526020018660ff1660ff1681526020018560ff1660ff168152602001848152602001838152602001828152602001965050505050505060405180910390f35b3480156102b757600080fd5b50610312600480360381019080803590602001908201803590602001908080601f0160208091040260200160405190810160405280939291908181526020018383808284378201915050505050509192919290505050610e21565b604051808860ff1660ff1681526020018760ff1660ff1681526020018660ff1660ff1681526020018581526020018481526020018373ffffffffffffffffffffffffffffffffffffffff1673ffffffffffffffffffffffffffffffffffffffff1681526020018273ffffffffffffffffffffffffffffffffffffffff1673ffffffffffffffffffffffffffffffffffffffff16815260200197505050505050505060405180910390f35b3480156103c857600080fd5b5061044d600480360381019080803590602001908201803590602001908080601f0160208091040260200160405190810160405280939291908181526020018383808284378201915050505050509192919290803573ffffffffffffffffffffffffffffffffffffffff16906020019092919080359060200190929190505050610e7c565b604051808473ffffffffffffffffffffffffffffffffffffffff1673ffffffffffffffffffffffffffffffffffffffff16815260200183815260200180602001828103825283818151815260200191508051906020019080838360005b838110156104c55780820151818401526020810190506104aa565b50505050905090810190601f1680156104f25780820380516001836020036101000a031916815260200191505b5094505050505060405180910390f35b34801561050e57600080fd5b50610517611077565b604051808260ff1660ff16815260200191505060405180910390f35b34801561053f57600080fd5b5061054861107c565b005b34801561055657600080fd5b5061055f6110e2565b604051808260ff1660ff16815260200191505060405180910390f35b34801561058757600080fd5b50610602600480360381019080803590602001908201803590602001908080601f0160208091040260200160405190810160405280939291908181526020018383808284378201915050505050509192919290803573ffffffffffffffffffffffffffffffffffffffff1690602001909291905050506110e7565b005b34801561061057600080fd5b5061066b600480360381019080803590602001908201803590602001908080601f0160208091040260200160405190810160405280939291908181526020018383808284378201915050505050509192919290505050611772565b005b6106eb600480360381019080803590602001908201803590602001908080601f0160208091040260200160405190810160405280939291908181526020018383808284378201915050505050509192919290803560ff169060200190929190803560ff16906020019092919080359060200190929190505050611901565b005b3480156106f957600080fd5b50610702612085565b005b34801561071057600080fd5b50610719612157565b6040518082815260200191505060405180910390f35b34801561073b57600080fd5b506107f9600480360381019080803590602001908201803590602001908080601f0160208091040260200160405190810160405280939291908181526020018383808284378201915050505050509192919290803573ffffffffffffffffffffffffffffffffffffffff1690602001909291908035906020019082018035906020019080806020026020016040519081016040528093929190818152602001838360200280828437820191505050505050919291929050505061215d565b005b34801561080757600080fd5b50610810612624565b604051808273ffffffffffffffffffffffffffffffffffffffff1673ffffffffffffffffffffffffffffffffffffffff16815260200191505060405180910390f35b34801561085e57600080fd5b5061090a600480360381019080803590602001908201803590602001908080601f0160208091040260200160405190810160405280939291908181526020018383808284378201915050505050509192919290803560ff169060200190929190803560ff169060200190929190803560ff16906020019092919080359060200190929190803573ffffffffffffffffffffffffffffffffffffffff16906020019092919050505061264d565b005b34801561091857600080fd5b50610921612ba2565b604051808215151515815260200191505060405180910390f35b34801561094757600080fd5b50610950612bf9565b005b34801561095e57600080fd5b50610967612d7d565b6040518082815260200191505060405180910390f35b34801561098957600080fd5b506109e4600480360381019080803590602001908201803590602001908080601f0160208091040260200160405190810160405280939291908181526020018383808284378201915050505050509192919290505050612d83565b005b3480156109f257600080fd5b50610a27600480360381019080803573ffffffffffffffffffffffffffffffffffffffff169060200190929190505050612f93565b005b6000610a3484612fb2565b608001513410151515610ad5576040517f08c379a000000000000000000000000000000000000000000000000000000000815260040180806020018281038252602f8152602001807f73706f6e736f722076616c7565206d7573742067726561746572207468616e2081526020017f67726f75702e6d696e416d6f756e74000000000000000000000000000000000081525060400191505060405180910390fd5b610adf848461327d565b90506060604051908101604052803373ffffffffffffffffffffffffffffffffffffffff168152602001348152602001838152508160060160008360050154815260200190815260200160002060008201518160000160006101000a81548173ffffffffffffffffffffffffffffffffffffffff021916908373ffffffffffffffffffffffffffffffffffffffff160217905550602082015181600101556040820151816002019080519060200190610b99929190613e94565b50905050806005016000815480929190600101919050555050505050565b600080600080600080610bc8613f14565b6005896040518082805190602001908083835b602083101515610c005780518252602082019150602081019050602083039250610bdb565b6001836020036101000a038019825116818451168082178552505050505050905001915050908152602001604051809103902060008973ffffffffffffffffffffffffffffffffffffffff1673ffffffffffffffffffffffffffffffffffffffff16815260200190815260200160002061010060405190810160405290816000820160009054906101000a900473ffffffffffffffffffffffffffffffffffffffff1673ffffffffffffffffffffffffffffffffffffffff1673ffffffffffffffffffffffffffffffffffffffff168152602001600182018054600181600116156101000203166002900480601f016020809104026020016040519081016040528092919081815260200182805460018160011615610100020316600290048015610d6c5780601f10610d4157610100808354040283529160200191610d6c565b820191906000526020600020905b815481529060010190602001808311610d4f57829003601f168201915b505050505081526020016002820160009054906101000a900460ff1660ff1660ff1681526020016002820160019054906101000a900460ff1660ff1660ff1681526020016002820160029054906101000a900460ff1660ff1660ff168152602001600382015481526020016004820154815260200160058201548152505090508060400151965080606001519550806080015194508060a0015193508060c0015192508060e001519150509295509295509295565b6000806000806000806000610e34613f79565b610e3d89612fb2565b9050806020015197508060400151965080606001519550806080015194508060a0015193508060c0015192508060e00151915050919395979092949650565b6000806060610e89613ff4565b6005876040518082805190602001908083835b602083101515610ec15780518252602082019150602081019050602083039250610e9c565b6001836020036101000a038019825116818451168082178552505050505050905001915050908152602001604051809103902060008773ffffffffffffffffffffffffffffffffffffffff1673ffffffffffffffffffffffffffffffffffffffff1681526020019081526020016000206006016000868152602001908152602001600020606060405190810160405290816000820160009054906101000a900473ffffffffffffffffffffffffffffffffffffffff1673ffffffffffffffffffffffffffffffffffffffff1673ffffffffffffffffffffffffffffffffffffffff16815260200160018201548152602001600282018054600181600116156101000203166002900480601f01602080910402602001604051908101604052809291908181526020018280546001816001161561010002031660029004801561104a5780601f1061101f5761010080835404028352916020019161104a565b820191906000526020600020905b81548152906001019060200180831161102d57829003601f168201915b50505050508152505090508060000151816020015182604001518090509350935093505093509350939050565b600c81565b611084612ba2565b151561108f57600080fd5b3373ffffffffffffffffffffffffffffffffffffffff166108fc6001549081150290604051600060405180830381858888f193505050501580156110d7573d6000803e3d6000fd5b506000600181905550565b605a81565b60008060008060006110f7613f79565b611101888861327d565b955061110c426133c0565b94506111398660020160019054906101000a900460ff1660ff1687600301546133d890919063ffffffff16565b85101515156111d6576040517f08c379a00000000000000000000000000000000000000000000000000000000081526004018080602001828103825260248152602001807f6d7573742067726561746572207468616e206368616c6c656e6765277320456e81526020017f644461790000000000000000000000000000000000000000000000000000000081525060400191505060405180910390fd5b8560020160009054906101000a900460ff1660ff168660020160029054906101000a900460ff1660ff16101515611479576000935085600401549250600091505b856005015482101561125c5761124e86600601600084815260200190815260200160002060010154846133d890919063ffffffff16565b508180600101925050611217565b8673ffffffffffffffffffffffffffffffffffffffff166108fc849081150290604051600060405180830381858888f193505050501580156112a2573d6000803e3d6000fd5b506003886040518082805190602001908083835b6020831015156112db57805182526020820191506020810190506020830392506112b6565b6001836020036101000a038019825116818451168082178552505050505050905001915050908152602001604051809103902086908060018154018082558091505090600182039060005260206000209060080201600090919290919091506000820160009054906101000a900473ffffffffffffffffffffffffffffffffffffffff168160000160006101000a81548173ffffffffffffffffffffffffffffffffffffffff021916908373ffffffffffffffffffffffffffffffffffffffff160217905550600182018160010190805460018160011615610100020316600290046113c892919061402c565b506002820160009054906101000a900460ff168160020160006101000a81548160ff021916908360ff1602179055506002820160019054906101000a900460ff168160020160016101000a81548160ff021916908360ff1602179055506002820160029054906101000a900460ff168160020160026101000a81548160ff021916908360ff160217905550600382015481600301556004820154816004015560058201548160050155505050611574565b61148288612fb2565b90506114c8816060015160ff166114ba8860020160019054906101000a900460ff1660ff1689600301546133d890919063ffffffff16565b6133d890919063ffffffff16565b8510151515611565576040517f08c379a000000000000000000000000000000000000000000000000000000000815260040180806020018281038252603b8152602001807f6d7573742067726561746572207468616e206368616c6c656e6765277320456e81526020017f64446179202b2067726f75702773206d617844656c617944617973000000000081525060400191505060405180910390fd5b6001935061157387876133f9565b5b83600281111561158057fe5b60ff168773ffffffffffffffffffffffffffffffffffffffff167f42ff0bddbbde7331d331e411595e2798992c867bb45228a7bb996529825be66f8860020160009054906101000a900460ff168960020160019054906101000a900460ff168a60020160029054906101000a900460ff168b60040154604051808560ff1660ff1681526020018460ff1660ff1681526020018360ff1660ff16815260200182815260200194505050505060405180910390a36005886040518082805190602001908083835b60208310151561166a5780518252602082019150602081019050602083039250611645565b6001836020036101000a038019825116818451168082178552505050505050905001915050908152602001604051809103902060008873ffffffffffffffffffffffffffffffffffffffff1673ffffffffffffffffffffffffffffffffffffffff168152602001908152602001600020600080820160006101000a81549073ffffffffffffffffffffffffffffffffffffffff021916905560018201600061171291906140b3565b6002820160006101000a81549060ff02191690556002820160016101000a81549060ff02191690556002820160026101000a81549060ff021916905560038201600090556004820160009055600582016000905550505050505050505050565b60006002826040518082805190602001908083835b6020831015156117ac5780518252602082019150602081019050602083039250611787565b6001836020036101000a038019825116818451168082178552505050505050905001915050908152602001604051809103902090508060040160009054906101000a900473ffffffffffffffffffffffffffffffffffffffff1673ffffffffffffffffffffffffffffffffffffffff163373ffffffffffffffffffffffffffffffffffffffff161415156118a8576040517f08c379a00000000000000000000000000000000000000000000000000000000081526004018080602001828103825260198152602001807f6f6e6c792067726f7570206f776e65722063616e20776f726b0000000000000081525060200191505060405180910390fd5b3373ffffffffffffffffffffffffffffffffffffffff166108fc82600301549081150290604051600060405180830381858888f193505050501580156118f2573d6000803e3d6000fd5b50600081600301819055505050565b611909613f79565b61191285612fb2565b905060006005866040518082805190602001908083835b60208310151561194e5780518252602082019150602081019050602083039250611929565b6001836020036101000a038019825116818451168082178552505050505050905001915050908152602001604051809103902060003373ffffffffffffffffffffffffffffffffffffffff1673ffffffffffffffffffffffffffffffffffffffff16815260200190815260200160002060020160019054906101000a900460ff1660ff16141515611a6d576040517f08c379a00000000000000000000000000000000000000000000000000000000081526004018080602001828103825260228152602001807f63616e204e4f5420637265617465206475706c6963617465206368616c6c656e81526020017f676500000000000000000000000000000000000000000000000000000000000081525060400191505060405180910390fd5b806020015160ff168360ff1610151515611b15576040517f08c379a000000000000000000000000000000000000000000000000000000000815260040180806020018281038252602d8152602001807f6d7573742067726561746572207468616e206f7220657175616c20746f20677281526020017f6f75702773206d696e446179730000000000000000000000000000000000000081525060400191505060405180910390fd5b806040015160ff168360ff1611151515611bbd576040517f08c379a000000000000000000000000000000000000000000000000000000000815260040180806020018281038252602a8152602001807f6d757374206c657373207468616e206f7220657175616c20746f2067726f757081526020017f2773206d6178446179730000000000000000000000000000000000000000000081525060400191505060405180910390fd5b806020015160ff168460ff1610151515611c65576040517f08c379a000000000000000000000000000000000000000000000000000000000815260040180806020018281038252602d8152602001807f6d7573742067726561746572207468616e206f7220657175616c20746f20677281526020017f6f75702773206d696e446179730000000000000000000000000000000000000081525060400191505060405180910390fd5b8260ff168460ff1611151515611d09576040517f08c379a00000000000000000000000000000000000000000000000000000000081526004018080602001828103825260248152602001807f6d757374206c657373207468616e206f7220657175616c20746f20746f74616c81526020017f446179730000000000000000000000000000000000000000000000000000000081525060400191505060405180910390fd5b80608001513410151515611dab576040517f08c379a00000000000000000000000000000000000000000000000000000000081526004018080602001828103825260238152602001807f6d7573742067726561746572207468616e2067726f75702773206d696e416d6f81526020017f756e74000000000000000000000000000000000000000000000000000000000081525060400191505060405180910390fd5b610100604051908101604052803373ffffffffffffffffffffffffffffffffffffffff1681526020018681526020018560ff1681526020018460ff168152602001600060ff168152602001611dff846133c0565b815260200134815260200160008152506005866040518082805190602001908083835b602083101515611e475780518252602082019150602081019050602083039250611e22565b6001836020036101000a038019825116818451168082178552505050505050905001915050908152602001604051809103902060003373ffffffffffffffffffffffffffffffffffffffff1673ffffffffffffffffffffffffffffffffffffffff16815260200190815260200160002060008201518160000160006101000a81548173ffffffffffffffffffffffffffffffffffffffff021916908373ffffffffffffffffffffffffffffffffffffffff1602179055506020820151816001019080519060200190611f1a929190613e94565b5060408201518160020160006101000a81548160ff021916908360ff16021790555060608201518160020160016101000a81548160ff021916908360ff16021790555060808201518160020160026101000a81548160ff021916908360ff16021790555060a0820151816003015560c0820151816004015560e082015181600501559050503373ffffffffffffffffffffffffffffffffffffffff167fab1daccc745f2ac18d79889f54ae106fbc25cc1895f986a8dc1ee32f81547270868686863460405180806020018660ff1660ff1681526020018560ff1660ff168152602001848152602001838152602001828103825287818151815260200191508051906020019080838360005b83811015612040578082015181840152602081019050612025565b50505050905090810190601f16801561206d5780820380516001836020036101000a031916815260200191505b50965050505050505060405180910390a25050505050565b61208d612ba2565b151561209857600080fd5b600073ffffffffffffffffffffffffffffffffffffffff166000809054906101000a900473ffffffffffffffffffffffffffffffffffffffff1673ffffffffffffffffffffffffffffffffffffffff167f8be0079c531659141344cd1fd0a4f28419497f9722a3daafe3b4186f6b6457e060405160405180910390a360008060006101000a81548173ffffffffffffffffffffffffffffffffffffffff021916908373ffffffffffffffffffffffffffffffffffffffff160217905550565b60045481565b612165613f79565b60008060008060008888612177613f79565b61218083612fb2565b90503373ffffffffffffffffffffffffffffffffffffffff168273ffffffffffffffffffffffffffffffffffffffff1614806121eb57508060e0015173ffffffffffffffffffffffffffffffffffffffff168273ffffffffffffffffffffffffffffffffffffffff16145b151561225f576040517f08c379a000000000000000000000000000000000000000000000000000000000815260040180806020018281038252601c8152602001807f6f6e6c79207573657220616e64206167656e742063616e20776f726b0000000081525060200191505060405180910390fd5b6122688c612fb2565b98506122748c3361327d565b9750600096505b8951871015612616576122a48a8881518110151561229557fe5b906020019060200201516133c0565b95506001151588600701600088815260200190815260200160002060009054906101000a900460ff16151514156122da57612609565b8760030154861015151561237c576040517f08c379a000000000000000000000000000000000000000000000000000000000815260040180806020018281038252602f8152602001807f6d7573742067726561746572207468616e206368616c6c656e6765277320737481526020017f61727444617954696d657374616d70000000000000000000000000000000000081525060400191505060405180910390fd5b6123a78860020160019054906101000a900460ff1660ff1689600301546133d890919063ffffffff16565b86101515612443576040517f08c379a00000000000000000000000000000000000000000000000000000000081526004018080602001828103825260218152602001807f6d757374206c657373207468616e206368616c6c656e6765277320656e64446181526020017f790000000000000000000000000000000000000000000000000000000000000081525060400191505060405180910390fd5b61244c426133c0565b94508486111515156124ec576040517f08c379a00000000000000000000000000000000000000000000000000000000081526004018080602001828103825260218152602001807f6d757374206c657373207468616e206e6f7727732064617954696d657374616d81526020017f700000000000000000000000000000000000000000000000000000000000000081525060400191505060405180910390fd5b612506896060015160ff168661373490919063ffffffff16565b93508386101515156125a6576040517f08c379a000000000000000000000000000000000000000000000000000000000815260040180806020018281038252602e8152602001807f6d7573742067726561746572207468616e206e6f77202d206368616c6c656e6781526020017f652e6d617844656c61794461797300000000000000000000000000000000000081525060400191505060405180910390fd5b87600201600281819054906101000a900460ff168092919060010191906101000a81548160ff021916908360ff16021790555050600188600701600088815260200190815260200160002060006101000a81548160ff0219169083151502179055505b868060010197505061227b565b505050505050505050505050565b60008060009054906101000a900473ffffffffffffffffffffffffffffffffffffffff16905090565b60006002876040518082805190602001908083835b6020831015156126875780518252602082019150602081019050602083039250612662565b6001836020036101000a038019825116818451168082178552505050505050905001915050908152602001604051809103902060010160009054906101000a900460ff1660ff16141515612769576040517f08c379a00000000000000000000000000000000000000000000000000000000081526004018080602001828103825260288152602001807f63616e204e4f54206265207468652073616d65206964206f66204368616c6c6581526020017f6e676547726f757000000000000000000000000000000000000000000000000081525060400191505060405180910390fd5b600c60ff168560ff16101515156127e8576040517f08c379a00000000000000000000000000000000000000000000000000000000081526004018080602001828103825260208152602001807f6d7573742067726561746572207468616e20676c6f62616c206d696e4461797381525060200191505060405180910390fd5b605a60ff168460ff1611151515612867576040517f08c379a000000000000000000000000000000000000000000000000000000000815260040180806020018281038252601d8152602001807f6d757374206c657373207468616e20676c6f62616c206d61784461797300000081525060200191505060405180910390fd5b605a60ff168360ff16111515156128e6576040517f08c379a000000000000000000000000000000000000000000000000000000000815260040180806020018281038252601d8152602001807f6d757374206c657373207468616e20676c6f62616c206d61784461797300000081525060200191505060405180910390fd5b610100604051908101604052808781526020018660ff1681526020018560ff1681526020018460ff168152602001838152602001600081526020013373ffffffffffffffffffffffffffffffffffffffff1681526020018273ffffffffffffffffffffffffffffffffffffffff168152506002876040518082805190602001908083835b60208310151561298f578051825260208201915060208101905060208303925061296a565b6001836020036101000a038019825116818451168082178552505050505050905001915050908152602001604051809103902060008201518160000190805190602001906129de929190613e94565b5060208201518160010160006101000a81548160ff021916908360ff16021790555060408201518160010160016101000a81548160ff021916908360ff16021790555060608201518160010160026101000a81548160ff021916908360ff1602179055506080820151816002015560a0820151816003015560c08201518160040160006101000a81548173ffffffffffffffffffffffffffffffffffffffff021916908373ffffffffffffffffffffffffffffffffffffffff16021790555060e08201518160050160006101000a81548173ffffffffffffffffffffffffffffffffffffffff021916908373ffffffffffffffffffffffffffffffffffffffff1602179055509050503373ffffffffffffffffffffffffffffffffffffffff167f71d49af7e2735dd98a820c3e35a19b83758b3b63a172a20d4bbf357956e52ca4876040518080602001828103825283818151815260200191508051906020019080838360005b83811015612b60578082015181840152602081019050612b45565b50505050905090810190601f168015612b8d5780820380516001836020036101000a031916815260200191505b509250505060405180910390a2505050505050565b60008060009054906101000a900473ffffffffffffffffffffffffffffffffffffffff1673ffffffffffffffffffffffffffffffffffffffff163373ffffffffffffffffffffffffffffffffffffffff1614905090565b6000600660003373ffffffffffffffffffffffffffffffffffffffff1673ffffffffffffffffffffffffffffffffffffffff16815260200190815260200160002054111515612cb0576040517f08c379a00000000000000000000000000000000000000000000000000000000081526004018080602001828103825260138152602001807f6d7573742067726561746572207468616e20300000000000000000000000000081525060200191505060405180910390fd5b3373ffffffffffffffffffffffffffffffffffffffff166108fc600660003373ffffffffffffffffffffffffffffffffffffffff1673ffffffffffffffffffffffffffffffffffffffff168152602001908152602001600020549081150290604051600060405180830381858888f19350505050158015612d35573d6000803e3d6000fd5b506000600660003373ffffffffffffffffffffffffffffffffffffffff1673ffffffffffffffffffffffffffffffffffffffff16815260200190815260200160002081905550565b60015481565b6000612d8f823361327d565b9050612d9b33826133f9565b600280811115612da757fe5b60ff163373ffffffffffffffffffffffffffffffffffffffff167f42ff0bddbbde7331d331e411595e2798992c867bb45228a7bb996529825be66f8360020160009054906101000a900460ff168460020160019054906101000a900460ff168560020160029054906101000a900460ff168660040154604051808560ff1660ff1681526020018460ff1660ff1681526020018360ff1660ff16815260200182815260200194505050505060405180910390a36005826040518082805190602001908083835b602083101515612e915780518252602082019150602081019050602083039250612e6c565b6001836020036101000a038019825116818451168082178552505050505050905001915050908152602001604051809103902060003373ffffffffffffffffffffffffffffffffffffffff1673ffffffffffffffffffffffffffffffffffffffff168152602001908152602001600020600080820160006101000a81549073ffffffffffffffffffffffffffffffffffffffff0219169055600182016000612f3991906140b3565b6002820160006101000a81549060ff02191690556002820160016101000a81549060ff02191690556002820160026101000a81549060ff021916905560038201600090556004820160009055600582016000905550505050565b612f9b612ba2565b1515612fa657600080fd5b612faf81613755565b50565b612fba613f79565b612fc2613f79565b6002836040518082805190602001908083835b602083101515612ffa5780518252602082019150602081019050602083039250612fd5565b6001836020036101000a03801982511681845116808217855250505050505090500191505090815260200160405180910390206101006040519081016040529081600082018054600181600116156101000203166002900480601f0160208091040260200160405190810160405280929190818152602001828054600181600116156101000203166002900480156130d35780601f106130a8576101008083540402835291602001916130d3565b820191906000526020600020905b8154815290600101906020018083116130b657829003601f168201915b505050505081526020016001820160009054906101000a900460ff1660ff1660ff1681526020016001820160019054906101000a900460ff1660ff1660ff1681526020016001820160029054906101000a900460ff1660ff1660ff16815260200160028201548152602001600382015481526020016004820160009054906101000a900473ffffffffffffffffffffffffffffffffffffffff1673ffffffffffffffffffffffffffffffffffffffff1673ffffffffffffffffffffffffffffffffffffffff1681526020016005820160009054906101000a900473ffffffffffffffffffffffffffffffffffffffff1673ffffffffffffffffffffffffffffffffffffffff1673ffffffffffffffffffffffffffffffffffffffff168152505090506000816020015160ff16111515613274576040517f08c379a00000000000000000000000000000000000000000000000000000000081526004018080602001828103825260138152602001807f67726f757020646f65736e27742065786973740000000000000000000000000081525060200191505060405180910390fd5b80915050919050565b6000806005846040518082805190602001908083835b6020831015156132b85780518252602082019150602081019050602083039250613293565b6001836020036101000a038019825116818451168082178552505050505050905001915050908152602001604051809103902060008473ffffffffffffffffffffffffffffffffffffffff1673ffffffffffffffffffffffffffffffffffffffff168152602001908152602001600020905060008160020160019054906101000a900460ff1660ff161115156133b6576040517f08c379a00000000000000000000000000000000000000000000000000000000081526004018080602001828103825260178152602001807f6368616c6c656e676520646f65736e277420657869737400000000000000000081525060200191505060405180910390fd5b8091505092915050565b600062015180828115156133d057fe5b049050919050565b60008082840190508381101515156133ef57600080fd5b8091505092915050565b60008060008060008061340a613ff4565b600288600101604051808280546001816001161561010002031660029004801561346b5780601f1061344957610100808354040283529182019161346b565b820191906000526020600020905b815481529060010190602001808311613457575b5050915050908152602001604051809103902096506134898861384f565b95506134cc87600301546134be60026134b0600a8d60040154613e2c90919063ffffffff16565b613e5690919063ffffffff16565b6133d890919063ffffffff16565b94508487600301819055506134ef600a8960040154613e2c90919063ffffffff16565b93508873ffffffffffffffffffffffffffffffffffffffff166108fc859081150290604051600060405180830381858888f19350505050158015613537573d6000803e3d6000fd5b5061357384613565876135578a8d6004015461373490919063ffffffff16565b61373490919063ffffffff16565b61373490919063ffffffff16565b925061358a836001546133d890919063ffffffff16565b50600091505b876005015482101561372957876006016000838152602001908152602001600020606060405190810160405290816000820160009054906101000a900473ffffffffffffffffffffffffffffffffffffffff1673ffffffffffffffffffffffffffffffffffffffff1673ffffffffffffffffffffffffffffffffffffffff16815260200160018201548152602001600282018054600181600116156101000203166002900480601f0160208091040260200160405190810160405280929190818152602001828054600181600116156101000203166002900480156136b65780601f1061368b576101008083540402835291602001916136b6565b820191906000526020600020905b81548152906001019060200180831161369957829003601f168201915b505050505081525050905061371b816020015160066000846000015173ffffffffffffffffffffffffffffffffffffffff1673ffffffffffffffffffffffffffffffffffffffff168152602001908152602001600020546133d890919063ffffffff16565b508180600101925050613590565b505050505050505050565b60008083831115151561374657600080fd5b82840390508091505092915050565b600073ffffffffffffffffffffffffffffffffffffffff168173ffffffffffffffffffffffffffffffffffffffff161415151561379157600080fd5b8073ffffffffffffffffffffffffffffffffffffffff166000809054906101000a900473ffffffffffffffffffffffffffffffffffffffff1673ffffffffffffffffffffffffffffffffffffffff167f8be0079c531659141344cd1fd0a4f28419497f9722a3daafe3b4186f6b6457e060405160405180910390a3806000806101000a81548173ffffffffffffffffffffffffffffffffffffffff021916908373ffffffffffffffffffffffffffffffffffffffff16021790555050565b600080600060606000613860613f14565b600094506000935060038760010160405180828054600181600116156101000203166002900480156138c95780601f106138a75761010080835404028352918201916138c9565b820191906000526020600020905b8154815290600101906020018083116138b5575b50509150509081526020016040518091039020805480602002602001604051908101604052809291908181526020016000905b82821015613a9d578382906000526020600020906008020161010060405190810160405290816000820160009054906101000a900473ffffffffffffffffffffffffffffffffffffffff1673ffffffffffffffffffffffffffffffffffffffff1673ffffffffffffffffffffffffffffffffffffffff168152602001600182018054600181600116156101000203166002900480601f016020809104026020016040519081016040528092919081815260200182805460018160011615610100020316600290048015613a105780601f106139e557610100808354040283529160200191613a10565b820191906000526020600020905b8154815290600101906020018083116139f357829003601f168201915b505050505081526020016002820160009054906101000a900460ff1660ff1660ff1681526020016002820160019054906101000a900460ff1660ff1660ff1681526020016002820160029054906101000a900460ff1660ff1660ff1681526020016003820154815260200160048201548152602001600582015481525050815260200190600101906138fc565b50505050925060045491505b8251821015613e0d578282815181101515613ac057fe5b906020019060200201519050600084148015613ae0575060008160c00151115b15613ae9578193505b86600401548160c00151101515613e0057613b256002613b17600a8a60040154613e2c90919063ffffffff16565b613e5690919063ffffffff16565b94506003876001016040518082805460018160011615610100020316600290048015613b885780601f10613b66576101008083540402835291820191613b88565b820191906000526020600020905b815481529060010190602001808311613b74575b5050915050908152602001604051809103902082815481101515613ba857fe5b9060005260206000209060080201600080820160006101000a81549073ffffffffffffffffffffffffffffffffffffffff0219169055600182016000613bee91906140b3565b6002820160006101000a81549060ff02191690556002820160016101000a81549060ff02191690556002820160026101000a81549060ff02191690556003820160009055600482016000905560058201600090555050613c9a60066000836000015173ffffffffffffffffffffffffffffffffffffffff1673ffffffffffffffffffffffffffffffffffffffff16815260200190815260200160002054866133d890919063ffffffff16565b60066000836000015173ffffffffffffffffffffffffffffffffffffffff1673ffffffffffffffffffffffffffffffffffffffff168152602001908152602001600020819055508660000160009054906101000a900473ffffffffffffffffffffffffffffffffffffffff1673ffffffffffffffffffffffffffffffffffffffff16816000015173ffffffffffffffffffffffffffffffffffffffff167ffa83c257a6acc7397d5d233d5b152d8d68fe118f3eab8351796aba2e5e11430189600101886040518080602001838152602001828103825284818154600181600116156101000203166002900481526020019150805460018160011615610100020316600290048015613dec5780601f10613dc157610100808354040283529160200191613dec565b820191906000526020600020905b815481529060010190602001808311613dcf57829003601f168201915b5050935050505060405180910390a3613e0d565b8180600101925050613aa9565b600084141515613e1f57836004819055505b8495505050505050919050565b600080600083111515613e3e57600080fd5b8284811515613e4957fe5b0490508091505092915050565b6000806000841415613e6b5760009150613e8d565b8284029050828482811515613e7c57fe5b04141515613e8957600080fd5b8091505b5092915050565b828054600181600116156101000203166002900490600052602060002090601f016020900481019282601f10613ed557805160ff1916838001178555613f03565b82800160010185558215613f03579182015b82811115613f02578251825591602001919060010190613ee7565b5b509050613f1091906140fb565b5090565b61010060405190810160405280600073ffffffffffffffffffffffffffffffffffffffff16815260200160608152602001600060ff168152602001600060ff168152602001600060ff1681526020016000815260200160008152602001600081525090565b6101006040519081016040528060608152602001600060ff168152602001600060ff168152602001600060ff1681526020016000815260200160008152602001600073ffffffffffffffffffffffffffffffffffffffff168152602001600073ffffffffffffffffffffffffffffffffffffffff1681525090565b606060405190810160405280600073ffffffffffffffffffffffffffffffffffffffff16815260200160008152602001606081525090565b828054600181600116156101000203166002900490600052602060002090601f016020900481019282601f1061406557805485556140a2565b828001600101855582156140a257600052602060002091601f016020900482015b828111156140a1578254825591600101919060010190614086565b5b5090506140af91906140fb565b5090565b50805460018160011615610100020316600290046000825580601f106140d957506140f8565b601f0160209004906000526020600020908101906140f791906140fb565b5b50565b61411d91905b80821115614119576000816000905550600101614101565b5090565b905600a165627a7a72305820b74215cd4ce40086a8473661a0afef991dba300eb2562f8b2c87901155058b8f0029",
  "source": "pragma solidity ^0.4.24;\n\nimport \"openzeppelin-solidity/contracts/ownership/Ownable.sol\";\nimport \"openzeppelin-solidity/contracts/math/SafeMath.sol\";\n\ncontract CoinChallenges is Ownable {\n    using SafeMath for uint256;\n\n    uint8 public constant MinDays = 12;\n    uint8 public constant MaxDays = 90;\n\n    uint256 private constant DayTimestamp = 86400; // 60 * 60 * 24\n\n    uint256 public ownerBalance;\n    \n    struct ChallengeGroup {\n        string id;\n        uint8 minDays;\n        uint8 maxDays;\n        uint8 maxDelayDays;\n        uint256 minAmount;\n        uint256 balance;\n        address owner;\n        address agent;\n    }\n\n    enum ChallengeStatus { Succeeded, Failed, Aborted }\n\n    struct Challenge {\n        address who;\n        string groupId;\n        uint8 targetDays;\n        uint8 totalDays;\n        uint8 completeDays;\n        uint256 startDayTimestamp; // timestamp / dayTimestamp\n        uint256 amount;\n        uint256 sponsorSize;\n        mapping (uint256 => Sponsor) sponsors;\n        mapping (uint256 => bool) dayTimestampIsCompletes; // timestamp / dayTimestamp\n    }\n\n    struct Sponsor {\n        address who;\n        uint256 amount;\n        string comment;\n    }\n    \n    // id to ChallengeGroup\n    mapping (string => ChallengeGroup) challengeGroups;\n\n    // groupId to succeeded Challenges\n    mapping (string => Challenge[]) succeededChallenges;\n\n    // the start index of succeeded challenges\n    uint256 public succeededChallengesStartIndex;\n\n    // groupId to (address to Challenge in progress)\n    mapping (string => mapping (address => Challenge)) challenges;\n\n    // address to user's balance from sponsor and the profit-sharing of failed challenge\n    mapping (address => uint256) userBalances;\n\n    event NewChallengeGroup(address indexed proposer, string id);\n    event NewChallenge(address indexed proposer, string groupId, uint8 targetDays, uint8 totalDays, uint256 startDayTimestamp, uint256 amount);\n    event FinishChallenge(address indexed who, uint8 indexed status, uint8 targetDays, uint8 totalDays, uint8 completeDays, uint256 amount);\n    event ProfitSharing(address indexed who, address indexed challenger, string groupId, uint256 amount);\n    \n    constructor() public {\n    }\n\n    modifier onlyChallengeOwnerAndGroupAgent(string _groupId, address _who) {\n        ChallengeGroup memory group = _getChallengeGroup(_groupId);\n        require(_who == msg.sender || _who == group.agent, \"only user and agent can work\");\n        _;\n    }\n\n    function createChallengeGroup(\n        string _id,\n        uint8 _minDays,\n        uint8 _maxDays,\n        uint8 _maxDelayDays,\n        uint256 _minAmount,\n        address _agent\n    ) public {\n        require(challengeGroups[_id].minDays == 0, \"can NOT be the same id of ChallengeGroup\");\n        require(_minDays >= MinDays, \"must greater than global minDays\");\n        require(_maxDays <= MaxDays, \"must less than global maxDays\");\n        require(_maxDelayDays <= MaxDays, \"must less than global maxDays\");\n\n        challengeGroups[_id] = ChallengeGroup(_id, _minDays, _maxDays, _maxDelayDays, _minAmount, 0, msg.sender, _agent);\n        emit NewChallengeGroup(msg.sender, _id);\n    }\n\n    function getChallengeGroup(string _id) public view returns (\n        uint8 _minDays,\n        uint8 _maxDays,\n        uint8 _maxDelayDays,\n        uint256 _minAmount,\n        uint256 _balance,\n        address _owner,\n        address _agent\n    ) {\n        ChallengeGroup memory group = _getChallengeGroup(_id);\n\n        _minDays = group.minDays;\n        _maxDays = group.maxDays;\n        _maxDelayDays = group.maxDelayDays;\n        _minAmount = group.minAmount;\n        _balance = group.balance;\n        _owner = group.owner;\n        _agent = group.agent;\n    }\n\n    function createChallenge(\n        string _groupId,\n        uint8 _targetDays,\n        uint8 _totalDays,\n        uint256 _startTimestamp\n    ) public payable {\n        ChallengeGroup memory group = _getChallengeGroup(_groupId);\n\n        require(challenges[_groupId][msg.sender].totalDays == 0, \"can NOT create duplicate challenge\");\n        require(_totalDays >= group.minDays, \"must greater than or equal to group's minDays\");\n        require(_totalDays <= group.maxDays, \"must less than or equal to group's maxDays\");\n        require(_targetDays >= group.minDays, \"must greater than or equal to group's minDays\");\n        require(_targetDays <= _totalDays, \"must less than or equal to totalDays\");\n        require(msg.value >= group.minAmount, \"must greater than group's minAmount\");\n\n        challenges[_groupId][msg.sender] = Challenge(msg.sender, _groupId, _targetDays, _totalDays, 0, _getDayTimestamp(_startTimestamp), msg.value, 0);\n\n        emit NewChallenge(msg.sender, _groupId, _targetDays, _totalDays, _startTimestamp, msg.value);\n    }\n\n    function getChallenge(\n        string _groupId,\n        address _address\n    ) public view returns (\n        uint8 _targetDays,\n        uint8 _totalDays,\n        uint8 _completeDays,\n        uint256 _startDayTimestamp,\n        uint256 _amount,\n        uint256 _sponsorSize\n    ) {\n        Challenge memory challenge = challenges[_groupId][_address];\n\n        _targetDays = challenge.targetDays;\n        _totalDays = challenge.totalDays;\n        _completeDays = challenge.completeDays;\n        _startDayTimestamp = challenge.startDayTimestamp;\n        _amount = challenge.amount;\n        _sponsorSize = challenge.sponsorSize;\n    }\n\n    function getSponsor(\n        string _groupId,\n        address _address,\n        uint256 _index\n    ) public view returns (\n        address _who,\n        uint256 _amount,\n        string _comment\n    ) {\n        Sponsor memory sponsor = challenges[_groupId][_address].sponsors[_index];\n        return (sponsor.who, sponsor.amount, sponsor.comment);\n    }\n\n    /**\n     * @dev complete multiple daily challenges. Only challenger and group agent can run.\n     */\n    function completeDailyChallenges(string _groupId, address _who, uint256[] timestamps)\n        public onlyChallengeOwnerAndGroupAgent(_groupId, _who) {\n        \n        ChallengeGroup memory group = _getChallengeGroup(_groupId);\n        Challenge storage challenge = _getChallenge(_groupId, msg.sender);\n\n        for (uint256 index = 0; index < timestamps.length; index++) {\n            uint256 dayTimestamp = _getDayTimestamp(timestamps[index]);\n            if (challenge.dayTimestampIsCompletes[dayTimestamp] == true) {\n                continue;\n            }\n            require(dayTimestamp >= challenge.startDayTimestamp, \"must greater than challenge's startDayTimestamp\");\n            require(dayTimestamp < challenge.startDayTimestamp.add(challenge.totalDays), \"must less than challenge's endDay\");\n\n            uint256 nowDayTimestamp = _getDayTimestamp(now);\n            require(dayTimestamp <= nowDayTimestamp, \"must less than now's dayTimestamp\");\n\n            uint256 fromDayTimestamp = nowDayTimestamp.sub(group.maxDelayDays);\n            require(dayTimestamp >= fromDayTimestamp, \"must greater than now - challenge.maxDelayDays\");\n\n            challenge.completeDays++;\n            challenge.dayTimestampIsCompletes[dayTimestamp] = true;\n        }\n    }\n\n    /**\n     * @dev finish challenge. Anyone can help finish any challenge.\n     */\n    function finishChallenge(string _groupId, address _who) public {\n        Challenge storage challenge = _getChallenge(_groupId, _who);\n        uint256 nowDayTimestamp = _getDayTimestamp(now);\n        require(nowDayTimestamp >= challenge.startDayTimestamp.add(challenge.totalDays), \"must greater than challenge's EndDay\");\n\n        ChallengeStatus status;\n        if (challenge.completeDays >= challenge.targetDays) {\n            status = ChallengeStatus.Succeeded;\n\n            // set challenger's amount\n            uint256 amount = challenge.amount;\n\n            // add all sponsors' amount to amount\n            for (uint i = 0; i < challenge.sponsorSize; i++) {\n                amount.add(challenge.sponsors[i].amount);\n            }\n\n            _who.transfer(amount);\n\n            succeededChallenges[_groupId].push(challenge);\n        } else {\n            ChallengeGroup memory group = _getChallengeGroup(_groupId);\n            require(nowDayTimestamp >= challenge.startDayTimestamp.add(challenge.totalDays).add(group.maxDelayDays), \"must greater than challenge's EndDay + group's maxDelayDays\");\n\n            status = ChallengeStatus.Failed;\n            _handleFailedChallenge(_who, challenge);\n        }\n\n        emit FinishChallenge(_who, uint8(status), challenge.targetDays, challenge.totalDays, challenge.completeDays, challenge.amount);\n        delete challenges[_groupId][_who];\n    }\n\n    /**\n     * @dev abort challenge. Only yourself can give up the challenge.\n     */\n    function abortChallenge(string _groupId) public {\n        Challenge storage challenge = _getChallenge(_groupId, msg.sender);\n        _handleFailedChallenge(msg.sender, challenge);\n\n        emit FinishChallenge(msg.sender, uint8(ChallengeStatus.Aborted), challenge.targetDays, challenge.totalDays, challenge.completeDays, challenge.amount);\n        delete challenges[_groupId][msg.sender];\n    }\n\n    /**\n     * @dev sponsor specific one challenge.\n     */\n    function sponsorChallenge(string _groupId, address _who, string comment) public payable {\n        require(msg.value >= _getChallengeGroup(_groupId).minAmount, \"sponsor value must greater than group.minAmount\");\n\n        Challenge storage challenge = _getChallenge(_groupId, _who);\n        challenge.sponsors[challenge.sponsorSize] = Sponsor(msg.sender, msg.value, comment);\n        challenge.sponsorSize++;\n    }\n\n    /**\n     * @dev withdraw the balance of owner. Only contract owner can withdraw.\n     */\n    function ownerWithdraw() public onlyOwner {\n        msg.sender.transfer(ownerBalance);\n        ownerBalance = 0;\n    }\n\n    /**\n     * @dev withdraw the balance of challenge group. Only group owner can withdraw.\n     */\n    function groupWithdraw(string _groupId) public {\n        ChallengeGroup storage group = challengeGroups[_groupId];\n        require(msg.sender == group.owner, \"only group owner can work\");\n        msg.sender.transfer(group.balance);\n        group.balance = 0;\n    }\n\n    /**\n     * @dev withdraw the balance of user.\n     */\n    function userWithdraw() public {\n        require(userBalances[msg.sender] > 0, \"must greater than 0\");\n\n        msg.sender.transfer(userBalances[msg.sender]);\n        userBalances[msg.sender] = 0;\n    }\n\n    /**\n     * @dev compute dayTimestamp from timestamp.\n     * @param _timestamp timestamp\n     * @return dayTimestamp\n     */\n    function _getDayTimestamp(uint256 _timestamp) private pure returns (uint256) {\n        return _timestamp / DayTimestamp;\n    }\n\n    /**\n     * @dev get challenge group if exists\n     */\n    function _getChallengeGroup(string _id) private view returns (ChallengeGroup) {\n        ChallengeGroup memory group = challengeGroups[_id];\n        require(group.minDays > 0, \"group doesn't exist\");\n\n        return group;\n    }\n\n    /**\n     * @dev get in-progess challenge if exists\n     */\n    function _getChallenge(string _groupId, address _challengeOwner) private view returns (Challenge storage) {\n        Challenge storage challenge = challenges[_groupId][_challengeOwner];\n        require(challenge.totalDays > 0, \"challenge doesn't exist\");\n\n        return challenge;\n    }\n\n    /**\n     * @dev transfer money to the below:\n     * 20% of challenger's amount to the first winner on succeededChallenges\n     * 20% of challenger's amount to challenge group owner\n     * 10% of challenger's amount back to original challenger\n     * 50% of challenger's add to balance of contract owner\n     * 100% refund to sponsors\n     */\n    function _handleFailedChallenge(address who, Challenge storage challenge) private {\n        ChallengeGroup storage group = challengeGroups[challenge.groupId];\n\n        // transfer to the first winner whose amount is greater than challenger's\n        uint256 toFirstWinnerAmount = _addAmountToFirstWinner(challenge);\n\n        // add amount to the balance of group\n        uint256 toGroupOwnerAmount = challenge.amount.div(10).mul(2).add(group.balance);\n        group.balance = toGroupOwnerAmount;\n\n        // transfer back to challenger\n        uint256 toChallengerAmount = challenge.amount.div(10);\n        who.transfer(toChallengerAmount);\n\n        // add amount to balance of contract owner\n        uint256 toOwnerAmount = challenge.amount.sub(toFirstWinnerAmount).sub(toGroupOwnerAmount).sub(toChallengerAmount);\n        ownerBalance.add(toOwnerAmount);\n\n        // add amount to sponsors' balances\n        for (uint256 index = 0; index < challenge.sponsorSize; index++) {\n            Sponsor memory sponsor = challenge.sponsors[index];\n            userBalances[sponsor.who].add(sponsor.amount);\n        }\n    }\n\n    /**\n     * @dev add the profit-sharing amount to the first winner whose amount is greater and equal than challenger's\n     */\n    function _addAmountToFirstWinner(Challenge storage challenge) private returns (uint256) {\n        uint256 toFirstWinnerAmount = 0;\n        uint256 noZeroAmountIndex = 0;\n\n        Challenge[] memory _challenges = succeededChallenges[challenge.groupId];\n        for (uint256 index = succeededChallengesStartIndex; index < _challenges.length; index++) {\n            Challenge memory succeededChallenge = _challenges[index];\n\n            if (noZeroAmountIndex == 0 && succeededChallenge.amount > 0) {\n                noZeroAmountIndex = index;\n            }\n\n            if (succeededChallenge.amount >= challenge.amount) {\n                toFirstWinnerAmount = challenge.amount.div(10).mul(2);\n\n                delete succeededChallenges[challenge.groupId][index];\n\n                userBalances[succeededChallenge.who] = toFirstWinnerAmount.add(userBalances[succeededChallenge.who]);\n                emit ProfitSharing(succeededChallenge.who, challenge.who, challenge.groupId, toFirstWinnerAmount);\n\n                break;\n            }\n        }\n        if (noZeroAmountIndex != 0) {\n            succeededChallengesStartIndex = noZeroAmountIndex;\n        }\n\n        return toFirstWinnerAmount;\n    }\n}\n",
  "sourcePath": "/Users/shiacruz/Desktop/projects/dapp/CoinChallenges/contracts/CoinChallenges.sol",
  "compiler": {
    "name": "solc",
    "version": "0.4.24+commit.e67f0147.Emscripten.clang"
  },
  "schemaVersion": "2.0.1",
  "updatedAt": "2018-12-09T05:51:51.630Z"
}